:020000040800F2
:10000000F00B002005020008131800081F17000855
:10001000111800089D0C0008AD1900080000000030
:100020000000000000000000000000001718000899
:100030009F0C00080000000015180008191800089F
:100040001F0200081F0200081F0200081F0200080C
:100050001F0200081F0200081F0200081F020008FC
:100060001F0200081F0200081F0200081F020008EC
:100070001F0200081F0200081F0200081F020008DC
:100080001F0200081F0200081F0200081F020008CC
:100090001F0200081F0200081F0200081F020008BC
:1000A0001F0200081F0200081F0200081F020008AC
:1000B0001F0200081F0200081F0200081F0200089C
:1000C0001F0200081F0200081F0200081F0200088C
:1000D0001F0200081F0200081F0200081F0200087C
:1000E0001F0200081F0200081F0200081F0200086C
:1000F0001F0200081F0200081F0200081F0200085C
:100100001F0200081F0200081F0200081F0200084B
:100110001F0200081F0200081F0200081F0200083B
:100120001F0200081F0200081F0200081F0200082B
:1001300000F002F800F057F80AA090E8000C8244A2
:100140008344AAF10107DA4501D100F04CF8AFF27F
:10015000090EBAE80F0013F0010F18BFFB1A43F0A5
:100160000103184730190000501900000A4410F824
:10017000014B14F00F0508BF10F8015B240908BFFC
:1001800010F8014B6D1E05D010F8013B6D1E01F8F3
:10019000013BF9D1641E03D0641E01F8015BFBD161
:1001A0009142E4D37047000000230024002500267C
:1001B000103A28BF78C1FBD8520728BF30C148BFCA
:1001C0000B607047732900F01481002070471FB541
:1001D0009DE8030000F034FB00F026F91FBD10B5C8
:1001E00000F08BF910BD00F0EEF91146FFF7EFFFBC
:1001F00001F0FAFB00F0F2FA03B4FFF7F0FF03BCE2
:1002000000F0B0FC0948804709480047FEE7FEE7D8
:10021000FEE7FEE7FEE7FEE7FEE7FEE7FEE7FEE7B6
:1002200004480549054A064B704700007B18000842
:1002300031010008F0050020F00B0020F00700203D
:10024000F00700200FB4044910B503AA029800F08B
:10025000D5F810BC5DF814FBE80400200FB41CB501
:10026000074B06AA7B4469460090059800F097F872
:100270000020694600F0A6F81CBC5DF814FB0000E5
:100280005D0100002DE9F0410E4604460020206289
:100290002046E168884730B3252805D0D4E90121FC
:1002A0009047206A401CF2E7E16820460027884713
:1002B000050018D0A5F14100192802D820354FF4C7
:1002C00000673246294620462760FFF77BFF40B192
:1002D000012804D0F61D26F007060836D8E7361D9B
:1002E000D6E72846DAE7206ABDE8F08170B50C460B
:1002F0000546012A05D02878800600D5EA69002342
:1003000002E0012305E05B1C934202D2E05C00287E
:10031000F9D1A869E618C01AA861286A18442862A9
:100320002846AFF3008004E0D5E9012114F8010B61
:100330009047B442F8D32846AFF3008070BD4FF029
:10034000000200B5134694469646203922BFA0E825
:100350000C50A0E80C50B1F12001BFF4F7AF090731
:1003600028BFA0E80C5048BF0CC05DF804EB890022
:1003700028BF40F8042B08BF704748BF20F8022B65
:1003800011F0804F18BF00F8012B7047704770477D
:100390007047000001694A1C02610878704700B587
:1003A0008FB0CDE901310021059105497944CDE9AE
:1003B000031011466846FFF765FF0FB000BD00004F
:1003C000E5FFFFFF0A6802F8010B0A60704710B5ED
:1003D000436913B1AFF3008001E0FFF787FF01200D
:1003E00010BD127800F124010A7000224A70012227
:1003F000EDE711684FF0FF32E9E70000074B70B5F9
:100400000D467B44FFF7CBFF0446284600F008F872
:1004100010B14FF0FF3070BD204670BDCB1500000D
:10042000007B00F08000704710B542485421FFF770
:1004300086FF41485421FFF782FF40485421FFF7CF
:100440007EFF3F493B483C4A3F4B08603D490A60BC
:100450003A491960531C0365481C10650120086562
:100460003B48344A39A1784400F01CF920B9384897
:1004700078440A3800F0BBF937482F4A35A1784450
:1004800000F010F920B9344878440A3800F0AFF988
:1004900032482A4A2FA1784400F004F920B92F48A5
:1004A00078440A3800F0A3F940232248DC000021F8
:1004B000224600F0D4F820B125487844543800F0A2
:1004C00096F91D4822464023002100F0C8F820B1CB
:1004D00021487844543800F08AF9184822461023FD
:1004E000002100F0BCF8002806D01C487844BDE884
:1004F0001040563800F07BB910BD104870B5006D43
:1005000020F001040B4800F043F90B4800F040F9DB
:100510000A4800F03DF909E0206D20F00105204671
:1005200000F036F9204600F073F82C46002CF3D189
:1005300070BD000094040020E80400203C05002069
:10054000F8030020FC0300200004002072000000DB
:100550001C1600007700000008160000F4150000CB
:100560000EB5CDE9000100F0DDFA029069460120E8
:10057000ABBE0EBD08B5694600900220ABBE08BDFB
:100580001FB58DE8070069460520ABBE04B010BD5D
:100590001FB58DE80F0069460620ABBEF6E708B52B
:1005A000694600900920ABBE08BD1CB5CDE900012D
:1005B00069460A20ABBE1CBD704708B5694600906D
:1005C0000C20ABBE08BD754600F018F9AE4605001C
:1005D0006946534620F00700854618B020B5FFF75E
:1005E0001FFEBDE820404FF000064FF000074FF01F
:1005F00000084FF0000B21F00701AC46ACE8C00941
:10060000ACE8C009ACE8C009ACE8C0098D46704749
:1006100070B50446051F00F0F7F80068002C14BF01
:10062000446870BD002C18BFAC423CBF20466468D3
:10063000F8D301680A18AA4218BF456003D12A6896
:1006400005461144016028684119A1421CBF6C6035
:1006500070BD6168696021680844286070BD70B52C
:10066000C468A50713D0650211D4B2F5807F09D004
:10067000B2F5007F06D0B2F5806F08D1012300F1FA
:10068000240106E05D1E6FF07F46B54201D30120D4
:1006900070BD0161C361416024F470611143C160A8
:1006A000002070BD2DE9F0410C4607461646104665
:1006B00000F06EF82078611C61280AD0722802D000
:1006C00077283CD102E00125002405E0022504241E
:1006D00002E0082448F2020511F8010B2B2806D08D
:1006E000622809D011F8010C74280AD00BE045F0FB
:1006F000030544F00204EFE745F0040544F001046B
:10070000EAE744F0100438462146FFF729FF411C70
:1007100015D00021316171604FF40071F560F16115
:100720007061200704D530460222002100F0E6F86F
:10073000306D40F0010030653046BDE8F0810020AA
:10074000FBE72DE9F0410D460646104C206DC10730
:1007500004D0410804D020F00104F7E722460EE05F
:10076000542000F09CF807000ED0206D47F00101E6
:100770000843542120653846FFF7E1FD3A462946F3
:100780003046BDE8F0418DE70020D6E79404002014
:100790002DE9F04704464FF000094FF0FF37C568D8
:1007A000D4E90486A80707D0204600F057F9304660
:1007B000FFF7E0FE002802DA3846BDE8F08728059A
:1007C00002D54046FFF724FF4C212046FFF7B7FD36
:1007D000206D20F0010020654846EEE710B5044684
:1007E000AFF300802046BDE81040FFF705BD10B50F
:1007F00000F07EF9BDE8104000F074B90048704781
:1008000090050020704700000048704798050020C0
:10081000704770477047704738B504460A46002055
:100820006946AFF30080002808BF38BD0246009932
:10083000204600F0A4F9012038BD012000F0F3B9F2
:10084000F8B5AFF30080054600200C46102000BF2D
:100850000646A819A0420DD9324669460020AFF3DA
:100860000080070008BF00F0DEF90098A04218BF22
:100870000546C419FFF7C8FF05600746F01D20F0C4
:1008800007004619284600F073F9B44208BFF8BDC6
:10089000A21B31463868BDE8F84000F070B970B569
:1008A0000646FFF7B1FF056806F10B0020F00704CC
:1008B000B4429CBF002070BD2B466A68BAB1106874
:1008C000A04210D304F1080188423CBF5068586030
:1008D00007D35168101941601168091B0160586005
:1008E0001460101D70BD13465268002AE7D12146DE
:1008F0002846FFF791FF0028DED170BD2DE9F041B9
:10090000044616460D464769007B80072ED03846C0
:10091000FFF745FE50BB3EB3012E02D0022E25D17B
:1009200004E0204600F045F905441DE03846FFF795
:1009300044FEE168002841F01001E16005DA20463C
:1009400000F058F80120BDE8F081C9030BD56268BA
:10095000E16A914200D81146A26911442269891ABC
:10096000814200DD08460544002D01DA0220EAE755
:10097000E16A6068E268814206D29103E06203D5D1
:1009800022F4003141F01002A6690027AE4213DCC8
:10099000E16A814201D90B4600E0034603EB060CF5
:1009A0002369ACEB030CAC4506DD814201D98C46D2
:1009B00000E084469C4505D1A760276042F02000F6
:1009C000A5620DE0AD1BE669AE1B8142A66000D9B1
:1009D0000846C01A281A20605819606022F02000CA
:1009E00003490840E060002084F84870ABE700004D
:1009F000BFCFD7FFC16821F4001141F08001C16071
:100A000000218160016070472DE9F047814614465E
:100A10000E464FF0FF383248D5685769054209D075
:100A20003846A169FFF7C1FD002811DB2C48C043FF
:100A30000540E5602B46324649463846FFF7A0FDA3
:100A4000A16920F00042B21A11440028A16103D02C
:100A50002046FFF7CFFF4046BDE8F08770B504465B
:100A60000569C06A6168884200D80846E16821F4D7
:100A70002011E160C90312D5A84208D02246411BCB
:100A80002846FFF7C1FF10B14FF0FF3070BD0020C6
:100A9000E562C4E90150E06820F48030E0600020A5
:100AA00070BD10B50446C06820F02000E060A16A67
:100AB000A06988420DD02046FFF7D0FFE06820F4FF
:100AC000405040F01000E060A06AA0612069E06240
:100AD000606044F24001E0688843E06010BD0000BF
:100AE00010000200002801D000F03CB87047000060
:100AF00010B5014602A000F07DF8012010BD0000F5
:100B000053494752545245443A20526564697265CC
:100B100063743A2063616E2774206F70656E3A20AB
:100B20000000000010B5431C02E010F8011B71B179
:100B30008107FAD14FF0013202C88C1A8C4314EAB3
:100B4000C211F9D0C01A0A0603D0C01E10BDC01AC7
:100B500010BD0A0401D0801E10BD0902FCD0401E49
:100B600010BD000001491820ABBEFEE726000200C0
:100B700000210160C0E90110704710207047034652
:100B800040688C46002818BF88423CBF0346406836
:100B9000F8D318681844884207D00CF1030020F0FD
:100BA0000700001D411A521A0146081D0A60FFF78E
:100BB0002FBD10B50146C268900703D0900607D537
:100BC000886A0AE000F03EF801210160881E10BD2D
:100BD0008B69486818440B69C01A91F848301BB1FA
:100BE00091F84910401A10BD1103FCD50028FADD18
:100BF000401E10BD70B505460C460A2000E06D1C75
:100C000000F018F835B128780028F8D102E0641C0B
:100C100000F010F814B120780028F8D1BDE8704039
:100C20000A2000F007B810B500F010F8BDE8104039
:100C3000FFF758BF08B569468DF800000320ABBE2A
:100C400008BD0000004870479005002010B501283D
:100C500005D0002103A0FFF7CDFF012010BD09A1A1
:100C6000F8E7000053494752544D454D3A204F751F
:100C700074206F662068656170206D656D6F727994
:100C8000000000003A2048656170206D656D6F724C
:100C90007920636F7272757074656400FEE7704747
:100CA00072B6FEE72DE9F84FDFF8C8910024A9F1EC
:100CB000040B23460F2709F1040AABF1040ED1E01F
:100CC0000125A54006EA0502AA4276D1DFF8A8C1AF
:100CD0004E68A6EB0C0866452BD00DDC032E34D0F5
:100CE00005DC36B3012E19D0022E2FD11BE0112EB8
:100CF00016D0122E2AD119E0B8F5881F19D006DCBB
:100D0000B8F5803F15D0B8F5801F1FD111E0B8F5B8
:100D1000001F0ED0B8F5041F18D10AE0CB6815E00B
:100D2000CB681B1D12E0CB6808330FE0CB680C3397
:100D30000CE08B682BB1012B4FF0080303D0456109
:100D400004E0042302E0056100E00023FF2A01D84B
:100D5000064601E000F104064FEA840501D9A5F139
:100D60002005D6F8008007FA05FC28EA0C0803FAEB
:100D700005F548EA0508C6F800804D68ED0070D515
:100D80003E4DAE6946F00106AE61AD6924F0030642
:100D900005F0010500953A4D06EB050CDCF808500E
:100DA000A607360F07FA06F825EA0805DFF8D4800B
:100DB000404503D14FF0000825E052E0DFF8C8803D
:100DC000404502D14FF001081DE0DFF8C0804045EA
:100DD00002D14FF0020816E0DFF8B480404502D19E
:100DE0004FF003080FE0DFF8AC80404502D14FF030
:100DF000040808E0DFF8A080404502D14FF0050864
:100E000001E04FF0060808FA06F848EA0508CCF8B1
:100E100008804D68D9F80060ED024D4601D51643B3
:100E200000E096432E604D68DAF80060AD0255464A
:100E300001D5164300E096432E604D68DBF8006054
:100E4000AD035D4601D5164300E096432E604D6824
:100E5000DEF80060ED03754601D5164300E09643C9
:100E60002E60641C0A681646E2407FF429AFBDE894
:100E7000F88F00000804014000001110001002402B
:100E80000000014000080140000C0140001001403A
:100E90000014014000180140001C01400AB101612A
:100EA00070470904FBE700000148806870470000B4
:100EB000E80300200248816802781144816070478D
:100EC000E8030020074810B5016841F010010160F7
:100ED000032000F067F80F2000F006F800F024F877
:100EE000002010BD0020024070B50D4D04464FF4A7
:100EF0007A712878B1FBF0F00A490968B1FBF0F08B
:100F000000F0CEFA48B9102C07D200222146501E1C
:100F100000F028F800206C6070BD012070BD00005A
:100F2000E8030020F40300200C4808B5816941F073
:100F300001018161816901F001010091C16941F004
:100F40008051C161C06900F0805000900448416840
:100F500021F0E06141F00071416008BD00100240E5
:100F600000000140F0B40E4B1B680C46C3F3022393
:100F7000C3F10705042D00D90425191D072901D245
:100F8000002300E0DB1E012606FA05F1491E214080
:100F900099409E40761E16403143F0BC00F007BDDC
:100FA0000CED00E0064900F0070208684FF6FF0369
:100FB000184040EA0220034A1043086070470000CE
:100FC0000CED00E00000FA052DE9F0470F460500A2
:100FD00061D0434E306800F00700B84209D2306853
:100FE00020F0070038433060306800F00700B84256
:100FF00051D128683B4C810712D5400703D5606862
:1010000040F4E06060602878000703D5606840F431
:10101000605060606068A96820F0F000084360607C
:101020002878C00728D06868012810D021680228D5
:1010300010D0890700292EDA616821F003010143ED
:101040006160FFF731FF804641F288390DE0216889
:101050008903EFE78901EDE7FFF726FFA0EB080121
:10106000494502D90320BDE8F0876068696800F04F
:101070000C00B0EB810FEFD1306800F00700B842F0
:101080000BD9306820F0070038433060306800F03A
:101090000700B84201D00120E5E72878400705D5D0
:1010A0006068E96820F4E060084360602878000721
:1010B00006D56068296920F4605040EAC10060608C
:1010C00000F038F86168084AC1F30311515CC84068
:1010D0000649086006480068FFF706FF0020C2E7DF
:1010E00000200240001002406E1A0008F4030020A5
:1010F000EC0300200448054900684968044AC1F32C
:101100000221515CC8407047F403002000100240E7
:101110007E1A00080448054900684968044AC1F37A
:10112000C221515CC8407047F40300200010024007
:101130007E1A00080E4A51680E4801F00C03042B79
:1011400011D0082B0FD10C48C1F38343C903C05CF5
:101150000AD55168084AC1F34041921E515C054AC4
:101160005043B0FBF1F0704704494843704700001A
:101170000010024000127A005E1A000800093D00CB
:101180002DE9F84F040070D02078C04DC00749D039
:101190006868C0F38100012807D06868C0F3810047
:1011A000022809D16868C00306D52868800339D5AC
:1011B00060680028E7D035E06068B0F5803F0BD06C
:1011C00010B1B0F5A02F11D0286820F4803028602D
:1011D000286820F4802002E0286840F480302860ED
:1011E000606890B1FFF760FE06460AE0286840F4A8
:1011F00080202860F0E700BFFFF756FE801B6428C0
:1012000073D828688003F7D50CE0FFF74DFE06463B
:1012100005E000BFFFF748FE801B6428F0D828686F
:101220008003F7D420789A4E80074FF001094FF0E1
:10123000000839D5686810F00C0F07D06868C0F353
:101240008100022809D16868C00306D42868800795
:1012500014D52069012808D110E02069B0B1C6F882
:101260000090FFF721FE074605E00AE1FFF71CFEAC
:10127000C01B0228C4D828688007F7D52868616990
:1012800020F0F80040EAC10028600DE0C6F80080B8
:10129000FFF70AFE074604E0FFF706FEC01B022820
:1012A00023D828688007F7D4207800072CD5794800
:1012B000A169D9B1C0F80090FFF7F6FD074604E038
:1012C000FFF7F2FDC01B02280FD8686A8007F7D528
:1012D00071484FF4FA510068B0FBF1F0009000BF84
:1012E0000098411E0091FAD20EE080E0C0F8008024
:1012F000FFF7DAFD074604E0FFF7D6FDC01B022822
:1013000075D8686A8007F7D42078400760D5E86907
:101310000027C00008D4E86940F08050E861E8691F
:10132000012700F0805000905C480168C90513D483
:101330000168834641F480710160FFF7B5FD824684
:1013400006E000BFFFF7B0FDA0EB0A0064284ED80E
:10135000DBF80000C005F5D5E06801280AD008B127
:10136000052813D0286A20F001002862286A20F09E
:10137000040002E0286A40F001002862E06841F2BF
:10138000883B98B1FFF790FD82460BE0286A40F059
:1013900004002862EEE700BFFFF786FDA0EB0A011C
:1013A00059455AD8286A8007F6D50CE0FFF77CFD2E
:1013B000824605E0FFF778FDA0EB0A0159454CD8BD
:1013C000286A8007F6D41FB1E86920F08050E861F0
:1013D000E06988B36968C1F38101022944D0022819
:1013E000C6F8608004D0FFF75FFD044638E034E0C3
:1013F000FFF75AFD074604E0FFF756FDC01B022821
:101400002BD828688001F7D4206AB0F5803F05D139
:101410006868A16820F4003008436860D4E90801D6
:101420000843696821F4741108436860C6F8609045
:10143000FFF73AFD044606E025E000BFFFF734FD64
:10144000001B022809D828688001F7D51BE000BFDF
:10145000FFF72AFD001B022802D90320BDE8F88F00
:1014600028688001F4D40EE00128F7D06868226A69
:1014700000F48031914204D1616A00F47010884216
:1014800001D00120EAE70020E8E700000010024058
:101490000000424280044242F403002000700040F9
:1014A00010B5401EB0F1807F01D3012010BD4FF078
:1014B000E02460610F21601700F079FA0020A0613C
:1014C00007202061002010BD70B5040004D094F8FE
:1014D0004100002510B106E0012070BD84F84050A5
:1014E000204600F023F8242084F841002068C168D9
:1014F00021F40051C160204600F0C0F92068016964
:1015000021F4904101612068416921F02A01416183
:101510002068C16841F40051C1606564202084F8EE
:10152000410084F842006563002070BD70B586B04C
:1015300000240094019402940394234E03682349E9
:1015400002200322224DB34219D18B6943F4804318
:101550008B618B6903F4804304938B6943F004032C
:101560008B618969039201F0040104910102CDE9C4
:10157000001069462846FFF795FB28151BE0154E1D
:10158000B3421FD1CB6943F40033CB61CB6903F481
:10159000003304938B6943F004038B6189690392E0
:1015A00001F0040104910421CDE9001069462846A8
:1015B000FFF778FB0820CDE900046946284602942D
:1015C000FFF770FB06B070BD00380140001002400C
:1015D00000080140004400402DE9F843044690F81B
:1015E0004200994616460D46202802D00220BDE84A
:1015F000F883ADB1A6B100206064222184F84210C6
:101600002063FFF751FCA6858046E685A0684FF46D
:101610008057B84201D1206920B12E46002526E02E
:101620000120E4E7002622E0434600222021204654
:10163000CDF8009000F07EF908B10320D7E726B17D
:10164000A068B8421BD038B108E020684068C0F3F9
:10165000080025F8020B07E0206980B12068406887
:1016600000F07F0006F8010BE08D401EE085E08D64
:101670000028D9D1202084F842000020B7E7206854
:101680004068EFE72DE9F843044690F841001F4613
:1016900016460D46202802D00220BDE8F8837DB111
:1016A00076B100206064212084F84100FFF7FCFB44
:1016B000A6848046E684A068B0F5805F02D003E08F
:1016C0000120EAE7206910B12E4600250EE0002631
:1016D0000CE08021204600F02DF9A0B9AEB116F83B
:1016E000010B21684860E08C401EE084E08C43469A
:1016F0004FF0000200970028EBD14FF04001204648
:1017000000F018F930B10320C7E735F8020BC0F339
:101710000800E6E7202084F841000020BDE7FEE74E
:10172000F0B585B000200090019002900390194818
:10173000816941F020018161816901F020010491FA
:10174000816941F0040181618069012200F0040097
:10175000114E1402049021463046FFF79FFB0F4FB5
:10176000012204213846FFF799FB00940124032548
:10177000694630460194CDE90245FFF793FA04200B
:10178000CDE9000469463846CDE90245FFF78AFAFB
:1017900005B0F0BD001002400008014000140140F7
:1017A0000C4810B50A4901604FF4E1314160002155
:1017B00081600C22C160C0E904128161C161FFF740
:1017C00083FE002803D0BDE81040FFF769BA10BDC2
:1017D00000380140040400200C4810B50A4901609B
:1017E0004FF4E1314160002181600C22C160C0E909
:1017F00004128161C161FFF767FE002803D0BDE8D4
:101800001040FFF74DBA10BD004400404C040020CA
:10181000FEE7FEE770477047FFF74CBB30B58FB06F
:1018200028216846FEF78BFD14210AA8FEF787FDE4
:1018300001210804CDE9001000240294022504913E
:10184000CDE907504FF4E01009906846FFF798FC87
:1018500008B172B6FEE70F20CDE90A054FF48060AB
:10186000CDE90C4002210AA80E94FFF7ADFB002839
:1018700001D072B6FEE70FB030BD704770B50446B8
:1018800000680169E26821F4405111430161216956
:10189000A0680843616908432168CA6841F20C6383
:1018A0009A430243CA6020684169A26921F44071E9
:1018B000114341611E492068884202D1FFF72AFC8A
:1018C00001E0FFF717FC00EBC00101EB00126068BC
:1018D00064218000B2FBF0F3B3FBF1F36FF0180664
:1018E0007343B2FBF0F5B2FBF0F605EB8305322350
:1018F00003EB0515B5FBF1F5B6FBF1F605F0F005C8
:1019000005EB0615B2FBF0F6B2FBF0F0B0FBF1F020
:101910006FF01802504306EB800003EB0010B0FBA1
:10192000F1F0216800F00F002844886070BD0000CD
:10193000003801402DE9F041984617460E4604460E
:10194000069D27E0681C25D02DB1FFF7ADFAA0EB6E
:101950000800A8421ED920680C3050E8001F21F46E
:10196000D07140E80012002AF5D12068143050E808
:10197000001F21F0010140E80012002AF5D12020CB
:1019800084F8410084F84200002084F840000320DD
:10199000BDE8F0812068006836EA000004D000202D
:1019A000B842CFD00020F3E70120F9E7FEE70907AE
:1019B000090E002804DB00F1E02080F800147047D5
:1019C00000F00F0000F1E02080F8141D70470000C7
:1019D00013B540F6FF73012269460248FFF752FE35
:1019E00000981CBD04040020FFF76CFAFFF716FFF7
:1019F000FFF796FEFFF7D4FEFFF7EEFE40F2FF344E
:101A00004FF47A750B490CA0FEF71CFC0DA1094898
:101A1000FEF724FC23462A4606490B48FFF7DCFD67
:101A200004490AA0FEF70EFC06A10248FEF716FCC8
:101A3000E8E700000000002053746172743A20252A
:101A4000730A000000000000040400205265636572
:101A50006976653A2025730A00000000010202033E
:101A60000405060708090A0B0C0D0E0F10100000E4
:101A7000000000000000010203040607080900003E
:101A80000000010203043A7474003A7474003A745A
:101A900074000000B41A00080000002004040000D4
:101AA0006C010008D41A000804040020EC070000B0
:101AB000A80100080010FF68656C6C6F2C797A6EC5
:101AC000752121210D0A01FF01FF01E04201921061
:041AD000E324F40017
:0400000508000131BD
:00000001FF
