:020000040800F2
:10000000C80C00209101000833200008611A000884
:10001000312000088F0900081D270008000000009B
:10002000000000000000000000000000492500085A
:100030009109000800000000692400084B25000811
:10004000AB010008AB010008AB010008AB010008E0
:10005000AB010008AB010008AB010008AB010008D0
:10006000AB010008AB010008AB010008AB010008C0
:10007000AB010008AB010008AB010008AB010008B0
:10008000AB010008AB010008AB010008AB010008A0
:10009000AB010008AB010008AB010008AB01000890
:1000A000AB010008AB010008AB010008AB01000880
:1000B000AB010008AB010008AB010008AB01000870
:1000C000AB010008AB010008AB010008AB01000860
:1000D000AB010008AB010008AB010008AB01000850
:1000E000AB010008AB010008AB01000800F002F80A
:1000F00000F03FF80AA090E8000C82448344AAF183
:100100000107DA4501D100F034F8AFF2090EBAE880
:100110000F0013F0010F18BFFB1A43F0010318473B
:10012000D03C0000F03C0000103A24BF78C878C1F1
:10013000FAD8520724BF30C830C144BF04680C60ED
:10014000704700000023002400250026103A28BF35
:1001500078C1FBD8520728BF30C148BF0B60704739
:10016000642900F07180002070471FB51FBD10B5D5
:1001700010BD00F0D3FB1146FFF7F7FF02F0F8FACD
:1001800000F0F1FB03B4FFF7F2FF03BC00F0F8FB53
:100190000948804709480047FEE7FEE7FEE7FEE71B
:1001A000FEE7FEE7FEE7FEE7FEE7FEE70448054957
:1001B000054A064B70470000CF250008ED000008F7
:1001C000C8060020C80C0020C8080020C80800206D
:1001D0000FB41CB5074B06AA7B44694600900598EE
:1001E00000F027FB0020694600F036FB1CBC5DF8E0
:1001F00014FB00007D06000070B5044685690068A8
:10020000C10601D5302600E02026C00707D070BD0A
:10021000D4E9012130469047206A401C20626D1EBF
:10022000F6D570BD70B5044685690078C00707D162
:1002300070BDD4E9012120209047206A401C206233
:100240006D1EF6D570BD00002DE9F0410646002474
:1002500010687529314616A510D0AFF3008000282C
:1002600002DA404213A507E031688A0701D512A5DA
:1002700002E0490704D511A5012401E0AFF3008095
:1002800000210A2206F1240709E0B0FBF2FCB0FBD2
:10029000F2F302FB1C00303078541846491C002849
:1002A000F3D123462A463046BDE8F04100F063BA58
:1002B000000000002D0000002B00000020000000C6
:1002C0002DE9F05F894604464FF0000ADFF824B1BB
:1002D000FB44C0F820A02046E168884700287DD074
:1002E000252806D0D4E901219047206A401C2062CD
:1002F000F1E700255F462046E1688847202806464A
:1003000007DB312E05D2B81910F8200C08B10543CF
:10031000F1E7A80701D525F00405C4F81CA00027C3
:10032000C4F818A02A2E09D0304602F008FA38B3D3
:1003300004EB8708303EC8F8186019E059F8041B30
:10034000204604EB87029161E1688847012F064649
:1003500018D1E069002820DA25F020051DE0D8F842
:10036000180000EB800006EB40003038C8F8180099
:100370002046E1688847064602F0E1F90028EED100
:10038000012F0AD02E2E08D12046E16888477F1C15
:100390000646022F45F02005C4DBA069002803DAD9
:1003A000404245F00105A061E80701D025F01005A5
:1003B000A6B1A6F14100192802D8203645F40065FF
:1003C0004A463146204625604D46FFF7C9FE60B1DA
:1003D000012807D0ED1D25F0070000E007E000F13F
:1003E000080978E705F1040975E730467AE7206ADD
:1003F000BDE8F09FFC3A000010B5431C02E010F885
:10040000011B71B18107FAD14FF0013202C88C1A79
:100410008C4314EAC211F9D0C01A0A0603D0C01ED8
:1004200010BDC01A10BD0A0401D0801E10BD090203
:10043000FCD0401E10BD032A40F2308010F0030CA7
:1004400000F0158011F8013BBCF1020F624498BF27
:1004500011F801CB00F8013B38BF11F8013BA2F1C4
:10046000040298BF00F801CB38BF00F8013B11F03F
:10047000030300F02580083AC0F0088051F8043BDF
:10048000083A51F804CBA0E80810F5E7121D5CBF4C
:1004900051F8043B40F8043BAFF30080D20724BF7F
:1004A00011F8013B11F801CB48BF11F8012B24BF13
:1004B00000F8013B00F801CB48BF00F8012B704762
:1004C00010B5203AC0F00B80B1E81850203AA0E8EF
:1004D0001850B1E81850A0E81850BFF4F5AF5FEA23
:1004E000027C24BFB1E81850A0E8185044BF18C9D6
:1004F00018C0BDE810405FEA827C24BF51F8043B7D
:1005000040F8043B08BF7047D20728BF31F8023BD0
:1005100048BF11F8012B28BF20F8023B48BF00F864
:10052000012B70474FF000020429C0F0128010F038
:10053000030C00F01B80CCF1040CBCF1020F18BFBF
:1005400000F8012BA8BF20F8022BA1EB0C0100F052
:100550000DB85FEAC17C24BF00F8012B00F8012B25
:1005600048BF00F8012B70474FF0000200B513465A
:1005700094469646203922BFA0E80C50A0E80C50C3
:10058000B1F12001BFF4F7AF090728BFA0E80C5074
:1005900048BF0CC05DF804EB890028BF40F8042B6D
:1005A00008BF704748BF20F8022B11F0804F18BFDA
:1005B00000F8012B70470000014900F053B900001A
:1005C0003806002010B503681C1404EB21449BB2CC
:1005D00089B2194494FBF2F302FB134394FBF2F447
:1005E00001EB034393FBF2F102FB113193FBF2F3B6
:1005F00001E05B1E11440029FBDB016003EB0440BA
:1006000010BDF0B504464FF0FF3585B0006804908A
:1006100060680290A0680390E068019020690090F3
:10062000666906F18040B0F1004F7CD83C22002181
:1006300004A8FFF7C7FF3C22014602A8FFF7C2FF4C
:100640001822014603A8FFF7BDFF411E40F2B55234
:1006500001A8FFF7B7FF0C22074668460021FFF705
:10066000B1FF414B00EB8700304400267B4411E092
:10067000511A01910099491C0229009102D00C29BC
:1006800008D105E0810705D00199491C019101E0DD
:10069000401C00960099019A595C9142E8DD00994E
:1006A000012906D11C2A04D1810702D00221CDE9FB
:1006B0000016A0F146018B293CD2DDE90061002241
:1006C00002E09F5C521C3944B242FADB012E02DD8B
:1006D000820700D0491E40F2B55340F26D16C21792
:1006E00000EB927292105A4300F0030303FB0622C0
:1006F00083070A4400D1521E039E02EB4203049F6B
:1007000006EBC303029EC3EB031306EB8303174EF2
:1007100033441E149BB2C6EB0616C3EB0313B6009C
:1007200007EB830300E005E006EB134666F31F4387
:10073000360C02D0284605B0F0BD80C4029E40C4ED
:10074000039E40C4019E761C44F80C6B009E44E955
:1007500002600720521C92FBF0F600FB162084E892
:1007600023001846E7E7000071370000A039CEFDEE
:100770007047704770472DE9F0470D4699469246FD
:10078000044600F124080168880604D5E06921F0D8
:100790001001216000E00120A84201DD471B00E0BC
:1007A0000027A1697A1902EB0900081AA0612078D4
:1007B000C00602D42046FFF71FFD002608E0D4E95A
:1007C00001211AF806009047206A401C761C20621E
:1007D0004E45F4DB2078C0060AD52046FFF70CFD15
:1007E00006E0D4E9012130209047206A401C2062B5
:1007F000381EA7F10107F4DC07E0D4E9012118F85D
:1008000005009047206A401C2062281EA5F10105C2
:10081000F3DC2046FFF706FD2078000602D5022013
:10082000BDE8F0870120FBE701694A1C02610878F6
:10083000704700B58FB0CDE9013100210591054920
:100840007944CDE9031011466846FFF739FD0FB032
:1008500000BD0000E5FFFFFF0A6802F8010B0A6017
:100860007047000070B50C46016800204A1C3ED05D
:100870003C22B1FBF2F302FB1313B1FBF2F1236054
:10088000B1FBF2F302FB1313B1FBF2F11822636028
:10089000B1FBF2F302FB1313B1FBF2F146F2E032CB
:1008A0000A440721A360B2FBF1F301FB132140F2DC
:1008B000B553B2FBF3F5A161B2FBF3F103FB1522D3
:1008C0008900B2F5B77F08D39B10521EB2FBF3F537
:1008D0002944B2FBF3F503FB15220F4BE261616182
:1008E00089077B440CD03B2A0AD3521C08E02C21F8
:1008F0002046FFF739FE0120E0600AE0521A401C52
:10090000195C9142FAD9521CC4E903204FF0FF3020
:100910002062204670BD0000FB340000754600F0E8
:100920002BF8AE4605006946534620F00700854681
:1009300018B020B5FFF73AFCBDE820404FF00006A4
:100940004FF000074FF000084FF0000B21F00701B7
:10095000AC46ACE8C009ACE8C009ACE8C009ACE8FA
:10096000C0098D46704710B50446AFF3008020469D
:10097000BDE81040FFF706BC004870476406002041
:1009800001491820ABBEFEE7260002007047FEE7D3
:10099000704772B6FEE7000070B5044600F004F937
:1009A0000546601C02D004480078044400F0FCF8BE
:1009B000401BA042FAD370BD000000202DE9F84F83
:1009C000DFF8B8910024A9F1040B23460F2709F1A1
:1009D000040AABF1040EC9E00125A5402A40AA4251
:1009E0007DD1674ED1F804C0ACEB0608B44532D0D7
:1009F00014DCBCF1030F3AD009DCBCF1000F2AD0A3
:100A0000BCF1010F1CD0BCF1020F31D11DE0BCF1D3
:100A1000110F17D0BCF1120F2AD119E0B8F5881FB9
:100A200019D006DCB8F5803F15D0B8F5801F1FD16E
:100A300011E0B8F5001F0ED0B8F5041F18D10AE078
:100A4000CB6815E0CB681B1D12E0CB6808330FE0C4
:100A5000CB680C330CE08B682BB1012B4FF00803F3
:100A600003D0456104E0042302E0056100E00023B7
:100A7000FF2A01D8064601E000F104064FEA84058A
:100A800001D9A5F12005D6F8008007FA05FC28EA6F
:100A90000C0803FA05F548EA0508C6F800804D6819
:100AA000ED0062D5374DAE6946F00106AE61AD6925
:100AB00024F0030605F001050095334D06EB050C07
:100AC000DCF80850A607360F07FA06F825EA0805ED
:100AD000DFF8B880404503D14FF0000817E044E04C
:100AE000DFF8AC80404502D14FF001080FE0DFF89D
:100AF000A480404502D14FF0020808E0DFF898805A
:100B0000404502D14FF0030801E04FF0040808FA15
:100B100006F848EA0508CCF808804D68D9F8006066
:100B2000ED024D4601D5164300E096432E604D6818
:100B3000DAF80060AD02554601D5164300E0964351
:100B40002E604D68DBF80060AD035D4601D51643AD
:100B500000E096432E604D68DEF80060ED037546B8
:100B600001D5164300E096432E60641C0D682A46AA
:100B7000E5407FF431AFBDE8F88F00000804014084
:100B80000000111000100240000001400008014068
:100B9000000C014000100140001401408068084032
:100BA00000D00120704700000148806870470000B5
:100BB0000000002070B5040025D094F83D00002509
:100BC00020B984F83C50204600F04EF9242084F8E7
:100BD0003D002068016821F0010101602068016882
:100BE00041F4004101602068016821F40041016086
:100BF00000F056FB4D4A6168914201D84C4900E033
:100C00004C49884201D2012070BD4B492368B0FB9A
:100C1000F1F15E6826F03F060E435E606368934222
:100C200006D94FF4967359434FF47A73B1FBF3F13D
:100C30002368491C1E6A26F03F0631431962616829
:100C4000914210D84900401EB0FBF1F2521CC2F391
:100C50000B02042A01D2042022E0B0FBF1F0401C78
:100C6000C0F30B001CE0A268F2B301EBC10303EB7D
:100C70000116431EB3FBF6F35B1C43F480431B05D4
:100C800049D092B301EBC10202EB0111401EB0FB4F
:100C9000F1F0401CC0F30B0040F4804040F40040F1
:100CA0002168CA694CF6FF739A431043C861D4E9BE
:100CB000071001432068026822F0C002114301605E
:100CC000D4E9030101432068826848F2FF339A4364
:100CD00011438160D4E9050108432168CA6822F004
:100CE000FF021043C86001E00EE016E020680168D2
:100CF00041F0010101602564202084F83D00256356
:100D000084F83E50002070BD01EB4106431EB3FB4A
:100D1000F6F35B1CB3E70120C2E701EB4101401E83
:100D2000B0FBF1F0401CC0F30B00B7E7A086010058
:100D300080841E0000093D0040420F002DE9F84F5D
:100D40001F4690468A460446DDF82890FFF72CFFA0
:100D5000054694F83D0020287FD1192301224049FF
:100D60002046009500F00EFF002876D194F83C0054
:100D7000012872D0012084F83C0020680168C9076E
:100D800003D1016841F0010101602068016821F48C
:100D900000610160212084F83D00102084F83E00AD
:100DA00000262664C4F824806785608D20852D4840
:100DB000E0622B464A465146204600F069FE90B953
:100DC000206841698069009036E02A4649462046FD
:100DD00000F07EFF50B1206C042804D12068016827
:100DE00041F4007101600120BDE8F88F606A21685C
:100DF00000780861606A401C6062618D491E6185EF
:100E0000218D491E89B2218522685369DB435B0726
:100E10000BD451B100781061606A401C6062608D33
:100E2000401E6085208D401E20852A46494620466A
:100E300000F07CFE0028CED1208D0028C5D154F8CA
:100E40003D0B016841F400710160202004F81E0987
:100E5000E67766770020C7E7FFE70220C4E70000D7
:100E6000020010000000FFFF10B586B000210091C5
:100E700001910291039100680F4988421AD10F4CE9
:100E8000A06940F00800A061A069694600F0080070
:100E90000490C02000901220019003200390084885
:100EA000FFF78CFDE06940F40010E061E06900F4B8
:100EB0000010049006B010BD005400400010024025
:100EC000000C01400248816802781144816070473B
:100ED00000000020074810B5016841F010010160D2
:100EE000032000F067F80F2000F006F800F024F867
:100EF000002010BD0020024070B50D4D04464FF497
:100F00007A712878B1FBF0F00A490968B1FBF0F07A
:100F100000F02DFC48B9102C07D200222146501EAB
:100F200000F028F800206C6070BD012070BD00004A
:100F3000000000200C0000200C4808B5816941F039
:100F400001018161816901F001010091C16941F0F4
:100F50008051C161C06900F0805000900448416830
:100F600021F0E06141F00071416008BD00100240D5
:100F700000000140F0B40E4B1B680C46C3F3022383
:100F8000C3F10705042D00D90425191D072901D235
:100F9000002300E0DB1E012606FA05F1491E214070
:100FA00099409E40761E16403143F0BC01F0B7BB1D
:100FB0000CED00E0064900F0070208684FF6FF0359
:100FC000184040EA0220034A1043086070470000BE
:100FD0000CED00E00000FA050149012008627047AD
:100FE00000000E4210B501460020234C012922D0FA
:100FF000022939D010291DD161682268D20119D582
:101000001E48C1F38342C903805C0AD561681B4A4C
:10101000C1F34041921E515C194AB2FBF1F14843C1
:1010200001E0184948436168490203D440000321A4
:10103000B0FBF1F010BD226AC2F30121012903D1F6
:10104000920701D5C80310BD022905D1626A920733
:1010500002D549F6404010BD0329FCD1216889031F
:10106000F9D54FF2244010BD00F02AF96168C1F3B0
:101070008131491C4900DBE700100240202A0008AA
:1010800000127A0000093D002DE9F843054600787A
:10109000354CC00754D0E0690026C00008D4E06990
:1010A00040F08050E061E069012600F0805000903F
:1010B0002E480168C90512D40168804641F4807148
:1010C0000160FFF771FD074605E000BFFFF76CFD0B
:1010D000C01B642823D8D8F80000C005F6D5206AC4
:1010E00010F4407021D0A98801F4407181421CD0D5
:1010F000206A1F49012220F440700A6000220A6021
:101100002062C00711D0FFF74FFD074641F2883833
:1011100008E000BFFFF748FDC11B414502D903208D
:10112000BDE8F883206A8007F4D5206A696820F456
:101130004070084320621EB1E06920F08050E061F9
:101140002878800705D56068A96820F440400843E6
:1011500060602878C00605D56068E96820F48000E2
:10116000084360600020DBE7001002400070004090
:10117000400442422DE9F0470F46050061D0434E3E
:10118000306800F00700B84209D2306820F007004C
:1011900038433060306800F00700B84251D1286809
:1011A0003B4C810712D5400703D5606840F4E060EE
:1011B00060602878000703D5606840F46050606084
:1011C0006068A96820F0F000084360602878C007D4
:1011D00028D06868012810D02168022810D089071B
:1011E00000292EDA616821F0030101436160FFF7F5
:1011F000DBFC804641F288390DE021688903EFE786
:101200008901EDE7FFF7D0FCA0EB0801494502D9C1
:101210000320BDE8F0876068696800F00C00B0EB5F
:10122000810FEFD1306800F00700B8420BD9306869
:1012300020F0070038433060306800F00700B84203
:1012400001D00120E5E72878400705D56068E96806
:1012500020F4E060084360602878000706D56068E5
:10126000296920F4605040EAC100606000F038F85D
:101270006168084AC1F30311515CC840064908601F
:1012800006480068FFF738FE0020C2E70020024051
:1012900000100240302A00080C000020040000204A
:1012A0000448054900684968044AC1F30221515CB9
:1012B000C84070470C00002000100240402A00087F
:1012C0000448054900684968044AC1F3C221515CD9
:1012D000C84070470C00002000100240402A00085F
:1012E0000E4A51680E4801F00C03042B11D0082B54
:1012F0000FD10C48C1F38343C903C05C0AD55168C0
:10130000084AC1F34041921E515C054A5043B0FB6C
:10131000F1F0704704494843704700000010024054
:1013200000127A000E2A000800093D002DE9F84F4E
:10133000040070D02078C04DC00749D06868C0F361
:101340008100012807D06868C0F38100022809D114
:101350006868C00306D52868800339D5606800280E
:10136000E7D035E06068B0F5803F0BD010B1B0F544
:10137000A02F11D0286820F480302860286820F43D
:10138000802002E0286840F480302860606890B1D6
:10139000FFF70AFC06460AE0286840F4802028602F
:1013A000F0E700BFFFF700FC801B642873D82868B3
:1013B0008003F7D50CE0FFF7F7FB064605E000BF1A
:1013C000FFF7F2FB801B6428F0D828688003F7D46D
:1013D00020789A4E80074FF001094FF0000839D568
:1013E000686810F00C0F07D06868C0F3810002280D
:1013F00009D16868C00306D42868800714D520691D
:10140000012808D110E02069B0B1C6F80090FFF7BC
:10141000CBFB074605E00AE1FFF7C6FBC01B02282D
:10142000C4D828688007F7D52868616920F0F800DB
:1014300040EAC10028600DE0C6F80080FFF7B4FB69
:10144000074604E0FFF7B0FBC01B022823D828683A
:101450008007F7D4207800072CD57948A169D9B145
:10146000C0F80090FFF7A0FB074604E0FFF79CFBE5
:10147000C01B02280FD8686A8007F7D571484FF45F
:10148000FA510068B0FBF1F0009000BF0098411ED7
:101490000091FAD20EE080E0C0F80080FFF784FBF4
:1014A000074604E0FFF780FBC01B022875D8686A76
:1014B0008007F7D42078400760D5E8690027C0008E
:1014C00008D4E86940F08050E861E869012700F03D
:1014D000805000905C480168C90513D401688346B8
:1014E00041F480710160FFF75FFB824606E000BFB8
:1014F000FFF75AFBA0EB0A0064284ED8DBF8000087
:10150000C005F5D5E06801280AD008B1052813D038
:10151000286A20F001002862286A20F0040002E016
:10152000286A40F001002862E06841F2883B98B1E7
:10153000FFF73AFB82460BE0286A40F0040028627D
:10154000EEE700BFFFF730FBA0EB0A0159455AD880
:10155000286A8007F6D50CE0FFF726FB824605E0F7
:10156000FFF722FBA0EB0A0159454CD8286A8007F7
:10157000F6D41FB1E86920F08050E861E06988B3D3
:101580006968C1F38101022944D00228C6F860804D
:1015900004D0FFF709FB044638E034E0FFF704FB12
:1015A000074604E0FFF700FBC01B02282BD8286881
:1015B0008001F7D4206AB0F5803F05D16868A16842
:1015C00020F4003008436860D4E9080108436968E2
:1015D00021F4741108436860C6F86090FFF7E4FADC
:1015E000044606E025E000BFFFF7DEFA001B0228F4
:1015F00009D828688001F7D51BE000BFFFF7D4FAAF
:10160000001B022802D90320BDE8F88F286880015A
:10161000F4D40EE00128F7D06868226A00F4803123
:10162000914204D1616A00F47010884201D0012017
:10163000EAE70020E8E70000001002400000424214
:10164000800442420C00002000700040024850F824
:10165000210080B270470000006C0040024800EB9F
:10166000810091B201607047006C004070B50400C9
:1016700003D0607C002610B105E0012070BD267407
:10168000204600F03DF802206074204600F052F839
:10169000042550BB204600F0E8FE30BB20684168BE
:1016A00021F007014160A06820B11448016821F0D1
:1016B000010101601148001F0168A26821F46071F6
:1016C000114301606068411C04D10120FFF78AFCCE
:1016D00058B1401E2268C0F303419160216880B276
:1016E000C860204600F0DCFE08B16574C5E7E6730B
:1016F00001206073A0736074002070BD306C0040E6
:1017000008B50068084988420DD1FFF765FC074815
:10171000C16941F00061C161C069054900F0006024
:1017200000900120086008BD002800400010024021
:101730003C04424270B504000AD02068416821F0A0
:1017400008014160FFF730FA05464FF47A7608E069
:10175000012070BDFFF728FA401BB04201D90320D9
:1017600070BD206840680007F4D5002070BD10B53A
:10177000401EB0F1807F01D3012010BD4FF0E02466
:1017800060610F21601700F0CAFF0020A0610720F0
:101790002061002010BD000070B590F83C20012AA7
:1017A00026D0012480F83C40022280F83D200368C6
:1017B0005A689D6822F070060A6832435A600D4BE1
:1017C00002689A4208D0B2F1804F05D00A4B9A4283
:1017D00002D00A4B9A4204D1496825F0800319438C
:1017E000916080F83D40002180F83C10084670BDB3
:1017F000022070BD002C01400004004000080040A1
:101800002DE9F0410D46040003D094F83D0018B1D5
:1018100008E00120BDE8F081002084F83C0020466B
:1018200000F040F8022084F83D002068816844F20E
:10183000070291438160211D206800F0C9FE2268E3
:1018400090689169166A2B68AF69034340F20330D0
:10185000814341EA0721A868EF6908434FF6FC413C
:101860008843E96840EA0720014328692F6A00019C
:1018700040EA0730084369686D6926F0220646EAA7
:101880000515294393602268906154F8460B016264
:10189000012004F81F09E0752076E0762077A07516
:1018A0000020B7E700B585B00021009101910291B9
:1018B000039100680E49884217D10E48816941F4AE
:1018C00000618161816901F400610491816941F0E5
:1018D000040181618069694600F0040004904FF4BE
:1018E000407000900448FFF769F805B000BD0000A3
:1018F000002C0140001002400008014070B590F833
:101900003E60044690F83F5090F8423090F84320F3
:10191000022021B104290ED0012E1BD114E0012E8A
:1019200018D1012B16D184F83E0084F84200012220
:101930000021206820E0012D0CD1012A0AD184F871
:101940003F0084F8430014E0012D03D1012B01D1A5
:10195000012A01D0012070BD84F83E0084F83F00C8
:1019600084F8420084F8430001220021206800F03E
:101970006BFE01220421206800F066FE20680168E9
:1019800041F001010160002070BD70B5040004D079
:1019900094F84100002510B106E0012070BD84F8E4
:1019A0004050204600F024F8242084F841002068AC
:1019B000C16821F40051C160204600F053FE206848
:1019C000016921F4904101612068416921F02A01F7
:1019D00041612068C16841F40051C1606564202004
:1019E00084F8410084F842006563002070BD000067
:1019F00030B585B0002400940194029403940068EB
:101A00001449884223D11448C16941F40031C161AD
:101A1000C16901F400310491816941F004018161DF
:101A200080690E4D00F00400049004200090022014
:101A300001900320039069462846FEF7BFFF082067
:101A4000CDE90004694628460294FEF7B7FF05B0C9
:101A500030BD00000044004000100240000801407A
:101A6000FEE701684A69D24352050FD46FF48062E1
:101A70004A61002140F8301F2022427381730269BD
:101A800042F0040202610173012070470020704798
:101A9000F8B50446C06A1E460D461746082807D00A
:101AA000012805D010F5803F02D0206B122804D108
:101AB0002068016841F480710160134600224FF0F4
:101AC00001112046009600F05DF840B120680068E2
:101AD000C00502D54FF4007020640320F8BD2069D2
:101AE000B0F5804F0ED00620216800EAD51040F0F6
:101AF000F000086133463A460B49204600F08AF868
:101B000078B902E005F0FE0000E0E8B22168086163
:101B1000054933463A46891F204600F07BF80028E5
:101B2000DCD00120F8BD00000800010070B51646A9
:101B30000D4604461EE02046FFF793FF08B1012042
:101B400070BD681C16D0FFF72FF8801BA84200D884
:101B500085B920684069C04340070BD5002044F890
:101B6000300F20216173A073216941F020012161B0
:101B70002073E4E720684069C0434007DBD40020BD
:101B800070BD00002DE9F047984617460D46044603
:101B9000C1F30746DDF820902AE000BFB8F1FF3F0F
:101BA00026D0FFF701F8A0EB0901414502D8B8F1B2
:101BB000000F1DD12068012E16D0806925EA000093
:101BC0000004000C12D00020B84211D1002044F8CB
:101BD000300F20216173A073216941F02001216140
:101BE00020730120BDE8F0874069E7E70120EBE7BB
:101BF0002068012E0AD0806925EA00000004000C4C
:101C000006D00020B842C9D00020EBE74069F3E7D6
:101C10000120F7E72DE9F047984616460D460446A1
:101C20004FF000094FF0200AC1F3074723E0206876
:101C30004069C043400515D42068016841F4007133
:101C4000016021686FF480604861C4F8309084F8C6
:101C50003DA084F83E90216C41F00401216484F899
:101C60003C9021E0701C06D0FEF79EFFA0EB080020
:101C7000B04203D816B1012F1FD021E02068012FF8
:101C800015D0806925EA00000004000C18D000BFC0
:101C900044F8309F84F80DA084F80E90216941F03B
:101CA0002001216184F80C900120BDE8F087406993
:101CB00025EA00000004000CEAD12068406901E038
:101CC0002068806925EA00000004000CAFD1ECE731
:101CD00070B516460D4604461EE02046FFF7C1FECD
:101CE00008B1012070BD681C16D0FEF75DFF801B97
:101CF000A84200D885B920684069C04300060BD5CA
:101D0000002044F8300F20216173A073216941F055
:101D1000200121612073E4E720684069C043000688
:101D2000DBD4002070BD00000A4808B50068816956
:101D30008AB2C1698BB2816989B28A4203D0C06913
:101D400061F31F4001E043EA024000906846FEF75D
:101D500033FC08BDE400002010B58CB001210E4812
:101D6000FFF774FC42F23334A04212D00A48FFF766
:101D70007DFC08B1FEF70DFE2C2208496846FEF7EF
:101D80009FFB684600F00CF8224601210248FFF74D
:101D900065FC0CB010BD0000E4000020A43D00086C
:101DA00010B5FEF72EFC0146BDE81040014800F0DA
:101DB00093BB0000E400002010B500F021FE0349B1
:101DC00047F6FF700968486210BD0000F800002067
:101DD00070B500F0C7FC154C47F6FF75B0F5004F25
:101DE00001D3606802E0A84202D2A06800B1804737
:101DF0000F480068456200F0A9FC10B10020206186
:101E00000EE0206970B1207800280AD1FEF7CCFEE0
:101E10002169401A0A2804D9E06800B180470120EE
:101E2000207070BDFEF7C0FE206170BD1400002060
:101E3000F80000200149886070470000140000206D
:101E40000149486070470000140000200149C86043
:101E5000704700001400002000B585B000200190FC
:101E600003901648816941F010018161816901F098
:101E700010010491816941F020018161816901F0C3
:101E800020010491816941F004018161816901F0BF
:101E900004010491816941F008018161806969460A
:101EA00000F0080004904FF40040009001200290E0
:101EB0000348FEF783FD05B000BD0000001002409E
:101EC000000C01400D4810B50B4901600C49416000
:101ED00000214FF480428160C0E9031241618161B9
:101EE000C1610162FEF766FE002803D0BDE8104024
:101EF000FEF74FBD10BD00000054004090000020D0
:101F0000801A06000548044901604FF0FF31416026
:101F10004FF480718160704700280040E400002089
:101F200010B58CB024216846FEF71EFB002416482D
:101F3000099414490A9401600121C0E901144FF683
:101F4000FF72C0E9032444618461CDE90014CDE946
:101F500002140220CDE90440CDE9061469460A487E
:101F60000894FFF74DFC08B1FEF713FD099409A989
:101F700005480A94FFF710FC002801D0FEF709FD80
:101F80000CB010BD002C0140F80000200C4810B52A
:101F90000A4901604FF4E1314160002181600C2267
:101FA000C160C0E904128161C161FFF7EEFC002845
:101FB00003D0BDE81040FEF7ECBC10BD004400406B
:101FC0004001002010B5FFF703FF00F00BF90848AF
:101FD000007840B1074800F0C3FC00F09DFCBDE86C
:101FE000104000F01DBAFFF79FFE00F0B9FCF6E7C5
:101FF000280000200C06002010B51420FEF7CCFCB1
:1020000000F09AF8FFF7A8FEFFF7D6FE0548FFF7A5
:1020100017FF0548FFF70EFFBDE810400348FFF724
:1020200015BF00003D28000899270008D92800089E
:10203000FEE7FEE72DE9F84F044617463D481E46E9
:102040000D46BC4210D1B5420AD945702E461D46F8
:1020500006E0294620460A9A00F0CAF96D1CEDB246
:10206000B542F6D9BDE8F88FB5420FD1BC420AD9C6
:1020700044702746144606E0294620460A9A00F096
:10208000B7F9641CE4B2BC42F6D9EBE7381B711B0C
:10209000002801DD012300E000234FF0FF3202EBB6
:1020A00043030093002901DD012300E00023A8463B
:1020B000002502EB430B002800DA4042814600294C
:1020C00000DA49428A46D14516DC2FE008F0FF01CC
:1020D000E0B20A9A00F08CF905EB0A0005B2B9EB00
:1020E000450F06DC08EB0B000FFA80F8A5EB0900A2
:1020F00005B20098204404B2BC42E7D1B2E700BF69
:1021000008F0FF01E0B20A9A00F072F905EB09004D
:1021100005B2BAEB450F05DC0098204404B2A5EBEC
:102120000A0005B208EB0B000FFA80F8B045E7D1C2
:1021300098E700001000002010B5AE2000F090F8E5
:10214000022000F08DF8102000F08AF8402000F006
:1021500087F8B02000F084F8812000F081F8CF20CB
:1021600000F07EF8A12000F07BF8A62000F078F8BF
:10217000A82000F075F83F2000F072F8AD2000F0C4
:102180006FF88B2000F06CF8332000F069F8C8205D
:1021900000F066F8D32000F063F8002000F060F84B
:1021A000D52000F05DF8C02000F05AF8D92000F0EA
:1021B00057F81F2000F054F8DA2000F051F81220F0
:1021C00000F04EF8DB2000F04BF8402000F048F81B
:1021D00000F008F800F024F9BDE81040AF2000F04E
:1021E0003FB800004FF480610148FEF79BB9000042
:1021F000090200203CB51C78059D203ACDE9004538
:102200005D68E41D5B78E408544303FB045200F06E
:1022100087F83CBD2DE9F8411E4615468846044620
:10222000079F09E03346414620460097FFF7E2FF4B
:1022300070786D1C2044C4B22A78002AF2D1BDE81F
:10224000F881000008B54FF0FF3200920B460246BD
:102250007A210248FEF772FD08BD000090000020C0
:102260000249487002210148FFF7ECBF120000202C
:102270002DE9FC4180460720CDE9000301F0070469
:10228000CD08164602FA04F01F46C2B22346414664
:10229000284600F089F8002C0CD0601EC0B2CDE9B1
:1022A0000007C4F1080026FA00F2681C002341462A
:1022B00000F07AF8BDE8FC812DE9FC4301F0070647
:1022C0001446CD089846814601F0070106EB080246
:1022D00004FA01F0099F082A16D90721CDE9001751
:1022E000C2B233464946284600F05EF808EB0600C5
:1022F0000938C0B2CDE90007C6F1080024FA00F29F
:10230000681C0023494607E0521ED1B2CDE90017F0
:10231000C2B233464946284600F046F8BDE8FC8381
:102320002DE9FF4F82B01D460F989346C70800F075
:10233000070088460026019018E0029800240BEB65
:10234000060A00EB06090DE004FB05F0109B10F8EF
:102350000A2008EBC400C1B209F0FF00FFF788FFB4
:10236000641CE4B2BC42EFD3761CF6B2AE42E4D3B6
:102370000198002815D005FB07F6002408EBC707D5
:102380000DE010980090311902981BF801202044AC
:10239000F9B2C0B2019BFFF78FFF641CE4B2AC42FC
:1023A000EFD306B0BDE8F08FF0B50828DDE905648D
:1023B00019D2802917D20CB1D243D2B2FF25761C94
:1023C00005FA06F6C3F10803084F46EA0204DD40A9
:1023D00007EBC017044B785CB2432C43AA43204060
:1023E0001A7010437854F0BD10000020090200203C
:1023F00030B580280ED240290CD201F00704012309
:10240000064DA340C90805EBC111002A0A5C02D0A1
:102410009A430A5430BD1A43FBE70000090200202A
:1024200070B5104D40200024287005F1810600BFD2
:1024300004F1B000C0B2FFF713FF0220FFF710FF56
:102440001020FFF70DFF06EBC4118022681CFDF77A
:10245000F2FF81210348FFF7F5FE641CE4B2082C6B
:10246000E6D370BD88010020704770B50446FEF7C2
:102470009BFB05464FF47A7606E0FEF795FB401B82
:10248000B04201D9032070BD206840688006F4D5B1
:102490002068416841F010014160002070BD0000DB
:1024A00070B504460068416821F010014160FEF7F4
:1024B0007BFB05464FF47A7607E000BFFEF774FB1E
:1024C000401BB04201D9032070BD206840688006DF
:1024D000F4D5002070BD00002DE9F0410F46044600
:1024E0000025FEF761FB06464FF47A7805E000BF51
:1024F000FEF75AFB801B40451DD8206840688006C7
:10250000F6D52068416841F0100141602168380C1F
:1025100088612168B8B2C8612068416821F0100163
:102520004160FEF741FB0646474606E0FEF73CFBEE
:10253000801BB84201D9012503E02068406880066D
:10254000F4D52846BDE8F0817047FEF7BBBC70B5F6
:1025500094B028216846FEF707F814210AA8FEF770
:1025600003F8002501240F95119505201295009080
:10257000CDE9025410954FF4803001900226049466
:10258000CDE907604FF4E01009906846FEF7CEFEF3
:1025900008B172B6FEE70F20CDE90A064FF480605D
:1025A000CDE90C5002210AA80E95FEF7E3FD08B113
:1025B00072B6FEE74FF48070CDE90F400FA8FEF72A
:1025C00063FD002801D072B6FEE714B070BD7047FD
:1025D000F0B50268194B1A4C1A4D4FF080479842DB
:1025E00005D0B84203D0A04201D0A84203D122F0C6
:1025F00070064A683243984205D0B84203D0A042E0
:1026000001D0A84203D122F44074CA6822434C6925
:1026100022F08002224302608A68C2620A688262F3
:10262000984201D109690163012141610169C9072A
:1026300003D0016921F001010161F0BD002C0140CE
:10264000000400400008004010B501F01F03012104
:10265000046A99408C430462016A9A401143016202
:1026600010BD000070B5044600680169E26821F4FD
:102670004051114301612169A06808436169084321
:102680002168CA6841F20C639A430243CA60206819
:102690004169A26921F44071114341611E492068DA
:1026A000884202D1FEF70CFE01E0FEF7F9FD00EBD7
:1026B000C00101EB0012606864218000B2FBF0F3FE
:1026C000B3FBF1F36FF018067343B2FBF0F5B2FB06
:1026D000F0F605EB8305322303EB0515B5FBF1F5A9
:1026E000B6FBF1F605F0F00505EB0615B2FBF0F6CA
:1026F000B2FBF0F0B0FBF1F06FF01802504306EBC4
:10270000800003EB0010B0FBF1F0216800F00F0037
:102710002844886070BD000000380140FEE70907CA
:10272000090E002804DB00F1E02080F80014704757
:1027300000F00F0000F1E02080F8141D70473038E1
:102740000A2801D2012070470020704710B54FF4CD
:1027500000410348FEF722FA002800D0012010BDF6
:10276000000C014001480068406A7047F8000020F2
:10277000FEF7B0FBFFF7EBFEFFF76EFBFFF7A2FBE8
:10278000FFF7C0FBFFF7CCFBFFF700FCFFF734FCC3
:10279000FFF718FCFCE7000038B5264C207801282C
:1027A00046D12548FDF72DFF009061783B22224855
:1027B000062931D2DFE801F0030A14181F28416905
:1027C000491E4161462927DA462107E00169491E71
:1027D000016121D50B2101614169491E41611BE065
:1027E000C168491EC16017E08168491E816013D528
:1027F00017218160F4E74168491E41600CD54260B1
:102800008168491E816007E00168491E016003D5A7
:1028100002604168491E41600748FDF7F2FE0090E2
:102820006846FDF7C9FE01462C220348FDF748FE25
:1028300038BD0000280000200C06002038B5244CCC
:102840002078012842D12348FDF7DBFE0090617813
:102850000022204806292DD2DFE801F003070E12DE
:1028600019234169491C416124E00169491C016146
:102870000B291FDD0261F4E7C168491CC16019E042
:102880008168491C8160172914DD8260F4E7416882
:10289000491C41603B290DDD42608168491C816013
:1028A00008E00168491C01603B2903DD02604168C2
:1028B000491C41600748FDF7A4FE00906846FDF7FB
:1028C0007BFE01462C220348FDF7FAFD38BD0000CF
:1028D000280000200C06002070B50D4C0025207843
:1028E00028B1607805280DD0401C607070BDFFF7DE
:1028F0001BFA01462C220748FDF7E2FD6570012016
:10290000207070BD0348FFF74BFA257070BD0000C2
:10291000280000200C06002038B5FEF745F90F4CC2
:102920006168401AB0F57A7F03D9FEF73DF960601F
:1029300038BDB0F5FA7FFBD9084861784E3000EB1E
:102940008100002100680091030EC0F30742C0F32C
:102950000721C0B2FFF76EFB38BD00002800002041
:1029600030B589B00446C0680090D4E904321AA199
:1029700001A802F26C725B1CFDF72AFC0025194BC2
:1029800001AA294618200095FFF744FC2068009012
:10299000D4E9013214A101A8FDF71AFC164B01AAD3
:1029A000142110200095FFF735FCA069134900EBB6
:1029B000800001EB40042046FDF71EFD40428021CF
:1029C00001EBC000C0F347000B4B224630210095BD
:1029D000FFF720FC09B030BD25642D25642D25644A
:1029E0000000000038300008253032643A253032CB
:1029F000643A2530326400009C3D0008300000201D
:102A00003C210148FEF77ABFF800002001020203D2
:102A10000405060708090A0B0C0D0E0F1010010221
:102A200002030405060708090A0B0C0D0E0F10100F
:102A3000000000000000000001020304060708096E
:102A4000000000000102030400000000000000007C
:102A50000000000000000000000000F8000000007E
:102A6000000000333000000000100C06100C0600BF
:102A7000000000000000000040C07840C078400026
:102A8000043F04043F040400007088FC0830000088
:102A9000001820FF211E0000F008F000E0180000E0
:102AA00000211C031E211E0000F008887000000099
:102AB0001E2123241927211010160E0000000000EB
:102AC0000000000000000000000000E01804020008
:102AD000000000071820400000020418E000000079
:102AE0000040201807000000404080F08040400077
:102AF0000202010F01020200000000F000000000CD
:102B00000101011F010101000000000000000000A0
:102B100080B0700000000000000000000000000015
:102B2000000101010101010100000000000000009E
:102B30000030300000000000000000008060180439
:102B4000006018060100000000E010080810E00016
:102B5000000F102020100F00001010F800000000DF
:102B60000020203F20200000007008080888700026
:102B700000302824222130000030088888483000A6
:102B80000018202020110E000000C02010F80000C6
:102B900000070424243F240000F80888880808005F
:102BA0000019212020110E0000E010888818000074
:102BB000000F112020110E0000380808C838080046
:102BC0000000003F000000000070880808887000C6
:102BD000001C222121221C0000E010080810E00047
:102BE0000000312222110F00000000C0C0000000D0
:102BF00000000030300000000000008000000000F5
:102C000000008060000000000000804020100800EC
:102C100000010204081020004040404040404000B5
:102C20000404040404040400000810204080000090
:102C30000020100804020100007048080808F00095
:102C40000000003036010000C030C828E810E00065
:102C50000718272423140B000000C038E0000000F0
:102C6000203C23020227382008F88888887000005A
:102C7000203F202020110E00C0300808080838002E
:102C8000071820202010080008F808080810E000A5
:102C9000203F202020100F0008F88888E808100046
:102CA000203F20202320180008F88888E80810001A
:102CB000203F200003000000C03008080838000052
:102CC00007182020221E020008F808000008F80853
:102CD000203F210101213F20000808F808080000DA
:102CE0000020203F2020000000000808F80808000D
:102CF000C08080807F00000008F888C02818080085
:102D0000203F20012638200008F8080000000000BD
:102D1000203F20202020300008F8F800F8F80800B4
:102D2000203F003F003F200008F830C00008F808AE
:102D3000203F200007183F00E01008080810E000BE
:102D40000F10202020100F0008F808080808F000D5
:102D5000203F210101010000E01008080810E000F8
:102D60000F18242438504F0008F88888888870008D
:102D7000203F2000030C302000708808080838002D
:102D80000038202121221C00180808F80808180023
:102D90000000203F2000000008F808000008F808A4
:102DA000001F202020201F000878880000C8380855
:102DB000000007380E010000F80800F80008F800CD
:102DC000033C0700073C0300081868808068180867
:102DD00020302C03032C30200838C800C8380800E5
:102DE0000000203F2000000010080808C838080034
:102DF0002038262120201800000000FE02020200D8
:102E00000000007F40404000000C30C00000000087
:102E1000000000010638C00000020202FE000000AF
:102E2000004040407F000000000004020202040055
:102E30000000000000000000000000000000000092
:102E4000808080808080808000020204000000007A
:102E50000000000000000000000080808080000072
:102E60000019242222223F2008F800808000000060
:102E7000003F112020110E00000000808080000023
:102E8000000E112020201100000000808088F80032
:102E9000000E112020103F20000080808080000064
:102EA000001F222222221300008080F088888818C8
:102EB0000020203F202000000000808080808000D3
:102EC000006B94949493600008F800808080000068
:102ED000203F210000203F20008098980000000043
:102EE0000020203F20200000000000809898000073
:102EF00000C08080807F000008F800008080800093
:102F0000203F24022D302000000808F800000000B7
:102F10000020203F20200000808080808080800072
:102F2000203F20003F20003F808000808080000004
:102F3000203F210000203F20000080808080000092
:102F4000001F202020201F008080008080000000C3
:102F500080FFA12020110E000000008080808000F2
:102F6000000E112020A0FF808080800080808000E3
:102F700020203F2120000100000080808080800010
:102F80000033242424241900008080E08080000085
:102F90000000001F202000008080000000808000D2
:102FA000001F202020103F20808080000080808033
:102FB00000010E30080601008080008000808080C3
:102FC0000F300C030C300F000080800080808000E8
:102FD0000020312E0E312000808080000080808013
:102FE00080818E70180601000080808080808000C3
:102FF0000021302C2221300000000000807C0202E1
:1030000000000000003F404000000000FF00000002
:1030100000000000FF0000000002027C80000000B1
:103020000040403F000000000006010102020404CD
:10303000000000000000000010080000482A0008FE
:103040000000000000000000000000000000000080
:103050000000000000000000000000000000000070
:10306000000000000000000000F0F0F00000000090
:103070000000000000017F010000000000000000CF
:10308000001C1C1C0000000000008060301C8C60D4
:10309000301C0C00000000000000000000000000D8
:1030A000000000000000000000000000000000E040
:1030B0000000000000E000000086E69F868686860D
:1030C000E69F860000011F01010101011F010100AF
:1030D000000080C06020F820E0C00000000003076E
:1030E0000C18FF70E18100000000070F10107F1026
:1030F0000F0700008060206080000000E0200000DA
:103100000F3020309F70DC371030C0000000100EF0
:1031100003000718101807000000C02020E0C000BE
:103120000000000080E01F38E88703C43C04000072
:10313000070F1810100B070D1010080000808C4CA2
:103140003800000000000000000000000000000047
:10315000000000000000000000000000000000006F
:1031600000000000000080E03008040000000000C3
:1031700000FEFF0100000000000000000000030F3F
:103180001820400000040830E0800000000000002B
:103190000000000001FFFE000000000000402018B9
:1031A0000F03000000000000000000000000C0004D
:1031B00000000000004266663C18FF183C6666424C
:1031C00000000000000003000000000000000000FC
:1031D0000000800000000000001010101010FF1010
:1031E000101010100000000000000300000000009C
:1031F00000000000000000000000000000000000CF
:10320000000000000000000000808C4C380000002E
:1032100000000000000000000000000000000000AE
:1032200000101010101010101010100000000000FE
:10323000000000000000000000000000000000008E
:10324000000000000000000000000000000000007E
:1032500000001C1C1C00000000000000000000001A
:1032600000000000E0380C000000000080701C032B
:10327000000000000060380E0100000000000000A7
:10328000000080C060202060C080000000FEFF01C0
:103290000000000001FFFE000001070E18101018CA
:1032A0000E0701000000808080C0E00000000000E8
:1032B0000000000000FFFF000000000000001010F0
:1032C000101F1F10101000000080402020202060E0
:1032D000C080000000030300804020381F0700006A
:1032E000001C1A1918181818181F00000080C02098
:1032F000202060C080000000000303001010182F81
:10330000E780000000070F10101010180F070000D2
:10331000000000000000C0E0F000000000C0B08825
:10332000868180FFFF808000000000000010101FD9
:103330001F1010000000E0606060606060600000CE
:1033400000003F1008080818F0E0000000070B100C
:103350001010101C0F030000000080C0402020202F
:10336000E0C0000000FCFF211008080818F0E00091
:103370000001070C18101010080F03000000C0E037
:103380006060606060E06000000003000000E01822
:103390000700000000000000001F1F0000000000E8
:1033A0000080C0602020202060C080000087EF2CBB
:1033B0001818303068CF830000070F081010101065
:1033C000180F07000000C0C020202020C08000008F
:1033D000001F3F604040402010FFFE0000000C1C1A
:1033E000101010080F030000000000000000000093
:1033F0000000000000000000000E0E0E00000000A3
:1034000000000000001C1C1C000000000000000068
:10341000000000000000000000000000000C0C0094
:10342000000000000000000000583800000000000C
:103430000000000000000080402010000000102864
:1034400044820100000000000000000000000102B2
:103450000408100000000000000000000000000050
:103460000084848484848484848484000000000034
:10347000000000000000000000001020408000005C
:10348000000000000000000000000182442810003D
:1034900000001008040201000000000000C020200D
:1034A0001010101030E0C0000003030000F01008FE
:1034B0000C070300000000001C1C1C0000000000A2
:1034C000000000C0406020202040C00000FCFF0140
:1034D000F00E03C1FE03807F0001070E08111110DA
:1034E000110904020000000080E0E000000000007C
:1034F0000000807C4340477FF880000010181F10B8
:1035000000000000131F1C1020E0E020202020609D
:10351000C080000000FFFF10101010182FE780007F
:10352000101F1F1010101010180F0700000080C08F
:10353000402020202060E00000FCFF01000000008F
:10354000000001000001070E18101010080403000D
:1035500020E0E02020202040C080000000FFFF008D
:103560000000000001FFFE00101F1F1010101808BF
:103570000E07010020E0E0202020202020608000B5
:1035800000FFFF101010107C00000000101F1F1023
:10359000101010101018060020E0E020202020203D
:1035A0006060800000FFFF101010107C0000010020
:1035B000101F1F100000000000000000000080C06D
:1035C0006020202040E0000000FCFF01000040409F
:1035D000C0C140400001070E181010100F0F00006E
:1035E00020E0E0200000000020E0E02000FFFF10CD
:1035F0001010101010FFFF00101F1F10000000001F
:10360000101F1F100000202020E0E02020200000DC
:103610000000000000FFFF0000000000000010108C
:10362000101F1F101010000000000000202020E0DC
:10363000E020202000000000000000FFFF0000004C
:103640000060E0808080C07F3F00000020E0E0203C
:10365000000020A06020200000FFFF30187CE3C0A5
:1036600000000000101F1F10000001131F1C181085
:1036700020E0E020000000000000000000FFFF004C
:103680000000000000000000101F1F10101010109C
:103690001018060020E0E0E000000000E0E0E0207C
:1036A00000FF013FFEC0E01E01FFFF00101F1000E1
:1036B000031F0300101F1F1020E0E0C000000000E7
:1036C0000020E02000FF0003071C78E08000FF00DE
:1036D000101F100000000000030F1F00000080C03A
:1036E00060202060C080000000FEFF01000000009C
:1036F00000FFFE000001070E181010180C07010053
:1037000020E0E0202020202060C0800000FFFF207B
:1037100020202020301F0F00101F1F10000000006D
:1037200000000000000080C060202060C080000019
:1037300000FEFF010000000000FFFE000001070E78
:103740001111133C7C67210020E0E0202020202084
:1037500060C0800000FFFF101030F0D0080F07009D
:10376000101F1F10000000030F1C10100080C0600D
:10377000202020204040E00000070F0C18183030B7
:1037800060E08100001F0C0810101010180F0700D7
:103790008060202020E0E0202020608001000000E8
:1037A00000FFFF000000000100000000101F1F10BC
:1037B0000000000020E0E020000000000020E020E9
:1037C00000FFFF00000000000000FF0000070F18CE
:1037D00010101010100807002060E0E0200000002A
:1037E00020E060200000077FF88000807C0300005C
:1037F00000000000071F1C070000000020E0E02080
:1038000000E0E0200020E0200007FFF8E01FFFFCC0
:10381000E01F00000000031F0300011F0300000061
:10382000002060E0A0000020E06020000000000315
:103830008F7CF8C6010000000010181E130001174D
:103840001F1810002060E0E02000000020E0602051
:10385000000001073EF8E01807000000000000101B
:10386000101F1F101000000000806020202020A0EA
:10387000E0E0200000000000C0F03E0F0300000068
:1038800000101C1F17101010101806000000000078
:1038900000FC0404040404000000000000FF000019
:1038A0000000000000000000007F40404040400059
:1038B000000010E000000000000000000000000018
:1038C000031C6080000000000000000000000003F6
:1038D0000C70800000000404040404FC00000000DC
:1038E00000000000000000FF000000000000404059
:1038F0004040407F0000000000000010080C040C55
:10390000081000000000000000000000000000009F
:1039100000000000000000000000000000000000A7
:103920000000000000000000000000000000000097
:103930000000000080808080808080808080808087
:10394000000000040408080000000000000000005F
:103950000000000000000000000000000000000067
:103960000000000000000000000000000000000057
:10397000000098D844642424FCF80000000F1F18AD
:10398000101010081F1F10180020E0F000000000A9
:10399000000000000000FFFF180804040CF8F0000D
:1039A00000001F0F18101010180F03000000000077
:1039B000000000000000000000E0F8180404043CCF
:1039C0003800000000030F0C101010100806000053
:1039D0000000000000000020E0F0000000E0F81C03
:1039E00004040408FFFF000000030F181010100863
:1039F0001F0F080000000000000000000000000091
:103A00000000E0F8484444444C7870000000030F84
:103A10000C181010100804000000000080C0602086
:103A200020E0C00000040404FFFF040404040000BC
:103A3000000010101F1F10101000000000000000F8
:103A40000000000000000000000070F88C04048CEE
:103A5000F874040C007076CF8D8D8D89C878700055
:103A60000020E0F000000000000000000000FFFF68
:103A700008040404FCF8000000101F1F10000010D0
:103A80001F1F100000000000006060000000000028
:103A90000000040404FCFC00000000000000101002
:103AA000101F1F1010100000000000000000006038
:103AB0006000000000000000040404FCFC000000A2
:103AC0000000C0C08080C07F3F0000000020E0F008
:103AD00000000000000000000000FFFF80C0F41C98
:103AE0000404000000101F1F1100031F1C10100011
:103AF0000000202020E0F000000000000000000096
:103B000000FFFF000000000000001010101F1F1039
:103B10001010000000000000000000000000000085
:103B200004FCFC0804FCFC0804FCFC00101F1F1033
:103B3000001F1F10001F1F100000000000000000E9
:103B4000000000000004FCFC08080404FCF800006D
:103B500000101F1F100000101F1F100000000000A9
:103B6000000000000000000000E0F0180C04040C4D
:103B700018F0E00000030F0C101010100C0F0300E1
:103B80000000000000000000000000000004FCFC39
:103B9000080404040CF8F0000080FFFF8890101067
:103BA0001C0F0300000000000000000000000000E7
:103BB00000E0F81C04040408F8FC000000030F18DF
:103BC00010109088FFFF800000000000000000003F
:103BD00000000000040404FCFC100804040C0C00A9
:103BE0001010101F1F101010000000000000000037
:103BF000000000000000000000003078CCC4848485
:103C0000840C1C0000001E1810101011190F060063
:103C10000000000000C000000000000000040404D8
:103C2000FFFF040404000000000000000F1F10103C
:103C3000100C000000000000000000000000000068
:103C40000004FCFE00000004FCFE000000000F1F4A
:103C5000181010081F0F08000000000000000000EE
:103C60000000000000040C3CFCC40000C43C0C0438
:103C700000000000010F1E0E010000000000000007
:103C80000000000000000000043CFCC400E47CFCD8
:103C900084807C040000071F070000071F07000046
:103CA0000000000000000000000000000004041CF0
:103CB0007CE4C0341C0404000010101C1601131F07
:103CC0001C181000000000000000000000000000B0
:103CD00000040C3CFCC400C43C0404000000C08090
:103CE000C1370E01000000000000000000000000CD
:103CF0000000000000001C0404C4F47C1C0400004C
:103D00000000101C1F17111010180E0000000000FA
:103D1000000000F80C04000000000000001028EF74
:103D200000000000000000000000003F60400000B4
:103D3000000000000000FF00000000000000000084
:103D40000000FF0000000000000000000000FF0075
:103D5000000000000000040CF8000000000000005B
:103D600000000000EF28100000000000000040608C
:103D70003F000000000000000018060202040810C6
:103D800020203008000000000000000000000000BB
:103D9000000000000000000000000000180C0000FF
:103DA000403000083B0000003B000000170000000E
:103DB00001000000000000007D0000000000000085
:103DC00000000000000000000000000000000000F3
:103DD00004000008000000000000000200010000D4
:103DE000101F1D1F1E1F1E1F1F1E1F1E1F00000055
:103DF000103E00080000002090000000280100088C
:103E0000A03E000890000020380C0000440100088B
:103E100001000000100000000000000000127A0005
:103E20000000000000000000000000000000000092
:103E30000000000000000000000000000000000082
:103E400053756E646179000000004D6F6E64617996
:103E500000000000547565736461790000005765C7
:103E6000646E657364617900546875727364617916
:103E70000000467269646179000000005361747546
:103E800072646179000018113811401150115811F5
:103E90006811182D302D3C2D302D602D302D000057
:04000005080000ED02
:00000001FF
