:020000040800F2
:100000008005002045010008C3200008031E0008E9
:10001000C1200008E10700089D250008000000003D
:10002000000000000000000000000000D5210008D2
:10003000F107000800000000E5200008D7210008B3
:100040005F0100085F0100085F0100085F01000810
:100050005F0100085F0100085F0100085F01000800
:100060005F0100085F0100085F0100085F010008F0
:100070005F0100085F0100085F0100085F010008E0
:10008000E50700085F0100085F0100085F01000844
:100090005F0100085F0100085F0100085F010008C0
:1000A0005F0100085F0100085F0100085F010008B0
:1000B0005F0100085F0100083D2200085F010008A1
:1000C0005F0100085F0100085F0100085F01000890
:1000D0005F0100085F010008912500085F0100082A
:1000E0005F0100085F0100085F0100085F01000870
:1000F0005F0100085F0100085F0100085F01000860
:100100005F0100085F0100085F0100085F0100084F
:100110005F0100085F0100085F0100085F0100083F
:100120005F0100085F0100085F0100085F0100082F
:10013000DFF80CD000F042FB00480047352F0008E4
:10014000800500200648804706480047FEE7FEE796
:10015000FEE7FEE7FEE7FEE7FEE7FEE7FEE7FEE777
:100160003922000831010008202A04DB203A21FA54
:1001700002F00021704721FA02F3D040C2F12002C0
:100180009140084319467047D2B201E000F8012BB4
:10019000491EFBD270470022F6E710B513460A4607
:1001A00004461946FFF7F0FF204610BD2DE9FE4F2B
:1001B000804681EA0300C00F0C46009021F0004108
:1001C00023F00045B8EB0200A94105D24046214684
:1001D00090461C460B46024623F00040104347D091
:1001E000270DC7F30A00C3F30A510290401A019089
:1001F00040286BDAC3F3130040F4801B009892464A
:1002000020B10023D2EB030A63EB0B0B0198594694
:10021000C0F14002504600F00AF906460D4650462D
:100220005946019A00F012F910EB080061410024D0
:1002300087EA115284EAE7731A4340D0009A62B306
:10024000019A012A4FEA075215DC001B61EB0201FB
:100250004FF0004202EA0752CDE90042001C41F58E
:10026000801132462B4600F049F903B0BDE8F08F0B
:1002700040462146F9E7001B61EB0201001C41F5F5
:10028000801300185B412018A2F5001747EB03010B
:1002900040EAD570B6196D4111E06D084FEA360697
:1002A00045EAC0754FEA0752001B61EB0201001CD2
:1002B00041F5801149084FEA30000019514132469A
:1002C0002B4603B0BDE8F04F00F009B900980122B9
:1002D00040000023D0EB020263EBE073009821465C
:1002E0004FEAE074B8EB000061EB0401E9E783F04A
:1002F00000435BE781F0004158E770B521F000430F
:1003000003430CD0C1F30A550024D5EB040564EB7C
:100310000403D617AD1AB34102DB0020014670BDBD
:10032000201841EB025170BD0EB540F233410291ED
:100330000021CDE900110A460B4600F0DFF803B0BA
:1003400000BD00F0004230F000400AD0C10D01F5C0
:100350006071C0F3160042EA0151C2084007114320
:10036000704700200146704701F0004330B421F08F
:10037000004150EA010206D00A0DA2F56072C1F3F5
:100380001301002A02DC30BC00207047440F44EA0D
:10039000C104C100E01830BC00EBC25000F068B8E6
:1003A00030B50B46014600202022012409E021FA45
:1003B00002F59D4205D303FA02F5491B04FA02F542
:1003C0002844151EA2F10102F1DC30BD2DE9F05FD9
:1003D0000546002092469B468846064681464024B4
:1003E0001BE02846414647462246FFF7BDFE5346DE
:1003F0005A46C01A914110D311461846224600F0C1
:1004000016F82D1A67EB01084F46224601200021FD
:1004100000F00DF817EB00094E41201EA4F1010475
:10042000DFDC484631462A464346BDE8F09F202A95
:1004300004DB203A00FA02F1002070479140C2F13B
:10044000200320FA03F3194390407047202A06DB6B
:10045000CB17203A41FA02F043EAE07306E041FA92
:1004600002F3D040C2F12002914008431946704780
:100470000029A8BF7047401C490008BF20F00100B8
:10048000704710B4B0FA80FC00FA0CF050EA010496
:1004900004BF10BC704749B1CCF1200421FA04F428
:1004A00011FA0CF118BF012121430843A3EB0C0101
:1004B000CB1D4FEA00614FEA102042BF002010BC64
:1004C000704700EBC35010440029A4BF10BC704714
:1004D000401C490008BF20F0010010BC704710B557
:1004E000141E73F1000408DA401C41F10001921857
:1004F0005B411A4301D120F0010010BD2DE9F04D00
:1005000092469B4611B1B1FA81F202E0B0FA80F254
:1005100020329046FFF78BFF04460F4640EA0A0060
:1005200041EA0B0153465A46084313D0114653EA99
:10053000010019D0C8F140025046FFF715FE0546EC
:100540000E46504659464246FFF771FF084305D014
:10055000012004E020463946BDE8F08D0020054327
:1005600046EAE0762C4337430A986305E40AA0EB99
:1005700008000022FD0A44EA47540A3002D5002050
:100580000146E9E7010510196941DDE9084500194F
:100590006941BDE8F04DA2E72DE9FE4F81EA030471
:1005A00004F0004421F0004100944FF0000B23F0D0
:1005B000004350EA01045ED052EA03045BD0C3F367
:1005C0000A54C1F30A552C44A4F2F3340194A0FB5D
:1005D0000254C1F3130141F48011C3F3130343F434
:1005E000801301FB024400FB034E840A970A44EA8D
:1005F000815447EA8357A4FB076802958D0A05FBDF
:1006000007854FEA932C04FB0C542705029D4FEA03
:10061000065847EA1637B5EB08056EEB070C870E50
:10062000920E47EA811742EA8312A7FB0201B6EB5A
:100630000B0164EB00042B0D43EA0C335E1844EB12
:100640001C50DA465146E7FB0201C5F313044FEA9A
:100650000B3343EA14534FEA0432019C43EA060386
:10066000A4F10C040294009CCDE900B4FFF746FF0E
:1006700003B0BDE8F08F00200146F9E72DE9F04D09
:1006800081EA030404F0004B21F0004514464FF0CA
:10069000000A23F0004150EA050220D054EA01028A
:1006A0001DD0C5F30A570246C5F31303C1F3130067
:1006B000C1F30A5640F4801543F48013A7EB0608F3
:1006C000101BD64608F2FD3873EB050002D308F183
:1006D000010801E092185B41B8F1000F03DA002035
:1006E0000146BDE8F08D00204FF480110646844697
:1006F0000EE0171B73EB050705D3121B63EB050315
:1007000006434CEA010C49084FEA300092185B415D
:1007100050EA0107EDD152EA030012D082EA040048
:1007200083EA0501084305D0101BAB4106D2012224
:10073000002306E000224FF0004302E06FF00102C8
:1007400053101AEB06004CEB085110EB0A0041EB7A
:100750000B01BDE8F04DFFF7C2BEC1F30A52C1F371
:10076000130140F2FF3341F480119A4202DA002073
:100770000146704740F233439A42A2F2334202DC10
:100780005242FFF7F1BCFFF752BE000030B5041E25
:1007900071F1000404DB4FF00044404264EB0101BE
:1007A000141E73F1000405DB1C464FF00043524257
:1007B00063EB0403994208BF904230BD064C074DDD
:1007C00006E0E06840F0010394E807009847103421
:1007D000AC42F6D3FFF7B0FCC02F0008E02F0008B2
:1007E000FEE70000014800F0C1B800003801002019
:1007F000704772B6FEE710B590F82110002202296A
:1008000005D00421816380F82020012010BD0168FB
:100810000B6823F00E030B6001680B6823F00103E3
:100820000B6090F84030C46B012101FA03F3636060
:1008300080F8211080F82020104610BD2DE9F05FCF
:1008400090F821100024022903D00421816301249F
:1008500085E001680A6822F00E020A6001680A68F1
:1008600022F001020A603F4E3E4FB215DFF8F4C09D
:10087000DFF8F090DFF8ECA0DFF8E8B0DFF8E4E0B4
:100880000168783F13011502ACF1640CA9F150091D
:10089000AAF13C0AABF1280BAEF1140E4FF480180C
:1008A000B14227D9B9420ED0614512D049451DD079
:1008B000514518D0594518D0714501D1424615E02F
:1008C000294EB14201D1012210E0274E1436B14227
:1008D00001D110220AE0244E2836B14206D0224A25
:1008E0003C32914201D11A4600E02A461E49091FB6
:1008F0000A602BE0B94213D0614517D0494522D098
:1009000051451DD059451DD0714501D142461AE0CF
:10091000B14202D14FF0807215E0134EB14201D1C5
:10092000012210E0104E1436B14201D110220AE02B
:100930000D4E2836B14206D00B4A3C32914201D1CD
:100940001A4600E02A46074980394A60012180F8AA
:100950002110002180F82010416B01B1884720460A
:10096000BDE8F09F80000240080402402DE9F05FDE
:10097000C16B0A6801680B68046C4FF0040808FA40
:1009800004F8844D844E854FDFF814C2DFF81492CA
:10099000DFF814A2DFF814B2DFF814E218EA020F4D
:1009A00065D05FEA437862D50A68920603D40A6884
:1009B00022F004020A60DFF8F0814FF480620168DF
:1009C00008F1140813011402414524D9A9420DD09D
:1009D000B1420FD0B9421AD0614515D0494515D062
:1009E000514501D1120312E0594501D104220EE014
:1009F000714501D140220AE06D4D1435A94206D05F
:100A00006B4A2832914201D11A4600E022466749DA
:100A1000091F0A6029E0A94213D0B14215D0B9429A
:100A200020D061451BD049451BD0514502D14FF420
:100A3000800217E0414502D14FF0806212E0594533
:100A400001D104220EE0714501D140220AE0584D47
:100A50001435A94206D0564A2832914201D11A468D
:100A600000E022464B4908394A60C16A71E04FF004
:100A7000020808FA04F818EA020F70D05FEA8378D7
:100A80006DD50A68920606D40A6822F00A020A6046
:100A9000012180F82110DFF810814FF40072016805
:100AA00008F1140813011402414524D9A9420DD0BC
:100AB000B1420FD0B9421AD0614515D0494515D081
:100AC000514501D1120312E0594501D102220EE035
:100AD000714501D120220AE0354D1435A94206D0D6
:100AE000334A2832914201D11A4600E022462F496A
:100AF000091F0A6029E0A94213D0B14215D0B942BA
:100B000020D061451BD049451BD0514502D14FF43F
:100B1000001217E0414502D14FF0007212E0594532
:100B200001D102220EE0714501D120220AE0204DC0
:100B30001435A94206D01E4A2832914201D11A46E4
:100B400000E02246134908394A60002180F820104D
:100B5000816A00291CD0BDE8F05F0847FFE708253F
:100B6000A540154214D01A0712D50A6822F00E02C9
:100B70000A6090F84020C36B012101FA02F25A602A
:100B8000816380F82110002180F82010016BE0E7DC
:100B9000BDE8F09F080002401C0002403000024007
:100BA00044000240580002406C0002400804024029
:100BB0001C04024030B560B11A4B026814219A42FD
:100BC00009D2194B1344B3FBF1F1890001641749B1
:100BD0000AE0012030BD134B5B421344B3FBF1F13B
:100BE000890001640F490839C163022180F821108E
:100BF000136843F6F0718B43F0E901142143D0E907
:100C000002452C43214304692143446921438469FB
:100C1000214319431160002141630122427701778A
:100C2000084630BD08040240F8FFFDBF0000024046
:100C300070B5044600F01CF90546601C02D004485B
:100C40000078044400F014F9401BA042FAD370BDB0
:100C5000040000202DE9F84FDFF8C8910024A9F125
:100C6000040B23460F2709F1040AABF1040ED1E06F
:100C70000125A54006EA0502AA4276D1DFF8A8C1FF
:100C80004E68A6EB0C0866452BD00DDC032E34D045
:100C900005DC36B3012E19D0022E2FD11BE0112E08
:100CA00016D0122E2AD119E0B8F5881F19D006DC0B
:100CB000B8F5803F15D0B8F5801F1FD111E0B8F509
:100CC000001F0ED0B8F5041F18D10AE0CB6815E05C
:100CD000CB681B1D12E0CB6808330FE0CB680C33E8
:100CE0000CE08B682BB1012B4FF0080303D045615A
:100CF00004E0042302E0056100E00023FF2A01D89C
:100D0000064601E000F104064FEA840501D9A5F189
:100D10002005D6F8008007FA05FC28EA0C0803FA3B
:100D200005F548EA0508C6F800804D68ED0070D565
:100D30003E4DAE6946F00106AE61AD6924F0030692
:100D400005F0010500953A4D06EB050CDCF808505E
:100D5000A607360F07FA06F825EA0805DFF8D4805B
:100D6000404503D14FF0000825E052E0DFF8C8808D
:100D7000404502D14FF001081DE0DFF8C08040453A
:100D800002D14FF0020816E0DFF8B480404502D1EE
:100D90004FF003080FE0DFF8AC80404502D14FF080
:100DA000040808E0DFF8A080404502D14FF00508B4
:100DB00001E04FF0060808FA06F848EA0508CCF802
:100DC00008804D68D9F80060ED024D4601D5164304
:100DD00000E096432E604D68DAF80060AD0255469B
:100DE00001D5164300E096432E604D68DBF80060A5
:100DF000AD035D4601D5164300E096432E604D6875
:100E0000DEF80060ED03754601D5164300E0964319
:100E10002E60641C0A681646E2407FF429AFBDE8E4
:100E2000F88F00000804014000001110001002407B
:100E30000000014000080140000C0140001001408A
:100E40000014014000180140001C01408068084067
:100E500000D001207047C26821EA02030A4043EA39
:100E60000241016170470AB1016170470904FBE763
:100E70000148806870470000040000200248816833
:100E8000027811448160704704000020074810B5C3
:100E9000016841F010010160032000F075F80F2097
:100EA00000F006F800F024F8002010BD00200240F9
:100EB00070B50D4D04464FF47A712878B1FBF0F00F
:100EC0000A490968B1FBF0F000F0DCFA48B9102CCF
:100ED00007D200222146501E00F036F800206C6038
:100EE00070BD012070BD0000040000201000002033
:100EF0000C4808B5816941F001018161816901F007
:100F000001010091C16941F08051C161C06900F0E7
:100F1000805000900448416821F0E06141F0007188
:100F2000416008BD0010024000000140002809DBBC
:100F300000F01F02012191404009800000F1E020F3
:100F4000C0F8001170470000F0B40E4B1B680C464F
:100F5000C3F30223C3F10705042D00D90425191D8D
:100F6000072901D2002300E0DB1E012606FA05F165
:100F7000491E214099409E40761E16403143F0BCE8
:100F800001F04ABB0CED00E0064900F007020868DA
:100F90004FF6FF03184040EA0220034A104308605E
:100FA000704700000CED00E00000FA052DE9F04765
:100FB0000F46050061D0434E306800F00700B8428C
:100FC00009D2306820F0070038433060306800F004
:100FD0000700B84251D128683B4C810712D5400721
:100FE00003D5606840F4E06060602878000703D5AE
:100FF000606840F4605060606068A96820F0F000AC
:10100000084360602878C00728D06868012810D09D
:101010002168022810D0890700292EDA616821F0A2
:10102000030101436160FFF723FF804641F28839E5
:101030000DE021688903EFE78901EDE7FFF718FF6D
:10104000A0EB0801494502D90320BDE8F08760689C
:10105000696800F00C00B0EB810FEFD1306800F050
:101060000700B8420BD9306820F0070038433060E1
:10107000306800F00700B84201D00120E5E7287889
:10108000400705D56068E96820F4E06008436060C7
:101090002878000706D56068296920F4605040EA86
:1010A000C100606000F038F86168084AC1F30311BC
:1010B000515CC8400649086006480068FFF7F8FE22
:1010C0000020C2E70020024000100240A62F0008C6
:1010D0001000002008000020044805490068496805
:1010E000044AC1F30221515CC8407047100000203F
:1010F00000100240B62F00080448054900684968FE
:10110000044AC1F3C221515CC8407047100000205E
:1011100000100240B62F00080E4A51680E4801F038
:101120000C03042B11D0082B0FD10C48C1F38343BF
:10113000C903C05C0AD55168084AC1F34041921EF8
:10114000515C054A5043B0FBF1F0704704494843F5
:10115000704700000010024000127A00962F00082D
:1011600000093D002DE9F84F040070D02078C04DF3
:10117000C00749D06868C0F38100012807D06868BB
:10118000C0F38100022809D16868C00306D5286829
:10119000800339D560680028E7D035E06068B0F595
:1011A000803F0BD010B1B0F5A02F11D0286820F4EB
:1011B00080302860286820F4802002E0286840F40D
:1011C00080302860606890B1FFF752FE06460AE062
:1011D000286840F480202860F0E700BFFFF748FE51
:1011E000801B642873D828688003F7D50CE0FFF7CC
:1011F0003FFE064605E000BFFFF73AFE801B64286D
:10120000F0D828688003F7D420789A4E80074FF0F2
:1012100001094FF0000839D5686810F00C0F07D0AD
:101220006868C0F38100022809D16868C00306D449
:101230002868800714D52069012808D110E02069AA
:10124000B0B1C6F80090FFF713FE074605E00AE1CB
:10125000FFF70EFEC01B0228C4D828688007F7D508
:101260002868616920F0F80040EAC10028600DE0BC
:10127000C6F80080FFF7FCFD074604E0FFF7F8FD25
:10128000C01B022823D828688007F7D420780007DD
:101290002CD57948A169D9B1C0F80090FFF7E8FDD5
:1012A000074604E0FFF7E4FDC01B02280FD8686A78
:1012B0008007F7D571484FF4FA510068B0FBF1F0A0
:1012C000009000BF0098411E0091FAD20EE080E02D
:1012D000C0F80080FFF7CCFD074604E0FFF7C8FD2B
:1012E000C01B022875D8686A8007F7D420784007A9
:1012F00060D5E8690027C00008D4E86940F0805054
:10130000E861E869012700F0805000905C480168BE
:10131000C90513D40168834641F480710160FFF769
:10132000A7FD824606E000BFFFF7A2FDA0EB0A0082
:1013300064284ED8DBF80000C005F5D5E068012828
:101340000AD008B1052813D0286A20F001002862CD
:10135000286A20F0040002E0286A40F001002862B8
:10136000E06841F2883B98B1FFF782FD82460BE0CE
:10137000286A40F004002862EEE700BFFFF778FD1E
:10138000A0EB0A0159455AD8286A8007F6D50CE027
:10139000FFF76EFD824605E0FFF76AFDA0EB0A014C
:1013A00059454CD8286A8007F6D41FB1E86920F067
:1013B0008050E861E06988B36968C1F3810102295E
:1013C00044D00228C6F8608004D0FFF751FD0446DF
:1013D00038E034E0FFF74CFD074604E0FFF748FD36
:1013E000C01B02282BD828688001F7D4206AB0F5EA
:1013F000803F05D16868A16820F400300843686028
:10140000D4E908010843696821F47411084368604D
:10141000C6F86090FFF72CFD044606E025E000BF0B
:10142000FFF726FD001B022809D828688001F7D5A0
:101430001BE000BFFFF71CFD001B022802D90320A0
:10144000BDE8F88F28688001F4D40EE00128F7D0B9
:101450006868226A00F48031914204D1616A00F424
:101460007010884201D00120EAE70020E8E7000080
:10147000001002400000424280044242100000205E
:101480000070004010B5401EB0F1807F01D30120F4
:1014900010BD4FF0E02460610F21601701F0BCF82F
:1014A0000020A06107202061002010BD7047704718
:1014B00070B590F83C20012A2CD0012480F83C40E3
:1014C000022280F83D2003685A689D6822F0700669
:1014D0000A6832435A60104B02689A420ED00F4B92
:1014E0009A420BD0B2F1804F08D00D4B9A4205D0F2
:1014F0000C4B9A4202D00C4B9A4204D1496825F019
:1015000080031943916080F83D40002180F83C1031
:10151000084670BD022070BD002C0140003401401F
:101520000004004000080040000C004010B504001A
:1015300003D094F83D0010B107E0012010BD002059
:1015400084F83C00204600F01FF8022084F83D009B
:10155000211D206800F078FE012084F8460084F800
:101560003E0084F83F0084F8400084F8410084F88D
:10157000420084F8430084F8440084F8450084F86D
:101580003D00002010BD000008B5114A0168114857
:10159000914211D1C16941F00401C161C0690022C9
:1015A00000F00400009002211E20FFF7CDFCBDE8F2
:1015B00008401E20FFF7BABC074A914207D1C16913
:1015C00041F02001C161C06900F02000009008BD19
:1015D00000080040001002400014004090F83D1048
:1015E000012901D001207047022180F83D100068D8
:1015F0000E4988420ED00E4988420BD0B0F1804F80
:1016000008D00C49884205D00B49884202D00B49CA
:10161000884204D1816801F00701062903D00168DE
:1016200041F001010160002070470000002C0140E2
:10163000003401400004004000080040000C00405D
:1016400090F83D10012901D001207047022180F857
:101650003D100168CA6842F00102CA6000680E4984
:1016600088420ED00D4988420BD0B0F1804F08D08F
:101670000B49884205D00B49884202D00A4988426A
:1016800004D1816801F00701062903D0016841F007
:101690000101016000207047002C0140003401402E
:1016A0000004004000080040000C004001680A6A85
:1016B00041F211131A4207D10A6A9B101A4203D150
:1016C0000A6822F001020A60012180F83D10002022
:1016D000704770B5044690F83C000025012817D0EB
:1016E000012684F83C60022084F83D00206882686E
:1016F00022F0770222F47F4282600868502838D0B6
:101700000DDC20284FD005DC90B3102811D14AE021
:10171000022070BD302846D040280AD13BE0602826
:101720002FD070280DD0B0F5805F03D0B0F5005FEA
:1017300012D0012584F83D60002084F83C00284642
:1017400070BDCB68D1E90121206800F0C3FD20689D
:10175000816841F0770109E0CB68D1E90121206877
:1017600000F0B8FD2068816841F480418160E1E7C4
:1017700019E0CA684968206800F0BEFD5021206861
:1017800006E0CA684968206800F0C7FD602120684B
:1017900000F0AAFDCEE7CA684968206800F0ACFDF9
:1017A00040212068F4E7226801461046F0E77047C0
:1017B00070B50446006801694FF00005C943890708
:1017C00015D4C168C943890711D4E91E01610120FC
:1017D0002077206880698007204602D0FFF7E7FF66
:1017E00004E000F098F8204600F096F8257720688D
:1017F0000169C943490717D4C168C943490713D4CC
:101800006FF004010161022020772068806910F4E4
:10181000407F204602D0FFF7CAFF04E000F07BF8CB
:10182000204600F079F8257720680169C943090747
:1018300016D4C168C943090712D46FF008010161C9
:10184000042020772068C0698007204602D0FFF777
:10185000AEFF04E000F05FF8204600F05DF8257769
:1018600020680169C943C90617D4C168C943C906BC
:1018700013D46FF010010161082020772068C0693F
:1018800010F4407F204602D0FFF791FF04E000F003
:1018900042F8204600F040F8257720680169C943E6
:1018A000C90708D1C168C943C90704D1891E0161AC
:1018B000204600F033F820680169C943090609D4BD
:1018C000C168C943090605D46FF080010161204653
:1018D000FFF7ECFD20680169C943490609D4C168D6
:1018E000C943490605D46FF040010161204600F06C
:1018F0004FF820680169C94389060BD4C168C94300
:10190000890607D46FF0200101612046BDE87040D0
:10191000FFF7CDBD70BD70477047000010B5124A8B
:1019200001681248914209D1018842F21072491CA3
:1019300089B2B1FBF2F302FB1311018000884FF46E
:10194000FA71B0FBF1F201FB120064280AD100F039
:10195000FFFBFEF7F6FC0246BDE810400B4604A074
:1019600000F04ABE10BD000000080040000000204A
:10197000445331384232302074656D706572617441
:1019800075726520697320252E32660D0A000000ED
:101990007047704770470000F8B501680446086852
:1019A000CA684B6910F00F0F4FF000055AD003F0D2
:1019B000010602F49077374365D0C10705D0D10501
:1019C00003D5616C41F001016164410705D5D90778
:1019D00003D0616C41F002016164810705D5D9072C
:1019E00003D0616C41F004016164010707D502F086
:1019F0002001314303D0616C41F008016164616CE6
:101A000000293BD0800604D5900602D5204600F080
:101A1000C5FC20684069616CC0F3801001F00801CA
:101A2000014320462BD000F092FC2068406940061C
:101A300021D52068143050E8001F21F0400140E813
:101A40000012002AF5D1E06BA8B16D494163E06B4B
:101A5000FEF7F4FE002811D0E06B416B01B0BDE849
:101A6000F040084783060ED593060CD52046BDE806
:101A7000F84000F093BC2046FFF78CFFF8BDFFF75D
:101A800089FF6564F8BD266B2023012E7CD1C60634
:101A90007AD5D60678D508684868009048694FF02E
:101AA0000206400640D5E16B086840680004000C5F
:101AB000E8D0A28D8242E5D9E085886920282DD022
:101AC00020680C3050E8001F21F4807140E80012BB
:101AD000002AF5D12168143151E8000F20F00100EF
:101AE00041E80002002AF5D12068143050E8001FB8
:101AF00021F0400140E80012002AF5D184F842307C
:101B0000256320680C3050E8001F21F0100140E8E8
:101B10000012002AF5D1E06BFEF76DFE6663A08D22
:101B2000E18D401A81B22AE0A08DE18D401A81B288
:101B3000E08D0028A6D00029A4D022680C3252E8FB
:101B4000000F20F4907042E80007002FF5D12068C4
:101B5000143050E8002F22F0010240E80027002F47
:101B6000F5D184F84230256320680C3050E8002F0E
:101B700022F0100240E80023002BF5D166632046D6
:101B8000FFF707FFF8BDFFE705062BD5150629D59A
:101B900094F841002128F5D1A068B0F5805F01D10B
:101BA0002069B0B1206A411C216221680078486038
:101BB000E08C401E0004000CE084E3D12068C16882
:101BC00021F08001C1602068C16841F04001C1601E
:101BD000D8E7206A0088C0F308004860206A801CAB
:101BE0002062E5E74006CDD55006CBD5CA68204631
:101BF00022F04002CA6084F8413000F001F9C1E7E8
:101C00003F23000870B5040004D094F8410000257B
:101C100010B106E0012070BD84F84050204600F06D
:101C200023F8242084F841002068C16821F4005181
:101C3000C160204600F014FC2068016921F4904145
:101C400001612068416921F02A0141612068C16871
:101C500041F40051C1606564202084F8410084F89B
:101C600042006563002070BDF0B585B0002400948B
:101C70000194029403940646344F036834490222C7
:101C80000320344DBB4221D18B6943F480438B61E7
:101C90008B6903F4804304938B6943F004038B61E5
:101CA0008969039001F0040104911102CDE9001249
:101CB00069462846FEF7CEFF2815CDE9000469469F
:101CC00028460294FEF7C6FF05B0F0BD224FBB4286
:101CD000FAD1CB6943F40033CB61CB6903F4003311
:101CE00004938B6943F004038B618969039001F0CD
:101CF000040104910421CDE9001269462846FEF74B
:101D0000A9FF0820CDE90004694628460294FEF7A1
:101D1000A1FF134D1148C5E900048020C5E9024028
:101D20002C616C61AC612846EC61FEF743FF08B1A1
:101D3000FEF75FFDF5630022114626206E62FFF775
:101D400003F92620FFF7F2F8BEE700000038014053
:101D50000010024000080140004400406C000240B6
:101D60003801002070472DE9F843044690F84100FF
:101D70001F4616460D46202802D00220BDE8F883F3
:101D80007DB176B100206064212084F84100FFF726
:101D90006FF8A6848046E684A068B0F5805F02D024
:101DA00003E00120EAE7206910B12E4600250EE08D
:101DB00000260CE08021204600F0AEFBA0B9AEB1B9
:101DC00016F8010B21684860E08C401EE084E08C2E
:101DD00043464FF0000200970028EBD14FF040013E
:101DE000204600F099FB30B10320C7E735F8020B1D
:101DF000C0F30800E6E7202084F841000020BDE79A
:101E00007047FEE71FB5002001900390042000906A
:101E10000120029069460248FEF71CFF1FBD00002A
:101E20000010014010B500F04DF9214C01220421B1
:101E30002046FFF718F8032001F058F8002204218B
:101E40002046FFF710F840F2EE2001F04FF8012293
:101E500004212046FFF707F8282001F047F8FFF794
:101E6000D1FF04212046FEF7F1FF012816D000F033
:101E700029F94FF4F07001F039F8012204212046CD
:101E8000FEF7F1FF012204212046FEF7ECFF64205B
:101E900001F02CF807490020087010BD0022042131
:101EA0000548FEF7E0FF0A2001F020F8EAE700000D
:101EB000001001400200002000140140094808B54C
:101EC000416941F0010141614069002200F00100D7
:101ED000009011461020FFF737F8BDE808401020A9
:101EE000FFF724B8001002402DE9F04786B000202B
:101EF00000900190029003902648816941F02001F2
:101F00008161816901F020010491816941F0100132
:101F10008161816901F010010491816941F004013E
:101F200081618069DFF8708000F004000490002275
:101F300004214046FEF797FF0122DFF86090170268
:101F400039464846FEF78FFFDFF854A001220421EE
:101F50005046FEF788FF01240426CDE900640325DE
:101F600069464046CDE90245FEF774FECDE90074AE
:101F700069464846CDE90245FEF76CFECDE90064AE
:101F800069465046CDE90245FEF764FE06B0BDE85D
:101F9000F0870000001002400010014000080140DE
:101FA0000014014010B586B0002417480094019435
:101FB00002940394049413490594016041F61F416F
:101FC000C0E901140921C0E9031480218161FFF7F0
:101FD000ADFA08B1FEF70DFC4FF480500090694651
:101FE0000948FFF776FB08B1FEF703FC049404A947
:101FF00005480594FFF75CFA002801D0FEF7F9FBCD
:1020000006B010BD00080040180000201CB50024D8
:102010000E4800940C49019401604721C0E9011465
:102020004FF6FF718461C160FFF780FA08B1FEF7D7
:10203000E0FB0094694605480194FFF739FA00284F
:1020400001D0FEF7D6FB1CBD00140040600000204C
:102050000C4810B50A4901604FF4E131416000219C
:1020600081600C22C160C0E904128161C161FFF787
:10207000C9FD002803D0BDE81040FEF7BABB10BD73
:1020800000380140A80000200C4810B50A49016042
:102090004FF4E1314160002181600C22C160C0E950
:1020A00004128161C161FFF7ADFD002803D0BDE8D6
:1020B0001040FEF79EBB10BD00440040F000002021
:1020C000FEE7FEE71FB5042000900120019002907A
:1020D0000320039069460248FEF7BCFD1FBD0000C7
:1020E000001001407047000070B500240825174E0D
:1020F000FFF7E8FF012204213046FEF7B4FE03207B
:1021000000F0F4FE002204213046FEF7ACFE03206E
:1021100000F0ECFE6408012204213046FEF7A3FE25
:10212000052000F0E3FEFFF76DFE04213046FEF7C8
:102130008DFE012801D144F080043C2000F0D6FE41
:102140006D1E15F0FF05D3D1204670BD0010014073
:102150002DE9F041FFF766FECC2000F021FA442083
:1021600000F01EFA4FF4FA7000F0C0FEFFF75AFEBE
:10217000CC2000F015FABE2000F012FAFFF7B4FFF1
:102180000446FFF7B1FF124E7F2806D9C043E14352
:10219000401CCCB2C0B2012100E00021317000012E
:1021A000FEF7C2F807460D462046FEF7BDF86FF071
:1021B0000302FEF7A2F83A462B46FDF7F7FFFEF7BB
:1021C000D3F83178012901D180F00040BDE8F081D9
:1021D000020000207047FEF751BE30B58FB02821B5
:1021E0006846FDF7D8FF14210AA8FDF7D4FF0121A6
:1021F0000804CDE900100024029402250491CDE9E1
:1022000007504FF4E01009906846FEF7ABFF08B1A5
:1022100072B6FEE70F20CDE90A054FF48060CDE9E4
:102220000C4002210AA80E94FEF7C0FE002801D03F
:1022300072B6FEE70FB030BD704700000148FFF7EF
:10224000B7BA000018000020F0B502681C4B1D4D05
:102250001D4E1E4F1E4C4FF0804C984209D0A0429C
:1022600007D0604505D0A84203D0B04201D0B842A3
:1022700004D122F0700E4A6842EA0E02984209D058
:10228000A04207D0604505D0A84203D0B04201D09B
:10229000B84203D122F44075CA682A434D6922F03E
:1022A00080022A4302608A68C2620A688262984297
:1022B00001D0A04201D10969016301214161F0BD52
:1022C000002C01400004004000080040000C0040C9
:1022D0000034014010B5846842EA032224F47F44AC
:1022E0000A432243826010BD826822F070020A43D2
:1022F00042F007018160704710B5036A046A24F058
:1023000001040462846924F0F00444EA021423F016
:102310000A020A438461026210BD10B5036A046AAE
:1023200024F010040462846923F0A00324F47044B0
:1023300044EA023243EA01118261016210BD10B524
:10234000406A0021C185C184FFF724FB10BD0168EC
:102350000C3151E8002F22F4907241E80023002B49
:10236000F5D10168143151E8002F22F0010241E853
:102370000023002BF5D1016B012909D101680C3133
:1023800051E8002F22F0100241E80023002BF5D184
:10239000202180F8421000210163704708B590F8B1
:1023A0004210222901D0022008BD82684FF48053D8
:1023B0009A4201D1016921B1816A9A421BD04AB186
:1023C0000AE00268816A5268C2F308020A80816AE0
:1023D000891C08E0026972B10268526802F07F024B
:1023E0000A70816A491C8162C18D491E0904090C69
:1023F000C18503D01BE002685268F1E70168CA6832
:1024000022F02002CA600168CA6822F48072CA60A1
:1024100001684A6922F001024A61202180F84210D5
:1024200000214163026B012A03D0FFF79BFC0020CF
:1024300008BD016301680C3151E8002F22F0100241
:1024400041E80023002BF5D101680A68D20602D5C5
:102450000A6849680091818DFFF79BFAE7E7000061
:1024600070B5044600680169E26821F440511143E7
:1024700001612169A0680843616908432168CA684D
:1024800041F20C639A430243CA6020684169A26921
:1024900021F44071114341611E492068884202D1F4
:1024A000FEF72AFE01E0FEF717FE00EBC00101EB8C
:1024B0000012606864218000B2FBF0F3B3FBF1F31B
:1024C0006FF018067343B2FBF0F5B2FBF0F605EBC4
:1024D0008305322303EB0515B5FBF1F5B6FBF1F6E9
:1024E00005F0F00505EB0615B2FBF0F6B2FBF0F0D7
:1024F000B0FBF1F06FF01802504306EB800003EBE5
:102500000010B0FBF1F0216800F00F002844886053
:1025100070BD0000003801402DE9F0419846174693
:102520000E460446069D27E0681C25D02DB1FEF717
:102530009FFCA0EB0800A8421ED920680C3050E890
:10254000001F21F4D07140E80012002AF5D1206864
:10255000143050E8001F21F0010140E80012002A69
:10256000F5D1202084F8410084F84200002084F84E
:1025700040000320BDE8F0812068006836EA0000D2
:1025800004D00020B842CFD00020F3E70120F9E7C3
:102590000148FFF701BA0000F0000020FEE700004C
:1025A00070B50546FFF78EFD124E08240022042167
:1025B0003046FEF758FC0F2000F098FCE80701D0E9
:1025C000012200E0002204213046FEF74CFC2D20C1
:1025D00000F08CFC012204213046FEF744FC6D081B
:1025E000641E14F0FF04E1D1BDE87040462000F005
:1025F0007DBC0000001001400FB4054B10B503A9CD
:10260000044A029800F0DAF810BC5DF814FB0000F0
:102610001D2F0008140000200907090E002804DB04
:1026200000F1E02080F80014704700F00F0000F186
:10263000E02080F8141D704702E008C8121F08C18E
:10264000002AFAD170477047002001E001C1121F33
:10265000002AFBD1704700002DE9FF5FDDE9022071
:10266000010DDDF838B0024318D044F61050A1F245
:10267000FF3141430D140F98012820D0A5EB0B002A
:10268000401C5FEA000A4FF00004474EDFF81C913F
:10269000A046504616D5CAF1000728E00F9801243D
:1026A00043A2012808D0002100980F9BC0E9002117
:1026B000C0E90243BDE8FF9F6FEA0B01F4E7CBF1ED
:1026C0000000DEE7074612E0F80707D0224633464F
:1026D00040464946FDF760FF80468946224633461C
:1026E00010461946FDF758FF04460E467F10002F8E
:1026F000EAD1DDE90201BAF1000F42464B4602DAA7
:10270000FDF74AFF01E0FDF7B9FF04460E4600223F
:10271000284BFEF73BF803D84FF0FF30014607E0A7
:102720000022254B20463146FDF740FDFEF715F807
:10273000102409E0002C0ADB0A220023FDF746FEE4
:10274000019B30321A55641E50EA0102F2D1641C1A
:10275000019AC4F1110314440F9A012A03D00122F3
:1027600008430DD10AE0084304D000204FF0110BBC
:102770000F9080E7A3EB0B056D1E0DE05B4504DDBC
:102780004FF0000205F1010504E003DA4FF000020A
:10279000A5F10105002AECD000980F99C0E902319B
:1027A000C0E9004586E70000000024400000F03F3B
:1027B000300000000000F0430000E03F2DE9FF4F33
:1027C00095B09B468946064600250FE2252877D11D
:1027D00000242746F84A0121059400E0044316F836
:1027E000013F203B01FA03F01042F7D130782A284C
:1027F00011D06FF02F033078A0F13002092A16D8DB
:10280000059A44F0020402EB820203EB42021044F8
:10281000761C0590EFE759F8042B0592002A03DA9D
:10282000504244F40054059044F00204761C307881
:102830002E2816D116F8010F44F004042A280DD0D2
:102840006FF02F023078A0F13003092B09D807EB85
:10285000870302EB4303C718761CF3E759F8047BA0
:10286000761C30786C280FD006DC4C2817D06828EE
:102870000DD06A2814D104E0742810D07A280FD122
:102880000DE044F400140AE044F4801401E044F440
:1028900040147278824202D104F58014761C761CB2
:1028A000307866280BD013DC582877D009DC002854
:1028B00075D04528F6D04628F4D047281AD19DE196
:1028C00018E0632835D0642879D0652812D195E1C5
:1028D000702873D008DC6728F1D069286FD06E2883
:1028E0000DD06F2806D1B5E073282CD0752875D08F
:1028F000782874D05A46179990476D1C75E1C4F337
:102900000250022809D003280DD0D9F8001004285D
:102910000DD00D6009F1040967E1D9F80010EA173C
:10292000C1E90052F6E7D9F800100D80F2E70D700A
:10293000F0E719F8041B8DF8001000208DF8010055
:10294000EA46012003E059F804AB4FF0FF3061077D
:102950004FF0000102D40DE008F101018846B942B0
:102960000FDA8045F8DB1AF808100029F4D108E0E6
:1029700008F1010188468142FADB1AF808100029A3
:10298000F6D105985B46A0EB080721463846179A12
:1029900000F094FA284400EB080507E04DE029E137
:1029A0000DE01AF8010B5A4617999047B8F1010843
:1029B000F7D25B4621463846179A13E142E00A22D5
:1029C0000092C4F302524FF0000A022A08D059F8CC
:1029D00004CB032A4FEAEC710AD00DE029E02AE08B
:1029E00009F1070121F00702F2E802C1914609E06E
:1029F0000FFA8CFC4FEAEC71042A03D14FFA8CFCDD
:102A00004FEAEC71002907DA0A460021DCF1000CDC
:102A100061EB02012D2202E0220504D52B228DF864
:102A20000420012203E0E20701D02022F7E79046CC
:102A300059E00A2102E010220DE010214FF0000AB7
:102A400000910BE010224FF0000A44F00404082724
:102A5000009203E008224FF0000A0092C4F30252F1
:102A6000022A05D059F804CB0021032A08D009E036
:102A700009F1070121F00702F2E802C1914605E0E1
:102A80001FFA8CFC042A01D10CF0FF0C4FF0000857
:102A9000220728D5702806D0009B83F0100353EA44
:102AA0000A0305D00EE040228DF80420012208E040
:102AB0005CEA010206D030228DF804208DF8050072
:102AC00002229046009B83F0080353EA0A030AD1CE
:102AD0005CEA010201D1620705D530228DF804209D
:102AE0004FF001087F1E582804D034A003900EA890
:102AF00002900DE036A0F9E753466046009AFDF7D4
:102B000065FC84460398825C0298401E0290027025
:102B10005CEA0100F0D1029806A9081A00F1200A27
:102B2000600702D524F4803400E00127574502DD18
:102B3000A7EB0A0000E0002000EB0A0100900598D6
:102B40004144401A0590E00306D45B462146179A9B
:102B5000059800F0B3F90544002706E001A85A469D
:102B6000C05D179990476D1C7F1C4745F6DBE0035D
:102B70000CD55B462146179A059800F09FF905444D
:102B800004E030205A46179990476D1C0099481E62
:102B900000900029F5DC08E0029802995A46007876
:102BA000491C0291179990476D1CBAF10001AAF1D6
:102BB000010AF1DC65E100000928010030313233FF
:102BC0003435363738396162636465660000000069
:102BD0003031323334353637383941424344454653
:102BE0000000000000F058F90544761C30780028F9
:102BF0007FF4ECAD19B02846BDE8F08F620700D431
:102C0000062709F1070222F0070CFCE80223E1463F
:102C100003F000485FEA080C02D00FF2702C0DE0C0
:102C20005FEA045C02D50FF2682C07E05FEAC47C1F
:102C300002D00FF2602C01E0AFF2700C4FF0FF38C1
:102C400023F00043CDF850C065280CD006DC4528A1
:102C500009D046281DD047283DD13DE0662818D030
:102C600067287ED138E00021112F01DB112000E020
:102C7000781CCDE9000106A90EA8FFF7EDFCDDE9FF
:102C80000F010E9A03910021009207F1010A0491AD
:102C90004DE04FF000400097CDE9011006A90EA8C5
:102CA000FFF7DAFCDDE90F0203920E9B1199002277
:102CB000DDF80CA00093049211B9791C00EB010A15
:102CC000B7EB0A0004D4C0F1FF3007F1010A049009
:102CD000AAEB0700019044E0012F00DA0127002150
:102CE000112F01DD112000E03846CDE9000106A9D1
:102CF0000EA8FFF7B1FCDDE90F010E9A0391002148
:102D000004910092BA4621070CD40399514500DA88
:102D10008A46BAF1010F05DD009AAAF10101515C62
:102D2000302908D0B84202DA10F1040F06DA012186
:102D3000CDE9011015E0AAF10101E9E7002805DC61
:102D4000049901440491AAEB000102E0411C5145A1
:102D500000DD8A460499401A401C01904FF0004063
:102D60000290200704D40198504501DBCDF804807F
:102D700000208DF84F0002980DF14F07B0F1004F81
:102D800025D02B200E9002984FF0020800280CDA74
:102D9000404202902D200E9007E00A210298FDF794
:102DA000FFFA3031029007F8011DB8F10001A8F1D7
:102DB0000108F2DC02980028EFD1791E0E98087005
:102DC000307800F0200040F0450007F8020D12A80E
:102DD000C01B00F107081498007800B1012000EB37
:102DE0000A01019801EBE07105984144401A401E28
:102DF0000590E00306D45B462146179A059800F03B
:102E00005DF805441498007818B15A461799904710
:102E10006D1CE00324D55B462146179A059800F007
:102E20004DF805441CE00498002807DBDDE90301A8
:102E3000884203DD0098405C179901E01799302023
:102E40005A469047049805F10105401C04900198EA
:102E5000401E019004D12E205A46179990476D1CB0
:102E6000BAF10001AAF1010ADDDC05E017F8010B57
:102E70005A46179990476D1CB8F10001A8F1010856
:102E8000F4DC5B462146179A0598ABE62D0000005E
:102E90002B000000200000002DE9F0410446002531
:102EA0001E461746880404D405E039462020B04762
:102EB0006D1C641EF9D52846BDE8F0812DE9F0416E
:102EC000044600251E469046C80301D5302700E081
:102ED0002027880404D505E041463846B0476D1CDC
:102EE000641EF9D52846BDE8F081000070B54FF6A4
:102EF000FA75281A84B20848FEF770FB0648016884
:102F00004C62006801E0416A8CB2AC42FBD3BDE880
:102F100070400148FEF7CABB6000002013B540F6C0
:102F2000FF73012269460248FEF71DFF00981CBD91
:102F3000A8000020FDF7AAFFFFF74FF9FEF7D4FF26
:102F4000FEF7BCFFFFF784F8FFF79EF8FFF72AF8BB
:102F5000FFF75CF80848FEF773FB08A0FFF74CFB8F
:102F60000B4D4FF47A742046FDF762FE042128468B
:102F7000FDF771FFF7E700001800002044533138D7
:102F80004232302054657374696E670D0A00000088
:102F900000140140010202030405060708090A0B98
:102FA0000C0D0E0F101000000000000000000102C8
:102FB00003040607080900000000010203040000E2
:102FC000E02F00080000002018000000382600084C
:102FD000F82F0008180000206805000048260008A7
:102FE00000000100010000001000000000000000CF
:082FF0000024F40000000000C1
:0400000508000131BD
:00000001FF
