:020000040800F2
:10000000480C0020450100082B310008B52E0008DF
:10001000293100083D1100083938000800000000AF
:100020000000000000000000000000002F31000868
:100030008F110008000000002D3100083131000848
:100040005F0100085F0100085F0100085F01000810
:100050005F0100085F0100085F0100085F01000800
:100060005F0100085F0100085F0100085F010008F0
:100070005F0100085F0100085F0100085F010008E0
:10008000411100085F0100085F0100085F010008DE
:100090005F0100085F0100085F0100085F010008C0
:1000A0005F0100085F0100085F0100085F010008B0
:1000B0005F0100085F0100085F0100085F010008A0
:1000C0005F0100085F0100085F0100085F01000890
:1000D0005F0100085F0100082D3800085F0100087B
:1000E0005F0100085F0100085F0100085F01000870
:1000F0005F0100085F0100085F0100085F01000860
:100100005F0100085F0100085F0100085F0100084F
:100110005F0100085F0100085F0100085F0100083F
:100120005F0100085F0100085F0100085F0100082F
:10013000DFF80CD000F0D6FD004800479D460008CF
:10014000480C00200648804706480047FEE7FEE7C7
:10015000FEE7FEE7FEE7FEE7FEE7FEE7FEE7FEE777
:10016000AB31000831010008202A04DB203A21FAD3
:1001700002F00021704721FA02F3D040C2F12002C0
:10018000914008431946704740EA01039B0703D09A
:1001900009E008C9121F08C0042AFAD203E011F8C6
:1001A000013B00F8013B521EF9D27047D2B201E088
:1001B00000F8012B491EFBD270470022F6E710B56C
:1001C00013460A4604461946FFF7F0FF204610BDC5
:1001D000421C10F8011B0029FBD1801A704703460E
:1001E00011F8012B00F8012B002AF9D118467047AD
:1001F0000FB400B58DB010A909900B9000914FF08D
:10020000FF300A9000200C900548069005480790A2
:100210006A4609A80F9900F081FB0DB05DF814FB48
:1002200039090008570900082DE9FF4F087881B007
:100230009946FF2805D0491C2D2804D0002400230E
:1002400008E000230BE00124F9E703EB830300EB54
:100250004303491C0878FF28F7D104B15B42002012
:100260000090147801462D2C01D02B2C04D1521C67
:100270002D2C12D00024009400251678FF2E0ED0CD
:100280000A24A0FB04C801FB0481002700FB07111E
:10029000521C16EB0C006941EFE70124EBE799448F
:1002A00050EA01020ED00024AA4D2646DFF8A882AB
:1002B00000F0D7FC82468B46B9F1000009DAC9F19B
:1002C00000071BE001980021C0E9001105B0BDE85E
:1002D000F08F074612E0F80707D022462B4630463B
:1002E000414600F0DDFB0646884622462B46104676
:1002F000194600F0D5FB04460D467F10002FEAD1C9
:10030000B9F1000F324643465046594602DA00F032
:1003100039FC01E000F0C4FB009A0AB181F0004111
:10032000019AC2E90001D1E72DE9FF4F1F468DB0C8
:10033000D7E901464FF0FF382E2045464FF000091F
:100340000B90B9696D1C0E988847396A82468847B8
:100350000028F6D1BAF1FF3F0AD024F4D064002E71
:1003600011DDBAF12B0F08D0BAF12D0F0BD102E03D
:10037000404611B0ABE744F48064B9696D1C0E9837
:1003800088478246761E6946600501D52D2000E02B
:100390002B208DF8000001F1010B0DF1200809E080
:1003A000B9696D1C0E98884782460F9844F4007412
:1003B000761E0560002E02DDBAF1300FF0D00B99E9
:1003C0008A453ED144F0800406E00F99681CA9F1EB
:1003D000010944F400740860B9696D1C761E0E981A
:1003E000884782463028F0D02BE00B998A4505D10A
:1003F000200603D444F08004761E18E0504603F033
:100400006DFB08B30DF11301761E44F400748B45A7
:1004100008D2AAF130000BF8010B200607D5A9F18C
:10042000010003E0200602D409F101008146A00585
:1004300002D50F99681C0860B9696D1C0E98884731
:100440008246002ED1DC53E0002E51DDBAF1650F5B
:1004500002D0BAF1450F4BD1A00549D5B9696D1C41
:1004600024F44074761E0E9888478246002E0CDDD8
:100470002B2804D0BAF12D0F07D144F48074B96948
:100480006D1C0E9888478246761EE00501D52D2109
:1004900000E02B2108F8011BCDF82C8021E00DF1A4
:1004A0002901761E44F4007488450CD2AAF130006C
:1004B00010F0FF0088F8000002D10B99884509D997
:1004C00008F1010806E0E00501D5244801E042F208
:1004D0000F708146B9696D1C0E98884782460F9847
:1004E0000560002E04DD504603F0F8FA0028D6D14E
:1004F000F9690E988847FF208BF8000088F8000003
:100500000020069007904B466A4608A906A8FFF708
:100510008BFEA00502D46FF001002AE714F0240F2F
:100520000AD0E00714D1DDE906123868031D3B60EC
:100530000068C0E900120BE0DDE9060100F0B5FB40
:100540000146E00704D13868021D3A600068016086
:1005500028460EE7000024400000F03FF1D8FFFFDE
:1005600080EA010210B502F00043400022D04A00A8
:100570001FD0010E01EB1261C0F35600C2F3560208
:1005800040F4000042F40002A0FB022000047F3986
:10059000140400D0401C50EA124001D44000491E0F
:1005A000C2B20C0604EBD010401C4008802A02D0D6
:1005B00003E0002010BD20F00100002900DA002037
:1005C000184310BD420005D0C0F3C75252429142B9
:1005D00001DC0020704700EBC15070472DE9FE4F51
:1005E000804681EA0300C00F0C46009021F00041D4
:1005F00023F00045B8EB0200A94105D24046214650
:1006000090461C460B46024623F00040104347D05C
:10061000270DC7F30A00C3F30A510290401A019054
:1006200040286BDAC3F3130040F4801B0098924615
:1006300020B10023D2EB030A63EB0B0B0198594660
:10064000C0F14002504600F042F906460D465046C1
:100650005946019A00F04AF910EB08006141002464
:1006600087EA115284EAE7731A4340D0009A62B3D2
:10067000019A012A4FEA075215DC001B61EB0201C7
:100680004FF0004202EA0752CDE90042001C41F55A
:10069000801132462B4600F0B5F903B0BDE8F08F6B
:1006A00040462146F9E7001B61EB0201001C41F5C1
:1006B000801300185B412018A2F5001747EB0301D7
:1006C00040EAD570B6196D4111E06D084FEA360663
:1006D00045EAC0754FEA0752001B61EB0201001C9E
:1006E00041F5801149084FEA300000195141324666
:1006F0002B4603B0BDE8F04F00F075B90098012219
:1007000040000023D0EB020263EBE0730098214627
:100710004FEAE074B8EB000061EB0401E9E783F015
:1007200000435BE781F0004158E770B521F00043DA
:1007300003430CD0C1F30A550024D5EB040564EB48
:100740000403D617AD1AB34102DB0020014670BD89
:10075000201841EB025170BD96230022114600F093
:1007600014B90EB540F2334102910021CDE90011D8
:100770000A460B4600F046F903B000BD70B5C1F360
:100780000A5201F000450024C1F3130140F2FF3387
:1007900041F480119A4201DA002070BD40F23343E7
:1007A0009A42A2F2334203DC5242FFF7DDFC00E042
:1007B00090402C43F1D0404270BD00F0004230F038
:1007C00000400AD0C10D01F56071C0F3160042EA85
:1007D0000151C2084007114370470020014670478D
:1007E00030B5041E71F1000404DB4FF000444042B8
:1007F00064EB0101141E73F1000405DB1C464FF08D
:100800000043524263EB04038B4208BF824230BD77
:1008100030B5041E71F1000404DB4FF00044404287
:1008200064EB0101141E73F1000405DB1C464FF05C
:100830000043524263EB0403994208BF904230BD2B
:1008400030B50B46014600202022012409E021FAA0
:1008500002F59D4205D303FA02F5491B04FA02F59D
:100860002844151EA2F10102F1DC30BD2DE9F05F34
:100870000546002092469B4688460646814640240F
:100880001BE02846414647462246FFF76DFC53468B
:100890005A46C01A914110D311461846224600F01C
:1008A00016F82D1A67EB01084F4622460120002159
:1008B00000F00DF817EB00094E41201EA4F10104D1
:1008C000DFDC484631462A464346BDE8F09F202AF1
:1008D00004DB203A00FA02F1002070479140C2F197
:1008E000200320FA03F3194390407047202A06DBC7
:1008F000CB17203A41FA02F043EAE07306E041FAEE
:1009000002F3D040C2F120029140084319467047DB
:10091000026811441378016018467047D160044999
:1009200051610449116200211161114600F0F2B9D0
:1009300011090008090D0008426842B1016811F868
:10094000013B23B1521EC0E9001218467047012135
:10095000C160881E704742685AB1C368016843B9D4
:1009600083688B4205D0491E521CC0E9001200204A
:1009700070474FF0FF3070470029A8BF7047401CF8
:10098000490008BF20F00100704710B4B0FA80FCA5
:1009900000FA0CF050EA010404BF10BC704749B1E2
:1009A000CCF1200421FA04F411FA0CF118BF012152
:1009B00021430843A3EB0C01CB1D4FEA00614FEA32
:1009C000102042BF002010BC704700EBC350104401
:1009D0000029A4BF10BC7047401C490008BF20F08C
:1009E000010010BC704710B5141E73F1000408DA42
:1009F000401C41F1000192185B411A4301D120F0E3
:100A0000010010BD2DE9F04D92469B4611B1B1FA9F
:100A100081F202E0B0FA80F220329046FFF757FFF1
:100A200004460F4640EA0A0041EA0B0153465A4683
:100A3000084313D0114653EA010019D0C8F140020F
:100A40005046FFF791FB05460E4650465946424632
:100A5000FFF73DFF084305D0012004E0204639465A
:100A6000BDE8F08D0020054346EAE0762C4337438D
:100A70000A986305E40AA0EB08000022FD0A44EA94
:100A800047540A3002D500200146E9E70105101954
:100A90006941DDE9084500196941BDE8F04DA2E76B
:100AA0002DE9FE4F81EA030404F0004421F00041E7
:100AB00000944FF0000B23F0004350EA01045ED095
:100AC00052EA03045BD0C3F30A54C1F30A552C4421
:100AD000A4F2F3340194A0FB0254C1F3130141F4D6
:100AE0008011C3F3130343F4801301FB024400FBA2
:100AF000034E840A970A44EA815447EA8357A4FBC9
:100B0000076802958D0A05FB07854FEA932C04FBC5
:100B10000C542705029D4FEA065847EA1637B5EBF5
:100B200008056EEB070C870E920E47EA811742EA22
:100B30008312A7FB0201B6EB0B0164EB00042B0D43
:100B400043EA0C335E1844EB1C50DA465146E7FB8F
:100B50000201C5F313044FEA0B3343EA14534FEA7F
:100B60000432019C43EA0603A4F10C040294009CA5
:100B7000CDE900B4FFF746FF03B0BDE8F08F0020D9
:100B80000146F9E72DE9F04D81EA030404F0004B3A
:100B900021F0004514464FF0000A23F0004150EACE
:100BA000050220D054EA01021DD0C5F30A570246BF
:100BB000C5F31303C1F31300C1F30A5640F48015C3
:100BC00043F48013A7EB0608101BD64608F2FD3845
:100BD00073EB050002D308F1010801E092185B41B4
:100BE000B8F1000F03DA00200146BDE8F08D0020C7
:100BF0004FF48011064684460EE0171B73EB050781
:100C000005D3121B63EB050306434CEA010C4908AC
:100C10004FEA300092185B4150EA0107EDD152EAE9
:100C2000030012D082EA040083EA0501084305D0DC
:100C3000101BAB4106D20122002306E000224FF038
:100C4000004302E06FF0010253101AEB06004CEB78
:100C5000085110EB0A0041EB0B01BDE8F04DFFF726
:100C6000C2BE0EB540F2334202920022CDE900220C
:100C70001346FFF7C7FE03B000BDC1F30A52C1F32C
:100C8000130140F2FF3341F480119A4202DA00204E
:100C90000146704740F233439A42A2F2334202DCEB
:100CA0005242FFF761BAFFF712BE01F0004330B4C1
:100CB00021F0004150EA010206D00A0DA2F560724F
:100CC000C1F31301002A02DC30BC00207047440F3E
:100CD00044EAC104C100E01830BC00EBC250FFF789
:100CE0004BBE0000064C074D06E0E06840F00103F3
:100CF00094E8070098471034AC42F6D3FFF71CFA8B
:100D0000784D0008984D0008C0B24FF4F05100F043
:100D100097B900002DE9F34F8BB04FF0000801F1B7
:100D20000C000C464FF0010B46460DF1080A0190ED
:100D30006269012101989047051E2DD0252D2CD0E8
:100D4000216A8847C0B16269012101989047216AF0
:100D500088470028F7D1411E62690198904700E05A
:100D6000761CA1690B988847216A88470028F7D12B
:100D7000E1690B988847DBE7A1690B98884707462C
:100D8000A84201D1761CD3E7E1690B9888477F1C04
:100D900002D1B8F1000F6FD046E1002762693D46ED
:100DA0003946019890472A2804D1626901210198A7
:100DB00090470125DFF884926269012101989047EC
:100DC000A0F130010A290AD24F45E5DC07EB870183
:100DD00000EB4107303FDFD445F01005ECE7E906B2
:100DE00001D46FF000476C280AD04C2814D0682832
:100DF00015D06A280DD074281CD07A281AD01DE08E
:100E000062690121019890476C2802D045F00405E1
:100E100014E045F002050DE045F020050AE06269A6
:100E2000012101989047682802D045F0080505E0A7
:100E300045F400656269012101989047C4E90157B2
:100E400065283DD019DC58287AD00CDC452837D0ED
:100E500004DC252826D0412831D131E046282FD086
:100E600047282CD12CE05B2877D0612828D0632834
:100E70007CD0642823D15AE0D0E06F2848D008DC29
:100E800066281DD067281BD0692821D06E2816D16E
:100E900027E0702845D0732868D0752847D0782877
:100EA0000DD14DE0A1690B988847054625283FF4F0
:100EB00069AFE1690B9888476D1C3FF46AAFB3E0F6
:100EC00023466A466FF001000B99FFF72DFA9EE06A
:100ED00045F040006060A80723464FF0000236D47A
:100EE0003EE0E8077FF447AF2068011D21600068FD
:100EF000290501D506701BE7290701D5068017E7EC
:100F0000A90703D5F117C0E9006111E706600FE7F3
:100F100045F040006060A80723464FF0080216D451
:100F20001EE040F60E0125EA0100606016E045F083
:100F300040006060A80723464FF00A0207D40FE084
:100F400045F040006060A80708D5234610226FF0E6
:100F500001000B99AFF3008059E007E0234610220F
:100F60006FF001000B99AFF3008050E04FF00009E3
:100F70004F464B46632802D05B2806D040E0E80687
:100F800001D40120A06001273AE0626901210198A3
:100F900090475E2805D14FF00109626949460198E2
:100FA0009047216939B900210A46534643F8212068
:100FB000491C0829FADBB0B3216969B9C11700EBF4
:100FC000D16253110AEB830122F01F02821A012021
:100FD0000B68904003430B606269012101989047C0
:100FE0005D28E8D1B9F1000F09D00020514651F831
:100FF0002020D24341F82020401C0828F7DB02AB18
:10100000224600976FF001000B99AFF30080002893
:101010000CDA401C08D1BBF1000F05D04FF0FF30B7
:101020000DB0BDE8F08FFFE74046F9E7E90701D1D1
:1010300008F1010806444FF0000B79E6CCCCCC0C4B
:101040007F2801D9002208E0064A02EB5002C007BF
:10105000127800D1120902F00F02012090400840DE
:1010600070470000384D000870B50446006881687C
:10107000C943C90717D1816821F00101816000F0DF
:101080009FFE05460AE000BF00F09AFE401B0228C2
:1010900004D920688068C043C00706D020688068F3
:1010A000C043C007F0D0002070BDA06A40F010001F
:1010B000A062E06A40F00100E062012070BD000023
:1010C000F8B500260446009600688168C943C90740
:1010D0002DD0816841F001018160164816490068F1
:1010E000B0FBF1F000E0401E00900028FBD100F0C2
:1010F00067FE054616E000BF00F062FE401B0228B6
:1011000010D920688068C043C0070BD0A06A40F0A7
:101110001000A062E06A40F00100E06284F8246000
:101120000120F8BD20688068C043C007E4D10020DA
:10113000F8BD00003C00002040420F00FEE7000028
:1011400010B5054800F08EFBBDE81040C8220349E9
:10115000034801F027BC000000060020A80400207E
:10116000B805002030B590F840500124AC40C56B64
:101170006C60046863604368102B036803D0996057
:101180000068C26030BD9A600068C16030BD7047C1
:1011900072B6FEE7F8B500250446009590F82400E5
:1011A00001280BD0012084F824002046FFF75CFFC3
:1011B0002046FFF785FF060002D050E00220F8BD70
:1011C000A06A20F4885040F00200A062022000F0E3
:1011D00095FE25490968B1FBF0F0400000E0401E93
:1011E00000900028FBD12068816841F008018160EF
:1011F00000F0E6FD074608E000F0E2FDC01B0A280B
:1012000003D920688068000715D42068806800072B
:10121000F2D42068816841F00401816000F0D0FDC3
:10122000074612E000F0CCFDC01B0A280DD920684B
:101230008068400709D5A06A20F0020040F0100045
:10124000A06284F824500120F8BD2068806840071F
:10125000E8D4A06A20F0020040F00100A06284F807
:1012600024503046F8BD00003C000020F8B50024B2
:10127000009490F824202546012A12D0012280F8FB
:1012800024204A681F23072A0DD20668776B521E56
:1012900002EB820293409F430B6893401F437763A6
:1012A00019E00220F8BD06680D2A0AD2376BD21F5A
:1012B00002EB820293409F430B6893401F433763C6
:1012C00009E0F76A0D3A02EB820293409F430B68F4
:1012D00093401F43F7620A68072306680A2A0AD365
:1012E000F7680A3A02EB420293409F438B689340AF
:1012F0001F43F76008E0376902EB420293409F43C7
:101300008B6893401F4337610A68102A01D0112A65
:1013100020D1124B02689A4217D193681B0219D44C
:10132000936843F4000393600968102912D10C49B3
:101330000C4A0968B1FBF2F101EB8101490000E0C0
:10134000491E00910029FBD104E0816A41F020018F
:101350008162012480F824502046F8BD0024014019
:101360003C00002040420F00806A70470068C06C5B
:10137000704700002DE9F04104004FF0000514D043
:10138000A06A002628B9E66284F82460204600F0AE
:1013900083F82046FFF768FEA16A01F010010143BF
:1013A00004D0A06A40F01000A0626BE0A16A21F4B2
:1013B000885141F00201A162334923688B42E169FF
:1013C00004D1B1F5402F01D14FF40021277B4FF418
:1013D000807C41EA470261680A43A168614509D0FF
:1013E000012907D05FF0000194F814E0BEF1010F6D
:1013F00002D00AE06146F7E7C7B1A76A47F02007C5
:10140000A762E76A47F00107E7625F6827F4694768
:101410000F435F60236899681C4F394011439960FE
:10142000A16861450BD0012909D00CE0DFF860E02C
:10143000A7690EEB47370F4347F40061E5E7218AC0
:101440000D05A5F580152168CB6A23F470032B43A5
:10145000CB62216889680F4B1940914208D1E6623E
:10146000A16A21F0020141F00101A162BDE8F08111
:10147000A06A20F0020040F01000A062E06A40F094
:101480000100E0620120F1E7003C0140FDF7E1FFCF
:1014900000E0FFFFFE0E1FFF00B585B000210091A8
:1014A00001910291039100680E49884218D10E48BB
:1014B000816941F400718161816901F400710491D5
:1014C000816941F0040181618069694600F004008E
:1014D00004904020009003200190044800F06EFB2F
:1014E00005B000BD0024014000100240000801408A
:1014F0002DE9F84300270D460446009700F060FCF4
:10150000804620688168C90508D5A06A40F020009F
:10151000A06284F824700120BDE8F8834168C90501
:1015200003D4C06A10F4700F2AD0022000F0E6FC49
:101530003B490968B1FBF0F62068036939490B4261
:101540004FEA61014FEAA1121FD1C3684FEA611C43
:1015500013EA0C0F19D103690B4225D1C068104260
:1015600022D1142023E0681C0AD02DB100F028FC01
:10157000A0EB0800A84203D920680068800725D5A1
:10158000206800688007EED52DE003690B4202D188
:10159000C168114206D0026923490A4206D1C068D7
:1015A000084203D1542002E0292000E0FC204643F9
:1015B000009816E0681C11D02DB100F001FCA0EBE2
:1015C0000800A8420AD90098B04207D2A06A40F0A9
:1015D0000400A06284F8247003209DE70098401C5A
:1015E0000090B042E6D321686FF012000860A06A54
:1015F00040F40070A06220688068C0F34240072871
:101600000CD1207B50B9A06A20F48070A062A06A3F
:10161000C00403D4A06A40F00100A06200207BE770
:101620003C000020244992244992240070B50446CD
:1016300090F8240001280DD0012084F824002046D1
:10164000FFF73EFD02004FF0000005D084F82400B3
:10165000104670BD022070BDA16A40F2012399437B
:1016600041F48071A1621F4D23681F49AB4218D11C
:101670000E6816F4702F14D0A66A46F48016A6627F
:101680000E68760505D5A66A26F4005646F48056FF
:10169000A662A66AF6040AD5E66A26F00606E6629F
:1016A00006E0A66A26F48016A6625E68E9E7E062B4
:1016B00084F824006FF00200186020688368C3F388
:1016C0004243072B05D1A84208D1096811F4702FB5
:1016D00004D0816841F480118160B9E7816841F4E8
:1016E000A001F9E7002801400424014010B590F85A
:1016F00021100022022905D00421816380F82020D6
:10170000012010BD01680B6823F00E030B60016817
:101710000B6823F001030B6090F84030C46B01218B
:1017200001FA03F3636080F8211080F8202010464E
:1017300010BD00002DE9F05F90F82110002402296F
:1017400003D004218163012485E001680A6822F046
:101750000E020A6001680A6822F001020A603F4E28
:101760003E4FB215DFF8F4C0DFF8F090DFF8ECA0E0
:10177000DFF8E8B0DFF8E4E00168783F1301150214
:10178000ACF1640CA9F15009AAF13C0AABF1280BA9
:10179000AEF1140E4FF48018B14227D9B9420ED0E1
:1017A000614512D049451DD0514518D0594518D032
:1017B000714501D1424615E0294EB14201D10122C5
:1017C00010E0274E1436B14201D110220AE0244E17
:1017D0002836B14206D0224A3C32914201D11A4603
:1017E00000E02A461E49091F0A602BE0B94213D0C7
:1017F000614517D0494522D051451DD059451DD0CE
:10180000714501D142461AE0B14202D14FF08072D7
:1018100015E0134EB14201D1012210E0104E1436F2
:10182000B14201D110220AE00D4E2836B14206D055
:101830000B4A3C32914201D11A4600E02A46074940
:1018400080394A60012180F82110002180F82010A1
:10185000416B01B188472046BDE8F09F80000240FF
:10186000080402402DE9F05FC16B0A6801680B684B
:10187000046C4FF0040808FA04F8844D844E854F38
:10188000DFF814C2DFF81492DFF814A2DFF814B204
:10189000DFF814E218EA020F65D05FEA437862D5F8
:1018A0000A68920603D40A6822F004020A60DFF88C
:1018B000F0814FF48062016808F1140813011402EA
:1018C000414524D9A9420DD0B1420FD0B9421AD016
:1018D000614515D0494515D0514501D1120312E09B
:1018E000594501D104220EE0714501D140220AE0A0
:1018F0006D4D1435A94206D06B4A2832914201D170
:101900001A4600E022466749091F0A6029E0A942F9
:1019100013D0B14215D0B94220D061451BD0494502
:101920001BD0514502D14FF4800217E0414502D14E
:101930004FF0806212E0594501D104220EE071455A
:1019400001D140220AE0584D1435A94206D0564A2A
:101950002832914201D11A4600E022464B4908390B
:101960004A60C16A71E04FF0020808FA04F818EA08
:10197000020F70D05FEA83786DD50A68920606D4AC
:101980000A6822F00A020A60012180F82110DFF8BB
:1019900010814FF40072016808F114081301140259
:1019A000414524D9A9420DD0B1420FD0B9421AD035
:1019B000614515D0494515D0514501D1120312E0BA
:1019C000594501D102220EE0714501D120220AE0E1
:1019D000354D1435A94206D0334A2832914201D1FF
:1019E0001A4600E022462F49091F0A6029E0A94251
:1019F00013D0B14215D0B94220D061451BD0494522
:101A00001BD0514502D14FF4001217E0414502D1DD
:101A10004FF0007212E0594501D102220EE07145EB
:101A200001D120220AE0204D1435A94206D01E4AD9
:101A30002832914201D11A4600E022461349083962
:101A40004A60002180F82010816A00291CD0BDE87E
:101A5000F05F0847FFE70825A540154214D01A0794
:101A600012D50A6822F00E020A6090F84020C36B7B
:101A7000012101FA02F25A60816380F821100021ED
:101A800080F82010016BE0E7BDE8F09F08000240FD
:101A90001C00024030000240440002405800024056
:101AA0006C000240080402401C04024030B560B1E2
:101AB0001A4B026814219A4209D2194B1344B3FB02
:101AC000F1F18900016417490AE0012030BD134B90
:101AD0005B421344B3FBF1F1890001640F490839FB
:101AE000C163022180F82110136843F6F0718B4323
:101AF000F0E901142143D0E902452C432143046954
:101B00002143446921438469214319431160002121
:101B10004163012242770177084630BD0804024044
:101B2000F8FFFDBF0000024070B5044690F82000A9
:101B3000002501280CD0012084F8200094F82160B1
:101B40000020012E06D084F820000225284670BD12
:101B5000022070BD022684F82160A0632068066818
:101B600026F0010606602046FFF7FCFAE06A00282E
:101B70002068016802D041F00E0106E021F0040166
:101B800001602068016841F00A0101602068016875
:101B900041F001010160D9E770B5044600F010F989
:101BA0000546601C02D004480078044400F008F99F
:101BB000401BA042FAD370BD300000202DE9F84F41
:101BC000DFF8C8910024A9F1040B23460F2709F17F
:101BD000040AABF1040ED1E00125A54006EA050296
:101BE000AA4276D1DFF8A8C14E68A6EB0C0866457C
:101BF0002BD00DDC032E34D005DC36B3012E19D0EA
:101C0000022E2FD11BE0112E16D0122E2AD119E050
:101C1000B8F5881F19D006DCB8F5803F15D0B8F5A7
:101C2000801F1FD111E0B8F5001F0ED0B8F5041FBA
:101C300018D10AE0CB6815E0CB681B1D12E0CB6819
:101C400008330FE0CB680C330CE08B682BB1012B11
:101C50004FF0080303D0456104E0042302E005616E
:101C600000E00023FF2A01D8064601E000F1040647
:101C70004FEA840501D9A5F12005D6F8008007FABE
:101C800005FC28EA0C0803FA05F548EA0508C6F839
:101C900000804D68ED0070D53E4DAE6946F00106FE
:101CA000AE61AD6924F0030605F0010500953A4DDB
:101CB00006EB050CDCF80850A607360F07FA06F805
:101CC00025EA0805DFF8D480404503D14FF000082D
:101CD00025E052E0DFF8C880404502D14FF001080E
:101CE0001DE0DFF8C080404502D14FF0020816E049
:101CF000DFF8B480404502D14FF003080FE0DFF871
:101D0000AC80404502D14FF0040808E0DFF8A08025
:101D1000404502D14FF0050801E04FF0060808FAEF
:101D200006F848EA0508CCF808804D68D9F8006044
:101D3000ED024D4601D5164300E096432E604D68F6
:101D4000DAF80060AD02554601D5164300E096432F
:101D50002E604D68DBF80060AD035D4601D516438B
:101D600000E096432E604D68DEF80060ED03754696
:101D700001D5164300E096432E60641C0A6816469F
:101D8000E2407FF429AFBDE8F88F0000080401406D
:101D90000000111000100240000001400008014046
:101DA000000C0140001001400014014000180140E7
:101DB000001C01400AB1016170470904FBE7000003
:101DC00001488068704700003000002002488168A8
:101DD000027811448160704730000020074810B538
:101DE000016841F010010160032000F075F80F2038
:101DF00000F006F800F024F8002010BD002002409A
:101E000070B50D4D04464FF47A712878B1FBF0F0AF
:101E10000A490968B1FBF0F000F0AEFB48B9102C9C
:101E200007D200222146501E00F036F800206C60D8
:101E300070BD012070BD0000300000203C0000207B
:101E40000C4808B5816941F001018161816901F0A7
:101E500001010091C16941F08051C161C06900F088
:101E6000805000900448416821F0E06141F0007129
:101E7000416008BD0010024000000140002809DB5D
:101E800000F01F02012191404009800000F1E02094
:101E9000C0F8001170470000F0B40E4B1B680C46F0
:101EA000C3F30223C3F10705042D00D90425191D2E
:101EB000072901D2002300E0DB1E012606FA05F106
:101EC000491E214099409E40761E16403143F0BC89
:101ED00001F0DCBC0CED00E0064900F007020868E8
:101EE0004FF6FF03184040EA0220034A10430860FF
:101EF000704700000CED00E00000FA0510B5014647
:101F00000020284C04292FD00BDC012930D00229D5
:101F100029D100F06BF96168C1F38131491C490096
:101F20001FE0082920D010291DD161682268D20144
:101F300019D51D48C1F38342C903805C0AD5616885
:101F4000194AC1F34041921E515C184AB2FBF1F1AB
:101F5000484301E0164948436168490203D4400000
:101F60000321B0FBF1F010BDBDE8104000F04EB908
:101F7000226AC2F30121012903D1920701D5C803C6
:101F800010BD022905D1626A920702D549F6404088
:101F900010BD0329FCD121688903F9D54FF22440F3
:101FA00010BD000000100240104D000800127A0021
:101FB00000093D002DE9F84305460078354CC0077F
:101FC00054D0E0690026C00008D4E06940F0805099
:101FD000E061E069012600F0805000902E48016821
:101FE000C90512D40168804641F480710160FFF791
:101FF000E7FE074605E000BFFFF7E2FEC01B6428CE
:1020000023D8D8F80000C005F6D5206A10F4407037
:1020100021D0A98801F4407181421CD0206A1F4957
:10202000012220F440700A6000220A602062C0078A
:1020300011D0FFF7C5FE074641F2883808E000BF1F
:10204000FFF7BEFEC11B414502D90320BDE8F8835E
:10205000206A8007F4D5206A696820F4407008433C
:1020600020621EB1E06920F08050E061287880078E
:1020700005D56068A96820F440400843606028786E
:10208000C00605D56068696920F480000843606077
:102090000020DBE700100240007000404004424294
:1020A0002DE9F0470F46050061D0434E306800F03F
:1020B0000700B84209D2306820F00700384330608A
:1020C000306800F00700B84251D128683B4C8107C6
:1020D00012D5400703D5606840F4E060606028785E
:1020E000000703D5606840F4605060606068A968CC
:1020F00020F0F000084360602878C00728D06868A6
:10210000012810D02168022810D0890700292EDA72
:10211000616821F0030101436160FFF751FE8046D1
:1021200041F288390DE021688903EFE78901EDE785
:10213000FFF746FEA0EB0801494502D90320BDE8A0
:10214000F0876068696800F00C00B0EB810FEFD198
:10215000306800F00700B8420BD9306820F0070063
:1021600038433060306800F00700B84201D00120E9
:10217000E5E72878400705D56068E96820F4E06065
:10218000084360602878000706D56068296920F454
:10219000605040EAC100606000F038F86168084AA9
:1021A000C1F30311515CC840064908600648006845
:1021B000FFF726FE0020C2E7002002400010024088
:1021C000204D00083C000020340000200448054950
:1021D00000684968044AC1F30221515CC840704755
:1021E0003C00002000100240304D00080448054922
:1021F00000684968044AC1F3C221515CC840704775
:102200003C00002000100240304D00080E4A51688A
:102210000E4801F00C03042B11D0082B0FD10C48F1
:10222000C1F38343C903C05C0AD55168084AC1F3AE
:102230004041921E515C054A5043B0FBF1F070479B
:1022400004494843704700000010024000127A0021
:10225000FE4C000800093D002DE9F84F040070D045
:102260002078C04DC00749D06868C0F381000128BC
:1022700007D06868C0F38100022809D16868C003EC
:1022800006D52868800339D560680028E7D035E096
:102290006068B0F5803F0BD010B1B0F5A02F11D021
:1022A000286820F480302860286820F4802002E02C
:1022B000286840F480302860606890B1FFF780FDA6
:1022C00006460AE0286840F480202860F0E700BF56
:1022D000FFF776FD801B642873D828688003F7D544
:1022E0000CE0FFF76DFD064605E000BFFFF768FD57
:1022F000801B6428F0D828688003F7D420789A4E91
:1023000080074FF001094FF0000839D5686810F0D8
:102310000C0F07D06868C0F38100022809D16868F3
:10232000C00306D42868800714D52069012808D185
:1023300010E02069B0B1C6F80090FFF741FD0746F4
:1023400005E00AE1FFF73CFDC01B0228C4D828685D
:102350008007F7D52868616920F0F80040EAC100DD
:1023600028600DE0C6F80080FFF72AFD074604E06C
:10237000FFF726FDC01B022823D828688007F7D462
:10238000207800072CD57948A169D9B1C0F8009010
:10239000FFF716FD074604E0FFF712FDC01B0228F9
:1023A0000FD8686A8007F7D571484FF4FA51006872
:1023B000B0FBF1F0009000BF0098411E0091FAD2EE
:1023C0000EE080E0C0F80080FFF7FAFC074604E06A
:1023D000FFF7F6FCC01B022875D8686A8007F7D49F
:1023E0002078400760D5E8690027C00008D4E86974
:1023F00040F08050E861E869012700F080500090CB
:102400005C480168C90513D40168834641F48071B2
:102410000160FFF7D5FC824606E000BFFFF7D0FC65
:10242000A0EB0A0064284ED8DBF80000C005F5D503
:10243000E06801280AD008B1052813D0286A20F0E6
:1024400001002862286A20F0040002E0286A40F0B7
:1024500001002862E06841F2883B98B1FFF7B0FCC8
:1024600082460BE0286A40F004002862EEE700BFD5
:10247000FFF7A6FCA0EB0A0159455AD8286A800745
:10248000F6D50CE0FFF79CFC824605E0FFF798FCD0
:10249000A0EB0A0159454CD8286A8007F6D41FB131
:1024A000E86920F08050E861E06988B36968C1F3A9
:1024B0008101022944D00228C6F8608004D0FFF7C9
:1024C0007FFC044638E034E0FFF77AFC074604E07E
:1024D000FFF776FCC01B02282BD828688001F7D4B0
:1024E000206AB0F5803F05D16868A16820F400300B
:1024F00008436860D4E908010843696821F474114D
:1025000008436860C6F86090FFF75AFC044606E08E
:1025100025E000BFFFF754FC001B022809D82868FB
:102520008001F7D51BE000BFFFF74AFC001B022823
:1025300002D90320BDE8F88F28688001F4D40EE0AA
:102540000128F7D06868226A00F48031914204D1F2
:10255000616A00F47010884201D00120EAE700208F
:10256000E8E70000001002400000424280044242BE
:102570003C0000200070004010B5401EB0F1807F8C
:1025800001D3012010BD4FF0E02460610F216017DE
:1025900001F07CF90020A06107202061002010BD1F
:1025A00070B590F83C20012A2CD0012480F83C40E2
:1025B000022280F83D2003685A689D6822F0700668
:1025C0000A6832435A60104B02689A420ED00F4B91
:1025D0009A420BD0B2F1804F08D00D4B9A4205D0F1
:1025E0000C4B9A4202D00C4B9A4204D1496825F018
:1025F00080031943916080F83D40002180F83C1031
:10260000084670BD022070BD002C0140003401401E
:102610000004004000080040000C004010B5040019
:1026200003D094F83D0010B107E0012010BD002058
:1026300084F83C00204600F01FF8022084F83D009A
:10264000211D206800F0B2FD012084F8460084F8C6
:102650003E0084F83F0084F8400084F8410084F88C
:10266000420084F8430084F8440084F8450084F86C
:102670003D00002010BD000008B5006806498842F2
:1026800008D10648C16941F00401C161C06900F088
:102690000400009008BD0000000800400010024047
:1026A00070B5044690F83C000025012817D001269B
:1026B00084F83C60022084F83D002068826822F0A3
:1026C000770222F47F4282600868502838D00DDCFF
:1026D00020284FD005DC90B3102811D14AE0022009
:1026E00070BD302846D040280AD13BE060282FD06A
:1026F00070280DD0B0F5805F03D0B0F5005F12D028
:10270000012584F83D60002084F83C00284670BD17
:10271000CB68D1E90121206800F09BFD2068816829
:1027200041F0770109E0CB68D1E90121206800F090
:1027300090FD2068816841F480418160E1E719E003
:10274000CA684968206800F059FE5021206806E0F8
:10275000CA684968206800F062FE6021206800F0C5
:1027600082FDCEE7CA684968206800F047FE402134
:102770002068F4E7226801461046F0E700B585B00E
:102780000021009101910291039100680B49884258
:1027900011D10B48816941F0080181618069694666
:1027A00000F0080004908020009002200190039027
:1027B0000448FFF703FA05B000BD00000008004020
:1027C00000100240000C014070B5044690F83C0037
:1027D00000260D4601280FD0012084F83C006AB184
:1027E000042A1DD0082A2FD00C2A3FD00126002011
:1027F00084F83C00304670BD022070BD206800F0B7
:102800003BFD2068816941F0080181612068816990
:1028100021F004018161206881692A69114311E076
:10282000206800F059FD2068816941F400618161F0
:102830002068816921F480618161206881692A6949
:1028400041EA02218161D2E7206800F07BFD206827
:10285000C16941F00801C1612068C16921F004012A
:10286000C1612068C1692A69114311E0206800F044
:102870009DFD2068C16941F40061C1612068C169A2
:1028800021F48061C1612068C1692A6941EA02219D
:10289000C161ACE710B5040003D094F83D0010B15D
:1028A00007E0012010BD002084F83C00204600F025
:1028B0001EF8022084F83D00211D206800F076FCFF
:1028C000012084F8460084F83E0084F83F0084F834
:1028D000400084F8410084F8420084F8430084F802
:1028E000440084F8450084F83D00002010BD704786
:1028F00010B50446022249B104290ED0082913D08C
:1029000094F84100012816D0012010BD94F83E0033
:102910000128F9D184F83E200FE094F83F00012807
:10292000F2D184F83F2008E094F840000128EBD170
:1029300084F8402001E084F841200122206800F062
:102940007BFC13492068134A884201D0904203D18E
:10295000436C43F400434364206888420DD09042A6
:102960000BD0B0F1804F08D00B49884205D00B49FD
:10297000884202D00A49884204D1816801F00701E7
:10298000062903D0016841F001010160002010BD5B
:10299000002C0140003401400004004000080040C9
:1029A000000C004038B5044690F84200202801D0C1
:1029B000022038BD61B15AB101202063002060635C
:1029C000204600F0AFFE0028F3D1216B012901D091
:1029D000012038BD21680A684968009121680C31DE
:1029E00051E8002F42F0100241E80023002BF5D1FE
:1029F00038BD000070B500680F4988421BD10F48F0
:102A0000006840680E49C0F1C80084B24FF6FF75F7
:102A10002B46224601F5887000F0FEF908492B4646
:102A2000224601F1C80000F0F7F92146BDE87040E8
:102A30000348FDF7C2BB70BD004400400006002003
:102A4000A804002070470000F8B501680446086833
:102A5000CA684B6910F00F0F4FF000055AD003F011
:102A6000010602F49077374365D0C10705D0D10540
:102A700003D5616C41F001016164410705D5D907B7
:102A800003D0616C41F002016164810705D5D9076B
:102A900003D0616C41F004016164010707D502F0C5
:102AA0002001314303D0616C41F008016164616C25
:102AB00000293BD0800604D5900602D5204600F0C0
:102AC00074FD20684069616CC0F3801001F008015A
:102AD000014320462BD000F033FD206840694006BA
:102AE00021D52068143050E8001F21F0400140E853
:102AF0000012002AF5D1E06BA8B16D494163E06B8B
:102B0000FEF718FE002811D0E06B416B01B0BDE864
:102B1000F040084783060ED593060CD52046BDE845
:102B2000F84000F042BD2046FFF78CFFF8BDFFF7EC
:102B300089FF6564F8BD266B2023012E7CD1C60673
:102B40007AD5D60678D508684868009048694FF06D
:102B50000206400640D5E16B086840680004000C9E
:102B6000E8D0A28D8242E5D9E085886920282DD061
:102B700020680C3050E8001F21F4807140E80012FA
:102B8000002AF5D12168143151E8000F20F001002E
:102B900041E80002002AF5D12068143050E8001FF7
:102BA00021F0400140E80012002AF5D184F84230BB
:102BB000256320680C3050E8001F21F0100140E828
:102BC0000012002AF5D1E06BFEF790FD6663A08D40
:102BD000E18D401A81B22AE0A08DE18D401A81B2C8
:102BE000E08D0028A6D00029A4D022680C3252E83B
:102BF000000F20F4907042E80007002FF5D1206804
:102C0000143050E8002F22F0010240E80027002F86
:102C1000F5D184F84230256320680C3050E8002F4D
:102C200022F0100240E80023002BF5D16663204615
:102C3000FFF7E0FEF8BDFFE705062BD5150629D501
:102C400094F841002128F5D1A068B0F5805F01D14A
:102C50002069B0B1206A411C216221680078486077
:102C6000E08C401E0004000CE084E3D12068C168C1
:102C700021F08001C1602068C16841F04001C1605D
:102C8000D8E7206A0088C0F308004860206A801CEA
:102C90002062E5E74006CDD55006CBD5CA68204670
:102CA00022F04002CA6084F8413000F002F9C1E726
:102CB0004334000870B5040004D094F841000025A6
:102CC00010B106E0012070BD84F84050204600F0AD
:102CD00023F8242084F841002068C16821F40051C1
:102CE000C160204600F0C2FC2068016921F49041D7
:102CF00001612068416921F02A0141612068C168B1
:102D000041F40051C1606564202084F8410084F8DA
:102D100042006563002070BDF0B585B000240094CA
:102D20000194029403940646344F03683449022206
:102D30000320344DBB4221D18B6943F480438B6126
:102D40008B6903F4804304938B6943F004038B6124
:102D50008969039001F0040104911102CDE9001288
:102D600069462846FEF72AFF2815CDE90004694682
:102D700028460294FEF722FF05B0F0BD224FBB4269
:102D8000FAD1CB6943F40033CB61CB6903F4003350
:102D900004938B6943F004038B618969039001F00C
:102DA000040104910421CDE9001269462846FEF78A
:102DB00005FF0820CDE90004694628460294FEF785
:102DC000FDFE134D1148C5E900048020C5E902400D
:102DD0002C616C61AC612846EC61FEF767FE08B1BE
:102DE000FEF7D6F9F5630022114626206E62FFF742
:102DF00053F82620FFF742F8BEE7000000380140F4
:102E00000010024000080140004400406C000240F5
:102E100000060020704770472DE9F843044690F8FB
:102E200041001F4616460D46202802D00220BDE86C
:102E3000F8837DB176B100206064212084F84100E0
:102E4000FEF7BEFFA6848046E684A068B0F5805FEA
:102E500002D003E00120EAE7206910B12E460025E8
:102E60000EE000260CE08021204600F0A3FCA0B973
:102E7000AEB116F8010B21684860E08C401EE0847A
:102E8000E08C43464FF0000200970028EBD14FF052
:102E90004001204600F08EFC30B10320C7E735F832
:102EA000020BC0F30800E6E7202084F84100002070
:102EB000BDE77047FEE7000010B51248FEF7B6FB0D
:102EC00032211048FEF714FB0E48FEF74DFA0E4C67
:102ED000800503D50B48FEF749FA20802188A08899
:102EE000814208D9091A4FF47A725143C0F58050D3
:102EF00091FBF0F000E000200449608080B2096896
:102F0000886310BD300400201400002060040020FD
:102F10003EB5002411480094019402940E49846047
:102F2000016004730475012505614FF4602144605C
:102F3000C161FEF71FFA08B1FEF72AF90620CDE9B4
:102F40000005694602940548FEF790F9002801D073
:102F5000FEF71EF93EBD00000024014030040020B1
:102F6000094808B5416941F0010141614069002209
:102F700000F00100009011461020FEF78DFFBDE823
:102F800008401020FEF77ABF00100240F0B585B06F
:102F9000002000900190029003901D48816941F04B
:102FA00020018161816901F020010491816941F072
:102FB00004018161816901F004010491816941F09A
:102FC000080181618069012200F00800114E14029D
:102FD000049021463046FEF7EDFE0F4F01220421FA
:102FE0003846FEF7E7FE0094012403256946304683
:102FF0000194CDE90245FEF7E1FD0420CDE900048E
:1030000069463846CDE90245FEF7D8FD05B0F0BD6A
:1030100000100240000801400014014010B58EB0BD
:1030200000240794089409940A940B941C21684680
:103030000C94FDF7C2F81F481D4901604721C0E903
:10304000011440F2E731C0E9031480218161FFF7E8
:10305000E5FA08B1FEF79CF84FF48050079007A9F5
:103060001448FFF71DFB08B1FEF792F81148FFF76F
:1030700011FC08B1FEF78CF80B940BA90D480C94C9
:10308000FFF78EFA08B1FEF783F86020CDE900045F
:10309000022002900422694604940648FFF794FB3C
:1030A00008B1FEF775F80348FFF768FB0EB010BDD6
:1030B00000080040600400200C4810B50A49016077
:1030C0004FF4E1314160002181600C22C160C0E910
:1030D00004128161C161FFF7EDFD002803D0BDE856
:1030E0001040FEF755B810BD0038014070050020B3
:1030F0000C4810B50A4901604FF4E13141600021EC
:1031000081600C22C160C0E904128161C161FFF7D6
:10311000D1FD002803D0BDE81040FEF739B810BD3E
:1031200000440040B8050020FEE7FEE77047704706
:10313000FEF74CBE30B595B028216846FDF73DF846
:1031400014210AA8FDF739F818210FA8FDF735F862
:10315000012108040025CDE90010099502950224FB
:103160000491CDE907406846FFF776F808B172B6DA
:10317000FEE70AA90F2081E831004FF48060CDE915
:103180000D0500210AA8FEF78BFF08B172B6FEE715
:103190004FF4404011900F940FA8FEF70BFF00284A
:1031A00001D072B6FEE715B030BD7047F0B50268C9
:1031B0001C4B1D4D1D4E1E4F1E4C4FF0804C984217
:1031C00009D0A04207D0604505D0A84203D0B04244
:1031D00001D0B84204D122F0700E4A6842EA0E02D1
:1031E000984209D0A04207D0604505D0A84203D03C
:1031F000B04201D0B84203D122F44075CA682A43D4
:103200004D6922F080022A4302608A68C2620A681D
:103210008262984201D0A04201D109690163012173
:103220004161F0BD002C0140000400400008004056
:10323000000C00400034014010B501F01F030121D3
:10324000046A99408C430462016A9A401143016206
:1032500010BD10B5846842EA032224F47F440A4377
:103260002243826010BD826822F070020A4342F05D
:103270000701816070470000F0B5036A026A22F01E
:103280000102026242688469124E24F073050C68E0
:103290002C4323F002058B682B430D4DA84201D02F
:1032A000B04205D123F00807CB683B4323F0040369
:1032B000A84201D0B04205D14D6922F440721543B5
:1032C0008A692A4342608461496841630362F0BDB0
:1032D000002C014000340140F0B5026A036A23F07B
:1032E00010030362436884690D6824F4E64444EAE9
:1032F00005248D6822F0200242EA05120F4D104E7F
:10330000A84201D0B04206D1CF6822F0800242EA42
:10331000071222F04002A84201D0B04207D14D6905
:1033200023F4406343EA85038D6943EA85034360E0
:103330008461496881630262F0BD0000002C014095
:1033400000340140F0B5026A036A23F4807303621B
:103350004368C46922F4007224F073050C68124EAD
:103360002C438D6842EA05220E4DA84201D0B0429E
:1033700006D1CF6822F4006242EA072222F480627A
:10338000A84201D0B04207D14D6923F4405343EA2B
:1033900005138D6943EA05134360C4614968C1633D
:1033A0000262F0BD002C01400034014030B5046AD7
:1033B000026A22F4805202624268C3690D6823F4F3
:1033C000E64343EA05238D6824F4005444EA0534B7
:1033D000084DA84202D0084DA84204D14D6922F4FC
:1033E000804242EA85124260C36149680164046216
:1033F00030BD0000002C01400034014010B5036ACC
:10340000046A24F001040462846924F0F00444EAAC
:10341000021423F00A020A438461026210BD10B54F
:10342000036A046A24F010040462846923F0A00390
:1034300024F4704444EA023243EA011182610162D9
:1034400010BD10B5406A0021C185C184FFF7FAFAAA
:1034500010BD70B5446A2068406994F84110C0F30B
:10346000C0100025212904D118B1E584204600F0C0
:103470008EF82068406994F84210C0F38010222929
:1034800004D118B1E585204600F05AF8606C40F090
:10349000100060642046FFF7D5FA70BD10B50146F4
:1034A000406A096809684FF0000289062ED4C28577
:1034B00001680C3151E8003F23F4807341E8003487
:1034C000002CF5D10168143151E8003F23F00103CD
:1034D00041E80034002CF5D10168143151E8003F77
:1034E00023F0400341E80034002CF5D1202180F87E
:1034F0004210016B012909D101680C3151E8003FEC
:1035000023F0100341E80034002CF5D14263016B35
:10351000012902D0FFF77EFC10BD818DFFF76AFA0A
:1035200010BD10B5406A01214163016B012902D031
:10353000FFF771FC10BD818D4908FFF75BFA10BDE4
:1035400001680C3151E8002F22F4907241E8002309
:10355000002BF5D10168143151E8002F22F001024F
:1035600041E80023002BF5D1016B012909D1016845
:103570000C3151E8002F22F0100241E80023002B0B
:10358000F5D1202180F842100021016370470168C5
:103590000C3151E8002F22F0C00241E80023002B3B
:1035A000F5D1202180F84110704708B590F84210FD
:1035B000222901D0022008BD82684FF480539A422C
:1035C00001D1016921B1816A9A421BD04AB10AE056
:1035D0000268816A5268C2F308020A80816A891C03
:1035E00008E0026972B10268526802F07F020A7054
:1035F000816A491C8162C18D491E0904090CC1857B
:1036000003D01BE002685268F1E70168CA6822F043
:103610002002CA600168CA6822F48072CA60016828
:103620004A6922F001024A61202180F842100021FB
:103630004163026B012A03D0FFF7ECFB002008BDB9
:10364000016301680C3151E8002F22F0100241E8BB
:103650000023002BF5D101680A68D20602D50A685A
:1036600049680091818DFFF7C5F9E7E770B5044619
:1036700000680169E26821F4405111430161216948
:10368000A0680843616908432168CA6841F20C6375
:103690009A430243CA6020684169A26921F44071DB
:1036A000114341611E492068884202D1FEF79EFD08
:1036B00001E0FEF78BFD00EBC00101EB001260683A
:1036C00064218000B2FBF0F3B3FBF1F36FF0180656
:1036D0007343B2FBF0F5B2FBF0F605EB8305322342
:1036E00003EB0515B5FBF1F5B6FBF1F605F0F005BA
:1036F00005EB0615B2FBF0F6B2FBF0F0B0FBF1F013
:103700006FF01802504306EB800003EB0010B0FB93
:10371000F1F0216800F00F002844886070BD0000BF
:103720000038014038B58162044682850020134686
:103730006064222284F84220E56B1B4AAA62E56B92
:103740001A4AEA62E56B1A4A2A63E26B50630A4638
:103750002168E06B091DFEF7E7F920680168406801
:103760000090206948B120680C3050E8001F41F4F7
:10377000807140E80012002AF5D12068143050E82A
:10378000001F41F0010140E80012002AF5D1206835
:10379000143050E8001F41F0400140E80012002AB8
:1037A000F5D1002038BD00009D3400082335000805
:1037B000533400082DE9F041984617460E4604465A
:1037C000069D27E0681C25D02DB1FEF7F9FAA0EB85
:1037D0000800A8421ED920680C3050E8001F21F4D0
:1037E000D07140E80012002AF5D12068143050E86A
:1037F000001F21F0010140E80012002AF5D120202D
:1038000084F8410084F84200002084F8400003203E
:10381000BDE8F0812068006836EA000004D000208E
:10382000B842CFD00020F3E70120F9E70148FFF7C5
:103830000BB90000B8050020FEE700000FB41CB56E
:103840000A46521ECDE9000207A9054B6A460698B2
:1038500000F04CF9009A002111701CBC5DF814FBBB
:103860001B4200080FB4084B10B504A902AA039824
:1038700000F03CF9044602A9002000F0D9FC2046E3
:1038800010BC5DF814FB0000314200080907090E66
:10389000002804DB00F1E02080F80014704700F0FD
:1038A0000F0000F1E02080F8141D704730B528B1FA
:1038B000144C031F002021680A4605E0084630BD6D
:1038C0009A4203D810465268002AF9D1002800D045
:1038D00041680BD00468A3EB0005A54204D11B6826
:1038E0001C440346046002E0436000E023603AB1F8
:1038F0001C68D51AA54203D115682C441C60526877
:103900005A6030BD400000202DE9F04782460F4C40
:1039100010480D4E0E4F001B4FF0000820F0070519
:103920004FF0010900221146504600F08FFE00289A
:1039300002D1306810B10020BDE8F0873C60C4E9D6
:103940000058C6F80090EDE7440000204C06002027
:10395000400000204808002002E008C8121F08C1EB
:10396000002AFAD170477047002001E001C1121F00
:10397000002AFBD1704700002DE9FF5FDDE902203E
:10398000010DDDF838B0024318D044F61050A1F212
:10399000FF3141430D140F98012820D0A5EB0B00F7
:1039A000401C5FEA000A4FF00004474EDFF81C910C
:1039B000A046504616D5CAF1000728E00F9801240A
:1039C00043A2012808D0002100980F9BC0E90021E4
:1039D000C0E90243BDE8FF9F6FEA0B01F4E7CBF1BA
:1039E0000000DEE7074612E0F80707D0224633461C
:1039F00040464946FDF754F88046894622463346FC
:103A000010461946FDF74CF804460E467F10002F6D
:103A1000EAD1DDE90201BAF1000F42464B4602DA73
:103A2000FDF73EF801E0FDF7ADF804460E46002232
:103A3000284BFCF7EDFE03D84FF0FF30014607E0BE
:103A40000022254B20463146FCF7C8FDFDF715F94D
:103A5000102409E0002C0ADB0A220023FCF706FFF1
:103A6000019B30321A55641E50EA0102F2D1641CE7
:103A7000019AC4F1110314440F9A012A03D00122C0
:103A800008430DD10AE0084304D000204FF0110B89
:103A90000F9080E7A3EB0B056D1E0DE05B4504DD89
:103AA0004FF0000205F1010504E003DA4FF00002D7
:103AB000A5F10105002AECD000980F99C0E9023168
:103AC000C0E9004586E70000000024400000F03F08
:103AD000300000000000F0430000E03F30380A28CA
:103AE00001D2012070470020704700002DE9FF4FF0
:103AF00095B09B468946064600250FE2252877D1DA
:103B000000242746F84A0121059400E0044316F8F2
:103B1000013F203B01FA03F01042F7D130782A2808
:103B200011D06FF02F033078A0F13002092A16D897
:103B3000059A44F0020402EB820203EB42021044B5
:103B4000761C0590EFE759F8042B0592002A03DA5A
:103B5000504244F40054059044F00204761C30783E
:103B60002E2816D116F8010F44F004042A280DD08F
:103B70006FF02F023078A0F13003092B09D807EB42
:103B8000870302EB4303C718761CF3E759F8047B5D
:103B9000761C30786C280FD006DC4C2817D06828AB
:103BA0000DD06A2814D104E0742810D07A280FD1DF
:103BB0000DE044F400140AE044F4801401E044F4FD
:103BC00040147278824202D104F58014761C761C6F
:103BD000307866280BD013DC582877D009DC002811
:103BE00075D04528F6D04628F4D047281AD19DE153
:103BF00018E0632835D0642879D0652812D195E182
:103C0000702873D008DC6728F1D069286FD06E283F
:103C10000DD06F2806D1B5E073282CD0752875D04B
:103C2000782874D05A46179990476D1C75E1C4F3F3
:103C30000250022809D003280DD0D9F8001004281A
:103C40000DD00D6009F1040967E1D9F80010EA17F9
:103C5000C1E90052F6E7D9F800100D80F2E70D70C7
:103C6000F0E719F8041B8DF8001000208DF8010012
:103C7000EA46012003E059F804AB4FF0FF3061073A
:103C80004FF0000102D40DE008F101018846B9426D
:103C90000FDA8045F8DB1AF808100029F4D108E0A3
:103CA00008F1010188468142FADB1AF80810002960
:103CB000F6D105985B46A0EB080721463846179ACF
:103CC00000F094FA284400EB080507E04DE029E1F4
:103CD0000DE01AF8010B5A4617999047B8F1010800
:103CE000F7D25B4621463846179A13E142E00A2292
:103CF0000092C4F302524FF0000A022A08D059F889
:103D000004CB032A4FEAEC710AD00DE029E02AE047
:103D100009F1070121F00702F2E802C1914609E02A
:103D20000FFA8CFC4FEAEC71042A03D14FFA8CFC99
:103D30004FEAEC71002907DA0A460021DCF1000C99
:103D400061EB02012D2202E0220504D52B228DF821
:103D50000420012203E0E20701D02022F7E7904689
:103D600059E00A2102E010220DE010214FF0000A74
:103D700000910BE010224FF0000A44F004040827E1
:103D8000009203E008224FF0000A0092C4F30252AE
:103D9000022A05D059F804CB0021032A08D009E0F3
:103DA00009F1070121F00702F2E802C1914605E09E
:103DB0001FFA8CFC042A01D10CF0FF0C4FF0000814
:103DC000220728D5702806D0009B83F0100353EA01
:103DD0000A0305D00EE040228DF80420012208E0FD
:103DE0005CEA010206D030228DF804208DF805002F
:103DF00002229046009B83F0080353EA0A030AD18B
:103E00005CEA010201D1620705D530228DF8042059
:103E10004FF001087F1E582804D034A003900EA84C
:103E200002900DE036A0F9E753466046009AFCF791
:103E30001DFD84460398825C0298401E0290027029
:103E40005CEA0100F0D1029806A9081A00F1200AE4
:103E5000600702D524F4803400E00127574502DDD5
:103E6000A7EB0A0000E0002000EB0A010090059893
:103E70004144401A0590E00306D45B462146179A58
:103E8000059800F0B3F90544002706E001A85A465A
:103E9000C05D179990476D1C7F1C4745F6DBE0031A
:103EA0000CD55B462146179A059800F09FF905440A
:103EB00004E030205A46179990476D1C0099481E1F
:103EC00000900029F5DC08E0029802995A46007833
:103ED000491C0291179990476D1CBAF10001AAF193
:103EE000010AF1DC65E100000928010030313233BC
:103EF0003435363738396162636465660000000026
:103F0000303132333435363738394142434445460F
:103F10000000000000F058F90544761C30780028B5
:103F20007FF4ECAD19B02846BDE8F08F620700D4ED
:103F3000062709F1070222F0070CFCE80223E146FC
:103F400003F000485FEA080C02D00FF2702C0DE07D
:103F50005FEA045C02D50FF2682C07E05FEAC47CDC
:103F600002D00FF2602C01E0AFF2700C4FF0FF387E
:103F700023F00043CDF850C065280CD006DC45285E
:103F800009D046281DD047283DD13DE0662818D0ED
:103F900067287ED138E00021112F01DB112000E0DD
:103FA000781CCDE9000106A90EA8FFF7E5FCDDE9C4
:103FB0000F010E9A03910021009207F1010A04916A
:103FC0004DE04FF000400097CDE9011006A90EA882
:103FD000FFF7D2FCDDE90F0203920E9B119900223C
:103FE000DDF80CA00093049211B9791C00EB010AD2
:103FF000B7EB0A0004D4C0F1FF3007F1010A0490C6
:10400000AAEB0700019044E0012F00DA012700210C
:10401000112F01DD112000E03846CDE9000106A98D
:104020000EA8FFF7A9FCDDE90F010E9A039100210C
:1040300004910092BA4621070CD40399514500DA45
:104040008A46BAF1010F05DD009AAAF10101515C1F
:10405000302908D0B84202DA10F1040F06DA012143
:10406000CDE9011015E0AAF10101E9E7002805DC1E
:10407000049901440491AAEB000102E0411C51455E
:1040800000DD8A460499401A401C01904FF0004020
:104090000290200704D40198504501DBCDF804803C
:1040A00000208DF84F0002980DF14F07B0F1004F3E
:1040B00025D02B200E9002984FF0020800280CDA31
:1040C000404202902D200E9007E00A210298FCF752
:1040D000B7FB3031029007F8011DB8F10001A8F1DB
:1040E0000108F2DC02980028EFD1791E0E980870C2
:1040F000307800F0200040F0450007F8020D12A8CB
:10410000C01B00F107081498007800B1012000EBF3
:104110000A01019801EBE07105984144401A401EE4
:104120000590E00306D45B462146179A059800F0F7
:104130005DF805441498007818B15A4617999047CD
:104140006D1CE00324D55B462146179A059800F0C4
:104150004DF805441CE00498002807DBDDE9030165
:10416000884203DD0098405C179901E017993020E0
:104170005A469047049805F10105401C04900198A7
:10418000401E019004D12E205A46179990476D1C6D
:10419000BAF10001AAF1010ADDDC05E017F8010B14
:1041A0005A46179990476D1CB8F10001A8F1010813
:1041B000F4DC5B462146179A0598ABE62D0000001B
:1041C0002B000000200000002DE9F04104460025EE
:1041D0001E461746880404D405E039462020B0471F
:1041E0006D1C641EF9D52846BDE8F0812DE9F0412B
:1041F000044600251E469046C80301D5302700E03E
:104200002027880404D505E041463846B0476D1C98
:10421000641EF9D52846BDE8F0814A68002A06D018
:104220000A68531C0B6010704868401E4860704755
:104230000A68531C0B601070704711B108B18842B6
:1042400001D10020704782683AB152681AB11160FA
:104250004A60806841600120704781600020C1E9A8
:104260000001F8E72DE9F04106000698984614464B
:104270000D4621D005B3FCB1A6421DD018B1E068AF
:1042800040F4007708E01946284600F059F9050087
:1042900012D0E06820F40077A089800504D4206A59
:1042A00010B1D8F804108847E760214630462562EF
:1042B000BDE8F041FFF7C1BF0020BDE8F08100007C
:1042C0002DE9F0410646002500F0DAF8074600F037
:1042D000D7F88046224A23A100F08AF8204CA41F78
:1042E0002088FCF73EFA02460B461FA1384600F034
:1042F00065F82088FCF730FA1F49FCF731F96FF0B8
:104300000B01FCF75FF9FCF758FA02460B461BA1BC
:10431000384600F053F86088FCF723FA02460B4653
:104320001CA1384600F04AF83A461CA1404600F06D
:104330003BF8404600F0F8F804000AD0034619A202
:104340004FF4FA613046FFF779FA0546204600F04F
:10435000F1F8404600F0B8F82846BDE8F0810000CA
:104360001A00002049440000414443312052656155
:1043700064696E67000000003333534050413620BB
:104380005472756520566F6C746167652076616C38
:104390007565000050574D56616C000044657669A4
:1043A000636573002573000008B500230093024B7A
:1043B000FFF758FF08BD000008000020F8B50C46C4
:1043C00005461046194600F02BF8064600200090DE
:1043D000064B324621462846FFF744FF0028304668
:1043E00002D100F071F80020F8BD000008000020A4
:1043F000F8B505460C46104600F04EF8064600207B
:104400000090064B324621462846FFF72BFF002836
:10441000304602D100F058F80020F8BD0800002016
:1044200070B505460E46124800F072F804001CD024
:104430000820E060C4E906560E4A0F4B2846314674
:10444000FCF7E6F902D86FF000400DE000220B4BBC
:1044500028463146FCF7C4F902D84FF0004003E08B
:1044600028463146FCF78AF96061204670BD00009D
:10447000080000200000C0FFFFFFDF410000E0C196
:1044800010B5044800F044F8002801D04021C16074
:1044900010BD00000800002070B50546094800F076
:1044A00037F8040007D01020E0600649284600F0E5
:1044B00047F8206108B1204670BD204600F004F89E
:1044C000002070BD0800002070B504460F4E19E0B2
:1044D000A0892568C0050AD4A06820B1FFF7F4FFC1
:1044E000A089C00503D4206908B171688847A089F4
:1044F000800503D4206A08B1716888477168204636
:1045000088472C46002CE3D170BD00000800002035
:1045100010B5016828208847040002D02821FBF745
:104520004CFE204610BD0000014A012100F002B9F6
:1045300008000020014949680847000008000020E1
:1045400070B50E4605000DD0FBF742FE401C3168E9
:1045500004468847060005D022462946FBF714FE8C
:10456000304670BD002070BD2DE9F0479846894661
:1045700023F0004621F000470546144633463946ED
:10458000FCF746F902D22846394601E0204631467A
:104590006FF03302FCF7C9F806460F462246434641
:1045A00028464946FCF7BBF821F0004132463B461D
:1045B000FCF716F902D80120BDE8F0870020FBE7E0
:1045C0002DE9F04104001CD02268D2B1636813B118
:1045D000A068984215D24FF00046B14211D2A568AA
:1045E000491C6818834202D35019BDE8F081216943
:1045F00039B9B0F1804F06D3B04202D26FF0004714
:1046000002E00020F1E74700236A00262BB139467B
:1046100010469847050012D00CE0A169384688473B
:1046200005000CD0A2682168521CFBF7ADFDE169C2
:1046300020688847C4E90057A0682844D5E7E169A5
:104640002068884766602660DBE700002DE9F041BE
:104650000B3020F00706104D19E02068B04215D34A
:10466000B0420AD9871B201DD4F80480FBF78CFDCB
:10467000A019C0E90078286004E060682860201D67
:10468000FBF782FD201D2660BDE8F081251D2C680A
:10469000002CE2D10020F7E740000020FDF79EFB50
:1046A000FEF748FDFEF772FCFEF75AFCFEF730FC01
:1046B000FEF7B4FCFEF700FDFEF71AFD1748FCF705
:1046C00069FD04211648FEF713F9C822154916485A
:1046D000FEF768F94FF47A744FF6FF752046FDF740
:1046E0005BFAFEF7E9FB1148FFF7EAFD0F48FBF71D
:1046F0006FFD82B22B460D490B48FEF78DFB0B4830
:10470000FBF766FD82B22B4608490948FEF784FB99
:1047100021460648FBF751FDE0E700003004002089
:1047200060040020A8040020B805002048000020F4
:1047300070050020F0B589B00E46074614462421C6
:104740006846FBF73AFD4FF4807521682846884794
:104750000596CDE9000594E8070006AB83E807005D
:10476000009888B36946384600F01CFA40B36846A2
:1047700000F0B6FAA26800263AB102990098491CE6
:10478000904705001CD0009617E002982168401C55
:104790008847050014D0DDE90110401C814201D298
:1047A0000A4601E0029A521C28460099FBF7ECFCED
:1047B00002982E54616800988847284609B0F0BDD9
:1047C000009808B1616888470020F7E72DE9F041BB
:1047D00085680C000FD001212046FFF7F1FE00286C
:1047E0000AD05B210170A068401CA060E068401CFA
:1047F0000026E06025E00020BDE8F0812146284643
:1048000000F0D0F90028F7D0204600F069FA2868B7
:10481000B0B1606908B1022700E00127791C204689
:10482000FFF7CEFE0028E7D02C2100F8011B6169BC
:1048300011B1202100F8011B0670A0683844A06067
:104840002D68002DDAD102212046FFF7B9FE00289D
:10485000D2D05D2101704670E068401EE06001200A
:10486000CAE700002DE9F047D0E906548AB088462F
:1048700000271C216846FBF7A0FC0020CDE90800BA
:104880004FF02E09B8F1000F35D00DB1012000E036
:1048900000202043274920F00040081AC00F4FF0A5
:1048A000000A13D14800B0EB440F00D175B12A467D
:1048B000234621A16846FEF7D5FF064608AA20A197
:1048C0006846FBF795FC01280CD104E01DA1684661
:1048D000FEF7C8FF0CE0DDE908012A462346FFF792
:1048E00043FE30B92A46234618A16846FEF7BAFFB0
:1048F00006461A2E03D300200AB0BDE8F087711CCB
:104900004046FFF75DFE0028F6D069462E2306E0FC
:10491000CA5D4A4501D1C35500E0C2557F1CB7426C
:10492000F6D300F807A0D8F8080081190120C8F8CC
:104930000810E1E70000F07F25312E3135670000D7
:10494000256C67006E756C6C0000000025312E31FF
:10495000376700002DE9F04785680C0003D06069D7
:1049600020B1022603E00020BDE8F0870126711C7B
:104970002046FFF725FE0028F6D07B2100F8011B1A
:10498000E168491CE16061690A2701B10770A0680C
:104990004FF0000830440926A06059E088B1204655
:1049A000E168FFF70DFE0028DED0002103E000BF24
:1049B00000F8016B491CE2688A42F9D8A0681044EB
:1049C000A0602146286A00F065F80028CCD0204677
:1049D00000F086F9606908B1022000E001208146FC
:1049E00001462046FFF7ECFD0028BDD03A2100F833
:1049F000011B616901B10670A16801EB0900A060AB
:104A00002146284600F0CEF80028ADD0204600F020
:104A100067F9606900B10120296801B1012100EB4B
:104A2000010909F101012046FFF7CAFD00289BD0CA
:104A3000296811B12C2100F8011B616909B100F846
:104A4000017B80F80080A16801EB0900A0602D685F
:104A50006069002DA2D110B1E168491C00E002217B
:104A60002046FFF7ADFD002886D0616949B10021DD
:104A700003E000BF00F8016B491CE268521E8A4245
:104A8000F8D87D21017080F80180E068401EE06068
:104A9000012069E72DE9F0470A0005464FF00006BE
:104AA00001D01DB120E00020BDE8F08703211046B1
:104AB000FFF786FD0028F7D037A1FBF790FB5AE0FF
:104AC0000C2927D006DC082924D0092922D00A295C
:104AD00006D11FE00D291DD022291BD05C2919D039
:104AE000202900D2761D401C01780029E8D1401B06
:104AF0008719F91C1046FFF763FD041ED4D04FF050
:104B000022084FF0000984F800802EB1661C4FF097
:104B10005C0A28E0761CE6E73A462946601CFBF76B
:104B200033FB23E01F2803D9222801D05C2830D191
:104B300006F801AB2A7850460C2A23D006DC082A56
:104B40001ED0092A24D00A2A06D11DE00D2A1DD024
:104B5000222A12D05C2A1CD010A13046FEF782FE19
:104B6000361D6D1C761C28780028DBD1E01980F8F2
:104B7000018080F80290012096E786F80080F0E737
:104B8000622006E0662004E06E2002E0722000E071
:104B900074203070E5E700002222000075253034D3
:104BA0007800000070B504000E4613D096B1207B4B
:104BB000102843D008DC012816D002281ED0042873
:104BC0000AD0082806D121E020283CD040283FD038
:104BD000802820D0002070BD05213046FFF7F0FC72
:104BE0000028F8D01DA106E006213046FFF7E8FCBA
:104BF0000028F0D01BA1FBF7F2FA1DE0052130469A
:104C0000FFF7DEFC0028E6D018A1F4E72046BDE857
:104C10007040FFF727BE20690028DCD0FBF7D8FAE8
:104C2000401C054601463046FFF7CAFC0028D2D09A
:104C30002A462169FBF7A8FA012070BD2069BDE86A
:104C40007040FFF727BF2046BDE87040FFF7BEBDAC
:104C50002046BDE87040FFF77DBE00006E756C6CAD
:104C60000000000066616C73650000007472756579
:104C7000000000002DE9F04704008A4616D054F8E1
:104C8000047CD4F800903E1F564500D95646204675
:104C9000FEF70CFE05468846324621465046FFF791
:104CA000D5FC40B1C0F80090BDE8F087BDE8F04702
:104CB0000846FEF729BE44E9017955B129686A180A
:104CC000211F8A4202D9611B091F2960C5F804808F
:104CD000EAE7024AC2F80080E6E700004000002050
:104CE00010B5040009D02068002806D0A168084447
:104CF000FBF76EFAA1680844A06010BD0102020330
:104D00000405060708090A0B0C0D0E0F101001020E
:104D100002030405060708090A0B0C0D0E0F1010FC
:104D2000000000000000000001020304060708095B
:104D30000000000001020304DDDDDDDDDCBBBBDDC6
:104D4000DDDDDDDDDDDDDDDD98888888888888882B
:104D5000777777777788888885555556666666664B
:104D6000666666666668888883333332222222222A
:104D7000222222222228888D984D0008000000203F
:104D80004800000058390008E04D000848000020A5
:104D9000000C00006839000800000000000000005E
:104DA00009390008AD380008754C0008E803000018
:104DB000E8033232323135343130313132370000AC
:104DC00000000000000000000100000010000000D2
:104DD000000000000024F4000000000000000000BB
:0400000508000131BD
:00000001FF
