:020000040800F2
:100000000006002045010008F3210008C11B00087C
:10001000F1210008F5010008B126000800000000E9
:10002000000000000000000000000000C9220008DD
:100030004904000800000000F5210008CB22000858
:100040005F0100085F0100085F0100085F01000810
:100050005F0100085F0100085F0100085F01000800
:100060005F0100085F0100085F0100085F010008F0
:100070005F0100085F0100085F0100085F010008E0
:100080003D0400085F0100085F0100085F010008EF
:100090005F0100085F0100085F0100085F010008C0
:1000A0005F0100085F0100085F0100085F010008B0
:1000B0005F0100085F0100085F0100085F010008A0
:1000C0005F0100085F0100085F0100085F01000890
:1000D0005F0100085F010008A52600085F01000815
:1000E0005F0100085F0100085F0100085F01000870
:1000F0005F0100085F0100085F0100085F01000860
:100100005F0100085F0100085F0100085F0100084F
:100110005F0100085F0100085F0100085F0100083F
:100120005F0100085F0100085F0100085F0100082F
:10013000DFF80CD000F04CF800480047AD2800086C
:10014000000600200648804706480047FEE7FEE715
:10015000FEE7FEE7FEE7FEE7FEE7FEE7FEE7FEE777
:100160002D23000831010008D2B201E000F8012B74
:10017000491EFBD270470022F6E710B513460A4627
:1001800004461946FFF7F0FF204610BD421E12F844
:10019000013F002BFBD111F8013B02F8013B002B82
:1001A000F9D1704730B50B460146002020220124CA
:1001B00009E021FA02F59D4205D303FA02F5491B35
:1001C00004FA02F52844151EA2F10102F1DC30BD4B
:1001D000064C074D06E0E06840F0010394E8070094
:1001E00098471034AC42F6D3FFF7A6FFEC42000864
:1001F0000C430008FEE700002DE9F047054600F03B
:100200000DF9344E01224021304600F020FD00223D
:100210004021304600F01BFD00244FF47A77384629
:1002200002F02CFB641CE4B2122CF8D300F0E8F8C6
:10023000142002F023FB40213446304600F0FAFC43
:1002400008B900F0EBF800F0DBF84021204600F0A0
:10025000F1FC00283BD102264021204600F0EAFCB8
:1002600020B9300000F10106F6B2F5D10226A2460F
:100270004021504600F0DEFC012804D1300000F19E
:100280000106F6B2F4D101F0D1FF814601F0CEFFB4
:10029000804601F0CBFF074601F0C8FF064601F09B
:1002A000C5FF044600F0BAF801224021504600F094
:1002B000CEFC09EB080038443044C1B2A14206D15B
:1002C00085F8009085F80180AF70EE702C71BDE864
:1002D000F087000000100140F8B54FF47A7000F08C
:1002E0009BFB4EF67D75284601F088FC31A04FF44B
:1002F0007846002100902B463246084600F0A8F8C8
:1003000030A000902B46324614210A2000F0A0F8BD
:100310003048FFF771FF2F4C2FA13048227802F0B0
:10032000C9F92FA12D48FFF731FF2C4862782AA187
:10033000143002F0BFF9294928481431FFF726FF8D
:100340002648A27824A10A3002F0B4F9234824A157
:100350000A30FFF71BFF2148E2781FA1143002F09A
:10036000A9F91E491431A1F10A00FFF70FFF1DA0E2
:1003700000902B461F223221012000F069F8174817
:1003800000902B461F224621012000F061F818A0A2
:1003900000902B4632465A21012000F059F80F48B0
:1003A0002B460A3000901F226E21012000F050F8E9
:1003B000F8BD00003232323135343130313132372C
:1003C0000000000044485431312054657374696E54
:1003D000673A00000000002025640000DC010020D6
:1003E0002E00000068756D69646974793A00000038
:1003F00074656D70657261747572653A0000000015
:100400001FB50020019002900390402000906946A3
:10041000014800F013FB1FBD001001401FB5002074
:100420000290402000900120019003200390694633
:10043000014800F003FB1FBD00100140014800F01F
:1004400089B9000098010020704772B6FEE70000ED
:100450002DE9FF4F83B089460446DDF840B0009097
:10046000A4E080283ED20D2804D0202808D92038C6
:1004700080B206E009F110001FFA80F9009C2EE01E
:100480000020DFF838A100264FF080080190019885
:10049000002506EB001700BF1AF8071028FA05F030
:1004A000014206D009EB060081B2601980B2059ABC
:1004B00009E0DDE90501884207D009EB060081B2B9
:1004C000601980B2069A00F07DF86D1CEDB2082D1F
:1004D000E2D3761CF6B2102ED9D30834A4B20BF1B5
:1004E000010B63E04FF00008354808EB08119BF85A
:1004F000002010F8113093424DD100EB41000190E3
:1005000041789BF80100814245D100254FF0800AD7
:100510000198002600EB45072AFA06F0B978014257
:1005200006D009EB050081B2A01980B2059A09E056
:10053000DDE90501884207D009EB050081B2A01969
:1005400080B2069A00F03EF8761CF6B2082EE3D38D
:100550000026F9782AFA06F0014207D009EB0500D7
:1005600081B2A019083080B2059A0AE0DDE90501E0
:10057000884208D009EB050081B2A019083080B28A
:10058000069A00F01FF8761CF6B2082EE1D36D1C17
:10059000EDB2102DBCD308F101001FFA80F8B8F1BC
:1005A000320FA1D310340BF1020BA4B29BF8000060
:1005B00000287FF456AF07B0BDE8F08FE8280008A8
:1005C0005A36000810B514464A1C93B2421C92B227
:1005D00001F054FC2046BDE8104001F0F3BA10B51C
:1005E00090F821100022022905D00421816380F8AF
:1005F0002020012010BD01680B6823F00E030B6062
:1006000001680B6823F001030B6090F84030C46B65
:10061000012101FA03F3636080F8211080F82020A3
:10062000104610BD2DE9F05F90F82110002402293A
:1006300003D004218163012485E001680A6822F067
:100640000E020A6001680A6822F001020A603F4E49
:100650003E4FB215DFF8F4C0DFF8F090DFF8ECA001
:10066000DFF8E8B0DFF8E4E00168783F1301150235
:10067000ACF1640CA9F15009AAF13C0AABF1280BCA
:10068000AEF1140E4FF48018B14227D9B9420ED002
:10069000614512D049451DD0514518D0594518D053
:1006A000714501D1424615E0294EB14201D10122E6
:1006B00010E0274E1436B14201D110220AE0244E38
:1006C0002836B14206D0224A3C32914201D11A4624
:1006D00000E02A461E49091F0A602BE0B94213D0E8
:1006E000614517D0494522D051451DD059451DD0EF
:1006F000714501D142461AE0B14202D14FF08072F9
:1007000015E0134EB14201D1012210E0104E143613
:10071000B14201D110220AE00D4E2836B14206D076
:100720000B4A3C32914201D11A4600E02A46074961
:1007300080394A60012180F82110002180F82010C2
:10074000416B01B188472046BDE8F09F8000024020
:10075000080402402DE9F05FC16B0A6801680B686C
:10076000046C4FF0040808FA04F8844D844E854F59
:10077000DFF814C2DFF81492DFF814A2DFF814B225
:10078000DFF814E218EA020F65D05FEA437862D519
:100790000A68920603D40A6822F004020A60DFF8AD
:1007A000F0814FF48062016808F11408130114020B
:1007B000414524D9A9420DD0B1420FD0B9421AD037
:1007C000614515D0494515D0514501D1120312E0BC
:1007D000594501D104220EE0714501D140220AE0C1
:1007E0006D4D1435A94206D06B4A2832914201D191
:1007F0001A4600E022466749091F0A6029E0A9421B
:1008000013D0B14215D0B94220D061451BD0494523
:100810001BD0514502D14FF4800217E0414502D16F
:100820004FF0806212E0594501D104220EE071457B
:1008300001D140220AE0584D1435A94206D0564A4B
:100840002832914201D11A4600E022464B4908392C
:100850004A60C16A71E04FF0020808FA04F818EA29
:10086000020F70D05FEA83786DD50A68920606D4CD
:100870000A6822F00A020A60012180F82110DFF8DC
:1008800010814FF40072016808F11408130114027A
:10089000414524D9A9420DD0B1420FD0B9421AD056
:1008A000614515D0494515D0514501D1120312E0DB
:1008B000594501D102220EE0714501D120220AE002
:1008C000354D1435A94206D0334A2832914201D120
:1008D0001A4600E022462F49091F0A6029E0A94272
:1008E00013D0B14215D0B94220D061451BD0494543
:1008F0001BD0514502D14FF4001217E0414502D1FF
:100900004FF0007212E0594501D102220EE071450C
:1009100001D120220AE0204D1435A94206D01E4AFA
:100920002832914201D11A4600E022461349083983
:100930004A60002180F82010816A00291CD0BDE89F
:10094000F05F0847FFE70825A540154214D01A07B5
:1009500012D50A6822F00E020A6090F84020C36B9C
:10096000012101FA02F25A60816380F8211000210E
:1009700080F82010016BE0E7BDE8F09F080002401E
:100980001C00024030000240440002405800024077
:100990006C000240080402401C04024030B560B103
:1009A0001A4B026814219A4209D2194B1344B3FB23
:1009B000F1F18900016417490AE0012030BD134BB1
:1009C0005B421344B3FBF1F1890001640F4908391C
:1009D000C163022180F82110136843F6F0718B4344
:1009E000F0E901142143D0E902452C432143046975
:1009F0002143446921438469214319431160002143
:100A00004163012242770177084630BD0804024065
:100A1000F8FFFDBF0000024070B5044600F01CF96D
:100A20000546601C02D004480078044400F014F924
:100A3000401BA042FAD370BD100000202DE9F84FF2
:100A4000DFF8C8910024A9F1040B23460F2709F110
:100A5000040AABF1040ED1E00125A54006EA050227
:100A6000AA4276D1DFF8A8C14E68A6EB0C0866450D
:100A70002BD00DDC032E34D005DC36B3012E19D07B
:100A8000022E2FD11BE0112E16D0122E2AD119E0E2
:100A9000B8F5881F19D006DCB8F5803F15D0B8F539
:100AA000801F1FD111E0B8F5001F0ED0B8F5041F4C
:100AB00018D10AE0CB6815E0CB681B1D12E0CB68AB
:100AC00008330FE0CB680C330CE08B682BB1012BA3
:100AD0004FF0080303D0456104E0042302E0056100
:100AE00000E00023FF2A01D8064601E000F10406D9
:100AF0004FEA840501D9A5F12005D6F8008007FA50
:100B000005FC28EA0C0803FA05F548EA0508C6F8CA
:100B100000804D68ED0070D53E4DAE6946F001068F
:100B2000AE61AD6924F0030605F0010500953A4D6C
:100B300006EB050CDCF80850A607360F07FA06F896
:100B400025EA0805DFF8D480404503D14FF00008BE
:100B500025E052E0DFF8C880404502D14FF001089F
:100B60001DE0DFF8C080404502D14FF0020816E0DA
:100B7000DFF8B480404502D14FF003080FE0DFF802
:100B8000AC80404502D14FF0040808E0DFF8A080B7
:100B9000404502D14FF0050801E04FF0060808FA81
:100BA00006F848EA0508CCF808804D68D9F80060D6
:100BB000ED024D4601D5164300E096432E604D6888
:100BC000DAF80060AD02554601D5164300E09643C1
:100BD0002E604D68DBF80060AD035D4601D516431D
:100BE00000E096432E604D68DEF80060ED03754628
:100BF00001D5164300E096432E60641C0A68164631
:100C0000E2407FF429AFBDE8F88F000008040140FE
:100C100000001110001002400000014000080140D7
:100C2000000C014000100140001401400018014078
:100C3000001C01408068084000D001207047C26855
:100C400021EA02030A4043EA0241016170470AB106
:100C5000016170470904FBE70148806870470000A4
:100C600010000020024881680278114481607047BA
:100C700010000020074810B5016841F01001016024
:100C8000032000F075F80F2000F006F800F024F8BB
:100C9000002010BD0020024070B50D4D04464FF4F9
:100CA0007A712878B1FBF0F00A490968B1FBF0F0DD
:100CB00000F070FB48B9102C07D200222146501ECC
:100CC00000F036F800206C6070BD012070BD00009F
:100CD000100000201C0000200C4808B5816941F07C
:100CE00001018161816901F001010091C16941F057
:100CF0008051C161C06900F0805000900448416893
:100D000021F0E06141F00071416008BD0010024037
:100D100000000140002809DB00F01F020121914082
:100D20004009800000F1E020C0F800117047000089
:100D3000F0B40E4B1B680C46C3F30223C3F1070546
:100D4000042D00D90425191D072901D2002300E034
:100D5000DB1E012606FA05F1491E214099409E40FE
:100D6000761E16403143F0BC01F0B8BC0CED00E03B
:100D7000064900F0070208684FF6FF03184040EAF2
:100D80000220034A10430860704700000CED00E0A9
:100D90000000FA052DE9F0470F46050061D0434EEB
:100DA000306800F00700B84209D2306820F0070030
:100DB00038433060306800F00700B84251D12868ED
:100DC0003B4C810712D5400703D5606840F4E060D2
:100DD00060602878000703D5606840F46050606068
:100DE0006068A96820F0F000084360602878C007B8
:100DF00028D06868012810D02168022810D08907FF
:100E000000292EDA616821F0030101436160FFF7D8
:100E100023FF804641F288390DE021688903EFE71E
:100E20008901EDE7FFF718FFA0EB0801494502D95A
:100E30000320BDE8F0876068696800F00C00B0EB43
:100E4000810FEFD1306800F00700B8420BD930684D
:100E500020F0070038433060306800F00700B842E7
:100E600001D00120E5E72878400705D56068E968EA
:100E700020F4E060084360602878000706D56068C9
:100E8000296920F4605040EAC100606000F038F841
:100E90006168084AC1F30311515CC8400649086003
:100EA00006480068FFF7F8FE0020C2E70020024075
:100EB00000100240D24200081C0000201400002054
:100EC0000448054900684968044AC1F30221515C9D
:100ED000C84070471C00002000100240E242000899
:100EE0000448054900684968044AC1F3C221515CBD
:100EF000C84070471C00002000100240E242000879
:100F00000E4A51680E4801F00C03042B11D0082B37
:100F10000FD10C48C1F38343C903C05C0AD55168A3
:100F2000084AC1F34041921E515C054A5043B0FB50
:100F3000F1F0704704494843704700000010024038
:100F400000127A00C242000800093D002DE9F84F66
:100F5000040070D02078C04DC00749D06868C0F345
:100F60008100012807D06868C0F38100022809D1F8
:100F70006868C00306D52868800339D560680028F2
:100F8000E7D035E06068B0F5803F0BD010B1B0F528
:100F9000A02F11D0286820F480302860286820F421
:100FA000802002E0286840F480302860606890B1BA
:100FB000FFF752FE06460AE0286840F480202860C9
:100FC000F0E700BFFFF748FE801B642873D828684D
:100FD0008003F7D50CE0FFF73FFE064605E000BFB3
:100FE000FFF73AFE801B6428F0D828688003F7D406
:100FF00020789A4E80074FF001094FF0000839D54C
:10100000686810F00C0F07D06868C0F381000228F0
:1010100009D16868C00306D42868800714D5206900
:10102000012808D110E02069B0B1C6F80090FFF7A0
:1010300013FE074605E00AE1FFF70EFEC01B02287B
:10104000C4D828688007F7D52868616920F0F800BF
:1010500040EAC10028600DE0C6F80080FFF7FCFD03
:10106000074604E0FFF7F8FDC01B022823D82868D4
:101070008007F7D4207800072CD57948A169D9B129
:10108000C0F80090FFF7E8FD074604E0FFF7E4FD35
:10109000C01B02280FD8686A8007F7D571484FF443
:1010A000FA510068B0FBF1F0009000BF0098411EBB
:1010B0000091FAD20EE080E0C0F80080FFF7CCFD8E
:1010C000074604E0FFF7C8FDC01B022875D8686A10
:1010D0008007F7D42078400760D5E8690027C00072
:1010E00008D4E86940F08050E861E869012700F021
:1010F000805000905C480168C90513D4016883469C
:1011000041F480710160FFF7A7FD824606E000BF51
:10111000FFF7A2FDA0EB0A0064284ED8DBF8000020
:10112000C005F5D5E06801280AD008B1052813D01C
:10113000286A20F001002862286A20F0040002E0FA
:10114000286A40F001002862E06841F2883B98B1CB
:10115000FFF782FD82460BE0286A40F00400286217
:10116000EEE700BFFFF778FDA0EB0A0159455AD81A
:10117000286A8007F6D50CE0FFF76EFD824605E091
:10118000FFF76AFDA0EB0A0159454CD8286A800791
:10119000F6D41FB1E86920F08050E861E06988B3B7
:1011A0006968C1F38101022944D00228C6F8608031
:1011B00004D0FFF751FD044638E034E0FFF74CFD62
:1011C000074604E0FFF748FDC01B02282BD828681B
:1011D0008001F7D4206AB0F5803F05D16868A16826
:1011E00020F4003008436860D4E9080108436968C6
:1011F00021F4741108436860C6F86090FFF72CFD75
:10120000044606E025E000BFFFF726FD001B02288C
:1012100009D828688001F7D51BE000BFFFF71CFD47
:10122000001B022802D90320BDE8F88F286880013E
:10123000F4D40EE00128F7D06868226A00F4803107
:10124000914204D1616A00F47010884201D00120FB
:10125000EAE70020E8E700000010024000004242F8
:10126000800442421C0000200070004070B5040061
:1012700009D0606A002540B125616561A56294F8D6
:10128000510040B10CE0012070BD6068B0F5827F74
:10129000F4D0E561F2E784F85050204600F040F8C1
:1012A000022084F851002068016821F040010160AB
:1012B000A088218900F4827001F404410843A189C7
:1012C00001F400610843217C01F002010843217D03
:1012D00001F001010843218B01F400710843217FD3
:1012E00001F03801084394F8201001F08001084310
:1012F000218D01F40051084321680860A069042190
:1013000001EA1040216848602068C16921F4006149
:10131000C1616565012084F85100002070BD0000A6
:1013200030B585B0002400940194029403940068C1
:101330001549884225D11548C16941F48041C161F0
:10134000C16901F480410491816941F00801816122
:1013500080690F4D00F0080004904FF42040009089
:10136000022001900320039069462846FFF766FBA0
:101370004FF48040CDE90004694628460294FFF707
:101380005DFB05B030BD0000003800400010024099
:10139000000C014010B5401EB0F1807F01D3012048
:1013A00010BD4FF0E02460610F21601701F096F945
:1013B0000020A06107202061002010BD70B590F8CA
:1013C0003C20012A2CD0012480F83C40022280F8E5
:1013D0003D2003685A689D6822F070060A6832430F
:1013E0005A60104B02689A420ED00F4B9A420BD0B3
:1013F000B2F1804F08D00D4B9A4205D00C4B9A4267
:1014000002D00C4B9A4204D1496825F0800319435D
:10141000916080F83D40002180F83C10084670BD86
:10142000022070BD002C0140003401400004004047
:1014300000080040000C004010B5040003D094F8F0
:101440003D0010B107E0012010BD002084F83C00F1
:10145000204600F01FF8022084F83D00211D20687E
:1014600000F066FF012084F8460084F83E0084F80E
:101470003F0084F8400084F8410084F8420084F87A
:10148000430084F8440084F8450084F83D000020BF
:1014900010BD000000B585B00021009101910291BE
:1014A0000391144A01681448914217D1C16941F06F
:1014B0000401C161C16901F004010491816941F035
:1014C000080181618069694600F0080004905015A8
:1014D00000900A48FFF7B2FA05B000BD084A9142F1
:1014E000FAD1C16941F02001C161C06900F020005A
:1014F0000490F1E70008004000100240000C014099
:101500000014004090F83D10012901D001207047DF
:10151000022180F83D1000680E4988420ED00E4925
:1015200088420BD0B0F1804F08D00C49884205D0DA
:101530000B49884202D00B49884204D1816801F0EE
:101540000701062903D0016841F001010160002074
:1015500070470000002C01400034014000040040AE
:1015600000080040000C004001680A6A41F21113B3
:101570001A4207D10A6A9B101A4203D10A6822F064
:1015800001020A60012180F83D100020704770B50B
:10159000044690F83C000025012817D0012684F865
:1015A0003C60022084F83D002068826822F07702C7
:1015B00022F47F4282600868502838D00DDC202851
:1015C0004FD005DC90B3102811D14AE0022070BD45
:1015D000302846D040280AD13BE060282FD0702820
:1015E0000DD0B0F5805F03D0B0F5005F12D00125BB
:1015F00084F83D60002084F83C00284670BDCB682C
:10160000D1E90121206800F0D9FE2068816841F00D
:10161000770109E0CB68D1E90121206800F0CEFE16
:101620002068816841F480418160E1E719E0CA687F
:101630004968206800F0D4FE5021206806E0CA689E
:101640004968206800F014FF6021206800F0C0FEA7
:10165000CEE7CA684968206800F0C2FE40212068D1
:10166000F4E7226801461046F0E72DE9F04105460F
:1016700090F83C0000260C46012810D0012085F887
:101680003C0072B1042A1CD0082A2CD00C2A50D05D
:101690000126002085F83C003046BDE8F08102209C
:1016A000FBE7D4E90012E368286800F0ABFE286885
:1016B000816921F00C01816128688169A268114368
:1016C0000FE0D4E90012E368286800F0E3FE286820
:1016D000816921F44061816128688169A26841EAD9
:1016E00002218161D5E72868D4E9002C277B036AB1
:1016F000016A21F480710162C16923F4007321F051
:10170000030141EA0C0121F0F00C39074FF4007796
:101710004CEA116107EA02221A43C1610262286899
:10172000C16921F00C01C1612868C169A268114337
:101730002BE02868D4E90021E768036AD0F820C0CC
:101740002CF4805CC0F820C0D0F81CC023F40053F7
:101750002CF4407C4CEA012121F4704C4FF6FF71CF
:1017600001EA07314FF4005741EA0C0107EA02325F
:101770001A43C16102622868C16921F44061C161F4
:101780002868C169A26841EA0221C16181E710B5F8
:10179000040003D094F83D0010B107E0012010BD13
:1017A000002084F83C00204600F01EF8022084F857
:1017B0003D00211D206800F0BBFD012084F846009B
:1017C00084F83E0084F83F0084F8400084F841002B
:1017D00084F8420084F8430084F8440084F845000B
:1017E00084F83D00002010BD70477047704700002E
:1017F000F8B5016804460868CA684B6910F00F0F15
:101800004FF000055AD003F0010602F490773743F9
:1018100065D0C10705D0D10503D5616C41F0010148
:101820006164410705D5D90703D0616C41F002011D
:101830006164810705D5D90703D0616C41F00401CB
:101840006164010707D502F02001314303D0616CC8
:1018500041F008016164616C00293BD0800604D529
:10186000900602D5204600F05FFE20684069616C5A
:10187000C0F3801001F00801014320462BD000F096
:101880002CFE20684069400621D52068143050E8BD
:10189000001F21F0400140E80012002AF5D1E06B62
:1018A000A8B16D494163E06BFEF7BCFE002811D082
:1018B000E06B416B01B0BDE8F040084783060ED5F0
:1018C00093060CD52046BDE8F84000F02DBE20461A
:1018D000FFF78CFFF8BDFFF789FF6564F8BD266B45
:1018E0002023012E7CD1C6067AD5D60678D5086885
:1018F0004868009048694FF00206400640D5E16B09
:10190000086840680004000CE8D0A28D8242E5D946
:10191000E085886920282DD020680C3050E8001F11
:1019200021F4807140E80012002AF5D121681431B9
:1019300051E8000F20F0010041E80002002AF5D133
:101940002068143050E8001F21F0400140E80012E8
:10195000002AF5D184F84230256320680C3050E825
:10196000001F21F0100140E80012002AF5D1E06BC1
:10197000FEF735FE6663A08DE18D401A81B22AE044
:10198000A08DE18D401A81B2E08D0028A6D00029FB
:10199000A4D022680C3252E8000F20F4907042E884
:1019A0000007002FF5D12068143050E8002F22F0F6
:1019B000010240E80027002FF5D184F8423025636A
:1019C00020680C3050E8002F22F0100240E800237D
:1019D000002BF5D166632046FFF707FFF8BDFFE750
:1019E00005062BD5150629D594F841002128F5D1F7
:1019F000A068B0F5805F01D12069B0B1206A411CB8
:101A00002162216800784860E08C401E0004000CD0
:101A1000E084E3D12068C16821F08001C1602068C2
:101A2000C16841F04001C160D8E7206A0088C0F376
:101A300008004860206A801C2062E5E74006CDD59A
:101A40005006CBD5CA68204622F04002CA6084F80E
:101A5000413000F0B4F8C1E7CB24000870B50400B1
:101A600004D094F84100002510B106E0012070BDBB
:101A700084F84050204600F023F8242084F84100E8
:101A80002068C16821F40051C160204600F0AEFD1D
:101A90002068016921F4904101612068416921F0C9
:101AA0002A0141612068C16841F40051C160656448
:101AB000202084F8410084F842006563002070BD56
:101AC000F0B585B000240094019402940394064676
:101AD000344F0368344902220320344DBB4221D1E4
:101AE0008B6943F480438B618B6903F480430493D7
:101AF0008B6943F004038B618969039001F0040151
:101B000004911102CDE9001269462846FEF796FFBE
:101B10002815CDE90004694628460294FEF78EFF99
:101B200005B0F0BD224FBB42FAD1CB6943F400337C
:101B3000CB61CB6903F4003304938B6943F0040356
:101B40008B618969039001F0040104910421CDE9BE
:101B5000001269462846FEF771FF0820CDE900040F
:101B6000694628460294FEF769FF134D1148C5E9FE
:101B700000048020C5E902402C616C61AC612846FC
:101B8000EC61FEF70BFF08B1FEF75FFCF563002286
:101B9000114626206E62FFF7CBF82620FFF7BAF831
:101BA000BEE700000038014000100240000801407C
:101BB000004400406C0002409801002070477047CC
:101BC000FEE7000070B50C4D044600228021284637
:101BD000FFF73DF8012240212846FFF738F8200A98
:101BE00000F052FBE0B200F04FFB2846BDE8704029
:101BF00001228021FFF72BB8000C014070B506468A
:101C000000219F237F22084600F038F92C2000F0A5
:101C10007DF9002400253046FFF7D4FF6D1CA02D70
:101C2000F9D3641C802CF5D370BD10B500F09EF97B
:101C300000F00EF9112000F069F97820FEF7ECFEB3
:101C4000B12000F063F9012000F046F92C2000F0EB
:101C500043F92D2000F040F9B22000F057F901209F
:101C600000F03AF92C2000F037F92D2000F034F97B
:101C7000B32000F04BF9012000F02EF92C2000F0E9
:101C80002BF92D2000F028F9012000F025F92C2057
:101C900000F022F92D2000F01FF9B42000F036F9F1
:101CA000072000F019F9C02000F030F9A22000F060
:101CB00013F9022000F010F9842000F00DF9C12082
:101CC00000F024F9C52000F007F9C22000F01EF949
:101CD0000A2000F001F9002000F0FEF8C32000F017
:101CE00015F98A2000F0F8F82A2000F0F5F8C42051
:101CF00000F00CF98A2000F0EFF8EE2000F0ECF88C
:101D0000C52000F003F90E2000F0E6F8362000F0C0
:101D1000FDF8C82000F0E0F8E02000F0F7F80F2010
:101D200000F0DAF81A2000F0D7F80F2000F0D4F80D
:101D3000182000F0D1F82F2000F0CEF8282000F075
:101D4000CBF8202000F0C8F8222000F0C5F81F20B2
:101D500000F0C2F81B2000F0BFF8232000F0BCF810
:101D6000372000F0B9F8002000F0B6F8072000F0A6
:101D7000B3F8022000F0B0F8102000F0ADF8E12038
:101D800000F0C4F80F2000F0A7F81B2000F0A4F822
:101D90000F2000F0A1F8172000F09EF8332000F08B
:101DA0009BF82C2000F098F8292000F095F82E20C0
:101DB00000F092F8302000F08FF8302000F08CF81E
:101DC000392000F089F83F2000F086F8002000F06C
:101DD00083F8072000F080F8032000F07DF8102041
:101DE00000F07AF82A2000F091F8002000F074F852
:101DF000012000F071F8002000F06EF8802000F063
:101E00006BF82B2000F082F8002000F065F802202B
:101E100000F062F8002000F05FF8822000F05CF82B
:101E2000F02000F073F8012000F056F8F62000F0E2
:101E30006DF8002000F050F83A2000F067F8052017
:101E400000F04AF8BDE81040292000F05FB800001B
:101E500010B5094C002220212046FEF7F8FE0A208A
:101E6000FEF7DAFD012220212046FEF7F0FEBDE854
:101E700010400A20FEF7D0BD000C01402DE9F041D2
:101E800007461C4615460E462A2000F03FF8002063
:101E900000F022F8BF1CF8B200F01EF8002000F09D
:101EA0001BF8AD1CE8B200F017F82B2000F02EF85C
:101EB000002000F011F8F61CF0B200F00DF8002040
:101EC00000F00AF8E41CE0B200F006F8BDE8F041CA
:101ED0002C2000F01BB8000070B50B4C054600220A
:101EE00080212046FEF7B3FE012240212046FEF766
:101EF000AEFE284600F0C8F92046BDE87040012239
:101F00008021FEF7A4BE0000000C014070B50B4C10
:101F10000546002280212046FEF799FE002240213E
:101F20002046FEF794FE284600F0AEF92046BDE8B4
:101F3000704001228021FEF78ABE0000000C0140A3
:101F4000094808B5416941F0010141614069002239
:101F500000F00100009011461020FEF7E9FEBDE8F8
:101F600008401020FEF7D6BE001002402DE9F04FC9
:101F700085B0002000900190029003903348816961
:101F800041F020018161816901F0200104918169A2
:101F900041F004018161816901F0040104918169CA
:101FA00041F008018161816901F0080104918169B2
:101FB00041F0100181618069DFF8948000F0100029
:101FC0000490002240214046FEF741FE0122DFF846
:101FD0008490160231464846FEF739FEDFF878A0B5
:101FE000012204215046FEF732FEDFF870B04FF4B4
:101FF000FC77002239465846FEF729FE012440208E
:10200000CDE90004032569464046CDE90245FEF7C7
:1020100015FDCDE9006469464846CDE90245FEF765
:102020000DFD0420CDE9000469465046CDE9024586
:10203000FEF704FDCDE9007469465846CDE9024536
:10204000FEF7FCFC05B0BDE8F08F00000010024078
:10205000001001400008014000140140000C014044
:10206000104810B50E4901604FF4827141600021A3
:102070008160C1604FF400720161C0E90512102255
:10208000C0E90721416281620A21C162FFF7EEF8CF
:10209000002803D0BDE81040FEF7D7B910BD0000FE
:1020A000003800402000002010B58AB000242248EB
:1020B0000494059406940794089409940094019458
:1020C00002941C49039401604721C0E901144CF2B9
:1020D0004F31C0E903148461FFF7AEF908B1FEF790
:1020E000B4F94FF48050049004A91348FFF74FFA55
:1020F00008B1FEF7AAF91048FFF749FB08B1FEF74F
:10210000A4F9089408A90C480994FFF757F908B1F5
:10211000FEF79BF90120CDE9004002940C226946AC
:1021200005480394FFF7A1FA002801D0FEF78DF9C6
:102130000AB010BD00080040780000201CB5002443
:102140000E4800940C49019401604721C0E9011434
:102150004FF6FF718461C160FFF76EF908B1FEF7B9
:1021600074F90094694605480194FFF727F900289F
:1021700001D0FEF76AF91CBD00140040C000002029
:102180000C4810B50A4901604FF4E131416000216B
:1021900081600C22C160C0E904128161C161FFF756
:1021A0005DFC002803D0BDE81040FEF74EB910BD1D
:1021B00000380140080100200C4810B50A490160B0
:1021C0004FF4E1314160002181600C22C160C0E91F
:1021D00004128161C161FFF741FC002803D0BDE812
:1021E0001040FEF732B910BD0044004050010020FD
:1021F000FEE7FEE77047000070B5FFF716FD01220D
:10220000094D140221462846FEF721FDFEF764F829
:102210004FF49660FEF700FC21462846BDE870406A
:102220000022FEF714BD0000000C01402DE9F04132
:10223000144F00250226FEF7E3F840213846FEF74A
:10224000F9FC20B9300000F10106F6B2F5D11E20EC
:1022500000F014FB002640213846FEF7EBFC012875
:1022600000D10126600646EA106440213846FEF798
:10227000E1FC0128F9D06D1CEDB2082DDAD320461F
:10228000BDE8F0810010014070B50E4E05460824EF
:10229000280601D5012200E0002210213046FEF779
:1022A000D6FC002208213046FEF7D1FC012208218D
:1022B0003046FEF7CCFC6806050E641E14F0FF04E1
:1022C000E6D170BD000C01407047FEF7CBBC30B5C5
:1022D0008FB028216846FDF74EFF14210AA8FDF7AC
:1022E0004AFF01210804CDE90010002402940225D0
:1022F0000491CDE907504FF4E01009906846FEF7CD
:1023000025FE08B172B6FEE70F20CDE90A054FF4AD
:102310008060CDE90C4002210AA80E94FEF73AFD38
:10232000002801D072B6FEE70FB030BD7047000044
:10233000F0B502681C4B1D4D1D4E1E4F1E4C4FF03C
:10234000804C984209D0A04207D0604505D0A842F1
:1023500003D0B04201D0B84204D122F0700E4A68D6
:1023600042EA0E02984209D0A04207D0604505D04B
:10237000A84203D0B04201D0B84203D122F4407544
:10238000CA682A434D6922F080022A4302608A68A3
:10239000C2620A688262984201D0A04201D10969F2
:1023A000016301214161F0BD002C014000040040A7
:1023B00000080040000C00400034014010B5846863
:1023C00042EA032224F47F440A432243826010BD80
:1023D000826822F070020A4342F007018160704770
:1023E00010B5036A046A24F001040462846924F0CD
:1023F000F00444EA021423F00A020A4384610262F0
:1024000010BD000070B5056A046A24F0010404627E
:102410008469124EB0420ED0114EB0420BD0B0F1D2
:10242000804F08D00F4EB04205D00F4EB04202D0C0
:102430000E4EB04203D124F00304144301E044F0F3
:1024400001041A0724F0F00444EA126225F00A039A
:1024500001F00A0119438261016270BD002C014044
:10246000003401400004004000080040000C00401F
:1024700010B5036A046A24F010040462846923F02E
:10248000A00324F4704444EA023243EA0111826159
:10249000016210BD30B5046A056A25F010050562B9
:1024A000856925F4407545EA022222F470454FF60D
:1024B000FF7202EA033224F0A0032A43A02404EAB4
:1024C000011119438261016230BD10B5406A0021DB
:1024D000C185C184FFF78AF910BD01680C3151E84C
:1024E000002F22F4907241E80023002BF5D10168FF
:1024F000143151E8002F22F0010241E80023002BA3
:10250000F5D1016B012909D101680C3151E8002F87
:1025100022F0100241E80023002BF5D1202180F8A1
:10252000421000210163704708B590F8421022293B
:1025300001D0022008BD82684FF480539A4201D135
:10254000016921B1816A9A421BD04AB10AE002684E
:10255000816A5268C2F308020A80816A891C08E015
:10256000026972B10268526802F07F020A70816AE1
:10257000491C8162C18D491E0904090CC18503D023
:102580001BE002685268F1E70168CA6822F0200285
:10259000CA600168CA6822F48072CA6001684A6928
:1025A00022F001024A61202180F84210002141639B
:1025B000026B012A03D0FFF701FB002008BD016375
:1025C00001680C3151E8002F22F0100241E800238D
:1025D000002BF5D101680A68D20602D50A6849685D
:1025E0000091818DFFF701F9E7E7000070B504461F
:1025F00000680169E26821F44051114301612169D9
:10260000A0680843616908432168CA6841F20C6305
:102610009A430243CA6020684169A26921F440716B
:10262000114341611E492068884202D1FEF758FCDF
:1026300001E0FEF745FC00EBC00101EB0012606811
:1026400064218000B2FBF0F3B3FBF1F36FF01806E6
:102650007343B2FBF0F5B2FBF0F605EB83053223D2
:1026600003EB0515B5FBF1F5B6FBF1F605F0F0054A
:1026700005EB0615B2FBF0F6B2FBF0F0B0FBF1F0A3
:102680006FF01802504306EB800003EB0010B0FB24
:10269000F1F0216800F00F002844886070BD000050
:1026A000003801400148FFF7A3B8000050010020A6
:1026B000FEE700000FB4084B10B504A902AA039866
:1026C00000F02CF8044602A9002000F0D1F82046C2
:1026D00010BC5DF814FB0000712800080907090E02
:1026E000002804DB00F1E02080F80014704700F0BF
:1026F0000F0000F1E02080F8141D704702E008C8C8
:10270000121F08C1002AFAD170477047002001E06B
:1027100001C1121F002AFBD1704700002DE9FF4FB5
:1027200089B09B460446002506E025280BD05A4672
:102730000B999047641C6D1C20780028F5D10DB0D2
:102740002846BDE8F08F0027B8460122474900E03F
:10275000074314F8013F203B02FA03F00842F7D187
:1027600020782E2819D114F8010F47F004072A28E1
:102770000ED06FF02F022078A0F1300109290CD87B
:1027800008EB880102EB410100EB0108641CF2E751
:102790000A98641C50F8048B0A9020780028CED048
:1027A000642808D0692806D075281ED05A460B998F
:1027B00090476D1C58E00A994FF00A0901C90A9127
:1027C000002802DA40422D2102E0390504D52B21F0
:1027D0008DF82010012103E0F90704D02021F7E74C
:1027E0008A4608AE0DE00021FAE70A994FF00A097F
:1027F00001C90A91F7E74946FDF7D4FC303106F8E4
:10280000011D0028F7D1ADEB060000F12009780783
:1028100001D44FF00108C84502DDA8EB090000E033
:1028200000208046002706E008A85A46C05D0B99A4
:1028300090476D1C7F1C5745F6DB04E030205A465C
:102840000B9990476D1CB8F10001A8F10108F5DC67
:1028500005E016F8010B5A460B9990476D1CB9F12B
:102860000001A9F10109F4DC641C65E709280100F5
:102870000A68531C0B6010707047000070B54CF272
:102880005035281A84B20848FEF73CFE0648016815
:102890004C62006801E0416A8CB2AC42FBD3BDE8F7
:1028A00070400148FEF760BEC0000020FEF7E2F96C
:1028B000FFF70DFDFFF75AFBFFF742FBFFF760FC48
:1028C000FFF73CFCFFF7CCFBFFF7EEFBFFF774FCD8
:1028D000044C00BFFFF790FC04212046FEF7AFF93F
:1028E000F8E70000001401400000000000000000B4
:1028F0000000000000000000001010101010101068
:10290000101000001010000000006C6C2424000067
:1029100000000100000000000024242424FE484898
:102920004848FC909090900000103C549290503891
:1029300014121292547810000000225C94A84810DF
:1029400010242A5254880000000030484850206E5D
:1029500054948C888A7400000000303010100000FD
:1029600000000000000000000004081010202020DB
:10297000202020101008040000804020201010109B
:10298000101010202040800000000000105438106B
:10299000385410000000000000000010101010FE5D
:1029A00010101010000000000000000000000000E7
:1029B000000000001010200000000000000000FED9
:1029C0000000000000000000000000000000000007
:1029D000000000001010000000000404080810109F
:1029E00020204040808000000000384482828282A3
:1029F0008282828244380000000010701010101093
:102A000010101010107C000000003844828204086E
:102A10001020408284FC0000000038448202043808
:102A200004020282443800000000040C1414242420
:102A30004444FE04040E00000000FC808080B8C402
:102A4000820202828478000000003C428280B8C486
:102A5000828282824438000000007E4282040408A0
:102A6000080810101010000000003844828244381A
:102A7000448282824438000000003844828282828C
:102A8000463A0282443800000000000010100000A6
:102A900000001010000000000000000010100000F6
:102AA00000000010102000000000000006186080E8
:102AB0006018060000000000000000000000FE009A
:102AC00000FE00000000000000000000C0300C020A
:102AD0000C30C0000000000000384482820204086C
:102AE000101010001010000000003844829AAAAAAA
:102AF000AAAAAA9680423C0000001010102828289C
:102B000044447C4444EE00000000FC424242427CCB
:102B10004242424242FC000000003C4482808080ED
:102B200080808282443800000000F84442424242E1
:102B30004242424244F800000000FC444240447CCF
:102B40004440404244FC00000000FC444240447CBD
:102B50004440404040F000000000344C82808080BF
:102B60008E8484844C3400000000EE444444447C51
:102B70004444444444EE000000007C101010101047
:102B800010101010107C000000003E080808080813
:102B900008080888887000000000EE44484850602B
:102BA0005048484444EE00000000E04040404040AF
:102BB0004040404244FC00000000C6446C6C6C5431
:102BC0005454444444EE00000000CE446464645411
:102BD000544C4C4C44E40000000038448282828211
:102BE00082828282443800000000F844424242441B
:102BF0007840404040E000000000384482828282F9
:102C0000828282BA443C02000000F04844444448B6
:102C10007048444444E6000000003C448280403058
:102C20000C0202824478000000007C5492101010C4
:102C300010101010103800000000EE4444444444CA
:102C400044444444443800000000EE4444444428D2
:102C500028282810101000000000EE44545454544A
:102C600054542828282800000000EE444428281046
:102C70001028284444EE00000000EE444428282890
:102C8000101010101038000000007E448408081056
:102C90002020408284FC0000001C10101010101036
:102CA0001010101010101C000000EE445454FE547C
:102CB00054542828282800000070101010101010FC
:102CC0001010101010107000003048840000000038
:102CD00000000000000000000000000000000000F4
:102CE000000000000000FE00004020000000000086
:102CF00000000000000000000000000000007884D8
:102D0000047C84848C7600000000C04040405864FD
:102D10004242424264580000000000000000384473
:102D2000808080804438000000000C040404344C8F
:102D3000848484844C360000000000000000788405
:102D400084FC808084780000000018242020F82073
:102D500020202020207000000000000000003A44E5
:102D60004478807C82827C000000C04040405864EF
:102D70004444444444EE00000000101000003010B1
:102D8000101010101038000000001010000030105B
:102D900010101010109060000000C04040405C48CF
:102DA0005060504844EE0000000030101010101128
:102DB0001010101010390000000000000000ACD20C
:102DC0009292929292D6000000000000000058E417
:102DD0004444444444EE0000000000000000384435
:102DE0008282828244380000000000000000D86423
:102DF000424242645840E000000000000000364CAF
:102E00008484844C34040E000000000000006C3008
:102E100020202020207000000000000000007888A2
:102E20008460188444780000000000202020F820EE
:102E30002020202024180000000000000000C642CE
:102E400042424242463A0000000000000000EE44C8
:102E50004428282810100000000000000000EE4464
:102E60004454542828280000000000000000EE44CC
:102E70002810102844EE0000000000000000EE447E
:102E80004428281010A0C0000000000000007E446C
:102E90008810204284FC0000000C101010101060FC
:102EA0001010101010100C00001010101010101046
:102EB000101010101010100000C02020202020182A
:102EC000202020202020C000000000000000007210
:102ED0008C000000000000000000000000001FE067
:102EE00000003FF000003FF000001FE000018006FE
:102EF0000003C00F0003C00F0003C00F0003C00F8A
:102F00000003C00F0003C00F0003C00F0003C00F79
:102F100000030003000000000000000000000000AB
:102F2000000300030003C00F0003C00F0003C00F25
:102F30000003C00F0003C00F0003C00F0003C00F49
:102F40000003C00F0001800600001FE000003FF0FA
:102F500000003FF000001FE0000000000000000043
:102F60000000008000000180000003800000078056
:102F70000000078000000780000007800000078035
:102F80000000078000000780000007800000078025
:102F900000000180000000000000000000000000B0
:102FA000000001800000078000000780000007800B
:102FB00000000780000007800000078000000780F5
:102FC00000000780000007800000038000000180EF
:102FD00000000080000000000000000000001FE072
:102FE00000003FF00000FFF00001FFE000000006DD
:102FF0000000000F0000000F0000000F0000000F95
:103000000000000F0000000F0000000F0000000F84
:1030100000001FE300007FF800007FF800001FE0C1
:10302000000300000003C0000003C0000003C00054
:103030000003C0000003C0000003C0000003C00084
:103040000003C0000001800000001FF000003FF8F6
:1030500000003FFC00001FFE000000000003FF8096
:103060000001FFC00000FFC000007F8000000018CA
:103070000000003C0000003C0000003C0000003C60
:103080000000003C0000003C0000003C0000003C50
:1030900000007F8C0001FFE00001FFF000007F8056
:1030A0000000000C0000003C0000003C0000003C60
:1030B0000000003C0000003C0000003C0000003C20
:1030C0000000003C0000001800007F800000FFC0EE
:1030D0000001FFC00003FF800000000000000000AE
:1030E0000002000100030003000380070003C00F7B
:1030F0000003C00F0003C00F0003C00F0003C00F88
:103100000003C00F0003C00F0003C00F0003C00F77
:1031100000031FE300007FF800007FFC00001FE0B9
:10312000000000030000000F0000000F0000000F6F
:103130000000000F0000000F0000000F0000000F53
:103140000000000F0000000F000000070000000357
:1031500000000001000000000000000000001FFC53
:1031600000003FF800003FF000001FE00001800079
:103170000003C0000003C0000003C0000003C00043
:103180000003C0000003C0000003C0000003C00033
:1031900000031FE000007FF800007FF800001FE040
:1031A000000000030000000F0000000F0000000FEF
:1031B0000000000F0000000F0000000F0000000FD3
:1031C0000000000F0000000600003FE000007FF05C
:1031D0000000FFF00001FFE00000000000001FFC05
:1031E00000003FF800003FF000001FE000018000F9
:1031F0000003C0000003C0000003C0000003C000C3
:103200000003C0000003C0000003C0000003C000B2
:1032100000031FE000007FF800007FFC00001FE0BB
:10322000000300030003C00F0003C00F0003C00F22
:103230000003C00F0003C00F0003C00F0003C00F46
:103240000003C00F0001800600001FE000003FF0F7
:1032500000003FF000001FE0000000000007FFE05A
:103260000003FFC00001FF880000FF1800000038C5
:10327000000000780000007800000078000000786E
:10328000000000780000007800000078000000785E
:103290000000001800000000000000000000000016
:1032A000000000180000007800000078000000789E
:1032B000000000780000007800000078000000782E
:1032C00000000078000000780000003800000018BE
:1032D00000000008000000000000000000001FE0E7
:1032E00000003FF000003FF000001FE000018006FA
:1032F0000003C00F0003C00F0003C00F0003C00F86
:103300000003C00F0003C00F0003C00F0003C00F75
:1033100000031FE300007FF800007FFC00001FE0B7
:10332000000300030003C00F0003C00F0003C00F21
:103330000003C00F0003C00F0003C00F0003C00F45
:103340000003C00F0001800600001FE000003FF0F6
:1033500000003FF000001FE00000000000001FE040
:1033600000003FF000003FF000001FE00001800679
:103370000003C00F0003C00F0003C00F0003C00F05
:103380000003C00F0003C00F0003C00F0003C00FF5
:1033900000031FE300007FF800007FFC00001FE037
:1033A000000000030000000F0000000F0000000FED
:1033B0000000000F0000000F0000000F0000000FD1
:1033C0000000000F0000000600001FE000003FF0BA
:1033D00000007FF00000FFE000000000000000009F
:1033E00000000000000000000000000000000000DD
:1033F00000000000000000000000000000000000CD
:1034000000000000000000000000000000000000BC
:1034100000000000000000000000000000000000AC
:103420000000000000000000000000000000780024
:1034300000007800000078000000780000007800AC
:103440000000780000000000000000000000000004
:10345000000000000000000000000000000000006C
:10346000000000000000000000000000000000005C
:1034700000000000000000000000070000000F80B6
:1034800000000F8000000F80000007000000000017
:10349000000000000000000000000000000000002C
:1034A000000000000000070000000F8000000F80F7
:1034B00000000F8000000700000000000000000076
:1034C00000000000000000000000000000000000FC
:1034D00000000000000000000000000000000000EC
:1034E00000000000000000000007C006000FE0061A
:1034F0000000000C00301818003018180030183088
:103500000030183000301860003008C00007C0C01C
:10351000000FE080000000000000000FE000060740
:10352000C000063018000C3018000C30180018309D
:103530001800303018003030180060000000C00F54
:10354000E000C007C0000000000000000000000014
:10355000000000000000000000000000000000006B
:10356000000000000000000000000000000000005B
:10357000000700E0000887FC00088E03000898019F
:10358000800718008000300000003000000070004C
:1035900000006000000060000000600000006000AB
:1035A00000006000000070000000300000003000EB
:1035B000000038000000180100000C03000007FCA8
:1035C000000001F00000000000000000000000000A
:1035D00000000000000000000000000000000000EB
:1035E00000000000000000000000000000000000DB
:1035F00000000000000000000000000000000000CB
:1036000000000000000000000000000000000000BA
:103610000000000000003FF000007FF000007FE0AD
:103620000000FFC0000000000000000000000000DB
:10363000000000000000000000000000000000008A
:10364000000000000000000000000000000000007A
:1036500000000000000000000000B5E702000200CA
:1036600002007FF0421042107FF0421042107FF0C3
:1036700042000208020801F800000000D7D37FF0E2
:1036800000200040008001000200FFF8020002005C
:1036900002000200020002000E0000000000C8F05C
:1036A00000200222FA22222223FE200027FEF820F8
:1036B000204023FE22523A52E25242520252020665
:1036C000B7C208800840084017FE110031003100E1
:1036D00051F8910811081108110812081208145025
:1036E0001820BCBC10201020102013FEFC2010203D
:1036F000102015FC18843088D0481050102010502D
:1037000051882606CAF501000120011001107FFC36
:1037100003800540054009201110210841040102E1
:10372000010001000100D2BA0080404027F811409A
:1037300001408278424816A81AD023502220422005
:103740004250028800000000BEA73FE020203FE07A
:1037500020203FE00000FDF885088508FDF8850879
:103760008508FDF8850800000000B2E200084F88D7
:1037700028880AA88AA84AA80AA82AA82AA8422803
:10378000450884888888103800000000CAD440505A
:10379000204820400FF80040E040274022402240CF
:1037A00022202A2833A82E18000800000000B3CCDD
:1037B00000001BF0E210221023F0F800200033F08C
:1037C00068806080A3F02080208027F8000000003F
:1037D000D0F2020001003FF820002FF0202022400C
:1037E00021803FF820882090408040808380000026
:1037F0000000D1D5200010F87E20444028F87E88B3
:1038000048A850A864A848A872A8845018886108DD
:1038100000000000C9AB100010003FE04040808075
:103820007FF04210421042107FF0400040084008F4
:103830003FF800000000CCEE20802FF8208027F019
:10384000F41027F0241027F0241027F03410CFF8BC
:103850000220041000000000B3E404000200FFF89E
:103860000800104020207FF0089008800880088021
:1038700010882088C07800000000CEC40400020038
:103880000200FFF810401040088008800500020088
:10389000050008803060C01800000000D7D6040082
:1038A0000200FFF8800880083FC00080010002008D
:1038B000FFF80200020002000E0000000000CFD45A
:1038C0003FE0202020203FE0202020203FE0088013
:1038D0004890289028A008800880FFF80000000089
:1038E000CABE00003FE0000000000000FFF8020038
:1038F0001240122022104208820802000E0000002E
:103900000000CDBC7FF84008440847C848485488A8
:1039100043084CC8733840884C08430840887FF8F7
:1039200000000000C6AC00802080208020803FF096
:103930002000200020003FC0204020402040404088
:10394000804000000000B4A520403840484091F07D
:103950007D50555055507D5055F054407C4054504A
:1039600057F88C0800000000C3FE2220222027F810
:10397000FA2027F0241027F03410E7F020802FF8E9
:1039800021402220EC1800000000CAE440804140A1
:10399000F22044108BE8A000F78824A827A834A8B8
:1039A000E7A824A8248825B800000000C8EB080078
:1039B00004000400020002000500050008800880E1
:1039C0001040104020204010800800000000C8ABCC
:1039D000020002000500088010402020DFD802000D
:1039E00002001FC0020002000200FFF800000000F9
:1039F000B3CC00001BF0E210221023F0F8002000EE
:103A000033F068806080A3F02080208027F80000D9
:103A10000000BCBC208020802080F7F02080208027
:103A200027E03220E2202140208021402220EC1893
:103A300000000000CAF50200024002200200FFF868
:103A400007000A800A8012402220421082080200E9
:103A5000020000000000D6A702000200FFF80200EA
:103A600002007FE0102010400880050002000500E1
:103A700018C0E03800000000B3D62080208023F07A
:103A8000F880208027F828203020E7F82020222006
:103A900021202020E0E000000000D7A80200020062
:103AA0007FF004000400FFF8080010003FE0002051
:103AB00000401C800300008000000000D7A201002D
:103AC0004080200017F0008080804080008017F048
:103AD00010802080208040804FF800000000C5FA50
:103AE000204024402440F44824502760244034409F
:103AF000E4402440244025482648E43800000000E3
:103B0000B7A202002220221044007FF8040008001F
:103B10000FE0142024404280810006C038380000A5
:103B20000000B3C900A0009000807FF84080409062
:103B30007C90449044A044A0444858A8411882086E
:103B400000000000B9A601000100F90023F02110D7
:103B500021102110211021103910C2100210041060
:103B6000086000000000D2C60000002000780CE4CD
:103B70007904516810307E6019981A3C2FE448E4AB
:103B80000838003000600000D1A1000001200120B1
:103B900003FC62203420042003FC240021B02120F7
:103BA0002220323E18000FE00000D4F10000000097
:103BB00010FC1304110C3DF8703E10D015907CF0F1
:103BC000503E18101BFE023000200000CFEE000017
:103BD000000003FE00607C4012FC11041106113647
:103BE00011241F44794400C0009C01860000C4BF1A
:103BF000000000000FE03C18200820043E04600490
:103C000060047E046004200C20081FF00180000086
:103C1000B6CC0000080011FC103E3EF82D8C2904A3
:103C2000490409043E8C50FC10881EC811FC100E7B
:103C30000000B0B400000040006012FE13023A42DF
:103C40007F4410C41BFE3C987190113011A0007885
:103C5000004C0000C8B70000004000F878C41F8C7A
:103C6000313821EC2126413A7DE2272225FA3D26F2
:103C7000012401040000B6A80000010001705FFCEF
:103C8000700420042FF801001100113821C4310004
:103C90003F0063E040380000B3A4000000000818B3
:103CA000086008C00B001E00181C7FF01000118077
:103CB00010E01838098E0F000000B0B4000000407A
:103CC000006012FE13023A427F4410C41BFE3C986F
:103CD0007190113011A00078004C0000B7B50000C1
:103CE000000007F80600240014F8078C04042408D8
:103CF000261825F0647C64C220801FC00000BBD859
:103D0000000000001FF030182008278C2C442844A5
:103D100028442CC427842004300C1FF803800000A2
:103D20000000000000000000000000000000000093
:103D30000000000000000000000000000000000083
:103D40000000B4BF000000000000020100063FC0F8
:103D50000C3FE01803001002003336603726203E87
:103D600066301C643018642031FEE03F1FC01C0C1C
:103D700000000C000704003E07F00001C000000036
:103D8000000000000000000000000000C9AB0000BF
:103D90000000000001FE0003E3000703000C030025
:103DA0001C3F003BFFC03F30600C30200C30200C2B
:103DB00010200C10600FFFC0083F00080000080032
:103DC000600E3FE007FC0000000000000000000063
:103DD000000000000000CCEE000000000000000326
:103DE0000000FFE00C07F00C06000CFF803FF0E045
:103DF0001FC0600CFE300CCC3004F83004FF2004EF
:103E0000C0201FFE603EC06001FFF001FFF00060B7
:103E10006000400000000000000000000000000002
:103E2000B3E400000000000000200000300007FFA5
:103E3000F03FFFE00300000601800C01800801C094
:103E40001807E00FFE7007E00002060006040004F9
:103E500004000404000C06700C07E00000000000E1
:103E600000000000000000000000B2E200000000BE
:103E7000000000003039FC301FCC300706B00F06C0
:103E8000F01907B03137B03136F01F27F00167F075
:103E900001E5F001E1F00041F00CF8B03CD8300051
:103EA0008C300080300000000000000000000000A6
:103EB00000000000CAD40000000000000803600CED
:103EC00003700C0330003FE0003F800801003C011C
:103ED00080047F80047D800C00800C10C00C10C01A
:103EE0000C18400C1C600F7E600670300000300023
:103EF0000000000000000000000000000000CEC430
:103F000000000000C00000E00000700001FFE01FA2
:103F1000FFC0180100000300000600000E00001C96
:103F2000000E180007300001E00000F00000FC0067
:103F3000018F000303C00201E00000000000000048
:103F40000000000000000000D7D6000000000000C4
:103F5000002000003F0031FFE03FC020380030303B
:103F6000FE2033C660100200000C0000180000188C
:103F700000000C0007FFE03FFFE0000400000C0021
:103F8000000C000000000000000000000000000025
:103F90000000CFD400000000000007FF000F03C0A6
:103FA0000C00401FF8601800600800400E01C007B8
:103FB000FF000000000184000184001987800F8C3D
:103FC000E0078C2000CC0003FFE01FFFC0000000D2
:103FD000000000000000000000000000CABE000059
:103FE000000000000E00001FFFC0007FE000000086
:103FF000000000000000000000003FC03FFFE000A4
:1040000030000030000030000613000C13C00C1804
:10401000F018180018180000000000000000000050
:10402000000000000000CDBC00000000000007FF01
:10403000000F03801CC0C019FC6011C6603306204D
:1040400033E63036FF30301FF030703030FC303324
:104050009F3036002010E060187C400E01C003FF46
:104060000000380000000000000000000000000018
:10407000C6AC00000000000008180018080018086E
:1040800000180800180C201FFFF01FF8001800008F
:1040900010000010F8001FFE001E030010030010A7
:1040A00003001003001003001802000000000000CD
:1040B00000000000000000000000CFD4000000005D
:1040C000000007FF000F03C00C00401FF86018003D
:1040D000600800400E01C007FF00000000018400DE
:1040E0000184001987800F8CE0078C2000CC00032E
:1040F000FFE01FFFC0000000000000000000000003
:1041000000000000CABE0000000000000E00001FFA
:10411000FFC0007FE0000000000000000000000081
:1041200000003FC03FFFE0003000003000003000E2
:104130000613000C13C00C18F01818001818000013
:104140000000000000000000000000000000B4A516
:104150000000000000000601800FC1801E61803059
:104160004FC020CFE0078D303FC9303379303379ED
:10417000303FFB3037FF203267E03FE3803FE3C052
:104180003263603267F0304FB00000000000000082
:104190000000000000000000C3FE0000000000005E
:1041A0000030C000FFF00C79C00C1F800C7FE03F96
:1041B000E0600CC0300CFC3004C03007C0301E6022
:1041C000603C3FC0041C00047FE000FFE00030C002
:1041D000006060000000000000000000000000001F
:1041E0000000CAE40000000000000C03800C0FC0B7
:1041F000081C703F70001F9FC0101FC010000036C9
:104200007C3017E6301FE3B0067FB00277F007E39B
:10421000F03F7FF01336F003263003263000000015
:10422000000000000000000000000000C8EB0000DB
:104230000000000006000003800001C00000E00054
:1042400000700000780000CC0000C600018300036D
:1042500001800700C00600E00C0070180030180054
:10426000003000000000000000000000000000001E
:10427000000000000000000000000000000000003E
:10428000000000000000000000000000000000002E
:10429000000000000000000000000000000000001E
:1042A000000000000000000000000000000000000E
:1042B00000000000000000000000000000000000FE
:1042C000010202030405060708090A0B0C0D0E0F74
:1042D00010100000000000000000010203040607A7
:1042E0000809000000000102030400000C4300085C
:1042F0000000002020000000FC2600082C430008DD
:1043000020000020E00500000C270008000000004D
:10431000000001020304050607080900010000006F
:0C43200010000000000000000024F40069
:0400000508000131BD
:00000001FF
