:020000040800F2
:10000000300D002049010008733C00083936000813
:10001000713C0008ED120008894300080000000050
:10002000000000000000000000000000493D000842
:100030006715000800000000753C00084B3D0008F3
:100040006301000863010008630100086301000800
:1000500063010008630100086301000863010008F0
:1000600063010008630100086301000863010008E0
:1000700063010008630100086301000863010008D0
:1000800031150008630100086301000863010008DE
:1000900063010008630100086301000863010008B0
:1000A00063010008630100086301000863010008A0
:1000B0006301000863010008630100086301000890
:1000C0006301000863010008630100086301000880
:1000D0006301000863010008694300086301000828
:1000E0006301000863010008630100086301000860
:1000F0006301000863010008630100086301000850
:10010000630100086301000863010008630100083F
:10011000630100086301000863010008630100082F
:10012000630100086301000863010008630100081F
:10013000DFF810D000F0D8FD004800474D5300080C
:10014000AFF30080300D0020064880470648004786
:10015000FEE7FEE7FEE7FEE7FEE7FEE7FEE7FEE777
:10016000FEE7FEE7C93D000831010008202A04DB54
:10017000203A21FA02F00021704721FA02F3D04020
:10018000C2F12002914008431946704740EA01033A
:100190009B0703D009E008C9121F08C0042AFAD23D
:1001A00003E011F8013B00F8013B521EF9D2704701
:1001B000D2B201E000F8012B491EFBD270470022A9
:1001C000F6E710B513460A4604461946FFF7F0FF56
:1001D000204610BD421C10F8011B0029FBD1801ADB
:1001E0007047034611F8012B00F8012B002AF9D1C2
:1001F000184670470FB400B58DB010A909900B9048
:1002000000914FF0FF300A9000200C9005480690B6
:10021000054807906A4609A80F9900F04BFC0DB0FD
:100220005DF814FBD10A0008EF0A00082DE9FF4F22
:10023000087883B09946FF2805D0491C2D2804D0A2
:100240000024002008E000200BE00124F9E700EB87
:10025000800003EB4000491C0B78FF2BF7D104B161
:10026000404200230293147819461D462D2C01D0DC
:100270002B2C04D1521C2D2C13D000240294AA46FE
:100280001478FF2C0FD00A25A3FB057801FB05810C
:100290004FF0000C03FB0C11521CE3194AEB010157
:1002A000EEE70124EAE7814453EA010002D019F5A0
:1002B000C87F06DA03980021C0E9001107B0BDE845
:1002C000F08F0025AE4E2F46DFF8B882184600F0BA
:1002D000CAFCCDE90001B9F1000002DAC9F100045D
:1002E00000E004460023A74A1AEB030B42EB045A32
:1002F00012E0E00707D02A4633463846414600F070
:10030000ECF9074688462A4633461046194600F05F
:10031000E4F905460E466410002CEAD1DDE900013F
:10032000B9F1000F5A46534606DA00F048FA3A4649
:10033000434600F044FA05E000F0CFF93A46434660
:1003400000F0CBF9029A0AB181F00041039AC2E9A8
:100350000001B3E72DE9FF4F1F468DB0D7E90146F5
:100360004FF0FF382E2045464FF000090B90B96939
:100370006D1C0E988847396A824688470028F6D156
:10038000BAF1FF3F0AD024F4D064002E11DDBAF197
:100390002B0F08D0BAF12D0F0BD102E0404611B05F
:1003A0008DE744F48064B9696D1C0E9888478246D5
:1003B000761E6946600501D52D2000E02B208DF8C2
:1003C000000001F1010B0DF1200809E0B9696D1C75
:1003D0000E98884782460F9844F40074761E056094
:1003E000002E02DDBAF1300FF0D00B998A453ED1D4
:1003F00044F0800406E00F99681CA9F1010944F457
:1004000000740860B9696D1C761E0E988847824694
:100410003028F0D02BE00B998A4505D1200603D473
:1004200044F08004761E18E0504604F0ABF908B39F
:100430000DF11301761E44F400748B4508D2AAF125
:1004400030000BF8010B200607D5A9F1010003E0ED
:10045000200602D409F101008146A00502D50F99BA
:10046000681C0860B9696D1C0E9888478246002E8A
:10047000D1DC53E0002E51DDBAF1650F02D0BAF1A4
:10048000450F4BD1A00549D5B9696D1C24F44074C2
:10049000761E0E9888478246002E0CDD2B2804D04D
:1004A000BAF12D0F07D144F48074B9696D1C0E9810
:1004B00088478246761EE00501D52D2100E02B21DC
:1004C00008F8011BCDF82C8021E00DF12901761EE2
:1004D00044F4007488450CD2AAF1300010F0FF00FB
:1004E00088F8000002D10B99884509D908F1010864
:1004F00006E0E00501D5244801E042F20F70814694
:10050000B9696D1C0E98884782460F980560002EC9
:1005100004DD504604F036F90028D6D1F9690E986A
:100520008847FF208BF8000088F800000020069024
:1005300007904B466A4608A906A8FFF777FEA00574
:1005400002D46FF001002AE714F0240F0AD0E0076C
:1005500014D1DDE906123868031D3B600068C0E96C
:1005600000120BE0DDE9060100F0A1FB0146E00707
:1005700004D13868021D3A600068016028460EE721
:10058000000014400000F03FF1D8FFFF2DE9FE4FBE
:10059000804681EA0300C00F0C46009021F0004124
:1005A00023F00045B8EB0200A94105D240462146A0
:1005B00090461C460B46024623F00040104347D0AD
:1005C000270DC7F30A00C3F30A510290401A0190A5
:1005D00040286BDAC3F3130040F4801B0098924666
:1005E00020B10023D2EB030A63EB0B0B01985946B1
:1005F000C0F14002504600F036FA06460D4650461D
:100600005946019A00F03EFA10EB080061410024BF
:1006100087EA115284EAE7731A4340D0009A62B322
:10062000019A012A4FEA075215DC001B61EB020117
:100630004FF0004202EA0752CDE90042001C41F5AA
:10064000801132462B4600F0C0FA03B0BDE8F08FAF
:1006500040462146F9E7001B61EB0201001C41F511
:10066000801300185B412018A2F5001747EB030127
:1006700040EAD570B6196D4111E06D084FEA3606B3
:1006800045EAC0754FEA0752001B61EB0201001CEE
:1006900041F5801149084FEA3000001951413246B6
:1006A0002B4603B0BDE8F04F00F080BA009801225D
:1006B00040000023D0EB020263EBE0730098214678
:1006C0004FEAE074B8EB000061EB0401E9E783F066
:1006D00000435BE781F0004158E72DE9FE4F81EAD6
:1006E000030404F0004421F0004100944FF0000B9B
:1006F00023F0004350EA01045ED052EA03045BD0C9
:10070000C3F30A54C1F30A552C44A4F2F334019400
:10071000A0FB0254C1F3130141F48011C3F313038E
:1007200043F4801301FB024400FB034E840A970A42
:1007300044EA815447EA8357A4FB076802958D0A6F
:1007400005FB07854FEA932C04FB0C542705029DFB
:100750004FEA065847EA1637B5EB08056EEB070C6B
:10076000870E920E47EA811742EA8312A7FB020125
:10077000B6EB0B0164EB00042B0D43EA0C335E185F
:1007800044EB1C50DA465146E7FB0201C5F3130463
:100790004FEA0B3343EA14534FEA0432019C43EA15
:1007A0000603A4F10C040294009CCDE900B400F00F
:1007B0000CFA03B0BDE8F08F00200146F9E72DE9FF
:1007C000F04D81EA030404F0004B21F0004514468B
:1007D0004FF0000A23F0004150EA050220D054EA0D
:1007E00001021DD0C5F30A570246C5F31303C1F336
:1007F0001300C1F30A5640F4801543F48013A7EBAD
:100800000608101BD64608F2FD3873EB050002D32C
:1008100008F1010801E092185B41B8F1000F03DA1A
:1008200000200146BDE8F08D00204FF480110646FF
:1008300084460EE0171B73EB050705D3121B63EB11
:10084000050306434CEA010C49084FEA30009218B0
:100850005B4150EA0107EDD152EA030012D082EA6F
:10086000040083EA0501084305D0101BAB4106D202
:100870000122002306E000224FF0004302E06FF067
:10088000010253101AEB06004CEB085110EB0A0062
:1008900041EB0B01BDE8F04D00F088B970B521F0D7
:1008A000004303430CD0C1F30A550024D5EB0405E3
:1008B00064EB0403D617AD1AB34102DB00200146F6
:1008C00070BD201841EB025170BD0EB5C10F80EA1A
:1008D000E0700844CA07002140F233438DE80E005F
:1008E0000A460B4600F071F903B000BD0EB540F2A8
:1008F000334102910021CDE900110A460B4600F078
:1009000064F903B000BD70B5C1F30A5201F00045AF
:100910000024C1F3130140F2FF3341F480119A42E5
:1009200001DA002070BD40F233439A42A2F2334212
:1009300003DC5242FFF71AFC00E090402C43F1D058
:10094000404270BDC1F30A5210B5C1F3130140F229
:10095000FF3341F480119A4201DA002010BD40F2C9
:1009600033439A42A2F2334203DC5242FFF7FEFBCA
:1009700010BD904010BD000030B5041E71F10004A0
:1009800004DB4FF00044404264EB0101141E73F19C
:10099000000405DB1C464FF00043524263EB0403A6
:1009A0008B4208BF824230BD30B5041E71F1000495
:1009B00004DB4FF00044404264EB0101141E73F16C
:1009C000000405DB1C464FF00043524263EB040376
:1009D000994208BF904230BD30B50B460146002019
:1009E0002022012409E021FA02F59D4205D303FAF1
:1009F00002F5491B04FA02F52844151EA2F1010272
:100A0000F1DC30BD2DE9F05F0546002092469B46A3
:100A100088460646814640241BE028464146474614
:100A20002246FFF7A3FB53465A46C01A914110D302
:100A300011461846224600F016F82D1A67EB0108F9
:100A40004F4622460120002100F00DF817EB000967
:100A50004E41201EA4F10104DFDC484631462A46FF
:100A60004346BDE8F09F202A04DB203A00FA02F159
:100A7000002070479140C2F1200320FA03F319438C
:100A800090407047202A06DBCB17203A41FA02F04B
:100A900043EAE07306E041FA02F3D040C2F12002DB
:100AA0009140084319467047026811441378016069
:100AB00018467047D1600449516104491162002110
:100AC0001161114600F028B9A90A00080D0D0008AF
:100AD000426842B1016811F8013B23B1521EC0E9DE
:100AE0000012184670470121C160881E7047426895
:100AF0005AB1C368016843B983688B4205D0491E67
:100B0000521CC0E90012002070474FF0FF307047C0
:100B10000FB4002300B589B00CA900910B996FF0B8
:100B20000042CB601E4B06931E4B07930423CDE976
:100B300001321D4A089202466B460020FFF70AFC6C
:100B400009B05DF814FB70B586B006464FF0FF3073
:100B50000091CDE90101002015460C460490324673
:100B6000694604A8FFF7D4FF02460498211825B16E
:100B700008B1084600E020462860049800280DD0FF
:100B8000002A02DD0098884208D0081B0094CDE9B5
:100B900001043246694604A8FFF7BAFF06B070BDEB
:100BA000D10A0008EF0A00080D0D000810B5141E48
:100BB00073F1000408DA401C41F1000192185B4116
:100BC0001A4301D120F0010010BD2DE9F04D9246ED
:100BD0009B4611B1B1FA81F202E0B0FA80F2203204
:100BE0009046FFF740FF04460F4640EA0A0041EAFC
:100BF0000B0153465A46084313D0114653EA0100ED
:100C000019D0C8F140025046FFF7B0FA05460E462B
:100C1000504659464246FFF726FF084305D00120BB
:100C200004E020463946BDE8F08D0020054346EA41
:100C3000E0762C4337430A986305E40AA0EB0800EA
:100C40000022FD0A44EA47540A3002D5002001463A
:100C5000E9E7010510196941DDE908450019694115
:100C6000BDE8F04DA2E70EB540F2334202920022F9
:100C7000CDE900221346FFF7A8FF03B000BDC1F382
:100C80000A52C1F3130140F2FF3341F480119A423A
:100C900002DA00200146704740F233439A42A2F242
:100CA000334202DC5242FFF761BAFFF7DCBE01F0CB
:100CB000004330B421F0004150EA010206D00A0D91
:100CC000A2F56072C1F31301002A02DC30BC0020DF
:100CD0007047440F44EAC104C100E01830BC00EB87
:100CE000C25000F0B1B90000064C074D06E0E068C4
:100CF00040F0010394E8070098471034AC42F6D363
:100D0000FFF71AFAD07E0008F07E0008C0B24FF458
:100D1000F05100F021BA00002DE9F34F8BB04FF0F5
:100D2000000801F10C000C464FF0010B46460DF196
:100D3000080A01906269012101989047051E2DD093
:100D4000252D2CD0216A8847C0B162690121019804
:100D50009047216A88470028F7D1411E62690198AF
:100D6000904700E0761CA1690B988847216A884764
:100D70000028F7D1E1690B988847DBE7A1690B9858
:100D800088470746A84201D1761CD3E7E1690B9852
:100D900088477F1C02D1B8F1000F6FD047E10027D0
:100DA00062693D463946019890472A2804D1626914
:100DB0000121019890470125DFF88892626901219D
:100DC00001989047A0F130010A290AD24F45E5DC8D
:100DD00007EB870100EB4107303FDFD445F01005FA
:100DE000ECE7E90601D46FF000476C280AD04C28E4
:100DF00014D0682815D06A280DD074281CD07A2801
:100E00001AD01DE062690121019890476C2802D038
:100E100045F0040514E045F002050DE045F020051D
:100E20000AE06269012101989047682802D045F0E4
:100E3000080505E045F400656269012101989047C5
:100E4000C4E9015765283DD019DC58287AD00CDC5C
:100E5000452837D004DC252826D0412831D131E07F
:100E600046282FD047282CD12CE05B2877D061284A
:100E700028D063287CD0642823D15AE0D1E06F28A1
:100E800048D008DC66281DD067281BD0692821D0EF
:100E90006E2816D127E0702845D0732868D07528B1
:100EA00047D078280DD14DE0A1690B9888470546B9
:100EB00025283FF469AFE1690B9888476D1C3FF422
:100EC0006AAFB4E023466A466FF001000B99FFF762
:100ED00041FA9FE045F040006060A80723464FF0CC
:100EE000000236D43EE0E8077FF447AF2068011DDA
:100EF00021600068290501D506701BE7290701D587
:100F0000068017E7A90703D5F117C0E9006111E7CB
:100F100006600FE745F040006060A80723464FF0E9
:100F2000080216D41EE040F60E0125EA01006060BA
:100F300016E045F040006060A80723464FF00A0223
:100F400007D40FE045F040006060A80708D52346AD
:100F500010226FF001000B99AFF300805AE007E018
:100F6000234610226FF001000B99AFF3008051E08F
:100F70004FF000094F464B46632802D05B2807D04C
:100F800041E02079C00601D40120A06001273AE0A9
:100F900062690121019890475E2805D14FF001094F
:100FA0006269494601989047216939B900210A468A
:100FB000534643F82120491C0829FADBB0B32169C4
:100FC00069B9C11700EBD16253110AEB830122F01A
:100FD0001F02821A01200B68904003430B60626974
:100FE0000121019890475D28E8D1B9F1000F09D09F
:100FF0000020514651F82020D24341F82020401CC7
:101000000828F7DB02AB224600976FF001000B992E
:10101000AFF3008000280CDA401C08D1BBF1000FB0
:1010200005D04FF0FF300DB0BDE8F08FFFE7404630
:10103000F9E7E90701D108F1010806444FF0000B78
:1010400078E60000CCCCCC0C0029A8BF7047401C2F
:10105000490008BF20F00100704710B4B0FA80FCCE
:1010600000FA0CF050EA010404BF10BC704749B10B
:10107000CCF1200421FA04F411FA0CF118BF01217B
:1010800021430843A3EB0C01CB1D4FEA00614FEA5B
:10109000102042BF002010BC704700EBC35010442A
:1010A0000029A4BF10BC7047401C490008BF20F0B5
:1010B000010010BC70472DE9F04D00231A461B1AA1
:1010C0008A4103DB00200146BDE8F08DC1F30A52DE
:1010D000C1F3130141F480154FF0000BD10702D189
:1010E00000186D41521E0027044640F2FF11384699
:1010F00001EB620A3E468046024600204FF4801112
:10110000FFF734F8C2197141BB1846EB0100B4EB8C
:10111000030C75EB000C04D3E41A65EB00051746CD
:101120000E46241908F101006D4180463428E3DDA4
:10113000F91946EB0600091BA84103D24FF0FF3214
:10114000134601E0002213461BEB070046EB0A5151
:10115000BDE8F04DFFF72ABD7F2801D9002208E045
:10116000064A02EB5002C007127800D1120902F0C1
:101170000F0201209040084070470000907E000858
:1011800070B5044600688168C943C90717D18168F2
:1011900021F00101816001F0D1F805460AE000BFAD
:1011A00001F0CCF8401B022804D920688068C043B5
:1011B000C00706D020688068C043C007F0D0002078
:1011C00070BDA06A40F01000A062E06A40F001002B
:1011D000E062012070BD0000F8B5002604460096CC
:1011E00000688168C943C9072DD0816841F00101B9
:1011F0008160164816490068B0FBF1F000E0401E1F
:1012000000900028FBD101F099F8054616E000BFD8
:1012100001F094F8401B022810D920688068C04370
:10122000C0070BD0A06A40F01000A062E06A40F056
:101230000100E06284F824600120F8BD2068806825
:10124000C043C007E4D10020F8BD0000200000200A
:1012500040420F002DE9F0411C4800F099FC32217A
:101260001A4800F0F7FB194800F032FB184E8005D1
:1012700006D5164800F02EFBFFF738FBC6E9000143
:10128000D6E900014FF06632124BFFF726FAC6E9A5
:10129000020104460D4622462B4600200E49FFF768
:1012A00016FA074688460D4A0D4B20462946FFF799
:1012B00014FA3A464346FFF782FA0A4A0A4B04F008
:1012C0009DF8C6E90401BDE8F08100005C0400203F
:1012D0003800002066664A3F00001440713D0AD77E
:1012E000A370414004734B7001FA0840FEE7000010
:1012F0002DE9F047054600F00BF9344E012240215C
:10130000304601F016F800224021304601F011F875
:1013100000244FF47A77384603F092FF641CE4B25D
:10132000122CF8D300F0E6F8142003F089FF4021D6
:101330003446304600F0F0FF08B900F0E9F800F05C
:10134000D9F84021204600F0E7FF00283BD10226D3
:101350004021204600F0E0FF20B9300000F10106F6
:10136000F6B2F5D10226A2464021504600F0D4FF45
:10137000012804D1300000F10106F6B2F4D102F0E8
:1013800095FC814602F092FC804602F08FFC0746F5
:1013900002F08CFC064602F089FC044600F0B8F826
:1013A00001224021504600F0C4FF09EB08003844F8
:1013B0003044C1B2A14206D185F8009085F8018081
:1013C000AF70EE702C71BDE8F08700000010014096
:1013D000F8B54FF47A7000F091FE4EF67D76304607
:1013E00002F048F933A04FF47847009033463A466C
:1013F0001421012000F0BAF8314832A1D0E90023CD
:10140000314802F0DDFF3048009033461F2228218A
:10141000012000F0ABF82D48FFF76AFF2B4C2A485B
:101420002BA1637822780A3002F0CAFF26480A30DE
:1014300003F085FDFFF786FAC0B22070FFF756FA79
:101440002546C5E902012048E378A27820A114309E
:1014500002F0B6FF1C48143003F071FDFFF772FA7A
:10146000C0B2A070FFF742FAC5E904011AA00090CB
:1014700033461F223C21012000F078F81248334601
:101480000A3000901F225021012000F06FF815A0B3
:10149000009033463A466421012000F067F80A487C
:1014A0003346143000901F227821012000F05EF8AE
:1014B000F8BD00004169727175616C6974793A0018
:1014C00048000020256C6600100700205000002016
:1014D00025642E256400000068756D69646974795F
:1014E0003A00000074656D70657261747572653ADA
:1014F000000000001FB500200190029003904020E2
:1015000000906946014800F00BFE1FBD001001402D
:101510001FB5002002904020009001200190032080
:1015200003906946014800F0FBFD1FBD001001401B
:10153000014800F049BC0000CC06002030B590F80E
:1015400040500124AC40C56B6C6004686360436824
:10155000102B036803D099600068C26030BD9A60A8
:101560000068C16030BD704772B6FEE72DE9FF4FDD
:1015700083B089460446DDF840B00090A4E080289E
:101580003ED20D2804D0202808D9203880B206E0A9
:1015900009F110001FFA80F9009C2EE00020DFF80E
:1015A00038A100264FF0800801900198002506EB35
:1015B000001700BF1AF8071028FA05F0014206D0FC
:1015C00009EB060081B2601980B2059A09E0DDE9F5
:1015D0000501884207D009EB060081B2601980B28C
:1015E000069A00F07DF86D1CEDB2082DE2D3761C52
:1015F000F6B2102ED9D30834A4B20BF1010B63E07C
:101600004FF00008354808EB08119BF8002010F84F
:10161000113093424DD100EB4100019041789BF88D
:101620000100814245D100254FF0800A0198002633
:1016300000EB45072AFA06F0B978014206D009EB1B
:10164000050081B2A01980B2059A09E0DDE9050123
:10165000884207D009EB050081B2A01980B2069A32
:1016600000F03EF8761CF6B2082EE3D30026F97897
:101670002AFA06F0014207D009EB050081B2A01951
:10168000083080B2059A0AE0DDE90501884208D0F9
:1016900009EB050081B2A019083080B2069A00F06B
:1016A0001FF8761CF6B2082EE1D36D1CEDB2102D9A
:1016B000BCD308F101001FFA80F8B8F1320FA1D3B2
:1016C00010340BF1020BA4B29BF8000000287FF449
:1016D00056AF07B0BDE8F08F24640008967100088B
:1016E00010B514464A1C93B2421C92B202F002F9A1
:1016F0002046BDE8104001F0A1BF0000F8B500256C
:101700000446009590F8240001280BD0012084F8AD
:1017100024002046FFF734FD2046FFF75DFD06005C
:1017200002D050E00220F8BDA06A20F4885040F0BA
:101730000200A062022000F09FFE25490968B1FB6B
:10174000F0F0400000E0401E00900028FBD120682F
:10175000816841F00801816000F0F0FD074608E073
:1017600000F0ECFDC01B0A2803D920688068000740
:1017700015D4206880680007F2D42068816841F0A1
:101780000401816000F0DAFD074612E000F0D6FDAA
:10179000C01B0A280DD920688068400709D5A06AB7
:1017A00020F0020040F01000A06284F824500120D4
:1017B000F8BD206880684007E8D4A06A20F00200E5
:1017C00040F00100A06284F824503046F8BD0000CB
:1017D00020000020F8B50024009490F8242025462D
:1017E000012A12D0012280F824204A681F23072AE8
:1017F0000DD20668776B521E02EB820293409F4324
:101800000B6893401F43776319E00220F8BD066818
:101810000D2A0AD2376BD21F02EB820293409F43FC
:101820000B6893401F43376309E0F76A0D3A02EBF8
:10183000820293409F430B6893401F43F7620A68FC
:10184000072306680A2A0AD3F7680A3A02EB42021B
:1018500093409F438B6893401F43F76008E03769CC
:1018600002EB420293409F438B6893401F433761D2
:101870000A68102A01D0112A20D1124B02689A421C
:1018800017D193681B0219D4936843F40003936043
:101890000968102912D10C490C4A0968B1FBF2F110
:1018A00001EB8101490000E0491E00910029FBD1B4
:1018B00004E0816A41F020018162012480F8245013
:1018C0002046F8BD002401402000002040420F00C7
:1018D000806A70470068C06C704700002DE9F041D5
:1018E00004004FF000057FD0A06A002628B9E66208
:1018F00084F82460204600F081F82046FFF740FC81
:10190000A16AC90600D420B1A06A40F01000A0620C
:101910006AE0A16A21F4885141F00201A1623349D1
:1019200023688B42E16904D1B1F5402F01D14FF416
:101930000021277B4FF4807C41EA470261680A431B
:10194000A168614508D0012906D0002194F814E06F
:10195000BEF1010F02D00AE06146F7E7C7B1A76AFE
:1019600047F02007A762E76A47F00107E7625F6870
:1019700027F469470F435F60236899681C4F39401B
:1019800011439960A16861450BD0012909D00CE091
:10199000DFF860E0A7690EEB47370F4347F40061BB
:1019A000E5E7218A0D05A5F580152168CB6A23F4AA
:1019B00070032B43CB62216889680F4B1940914219
:1019C00008D1E662A16A21F0020141F00101A162A1
:1019D000BDE8F081A06A20F0020040F01000A06293
:1019E000E06A40F00100E0620120F1E7003C0140C4
:1019F000FDF7E1FF00E0FFFFFE0E1FFF00B585B021
:101A00000021009101910291039100680E498842E2
:101A100018D10E48816941F400718161816901F436
:101A200000710491816941F0040181618069694616
:101A300000F004000490402000900320019004482E
:101A400000F06EFB05B000BD002401400010024014
:101A5000000801402DE9F84300270D460446009791
:101A600000F06CFC804620688168C90508D5A06A32
:101A700040F02000A06284F824700120BDE8F883C3
:101A80004168C90503D4C06A10F4700F2AD002203F
:101A900000F0F2FC3B490968B1FBF0F620680369ED
:101AA00039490B424FEA61014FEAA1121FD1C368C5
:101AB0004FEA611C13EA0C0F19D103690B4225D1BF
:101AC000C068104222D1142023E0681C0AD02DB136
:101AD00000F034FCA0EB0800A84203D9206800689D
:101AE000800725D5206800688007EED52DE00369C2
:101AF0000B4202D1C168114206D0026923490A4251
:101B000006D1C068084203D1542002E0292000E039
:101B1000FC204643009816E0681C11D02DB100F05F
:101B20000DFCA0EB0800A8420AD90098B04207D2E9
:101B3000A06A40F00400A06284F8247003209DE7AE
:101B40000098401C0090B042E6D321686FF012006C
:101B50000860A06A40F40070A06220688068C0F34A
:101B6000424007280CD1207B50B9A06A20F4807035
:101B7000A062A06AC00403D4A06A40F00100A06281
:101B800000207BE720000020244992244992240071
:101B900070B5044690F8240001280DD0012084F887
:101BA00024002046FFF718FB02004FF0000005D08C
:101BB00084F82400104670BD022070BDA16A40F276
:101BC0000123994341F48071A1621F4D23681F498D
:101BD000AB4218D10E6816F4702F14D0A66A46F4E2
:101BE0008016A6620E68760505D5A66A26F400560C
:101BF00046F48056A662A66AF6040AD5E66A26F07E
:101C00000606E66206E0A66A26F48016A6625E680C
:101C1000E9E7E06284F824006FF0020018602068B1
:101C20008368C3F34243072B05D1A84208D1096852
:101C300011F4702F04D0816841F480118160B9E7FC
:101C4000816841F4A001F9E7002801400424014023
:101C500010B590F821100022022905D004218163DB
:101C600080F82020012010BD01680B6823F00E03CE
:101C70000B6001680B6823F001030B6090F84030A3
:101C8000C46B012101FA03F3636080F8211080F82E
:101C90002020104610BD00002DE9F05F90F82110C3
:101CA0000024022903D004218163012485E0016816
:101CB0000A6822F00E020A6001680A6822F0010236
:101CC0000A603F4E3E4FB215DFF8F4C0DFF8F090E7
:101CD000DFF8ECA0DFF8E8B0DFF8E4E00168783F77
:101CE00013011502ACF1640CA9F15009AAF13C0AE8
:101CF000ABF1280BAEF1140E4FF48018B14227D986
:101D0000B9420ED0614512D049451DD0514518D079
:101D1000594518D0714501D1424615E0294EB142CE
:101D200001D1012210E0274E1436B14201D1102218
:101D30000AE0244E2836B14206D0224A3C32914273
:101D400001D11A4600E02A461E49091F0A602BE00D
:101D5000B94213D0614517D0494522D051451DD015
:101D600059451DD0714501D142461AE0B14202D118
:101D70004FF0807215E0134EB14201D1012210E004
:101D8000104E1436B14201D110220AE00D4E283611
:101D9000B14206D00B4A3C32914201D11A4600E0D2
:101DA0002A46074980394A60012180F82110002124
:101DB00080F82010416B01B188472046BDE8F09FB4
:101DC00080000240080402402DE9F05FC16B0A6800
:101DD00001680B68046C4FF0040808FA04F8844D9D
:101DE000844E854FDFF814C2DFF81492DFF814A296
:101DF000DFF814B2DFF814E218EA020F65D05FEAE8
:101E0000437862D50A68920603D40A6822F0040275
:101E10000A60DFF8F0814FF48062016808F114086D
:101E200013011402414524D9A9420DD0B1420FD06B
:101E3000B9421AD0614515D0494515D0514501D157
:101E4000120312E0594501D104220EE0714501D17F
:101E500040220AE06D4D1435A94206D06B4A283263
:101E6000914201D11A4600E022466749091F0A60E3
:101E700029E0A94213D0B14215D0B94220D0614522
:101E80001BD049451BD0514502D14FF4800217E0C9
:101E9000414502D14FF0806212E0594501D1042240
:101EA0000EE0714501D140220AE0584D1435A94297
:101EB00006D0564A2832914201D11A4600E0224605
:101EC0004B4908394A60C16A71E04FF0020808FACC
:101ED00004F818EA020F70D05FEA83786DD50A68BB
:101EE000920606D40A6822F00A020A60012180F8EC
:101EF0002110DFF810814FF40072016808F1140816
:101F000013011402414524D9A9420DD0B1420FD08A
:101F1000B9421AD0614515D0494515D0514501D176
:101F2000120312E0594501D102220EE0714501D1A0
:101F300020220AE0354D1435A94206D0334A283212
:101F4000914201D11A4600E022462F49091F0A603A
:101F500029E0A94213D0B14215D0B94220D0614541
:101F60001BD049451BD0514502D14FF4001217E058
:101F7000414502D14FF0007212E0594501D10222D1
:101F80000EE0714501D120220AE0204D1435A9420E
:101F900006D01E4A2832914201D11A4600E022465C
:101FA000134908394A60002180F82010816A00290D
:101FB0001CD0BDE8F05F0847FFE70825A5401542A3
:101FC00014D01A0712D50A6822F00E020A6090F89F
:101FD0004020C36B012101FA02F25A60816380F84C
:101FE0002110002180F82010016BE0E7BDE8F09F90
:101FF000080002401C000240300002404400024041
:10200000580002406C000240080402401C040240D8
:1020100030B560B11A4B026814219A4209D2194BAB
:102020001344B3FBF1F18900016417490AE0012070
:1020300030BD134B5B421344B3FBF1F189000164E3
:102040000F490839C163022180F82110136843F653
:10205000F0718B43F0E901142143D0E902452C4390
:10206000214304692143446921438469214319437D
:10207000116000214163012242770177084630BD9B
:1020800008040240F8FFFDBF0000024070B504469E
:1020900090F82000002501280CD0012084F82000B1
:1020A00094F821600020012E06D084F8200002253B
:1020B000284670BD022070BD022684F82160A0630E
:1020C0002068066826F0010606602046FFF736FA0B
:1020D000E06A00282068016802D041F00E0106E0A5
:1020E00021F0040101602068016841F00A010160EB
:1020F0002068016841F001010160D9E770B504462C
:1021000000F01CF90546601C02D004480078044425
:1021100000F014F9401BA042FAD370BD1400002057
:102120002DE9F84FDFF8C8910024A9F1040B2346EC
:102130000F2709F1040AABF1040ED1E00125A540F7
:1021400006EA0502AA4276D1DFF8A8C14E68A6EBDE
:102150000C0866452BD00DDC032E34D005DC36B3DD
:10216000012E19D0022E2FD11BE0112E16D0122EC7
:102170002AD119E0B8F5881F19D006DCB8F5803FE0
:1021800015D0B8F5801F1FD111E0B8F5001F0ED093
:10219000B8F5041F18D10AE0CB6815E0CB681B1D09
:1021A00012E0CB6808330FE0CB680C330CE08B688F
:1021B0002BB1012B4FF0080303D0456104E0042349
:1021C00002E0056100E00023FF2A01D8064601E095
:1021D00000F104064FEA840501D9A5F12005D6F8DF
:1021E000008007FA05FC28EA0C0803FA05F548EA1E
:1021F0000508C6F800804D68ED0070D53E4DAE690B
:1022000046F00106AE61AD6924F0030605F0010554
:1022100000953A4D06EB050CDCF80850A607360F82
:1022200007FA06F825EA0805DFF8D480404503D10F
:102230004FF0000825E052E0DFF8C880404502D1A9
:102240004FF001081DE0DFF8C080404502D14FF09B
:10225000020816E0DFF8B480404502D14FF00308D1
:102260000FE0DFF8AC80404502D14FF0040808E0F1
:10227000DFF8A080404502D14FF0050801E04FF0A3
:10228000060808FA06F848EA0508CCF808804D6800
:10229000D9F80060ED024D4601D5164300E09643A3
:1022A0002E604D68DAF80060AD02554601D5164340
:1022B00000E096432E604D68DBF80060AD035D469C
:1022C00001D5164300E096432E604D68DEF80060AD
:1022D000ED03754601D5164300E096432E60641C5D
:1022E0000A681646E2407FF429AFBDE8F88F000087
:1022F00008040140000011100010024000000140DD
:1023000000080140000C0140001001400014014091
:1023100000180140001C01408068084000D00120E6
:102320007047C26821EA02030A4043EA02410161A0
:1023300070470AB1016170470904FBE701488068F2
:1023400070470000140000200248816802781144A0
:102350008160704714000020074810B5016841F003
:1023600010010160032000F075F80F2000F006F85E
:1023700000F024F8002010BD0020024070B50D4D83
:1023800004464FF47A712878B1FBF0F00A490968E5
:10239000B1FBF0F000F042FC48B9102C07D200224B
:1023A0002146501E00F036F800206C6070BD012000
:1023B00070BD000014000020200000200C4808B56B
:1023C000816941F001018161816901F001010091A0
:1023D000C16941F08051C161C06900F08050009036
:1023E0000448416821F0E06141F00071416008BD9E
:1023F0000010024000000140002809DB00F01F022D
:10240000012191404009800000F1E020C0F8001156
:1024100070470000F0B40E4B1B680C46C3F3022358
:10242000C3F10705042D00D90425191D072901D280
:10243000002300E0DB1E012606FA05F1491E2140BB
:1024400099409E40761E16403143F0BC01F0E0BF3B
:102450000CED00E0064900F0070208684FF6FF03A4
:10246000184040EA0220034A104308607047000009
:102470000CED00E00000FA0510B501460020284CE4
:1024800004292FD00BDC012930D0022929D100F0FA
:102490006BF96168C1F38131491C49001FE00829CB
:1024A00020D010291DD161682268D20119D51D489C
:1024B000C1F38342C903805C0AD56168194AC1F33C
:1024C0004041921E515C184AB2FBF1F1484301E0D1
:1024D000164948436168490203D440000321B0FB18
:1024E000F1F010BDBDE8104000F04EB9226AC2F311
:1024F0000121012903D1920701D5C80310BD02298A
:1025000005D1626A920702D549F6404010BD032901
:10251000FCD121688903F9D54FF2244010BD000099
:1025200000100240FC63000800127A0000093D0020
:102530002DE9F84305460078354CC00754D0E069D2
:102540000026C00008D4E06940F08050E061E069F6
:10255000012600F0805000902E480168C90512D471
:102560000168804641F480710160FFF7E7FE07468D
:1025700005E000BFFFF7E2FEC01B642823D8D8F8AF
:102580000000C005F6D5206A10F4407021D0A9885B
:1025900001F4407181421CD0206A1F49012220F4BD
:1025A00040700A6000220A602062C00711D0FFF765
:1025B000C5FE074641F2883808E000BFFFF7BEFEBF
:1025C000C11B414502D90320BDE8F883206A80077A
:1025D000F4D5206A696820F44070084320621EB177
:1025E000E06920F08050E0612878800705D56068B8
:1025F000A96820F44040084360602878C00605D5EB
:102600006068696920F48000084360600020DBE7AF
:102610000010024000700040400442422DE9F047A3
:102620000F46050061D0434E306800F00700B84205
:1026300009D2306820F0070038433060306800F07D
:102640000700B84251D128683B4C810712D540079A
:1026500003D5606840F4E06060602878000703D527
:10266000606840F4605060606068A96820F0F00025
:10267000084360602878C00728D06868012810D017
:102680002168022810D0890700292EDA616821F01C
:10269000030101436160FFF751FE804641F2883932
:1026A0000DE021688903EFE78901EDE7FFF746FEBA
:1026B000A0EB0801494502D90320BDE8F087606816
:1026C000696800F00C00B0EB810FEFD1306800F0CA
:1026D0000700B8420BD9306820F00700384330605B
:1026E000306800F00700B84201D00120E5E7287803
:1026F000400705D56068E96820F4E0600843606041
:102700002878000706D56068296920F4605040EAFF
:10271000C100606000F038F86168084AC1F3031135
:10272000515CC8400649086006480068FFF726FE6D
:102730000020C2E700200240001002400C640008A4
:10274000200000201800002004480549006849685E
:10275000044AC1F30221515CC840704720000020A8
:10276000001002401C6400080448054900684968DC
:10277000044AC1F3C221515CC840704720000020C8
:10278000001002401C6400080E4A51680E4801F017
:102790000C03042B11D0082B0FD10C48C1F3834339
:1027A000C903C05C0AD55168084AC1F34041921E72
:1027B000515C054A5043B0FBF1F07047044948436F
:1027C000704700000010024000127A00EA6300081F
:1027D00000093D002DE9F84F040070D02078C04D6D
:1027E000C00749D06868C0F38100012807D0686835
:1027F000C0F38100022809D16868C00306D52868A3
:10280000800339D560680028E7D035E06068B0F50E
:10281000803F0BD010B1B0F5A02F11D0286820F464
:1028200080302860286820F4802002E0286840F486
:1028300080302860606890B1FFF780FD06460AE0AE
:10284000286840F480202860F0E700BFFFF776FD9D
:10285000801B642873D828688003F7D50CE0FFF745
:102860006DFD064605E000BFFFF768FD801B64288C
:10287000F0D828688003F7D420789A4E80074FF06C
:1028800001094FF0000839D5686810F00C0F07D027
:102890006868C0F38100022809D16868C00306D4C3
:1028A0002868800714D52069012808D110E0206924
:1028B000B0B1C6F80090FFF741FD074605E00AE118
:1028C000FFF73CFDC01B0228C4D828688007F7D555
:1028D0002868616920F0F80040EAC10028600DE036
:1028E000C6F80080FFF72AFD074604E0FFF726FD43
:1028F000C01B022823D828688007F7D42078000757
:102900002CD57948A169D9B1C0F80090FFF716FD20
:10291000074604E0FFF712FDC01B02280FD8686AC3
:102920008007F7D571484FF4FA510068B0FBF1F019
:10293000009000BF0098411E0091FAD20EE080E0A6
:10294000C0F80080FFF7FAFC074604E0FFF7F6FC4A
:10295000C01B022875D8686A8007F7D42078400722
:1029600060D5E8690027C00008D4E86940F08050CD
:10297000E861E869012700F0805000905C48016838
:10298000C90513D40168834641F480710160FFF7E3
:10299000D5FC824606E000BFFFF7D0FCA0EB0A00A2
:1029A00064284ED8DBF80000C005F5D5E0680128A2
:1029B0000AD008B1052813D0286A20F00100286247
:1029C000286A20F0040002E0286A40F00100286232
:1029D000E06841F2883B98B1FFF7B0FC82460BE01B
:1029E000286A40F004002862EEE700BFFFF7A6FC6B
:1029F000A0EB0A0159455AD8286A8007F6D50CE0A1
:102A0000FFF79CFC824605E0FFF798FCA0EB0A016B
:102A100059454CD8286A8007F6D41FB1E86920F0E0
:102A20008050E861E06988B36968C1F381010229D7
:102A300044D00228C6F8608004D0FFF77FFC04462B
:102A400038E034E0FFF77AFC074604E0FFF776FC55
:102A5000C01B02282BD828688001F7D4206AB0F563
:102A6000803F05D16868A16820F4003008436860A1
:102A7000D4E908010843696821F4741108436860C7
:102A8000C6F86090FFF75AFC044606E025E000BF58
:102A9000FFF754FC001B022809D828688001F7D5ED
:102AA0001BE000BFFFF74AFC001B022802D90320ED
:102AB000BDE8F88F28688001F4D40EE00128F7D033
:102AC0006868226A00F48031914204D1616A00F49E
:102AD0007010884201D00120EAE70020E8E70000FA
:102AE00000100240000042428004424220000020C8
:102AF0000070004070B5040009D0606A002540B144
:102B000025616561A56294F8510040B10CE0012097
:102B100070BD6068B0F5827FF4D0E561F2E784F8BB
:102B20005050204600F040F8022084F85100206800
:102B3000016821F040010160A088218900F48270C1
:102B400001F404410843A18901F400610843217C98
:102B500001F002010843217D01F001010843218BAE
:102B600001F400710843217F01F03801084394F813
:102B7000201001F080010843218D01F40051084329
:102B800021680860A069042101EA104021684860BA
:102B90002068C16921F40061C1616565012084F884
:102BA0005100002070BD000030B585B000240094B5
:102BB00001940294039400681549884225D1154870
:102BC000C16941F48041C161C16901F4804104914E
:102BD000816941F00801816180690F4D00F00800B2
:102BE00004904FF4204000900220019003200390B5
:102BF00069462846FFF794FA4FF48040CDE9000477
:102C0000694628460294FFF78BFA05B030BD0000F4
:102C10000038004000100240000C014010B5401E7A
:102C2000B0F1807F01D3012010BD4FF0E02460613E
:102C30000F21601701F0ECFB0020A061072020614C
:102C4000002010BD70B590F83C20012A2CD0012442
:102C500080F83C40022280F83D2003685A689D6855
:102C600022F070060A6832435A60104B02689A429A
:102C70000ED00F4B9A420BD0B2F1804F08D00D4BC3
:102C80009A4205D00C4B9A4202D00C4B9A4204D186
:102C9000496825F080031943916080F83D40002188
:102CA00080F83C10084670BD022070BD002C014029
:102CB000003401400004004000080040000C0040C7
:102CC00010B5040003D094F83D0010B107E00120D6
:102CD00010BD002084F83C00204600F01FF80220C0
:102CE00084F83D00211D206801F070F8012084F86F
:102CF000460084F83E0084F83F0084F8400084F8E1
:102D0000410084F8420084F8430084F8440084F8C9
:102D1000450084F83D00002010BD000000B585B0DE
:102D200000210091019102910391144A0168144815
:102D3000914217D1C16941F00401C161C16901F03B
:102D400004010491816941F008018161806969464B
:102D500000F008000490501500900A48FFF7E0F9D1
:102D600005B000BD084A9142FAD1C16941F0200185
:102D7000C161C06900F020000490F1E70008004044
:102D800000100240000C01400014004090F83D107B
:102D9000012901D001207047022180F83D10006810
:102DA0000E4988420ED00E4988420BD0B0F1804FB8
:102DB00008D00C49884205D00B49884202D00B4903
:102DC000884204D1816801F00701062903D0016817
:102DD00041F001010160002070470000002C01401B
:102DE000003401400004004000080040000C004096
:102DF00001680A6A41F211131A4207D10A6A9B104C
:102E00001A4203D10A6822F001020A60012180F807
:102E10003D100020704770B5044690F83C00002536
:102E2000012817D0012684F83C60022084F83D0078
:102E30002068826822F0770222F47F42826008686C
:102E4000502838D00DDC20284FD005DC90B3102856
:102E500011D14AE0022070BD302846D040280AD166
:102E60003BE060282FD070280DD0B0F5805F03D0F4
:102E7000B0F5005F12D0012584F83D60002084F891
:102E80003C00284670BDCB68D1E90121206800F0E4
:102E9000F0FF2068816841F0770109E0CB68D1E953
:102EA0000121206800F0E5FF2068816841F480413D
:102EB0008160E1E719E0CA684968206800F0EBFF2B
:102EC0005021206806E0CA684968206801F02AF8A5
:102ED0006021206800F0D7FFCEE7CA684968206803
:102EE00000F0D9FF40212068F4E72268014610462F
:102EF000F0E72DE9F041054690F83C0000260C462D
:102F0000012810D0012085F83C0072B1042A1CD0A1
:102F1000082A2CD00C2A50D00126002085F83C002D
:102F20003046BDE8F0810220FBE7D4E90012E368F7
:102F3000286800F0C1FF2868816921F00C018161D7
:102F400028688169A26811430FE0D4E90012E368A0
:102F5000286800F0F9FF2868816921F440618161E7
:102F600028688169A26841EA02218161D5E7286861
:102F7000D4E9002C277B036A016A21F48071016285
:102F8000C16923F4007321F0030141EA0C0121F02F
:102F9000F00C39074FF400774CEA116107EA02227E
:102FA0001A43C16102622868C16921F00C01C16144
:102FB0002868C169A26811432BE02868D4E9002180
:102FC000E768036AD0F820C02CF4805CC0F820C009
:102FD000D0F81CC023F400532CF4407C4CEA0121AF
:102FE00021F4704C4FF6FF7101EA07314FF400579E
:102FF00041EA0C0107EA02321A43C1610262286801
:10300000C16921F44061C1612868C169A26841EACF
:103010000221C16181E710B5040003D094F83D009E
:1030200010B107E0012010BD002084F83C002046CC
:1030300000F01EF8022084F83D00211D206800F0F9
:10304000C5FE012084F8460084F83E0084F83F0065
:1030500084F8400084F8410084F8420084F843007A
:1030600084F8440084F8450084F83D00002010BD39
:103070007047000010B50446022249B104290ED061
:10308000082913D094F84100012816D0012010BD62
:1030900094F83E000128F9D184F83E200FE094F81E
:1030A0003F000128F2D184F83F2008E094F8400066
:1030B0000128EBD184F8402001E084F8412001226E
:1030C000206800F0C9FE13492068134A884201D0E5
:1030D000904203D1436C43F4004343642068884228
:1030E0000DD090420BD0B0F1804F08D00B498842F0
:1030F00005D00B49884202D00A49884204D1816830
:1031000001F00701062903D0016841F001010160C7
:10311000002010BD002C014000340140000400409C
:1031200000080040000C004038B5044690F842000A
:10313000202801D0022038BD61B15AB1012020639E
:1031400000206063204601F08BF80028F3D1216B4A
:10315000012901D0012038BD21680A684968009121
:1031600021680C3151E8002F42F0100241E80023A1
:10317000002BF5D138BD000070B500680F498842BA
:103180001BD10F48006840680E49C0F1C80084B2E6
:103190004FF6FF752B46224601F5887000F0FEF9C8
:1031A00008492B46224601F1C80000F0F7F92146F4
:1031B000BDE870400348FDF702B870BD0044004010
:1031C000CC0600207405002070470000F8B50168A7
:1031D00004460868CA684B6910F00F0F4FF00005ED
:1031E00059D003F0010602F49077374365D0C10748
:1031F00005D0D10503D5616C41F00101616441073F
:1032000005D5D90703D0616C41F0020161648107E3
:1032100005D5D90703D0616C41F004016164010751
:1032200007D502F02001314303D0616C41F0080161
:103230006164616C00293AD0800604D5900602D5FD
:10324000204600F050FF20684069616CC0F3801098
:10325000090700D460B3204600F010FF20684069E1
:10326000400621D52068143050E8001F21F04001AD
:1032700040E80012002AF5D1E06BA8B16D49416326
:10328000E06BFEF709FD002811D0E06B416B01B047
:10329000BDE8F040084783060FD593060DD52046BC
:1032A000BDE8F84000F01FBF2046FFF78DFFF8BDD6
:1032B0002046FFF789FF6564F8BD266B2023012EA9
:1032C0007CD1C6067AD5D60678D5086848680090BD
:1032D00048694FF00206400640D5E16B0868406837
:1032E0000004000CE8D0A28D8242E5D9E08588690F
:1032F00020282DD020680C3050E8001F21F4807168
:1033000040E80012002AF5D12068143050E8001F70
:1033100021F0010140E80012002AF5D120681430A4
:1033200050E8001F21F0400140E80012002AF5D1CA
:1033300084F84230256320680C3050E8001F21F0EB
:10334000100140E80012002AF5D1E06BFEF780FC86
:103350006663A08DE18D401A81B22AE0A08DE18DD7
:10336000401A81B2E08D0028A6D00029A4D022689E
:103370000C3252E8000F20F4907042E80007002F52
:10338000F5D12068143050E8002F22F0010240E807
:103390000027002FF5D184F84230256320680C30D7
:1033A00050E8002F22F0100240E80023002BF5D156
:1033B00066632046FFF7E0FEF8BDFFE705062BD564
:1033C000150629D594F841002128F5D1A068B0F55B
:1033D000805F01D12069B0B1206A411C216221685F
:1033E00000784860E08C401E0004000CE084E3D1CB
:1033F0002068C16821F08001C1602068C16841F087
:103400004001C160D8E7206A0088C0F30800486026
:10341000206A801C2062E5E74006CDD55006CBD55A
:10342000CA68204622F04002CA6084F8413000F0A9
:1034300002F9C1E77F3F000870B5040004D094F89A
:103440004100002510B106E0012070BD84F8405015
:10345000204600F023F8242084F841002068C16849
:1034600021F40051C160204600F09EFE20680169F1
:1034700021F4904101612068416921F02A014161F4
:103480002068C16841F40051C1606564202084F85F
:10349000410084F842006563002070BDF0B585B03E
:1034A000002400940194029403940646344F036868
:1034B000344902220320344DBB4221D18B6943F4AD
:1034C00080438B618B6903F4804304938B6943F0E1
:1034D00004038B618969039001F0040104911102D6
:1034E000CDE9001269462846FEF71AFE2815CDE9F7
:1034F0000004694628460294FEF712FE05B0F0BDAE
:10350000224FBB42FAD1CB6943F40033CB61CB6984
:1035100003F4003304938B6943F004038B618969DE
:10352000039001F0040104910421CDE900126946E1
:103530002846FEF7F5FD0820CDE900046946284637
:103540000294FEF7EDFD134D1148C5E900048020FB
:10355000C5E902402C616C61AC612846EC61FEF764
:1035600057FD08B1FEF700F8F5630022114626204A
:103570006E62FEF74FFF2620FEF73EFFBEE700001B
:1035800000380140001002400008014000440040A3
:103590006C000240CC060020704770472DE9F843CC
:1035A000044690F841001F4616460D46202802D0DA
:1035B0000220BDE8F8837DB176B10020606421204F
:1035C00084F84100FEF7BAFEA6848046E684A0682F
:1035D000B0F5805F02D003E00120EAE7206910B176
:1035E0002E4600250EE000260CE08021204600F04B
:1035F0007FFEA0B9AEB116F8010B21684860E08CDF
:10360000401EE084E08C43464FF000020097002803
:10361000EBD14FF04001204600F06AFE30B10320AC
:10362000C7E735F8020BC0F30800E6E7202084F86E
:1036300041000020BDE77047FEE7000070B50C4D6B
:103640000446002280212846FEF773FE0122402115
:103650002846FEF76EFE200A00F056FBE0B200F0AE
:1036600053FB2846BDE8704001228021FEF761BE71
:10367000000C014070B5064600219F237F220846BA
:1036800000F038F92C2000F07DF9002400253046A8
:10369000FFF7D4FF6D1CA02DF9D3641C802CF5D34B
:1036A00070BD10B500F0C6F900F00EF9112000F061
:1036B00069F97820FEF722FDB12000F063F90120BE
:1036C00000F046F92C2000F043F92D2000F040F9DD
:1036D000B22000F057F9012000F03AF92C2000F058
:1036E00037F92D2000F034F9B32000F04BF9012018
:1036F00000F02EF92C2000F02BF92D2000F028F9F5
:10370000012000F025F92C2000F022F92D2000F0F6
:103710001FF9B42000F036F9072000F019F9C02095
:1037200000F030F9A22000F013F9022000F010F9A7
:10373000842000F00DF9C12000F024F9C52000F02C
:1037400007F9C22000F01EF90A2000F001F900205C
:1037500000F0FEF8C32000F015F98A2000F0F8F818
:103760002A2000F0F5F8C42000F00CF98A2000F0BF
:10377000EFF8EE2000F0ECF8C52000F003F90E2081
:1037800000F0E6F8362000F0FDF8C82000F0E0F880
:10379000E02000F0F7F80F2000F0DAF81A2000F02F
:1037A000D7F80F2000F0D4F8182000F0D1F82F201F
:1037B00000F0CEF8282000F0CBF8202000F0C8F868
:1037C000222000F0C5F81F2000F0C2F81B2000F0F6
:1037D000BFF8232000F0BCF8372000F0B9F8002033
:1037E00000F0B6F8072000F0B3F8022000F0B0F8BF
:1037F000102000F0ADF8E12000F0C4F80F2000F038
:10380000A7F81B2000F0A4F80F2000F0A1F8172063
:1038100000F09EF8332000F09BF82C2000F098F880
:10382000292000F095F82E2000F092F8302000F0CA
:103830008FF8302000F08CF8392000F089F83F2014
:1038400000F086F8002000F083F8072000F080F8F0
:10385000032000F07DF8102000F07AF82A2000F014
:1038600091F8002000F074F8012000F071F80020B9
:1038700000F06EF8802000F06BF82B2000F082F84A
:10388000002000F065F8022000F062F8002000F04F
:103890005FF8822000F05CF8F02000F073F801205F
:1038A00000F056F8F62000F06DF8002000F050F817
:1038B0003A2000F067F8052000F04AF8BDE8104013
:1038C000292000F05FB8000010B5094C002220212B
:1038D0002046FEF72EFD0A20FEF710FC01222021D3
:1038E0002046FEF726FDBDE810400A20FEF706BC84
:1038F000000C01402DE9F04107461C4615460E46D6
:103900002A2000F03FF8002000F022F8BF1CF8B297
:1039100000F01EF8002000F01BF8AD1CE8B200F02B
:1039200017F82B2000F02EF8002000F011F8F61CFC
:10393000F0B200F00DF8002000F00AF8E41CE0B24C
:1039400000F006F8BDE8F0412C2000F01BB80000A4
:1039500070B50B4C0546002280212046FEF7E9FC9D
:10396000012240212046FEF7E4FC284600F0CCF975
:103970002046BDE8704001228021FEF7DABC00003D
:10398000000C014070B50B4C0546002280212046FA
:10399000FEF7CFFC002240212046FEF7CAFC284655
:1039A00000F0B2F92046BDE8704001228021FEF708
:1039B000C0BC0000000C01403EB50024114800943A
:1039C000019402940E49846001600473047501251A
:1039D00005614FF460214460C161FDF77FFF08B1CC
:1039E000FDF7C2FD0620CDE90005694602940548B1
:1039F000FDF7F0FE002801D0FDF7B6FD3EBD00004A
:103A0000002401405C040020094808B5416941F0E8
:103A1000010141614069002200F00100009011465F
:103A20001020FEF7F7FCBDE808401020FEF7E4BCCC
:103A3000001002402DE9F04186B000200090019076
:103A4000029003902348816941F0200181618169DE
:103A500001F020010491816941F0040181618169D3
:103A600001F004010491816941F0080181618169DB
:103A700001F008010491816941F0100181618069C0
:103A8000154F00F010004FF41074049000222146EE
:103A90003846FEF74EFCDFF844804FF4FC760022F7
:103AA00031464046FEF745FC009401240325694653
:103AB00038460194CDE90245FEF732FBCDE90064BA
:103AC00069464046CDE90245FEF72AFB06B0BDE84F
:103AD000F08100000010024000100140000C014085
:103AE000104810B50E4901604FF482714160002109
:103AF0008160C1604FF400720161C0E905121022BB
:103B0000C0E90721416281620A21C162FEF7F2FF2A
:103B1000002803D0BDE81040FDF726BD10BD000011
:103B2000003800408C04002010B58AB000242248E0
:103B300004940594069407940894099400940194BD
:103B400002941C49039401604721C0E901144CF21E
:103B50004F31C0E903148461FFF7B2F808B1FDF7F3
:103B600003FD4FF48050049004A91348FFF753F964
:103B700008B1FDF7F9FC1048FFF74DFA08B1FDF761
:103B8000F3FC089408A90C480994FFF75BF808B106
:103B9000FDF7EAFC0120CDE9004002940C226946C1
:103BA00005480394FFF7A5F9002801D0FDF7DCFCD8
:103BB0000AB010BD00080040E40400201CB5002439
:103BC0000E4800940C49019401604721C0E901149A
:103BD0004FF6FF718461C160FFF772F808B1FDF71D
:103BE000C3FC0094694605480194FFF72BF80028B0
:103BF00001D0FDF7B9FC1CBD001400402C050020CD
:103C00000C4810B50A4901604FF4E13141600021D0
:103C100081600C22C160C0E904128161C161FFF7BB
:103C20000BFC002803D0BDE81040FDF79DBC10BD83
:103C3000003801403C0600200C4810B50A490160DC
:103C40004FF4E1314160002181600C22C160C0E984
:103C500004128161C161FFF7EFFB002803D0BDE8CA
:103C60001040FDF781BC10BD0044004084060020D8
:103C7000FEE7FEE77047000070B5FFF712FD012276
:103C8000094D140221462846FEF753FBFDF7A0FB21
:103C90004FF49660FEF732FA21462846BDE87040A0
:103CA0000022FEF746BB0000000C01402DE9F04168
:103CB000144F00250226FDF71DFC40213846FEF773
:103CC0002BFB20B9300000F10106F6B2F5D11E2021
:103CD00001F0B6FA002640213846FEF71DFB012808
:103CE00000D10126600646EA106440213846FEF7FE
:103CF00013FB0128F9D06D1CEDB2082DDAD3204654
:103D0000BDE8F0810010014070B50E4E0546082454
:103D1000280601D5012200E0002210213046FEF7DE
:103D200008FB002208213046FEF703FB0122082190
:103D30003046FEF7FEFA6806050E641E14F0FF0416
:103D4000E6D170BD000C01407047FEF7FDBA30B5FA
:103D500095B028216846FCF732FA14210AA8FCF72E
:103D60002EFA18210FA8FCF72AFA01210804CDE940
:103D700000100025029502240491CDE907404FF47C
:103D8000E01009906846FEF725FD08B172B6FEE71F
:103D90000AA90F2081E831004FF48060CDE90D05BC
:103DA00002210AA8FEF73AFC08B172B6FEE74FF40A
:103DB000004011900F940FA8FEF7BAFB002801D025
:103DC00072B6FEE715B030BD70470000F0B502686E
:103DD0001C4B1D4D1D4E1E4F1E4C4FF0804C9842EB
:103DE00009D0A04207D0604505D0A84203D0B04218
:103DF00001D0B84204D122F0700E4A6842EA0E02A5
:103E0000984209D0A04207D0604505D0A84203D00F
:103E1000B04201D0B84203D122F44075CA682A43A7
:103E20004D6922F080022A4302608A68C2620A68F1
:103E30008262984201D0A04201D109690163012147
:103E40004161F0BD002C014000040040000800402A
:103E5000000C00400034014010B501F01F030121A7
:103E6000046A99408C430462016A9A4011430162DA
:103E700010BD10B5846842EA032224F47F440A434B
:103E80002243826010BD826822F070020A4342F031
:103E900007018160704710B5036A046A24F00104C9
:103EA0000462846924F0F00444EA021423F00A0254
:103EB0000A438461026210BD70B5056A046A24F089
:103EC000010404628469124EB0420ED0114EB04219
:103ED0000BD0B0F1804F08D00F4EB04205D00F4E3E
:103EE000B04202D00E4EB04203D124F0030414437A
:103EF00001E044F001041A0724F0F00444EA1262DD
:103F000025F00A0301F00A0119438261016270BDC4
:103F1000002C014000340140000400400008004033
:103F2000000C004010B5036A046A24F01004046217
:103F3000846923F0A00324F4704444EA023243EA83
:103F400001118261016210BD30B5046A056A25F075
:103F500010050562856925F4407545EA022222F4C0
:103F600070454FF6FF7202EA033224F0A0032A43A1
:103F7000A02404EA011119438261016230BD10B529
:103F8000406A0021C185C184FFF71EF910BD70B5DC
:103F9000446A2068406994F84110C0F3C0100025BD
:103FA000212904D118B1E584204600F08EF820685C
:103FB000406994F84210C0F38010222904D118B14E
:103FC000E585204600F05AF8606C40F0100060640F
:103FD0002046FFF7F9F870BD10B50146406A096840
:103FE00009684FF0000289062ED4C28501680C31A1
:103FF00051E8003F23F4807341E80034002CF5D1F0
:104000000168143151E8003F23F0010341E8003416
:10401000002CF5D10168143151E8003F23F0400332
:1040200041E80034002CF5D1202180F84210016BCA
:10403000012909D101680C3151E8003F23F0100338
:1040400041E80034002CF5D14263016B012902D014
:10405000FFF7A2FA10BD818DFFF78EF810BD10B5E5
:10406000406A01214163016B012902D0FFF795FAF3
:1040700010BD818D4908FFF77FF810BD01680C3134
:1040800051E8002F22F4907241E80023002BF5D173
:104090000168143151E8002F22F0010241E80023A9
:1040A000002BF5D1016B012909D101680C3151E8D0
:1040B000002F22F0100241E80023002BF5D120212F
:1040C00080F8421000210163704701680C3151E80B
:1040D000002F22F0C00241E80023002BF5D120215F
:1040E00080F84110704708B590F84210222901D09D
:1040F000022008BD82684FF480539A4201D10169C1
:1041000021B1816A9A421BD04AB10AE00268816AF1
:104110005268C2F308020A80816A891C08E00269B9
:1041200072B10268526802F07F020A70816A491C0B
:104130008162C18D491E0904090CC18503D01BE0B1
:1041400002685268F1E70168CA6822F02002CA607A
:104150000168CA6822F48072CA6001684A6922F064
:1041600001024A61202180F8421000214163026B64
:10417000012A03D0FFF710FA002008BD016301688F
:104180000C3151E8002F22F0100241E80023002BEF
:10419000F5D101680A68D20602D50A68496800911B
:1041A000818DFEF7E9FFE7E770B504460068016915
:1041B000E26821F44051114301612169A06808437C
:1041C000616908432168CA6841F20C639A4302435B
:1041D000CA6020684169A26921F4407111434161BC
:1041E0001E492068884202D1FEF7BEFA01E0FEF7C0
:1041F000ABFA00EBC00101EB0012606864218000A3
:10420000B2FBF0F3B3FBF1F36FF018067343B2FBAC
:10421000F0F5B2FBF0F605EB8305322303EB051551
:10422000B5FBF1F5B6FBF1F605F0F00505EB06156B
:10423000B2FBF0F6B2FBF0F0B0FBF1F06FF0180259
:10424000504306EB800003EB0010B0FBF1F0216857
:1042500000F00F002844886070BD00000038014065
:1042600038B58162044682850020134660642222AC
:1042700084F84220E56B1B4AAA62E56B1A4AEA629F
:10428000E56B1A4A2A63E26B50630A462168E06BC9
:10429000091DFDF7FBFE2068016840680090206959
:1042A00048B120680C3050E8001F41F4807140E8AC
:1042B0000012002AF5D12068143050E8001F41F0A8
:1042C000010140E80012002AF5D12068143050E8BE
:1042D000001F41F0400140E80012002AF5D1002003
:1042E00038BD0000D93F00085F4000088F3F00083C
:1042F0002DE9F041984617460E460446069D27E0F4
:10430000681C25D02DB1FEF719F8A0EB0800A842D3
:104310001ED920680C3050E8001F21F4D07140E80D
:104320000012002AF5D12068143050E8001F21F057
:10433000010140E80012002AF5D1202084F8410054
:1043400084F84200002084F840000320BDE8F0819A
:104350002068006836EA000004D00020B842CFD0C0
:104360000020F3E70120F9E710B50548FEF72EFF1E
:10437000BDE81040C82203490148FEF7D5BE000041
:104380008406002074050020FEE700000FB47CB511
:104390000C0009AD01D0611E00E00021CDE9000153
:1043A000064B6A462946089800F0F4F9002C02D022
:1043B000009A002111707CBC5DF814FB9B4E000834
:1043C0000FB4084B10B504A902AA039800F0E2F953
:1043D000044602A9002000F06BFD204610BC5DF8E9
:1043E00014FB0000B14E0008490050EAC12018BF7C
:1043F00004204A0D18BF40F0010040F2FF72B2EBFA
:10440000515F08BF40F00200012808BF0520704737
:104410000907090E002804DB00F1E02080F80014F1
:10442000704700F00F0000F1E02080F8141D704785
:1044300030B528B1144C031F002021680A4605E05E
:10444000084630BD9A4203D810465268002AF9D176
:10445000002800D041680BD00468A3EB0005A542FA
:1044600004D11B681C440346046002E0436000E082
:1044700023603AB11C68D51AA54203D115682C44B3
:104480001C6052685A6030BD680000202DE9F04180
:104490004F1E00EBC7010446D1E9000115461E4638
:1044A00037F006020DD02A463346FCF716F97F1E78
:1044B00004EBC703D3E90023FCF768F837F00602E2
:1044C000F1D1022F25D0042F13D0062F18BFBDE83D
:1044D000F0812A463346FCF700F9D4E90A23FCF7B9
:1044E00055F82A463346FCF7F8F8D4E90823FCF7D8
:1044F0004DF82A463346FCF7F0F8D4E90623FCF7DA
:1045000045F82A463346FCF7E8F8D4E90423FCF7DB
:104510003DF82A463346FCF7E0F8D4E90223FCF7DD
:1045200035F82A463346FCF7D8F8D4E90023BDE82D
:10453000F041FCF72BB800002DE9F04782460F4C04
:1045400010480D4E0E4F001B4FF0000820F00705DD
:104550004FF0010900221146504600F0CFFE00281E
:1045600002D1306810B10020BDE8F0873C60C4E99A
:104570000058C6F80090EDE76C00002034070020DA
:10458000680000203009002000221346104601492F
:10459000FCF715B90000F03FFBF7F8BF0022134607
:1045A00010461146FCF70BB940F2013200204FF0E3
:1045B000E041FCF773B90000024A00201107FCF744
:1045C0006DB9000001FDFFFF014800687047000061
:1045D0007000002002E008C8121F08C1002AFAD1AA
:1045E00070477047002001E001C1121F002AFBD173
:1045F000704700000149086070470000700000200B
:104600002DE9FF5F82B00021DDE90430020DDDF805
:1046100040B0034318D044F61050A2F2FF32424398
:104620001514119801281FD0A5EB0B00401C5FEA60
:10463000000A4FF000064E4FDFF83891B046504662
:1046400015D5CAF1000413E0119801244AA30128EA
:1046500001D16FEA0B010298119AC0E90031C0E95B
:10466000024206B0BDE8F09FCBF10000DFE7044650
:104670000021404A491842EB0450CDE9001012E0F5
:10468000E00707D032463B4640464946FCF725F84E
:104690008046894632463B4610461946FCF71DF8CF
:1046A00006460F466410002CEAD1DDE90401DDE97D
:1046B0000023BAF1000F06DAFCF70FF842464B462A
:1046C000FCF70BF805E0FCF77AF842464B46FCF79E
:1046D00076F804460E460022284BFCF765F903D80D
:1046E0004FF0FF30014607E00022254B20463146BF
:1046F000FBF74CFFFCF7C3FA102409E0002C0ADB9F
:104700000A220023FCF77EF9039B30321A55641EFF
:1047100050EA0102F2D1641C039AC4F1110314445B
:10472000119A012A03D0012208430DD10AE008435F
:1047300004D000204FF0110B119072E7A3EB0B0592
:104740006D1E0DE05B4504DD4FF0000205F1010533
:1047500004E003DA4FF00002A5F10105002AECD0D5
:1047600002981199C0E90231C0E9004579E70000DB
:10477000000014400000F03F300000000000F04353
:104780000000E03F30380A2801D2012070470020A5
:10479000704700002DE9FF4F95B09A4688460646BF
:1047A0000025EEE1252877D100242746F94A01218A
:1047B000039400E0044316F8013F203B01FA03F0A4
:1047C0001042F7D130782A2811D06FF02F033078BB
:1047D000A0F13002092A16D8039A44F0020402EB31
:1047E000820203EB42021044761C0390EFE758F874
:1047F000042B0392002A03DA504244F4005403903D
:1048000044F00204761C30782E2816D116F8010FD9
:1048100044F004042A280DD06FF02F023078A0F164
:104820003003092B09D807EB870302EB4303C718B2
:10483000761CF3E758F8047B761C30786C280FD090
:1048400006DC4C2817D068280DD06A2814D104E063
:10485000742810D07A280FD10DE044F400140AE037
:1048600044F4801401E044F440147278824202D18E
:1048700004F58014761C761C307866280BD013DC87
:10488000582877D009DC002875D04528F6D046286E
:10489000F4D047281AD193E118E0632835D0642872
:1048A00079D0652812D18BE1702873D008DC672895
:1048B000F1D069286FD06E280DD06F2806D1ACE0FA
:1048C00073282CD0752874D0782853D05246179965
:1048D00090476D1C54E1C4F30250022809D003280C
:1048E0000DD0D8F8001004280DD00D6008F1040890
:1048F00046E1D8F80010EA17C1E90052F6E7D8F807
:1049000000100D80F2E70D70F0E718F8041B8DF829
:10491000001000208DF80100EB46012003E058F85C
:1049200004BB4FF0FF3061074FF0000102D40DE0EF
:1049300009F101018946B9420FDA8145F8DB1BF81C
:1049400009100029F4D108E009F1010189468142EA
:10495000FADB1BF809100029F6D103985346A0EBA7
:10496000090721463846179A00F080FA284400EBE0
:10497000090507E044E008E10DE01BF8010B524691
:1049800017999047B9F10109F7D2534621463846A5
:10499000179AF2E039E00A21C4F302524FF0000BFB
:1049A0000091022A06D058F8040BC117032A09D037
:1049B0000AE023E008F1070020F00702F2E8020114
:1049C000904605E000B2C117042A01D140B2C117D8
:1049D000002906DA0A460021404261EB02012D223D
:1049E00002E0220504D52B228DF80420012203E0E9
:1049F000E20701D02022F7E7914657E00A2100E0C4
:104A000010214FF0000B00910BE010214FF0000B34
:104A100044F004040827009103E008204FF0000B45
:104A20000090C4F30252022A05D058F8040B00216A
:104A3000032A08D008E008F1070020F00702F2E896
:104A40000201904603E080B2042A00D1C0B24FF0C8
:104A5000000922072AD53278702A07D0DDF800C075
:104A60008CF0100C5CEA0B0C05D00EE040228DF8A7
:104A70000420012208E050EA010306D030238DF81B
:104A800004308DF8052002229146009B83F0080334
:104A900053EA0B030AD150EA010201D1620705D59E
:104AA00030228DF804204FF001097F1E3278582AF9
:104AB00004D039A20C920CAA02920BE03BA2F9E7B7
:104AC0005B46009AFBF79EFF0C9B9B5C029A521E72
:104AD0000292137050EA0102F2D1029804A9081A56
:104AE00000F1200B600702D524F4803400E0012798
:104AF0005F4502DDA7EB0B0000E0002000EB0B019F
:104B0000009003984944401A0390E00306D45346AA
:104B10002146179A039800F0A9F90544002706E0FA
:104B200001A85246C05D179990476D1C7F1C4F45E8
:104B3000F6DBE0030CD553462146179A039800F0A4
:104B400095F9054404E030205246179990476D1CB2
:104B50000099481E00900029F5DC08E002980299AF
:104B600052460078491C0291179990476D1CBBF181
:104B70000001ABF1010BF1DC5BE100F065F90544EC
:104B8000761C307800287FF40DAE19B02846BDE8B9
:104B9000F08F0000092801003031323334353637C8
:104BA0003839616263646566000000003031323379
:104BB0003435363738394142434445460000000019
:104BC000600700D4062708F1070020F00700F0E88E
:104BD0000223804603F0004C5FEA0C0001D097A04E
:104BE00009E0200501D596A005E0E00701D095A0D9
:104BF00001E0AFF24C001390307823F000436528B9
:104C00000CD006DC452809D046281DD047287FD186
:104C10003BE0662818D067287AD136E00021112FB2
:104C200001DB112000E0781CCDE9000104A90CA8EB
:104C3000FFF7E6FCDDE90D010C9A4FF0000B07F1E0
:104C40000109109200914EE04FF000400097CDE92D
:104C5000011004A90CA8FFF7D3FCDDE90D020C9BA1
:104C60000F994FF0000B91461093009211B9791CE7
:104C700000EB0109B7EB090003D4C0F1FF3B07F1DA
:104C80000109A9EB0700019042E0012F00DA01279A
:104C90000021112F01DD112000E03846CDE900018F
:104CA00004A90CA8FFF7ACFCDDE90D010C9A0091FA
:104CB0004FF0000BB946109221070FD4009A4A45D5
:104CC00003DA914601E0A9F10109B9F1010F05DD0F
:104CD000109AA9F10101515C3029F4D0B84202DAEE
:104CE00010F1040F03DA0121CDE9011010E00028D2
:104CF00003DC8344A9EB000102E0411C494500DDCF
:104D00008946A0EB0B00401C01904FF00040029040
:104D1000200705D40198484502DB4FF0FF30019091
:104D200000208DF84B0002980DF14B07B0F1004FB9
:104D300025D002200C902B200D90029800280CDA30
:104D4000404202902D200D9007E00A210298FBF7C7
:104D500043FE3031029007F8011D0C99481E0C905B
:104D60000029F2DC02980028EFD1791E0D98087016
:104D7000307800F0200040F0450007F8020D11A83F
:104D8000C01BC01D02901398007800B1012000EBF9
:104D90000901019801EBE071029801440398401A5F
:104DA000401E0390E00306D453462146179A039809
:104DB00000F05CF805441398007818B15246179932
:104DC00090476D1CE00323D553462146179A03985C
:104DD00000F04CF805441BE0BBF1000F07DB009826
:104DE000584504DD1098179910F80B0001E0179949
:104DF00030205246904701980BF1010B401E05F1FF
:104E00000105019004D12E205246179990476D1C40
:104E1000B9F10001A9F10109DEDC05E017F8010B89
:104E20005246179990476D1C0299481E029000291E
:104E3000F4DC53462146179A03989EE62D000000A5
:104E40002B000000200000002DE9F0410446002561
:104E50001E461746880404D405E039462020B04792
:104E60006D1C641EF9D52846BDE8F0812DE9F0419E
:104E7000044600251E469046C80301D5302700E0B1
:104E80002027880404D505E041463846B0476D1C0C
:104E9000641EF9D52846BDE8F0814A68002A06D08C
:104EA0000A68531C0B6010704868401E48607047C9
:104EB0000A68531C0B601070704711B108B188422A
:104EC00001D10020704782683AB152681AB111606E
:104ED0004A60806841600120704781600020C1E91C
:104EE0000001F8E72DE9F0410600069898461446BF
:104EF0000D4621D005B3FCB1A6421DD018B1E06823
:104F000040F4007708E01946284600F059F90500FA
:104F100012D0E06820F40077A089800504D4206ACC
:104F200010B1D8F804108847E76021463046256262
:104F3000BDE8F041FFF7C1BF0020BDE8F08130B50A
:104F400083B00446FFF740FB05460020CDE9000092
:104F5000024621466846FBF7F6FD2846FFF74AFB66
:104F6000DDE9000103B030BD2DE9F0410746002521
:104F700000F0C6F8044600F0C3F80646194A1AA124
:104F800000F076F819481AA1D0E90023204600F075
:104F900055F81A481AA1D0E90023204600F04EF82F
:104FA0001A481BA1D0E90023204600F047F822460A
:104FB0001AA1304600F038F8304600F0F5F8040049
:104FC0000AD0034617A24FF4FA613846FFF7DEF91C
:104FD0000546204600F0EEF8304600F0B5F82846C9
:104FE000BDE8F0810000002049440000600000207E
:104FF00074656D706572617475726500580000208B
:1050000068756D69646974790000000048000020CB
:105010004169727175616C697479000044657669E3
:10502000636573002573000008B500230093024BED
:10503000FFF758FF08BD00002C000020F8B50C4613
:1050400005461046194600F02BF806460020009051
:10505000064B324621462846FFF744FF00283046DB
:1050600002D100F071F80020F8BD00002C000020F3
:10507000F8B505460C46104600F04EF806460020EE
:105080000090064B324621462846FFF72BFF0028AA
:10509000304602D100F058F80020F8BD2C00002066
:1050A00070B505460E46124800F072F804001CD098
:1050B0000820E060C4E906560E4A0F4B28463146E8
:1050C000FBF772FC02D86FF000400DE000220B4BA2
:1050D00028463146FBF750FC02D84FF0004003E071
:1050E00028463146FBF70FFC6061204670BD00008A
:1050F0002C0000200000C0FFFFFFDF410000E0C1E6
:1051000010B5044800F044F8002801D04021C160E7
:1051100010BD00002C00002070B50546094800F0C5
:1051200037F8040007D01020E0600649284600F058
:1051300047F8206108B1204670BD204600F004F811
:10514000002070BD2C00002070B504460F4E19E001
:10515000A0892568C0050AD4A06820B1FFF7F4FF34
:10516000A089C00503D4206908B171688847A08967
:10517000800503D4206A08B17168884771682046A9
:1051800088472C46002CE3D170BD00002C00002085
:1051900010B5016828208847040002D02821FBF7B9
:1051A0000EF8204610BD0000014A012100F012BE99
:1051B0002C00002001494968084700002C0000200D
:1051C00070B50E4605000DD0FBF704F8401C3168A1
:1051D00004468847060005D022462946FAF7D6FF3E
:1051E000304670BD002070BD2DE9F04798468946D5
:1051F00023F0004621F00047054614463346394661
:10520000FBF7D2FB02D22846394601E02046314660
:105210006FF03302FBF742FB06460F462246434639
:1052200028464946FBF753FA21F0004132463B46F7
:10523000FBF7A2FB02D80120BDE8F0870020FBE7C6
:1052400070B54CF25035281A84B20848FDF79EFD1F
:10525000064801684C62006801E0416A8CB2AC42C9
:10526000FBD3BDE870400148FDF7C2BD2C0500200E
:105270002DE9F04104001CD02268D2B1636813B15B
:10528000A068984215D24FF00046B14211D2A568ED
:10529000491C6818834202D35019BDE8F081216986
:1052A00039B9B0F1804F06D3B04202D26FF0004757
:1052B00002E00020F1E74700236A00262BB13946BF
:1052C00010469847050012D00CE0A169384688477F
:1052D00005000CD0A2682168521CFAF757FFE1695B
:1052E00020688847C4E90057A0682844D5E7E169E9
:1052F0002068884766602660DBE700002DE9F04102
:105300000B3020F00706104D19E02068B04215D38D
:10531000B0420AD9871B201DD4F80480FAF736FF63
:10532000A019C0E90078286004E060682860201DAA
:10533000FAF72CFF201D2660BDE8F081251D2C68A2
:10534000002CE2D10020F7E768000020FDF704F808
:10535000FEF7FDFCFEF76EFBFEF756FBFEF750FC7A
:10536000FEF72CFCFEF7BCFBFEF7DEFBFEF764FC51
:10537000FEF722FB04211A48FDF77CFE1948FCF7D2
:10538000BDF9C82218491948FDF7CEFE184F4FF64F
:10539000FF744FF47A754FF400761648FFF7E4FD7A
:1053A0001448FAF717FF82B2234612490F48FEF756
:1053B000F5F81048FAF70EFF82B223460D490E4861
:1053C000FEF7ECF829460B48FAF7F9FEFEF754FC15
:1053D000FBF740FF31463846FCF7A3FFDDE700004E
:1053E000E40400205C0400207405002084060020F2
:1053F00000100140740000203C0600202DE9F04D13
:105400001D460C4698B0174621F0004123F000439A
:10541000002814BF4FF0010C4FF0000C0CEB440CB3
:10542000FE4A0CEB02064FEA620C66452BD33E00A7
:1054300018BF012606EB45061644F94A964222D3C8
:10544000F84A53EA070C02D0944205D148B918B083
:1054500000201146BDE8F08D002808BF4FF0000C79
:1054600001D04FF0010C0CEB440212F5001F0AD8DA
:10547000002F14BF4FF0010C4FF0000C0CEB450255
:1054800012F5001F07D918B03A462B462146BDE851
:10549000F04DFFF781B80022DFF88CA3002CB8BFD5
:1054A000534526DADFF884C36345A8BF022220DA19
:1054B000DFF870C39C451CDCDFF874C30CEB235C85
:1054C000BCF1140F08DDCCF1340627FA06FC0CFA07
:1054D00006F6BE420DD108E05FB9CCF1140623FAFE
:1054E00006FC0CFA06F69E4203D10CF00102C2F152
:1054F000020251EA000C19D1002D17DA002C18BF56
:10550000022A01D0012A07D00220FFF773F818B051
:10551000BDE8F04DFFF738B80220FFF76BF8FFF752
:1055200033F818B081F00041BDE8F08DB7F1000C00
:105530006CD1534525D104F1804212F5801201BF90
:1055400000280020B74918B008BFBDE8F08DB54865
:10555000884207DC002DA1BF6046294618B0BDE88F
:10556000F08D07E0281E05DA80F0004118B0604693
:10557000BDE8F08DAF497944D1E9000118B0BDE82C
:10558000F08DDFF8A0C2634525D1002D1FDA19B1D7
:10559000514512D1D8B909E0002840F0EC82A24A66
:1055A000214618B062F31E01BDE8F08D00202146AF
:1055B00018B060F31E01BDE8F08D08DA18B023467C
:1055C000BDE8F04D024600206146FBF7F8B818B080
:1055D0002146BDE8F08D514518DAB5F1804F0DD068
:1055E000A5F1005CBCF1FF5C10D1B4F1000C0DDB47
:1055F00018B06146BDE8F04D00F0C2BE234618B0B9
:105600000246BDE8F04D1946FBF767B8060024F0E6
:10561000004C3BD1D9B1514533D1002C06DD002DD2
:10562000A1BF0020514618B0BDE8F08D002C01DD6F
:10563000002D1BDB002C13DA002D11DB012A4FF0AB
:10564000000014BF78497C4918B0BDE8F08D022AEB
:1056500018BF002C0AD0012A08D1002C06DA0AE073
:10566000002CB8BF002D11DA012A04D0002018B098
:105670000146BDE8F08D18B000204FF00041BDE8B4
:10568000F08DA1F14050B0F17F601AD0012000EB05
:10569000E47050EA020421D0624C521E4FF0000B1D
:1056A000104304BF4FF0000B644C654883427CDD1F
:1056B000644A654893421FDD884217DB002D25DBD5
:1056C00037E0002C00DA4AB1022A0CBF01204FF06B
:1056D000FF3018B0BDE8F04DFBF7F7B80120FEF73A
:1056E00089FF18B0BDE8F04DFEF758BF4D4A8A4219
:1056F00002DC002D0ADC1CE0814202DA002D18DAFF
:1057000004E0484B994220DD002D12DD0220FEF717
:1057100071FFFEF749FF05460E46002253465846E4
:105720002146FAF7DAFF18B066F31E012846BDE8F5
:10573000F08D0220FEF75EFFFEF73EFF0A4621468F
:1057400018B062F31E01BDE8F08D002230466146BC
:10575000FAF7BDFF80460E466FF00102FBF79EF898
:105760004FF05532394BFAF7B5FF42463346FAF758
:10577000B4FF0022364BFAF7ADFF8246424633466D
:10578000049110461946FAF7A8FF5246049BFAF70F
:10579000A4FF8A4600904FF0C0422E4B404631464F
:1057A000FAF79BFF2C4A2B4B00E027E0CDE90601DE
:1057B00051460098FAF791FF82460191274A284BFB
:1057C00040463146FAF789FF5246019BFAF77FFFC0
:1057D00082460B4602460591DDE90601FAF7D6FE40
:1057E000DDE90623002688463046FAF770FF524668
:1057F000059BFAF76FFF024600F07EB90020B1F575
:10580000801F07DA352230466146FBF747F8064627
:105810006FF0340000EB215024E00000FFFF1F0078
:10582000FFFF0F000000F03F0000F07F000040434A
:1058300001FCFFFF0E2900000000F0FF0000F0BF98
:105840000000E0410000F043FFFFEF3F5555D53F1A
:105850000000E03F4715F73FFE822B6544DF5DF80F
:105860000BAE543EA0F2FF300190C1F3130040F0A4
:105870007F6141F040510291FE498842D8BF00202B
:1058800004DDFD498142C8BF012001DD0D9008E023
:1058900000200D900198401C01900298A0F5801006
:1058A00002900299F54878440B910D9900EBC100E4
:1058B000D0E900230F9330460A920B99FAF707FFBD
:1058C000CDE90601DDE90A2130460F9BFAF75EFEBD
:1058D00002460B460020EA49FAF771FF059102469D
:1058E0000B460090DDE90601FAF7F7FE1490E54853
:1058F0008A464FF0000878440299006812904FF0F1
:10590000005040EA61010D980F9B01EB804000F5CB
:10591000002109910A9A1298FAF7D9FE32460B9B98
:10592000FAF7D8FE42465346FAF7D7FE06460291EA
:1059300040465146099B129AFAF7CFFEDDE906234D
:10594000FAF7C8FE3246029BFAF7C1FE059B009AA1
:10595000FAF7C3FE0091149A049053461046194674
:10596000FAF7BBFE06460246C7480B4602910621DF
:105970007844FEF78BFDCDE90510029B32461046B8
:105980001946FAF7AAFEDDE90532FAF7A6FE0591F7
:105990000646534640461946149AFAF7F7FD009B0F
:1059A000049AFAF79AFE3246059BFAF7EFFDCDE925
:1059B00005104246534610461946FAF78EFE00225D
:1059C000B24B02910A90FAF7E1FDDDE90532FAF7F0
:1059D000DDFD0E464246AD4B4046FAF778FE029B8F
:1059E0000A9AFAF774FEDDE90532FAF773FE4246C9
:1059F00002910A90334610465146FAF76EFECDE901
:105A000006015346149A02990A98FAF766FE8A46E6
:105A100002903346424600990498FAF75EFE5346D8
:105A2000029AFAF7B3FD82460B4602460591DDE97C
:105A30000601FAF7ABFDDDE906230020884606469D
:105A4000FAF745FE5246059BFAF744FE8246099155
:105A50004FF060428E4B30464146FAF73EFE0490CE
:105A600006918C4A8A4B50460999FAF736FE8246CF
:105A70000291894A894B30464146FAF72EFE52463A
:105A8000029BFAF783FD864B7B440D9A03EBC2031E
:105A9000D3E90023FAF77AFD0E9007910198FAF7FF
:105AA00014FF0591DDE9061382460E9A0498FAF771
:105AB0006DFD7C4A7A440D9B02EBC303D3E90023BE
:105AC00000930292FAF762FD5246059BFAF75EFDDB
:105AD0000026884652463046059BFAF7F8FD009BA3
