:020000040800F2
:10000000580700204501000807170008B31500082D
:100010000517000841050008191C00080000000031
:10002000000000000000000000000000411800086F
:1000300043050008000000000917000843180008E5
:100040005F0100085F0100085F0100085F01000810
:100050005F0100085F0100085F0100085F01000800
:100060005F0100085F0100085F0100085F010008F0
:100070005F0100085F0100085F0100085F010008E0
:100080005F0100085F0100085F0100085F010008D0
:100090005F0100085F0100085F0100085F010008C0
:1000A0005F0100085F0100085F0100085F010008B0
:1000B0005F0100085F0100085F0100085F010008A0
:1000C0005F0100085F0100085F0100085F01000890
:1000D0005F0100085F0100085F0100085F01000880
:1000E0005F0100085F0100085F0100085F01000870
:1000F0005F0100085F0100085F0100085F01000860
:100100005F0100085F0100085F0100085F0100084F
:100110005F0100085F0100085F0100085F0100083F
:100120005F0100085F0100085F0100085F0100082F
:10013000DFF80CD000F078F800480047F9200008FC
:10014000580700200648804706480047FEE7FEE7BC
:10015000FEE7FEE7FEE7FEE7FEE7FEE7FEE7FEE777
:10016000A518000831010008202A04DB203A21FAF2
:1001700002F00021704721FA02F3D040C2F12002C0
:100180009140084319467047D2B201E000F8012BB4
:10019000491EFBD270470022F6E710B513460A4607
:1001A00004461946FFF7F0FF204610BD30B504465F
:1001B0000020034600E05B1C934203D2E05CCD5C70
:1001C000401BF8D030BD2DE9F05F05460020924677
:1001D0009B4688460646814640241BE02846414609
:1001E00047462246FFF7C0FF53465A46C01A914180
:1001F00010D311461846224600F028F82D1A67EB56
:1002000001084F4622460120002100F01FF817EB9D
:1002100000094E41201EA4F10104DFDC48463146AE
:100220002A464346BDE8F09F064C074D06E0E068CD
:1002300040F0010394E8070098471034AC42F6D32D
:10024000FFF77AFF4021000860210008202A04DB24
:10025000203A00FA02F1002070479140C2F12003D9
:1002600020FA03F3194390407047000038B5044664
:1002700000F06CFA054620208DF80000200C8DF867
:100280000100200A8DF802008DF8034000F028F9E3
:10029000114C00220421204600F052FA4FF47A73E8
:1002A000042269460D4800F08AFE012204212046FE
:1002B00000F046FA40F6B83407E000BF00F046FA16
:1002C000401BA04201D9032038BD00F009F80228E4
:1002D000F4D0002038BD000000080140700200206A
:1002E0007CB511A0114C006800900022042120462A
:1002F00000F026FA4FF47A752B46012269460C4825
:1003000000F05DFE2B46012201A9094800F0ACFD7A
:1003100001220421204600F013FA9DF80400C007D2
:1003200000D002207CBD0000050000000008014054
:100330007002002038B50CA00C4C00680090002220
:100340000421204600F0FCF94FF47A73022269463A
:10035000074800F034FE01220421204600F0F0F9A5
:10036000BDE83840FFF7BCBF6699000000080140B7
:1003700070020020F8B5054603208DF80000080C37
:100380008DF80100080A8DF80200104F14468DF810
:10039000031000220421384600F0D2F94FF47A7697
:1003A0003346042269460A4800F009FEA2B23346E9
:1003B0002946074800F058FD08B10120F8BD012288
:1003C0000421384600F0BCF90020F8BD00080140C7
:1003D00070020020F8B504460EA00F4D0068009092
:1003E00000220421284600F0ABF94FF47A76334618
:1003F00004226946094800F0E2FD33460222214604
:10040000064800F031FD01220421284600F098F949
:10041000F8BD0000900000000008014070020020BC
:100420002DE9F84F16460C46834600F08FF9074633
:10043000002001E000F58070A042FBD9051BB54209
:1004400000D9354604EB060ADFF88C804FF002092C
:100450004FF47A768DF80090200C8DF80100200A78
:100460008DF802008DF8034000F03AF800220421D4
:10047000404600F065F9334604226946174800F00B
:100480009EFD30B9AAB233465946144800F097FD94
:1004900010B10120BDE8F88F01220421404600F090
:1004A0004FF906E000F052F9C01BB04201D9032019
:1004B000F0E7FFF715FF0228F4D02C4404F5807014
:1004C000AB44504502D9AAEB040501E04FF4807516
:1004D0005445BFD30020DDE7000801407002002032
:1004E000F8B514A00068009000F030F9124E0546EF
:1004F00000220421304600F023F94FF47A74234699
:10050000012269460D4800F05AFD012204213046BF
:1005100000F016F907E000BF00F018F9401BA042F8
:1005200001D90320F8BDFFF7DBFE0228F4D000203C
:10053000F8BD000006000000000801407002002025
:10054000FEE7704772B6FEE72DE9F84FDFF8C89175
:100550000024A9F1040B23460F2709F1040AABF18B
:10056000040ED1E00125A54006EA0502AA4276D193
:10057000DFF8A8C14E68A6EB0C0866452BD00DDC51
:10058000032E34D005DC36B3012E19D0022E2FD124
:100590001BE0112E16D0122E2AD119E0B8F5881FB3
:1005A00019D006DCB8F5803F15D0B8F5801F1FD1F3
:1005B00011E0B8F5001F0ED0B8F5041F18D10AE0FD
:1005C000CB6815E0CB681B1D12E0CB6808330FE049
:1005D000CB680C330CE08B682BB1012B4FF0080378
:1005E00003D0456104E0042302E0056100E000233C
:1005F000FF2A01D8064601E000F104064FEA84050F
:1006000001D9A5F12005D6F8008007FA05FC28EAF3
:100610000C0803FA05F548EA0508C6F800804D689D
:10062000ED0070D53E4DAE6946F00106AE61AD6994
:1006300024F0030605F0010500953A4D06EB050C84
:10064000DCF80850A607360F07FA06F825EA080571
:10065000DFF8D480404503D14FF0000825E052E098
:10066000DFF8C880404502D14FF001081DE0DFF8F7
:10067000C080404502D14FF0020816E0DFF8B48098
:10068000404502D14FF003080FE0DFF8AC80404551
:1006900002D14FF0040808E0DFF8A080404502D105
:1006A0004FF0050801E04FF0060808FA06F848EA9E
:1006B0000508CCF808804D68D9F80060ED024D4679
:1006C00001D5164300E096432E604D68DAF80060CD
:1006D000AD02554601D5164300E096432E604D68A5
:1006E000DBF80060AD035D4601D5164300E096439C
:1006F0002E604D68DEF80060ED03754601D51643A7
:1007000000E096432E60641C0A681646E2407FF4BF
:1007100029AFBDE8F88F0000080401400000111067
:10072000001002400000014000080140000C0140A0
:10073000001001400014014000180140001C01405D
:100740000AB1016170470904FBE7000001488068B5
:1007500070470000040000200248816802781144BC
:100760008160704704000020074810B5016841F01F
:1007700010010160032000F067F80F2000F006F878
:1007800000F024F8002010BD0020024070B50D4D8F
:1007900004464FF47A712878B1FBF0F00A490968F1
:1007A000B1FBF0F000F0B9FD48B9102C07D20022DF
:1007B0002146501E00F028F800206C6070BD01201A
:1007C00070BD000004000020100000200C4808B597
:1007D000816941F001018161816901F001010091AC
:1007E000C16941F08051C161C06900F08050009042
:1007F0000448416821F0E06141F00071416008BDAA
:100800000010024000000140F0B40E4B1B680C4683
:10081000C3F30223C3F10705042D00D90425191DD4
:10082000072901D2002300E0DB1E012606FA05F1AC
:10083000491E214099409E40761E16403143F0BC2F
:1008400001F0FCB90CED00E0064900F00702086871
:100850004FF6FF03184040EA0220034A10430860A5
:10086000704700000CED00E00000FA052DE9F047AC
:100870000F46050061D0434E306800F00700B842D3
:1008800009D2306820F0070038433060306800F04B
:100890000700B84251D128683B4C810712D5400768
:1008A00003D5606840F4E06060602878000703D5F5
:1008B000606840F4605060606068A96820F0F000F3
:1008C000084360602878C00728D06868012810D0E5
:1008D0002168022810D0890700292EDA616821F0EA
:1008E000030101436160FFF731FF804641F288391F
:1008F0000DE021688903EFE78901EDE7FFF726FFA7
:10090000A0EB0801494502D90320BDE8F0876068E3
:10091000696800F00C00B0EB810FEFD1306800F097
:100920000700B8420BD9306820F007003843306028
:10093000306800F00700B84201D00120E5E72878D0
:10094000400705D56068E96820F4E060084360600E
:100950002878000706D56068296920F4605040EACD
:10096000C100606000F038F86168084AC1F3031103
:10097000515CC8400649086006480068FFF706FF5A
:100980000020C2E700200240001002402821000899
:10099000100000200800002004480549006849684C
:1009A000044AC1F30221515CC84070471000002086
:1009B00000100240382100080448054900684968D1
:1009C000044AC1F3C221515CC840704710000020A6
:1009D00000100240382100080E4A51680E4801F00C
:1009E0000C03042B11D0082B0FD10C48C1F3834307
:1009F000C903C05C0AD55168084AC1F34041921E40
:100A0000515C054A5043B0FBF1F07047044948433C
:100A1000704700000010024000127A001821000800
:100A200000093D002DE9F84F040070D02078C04D3A
:100A3000C00749D06868C0F38100012807D0686802
:100A4000C0F38100022809D16868C00306D5286870
:100A5000800339D560680028E7D035E06068B0F5DC
:100A6000803F0BD010B1B0F5A02F11D0286820F432
:100A700080302860286820F4802002E0286840F454
:100A800080302860606890B1FFF760FE06460AE09B
:100A9000286840F480202860F0E700BFFFF756FE8A
:100AA000801B642873D828688003F7D50CE0FFF713
:100AB0004DFE064605E000BFFFF748FE801B642898
:100AC000F0D828688003F7D420789A4E80074FF03A
:100AD00001094FF0000839D5686810F00C0F07D0F5
:100AE0006868C0F38100022809D16868C00306D491
:100AF0002868800714D52069012808D110E02069F2
:100B0000B0B1C6F80090FFF721FE074605E00AE104
:100B1000FFF71CFEC01B0228C4D828688007F7D541
:100B20002868616920F0F80040EAC10028600DE003
:100B3000C6F80080FFF70AFE074604E0FFF706FE4E
:100B4000C01B022823D828688007F7D42078000724
:100B50002CD57948A169D9B1C0F80090FFF7F6FD0E
:100B6000074604E0FFF7F2FDC01B02280FD8686AB1
:100B70008007F7D571484FF4FA510068B0FBF1F0E7
:100B8000009000BF0098411E0091FAD20EE080E074
:100B9000C0F80080FFF7DAFD074604E0FFF7D6FD56
:100BA000C01B022875D8686A8007F7D420784007F0
:100BB00060D5E8690027C00008D4E86940F080509B
:100BC000E861E869012700F0805000905C48016806
:100BD000C90513D40168834641F480710160FFF7B1
:100BE000B5FD824606E000BFFFF7B0FDA0EB0A00AE
:100BF00064284ED8DBF80000C005F5D5E068012870
:100C00000AD008B1052813D0286A20F00100286214
:100C1000286A20F0040002E0286A40F001002862FF
:100C2000E06841F2883B98B1FFF790FD82460BE007
:100C3000286A40F004002862EEE700BFFFF786FD57
:100C4000A0EB0A0159455AD8286A8007F6D50CE06E
:100C5000FFF77CFD824605E0FFF778FDA0EB0A0177
:100C600059454CD8286A8007F6D41FB1E86920F0AE
:100C70008050E861E06988B36968C1F381010229A5
:100C800044D00228C6F8608004D0FFF75FFD044618
:100C900038E034E0FFF75AFD074604E0FFF756FD61
:100CA000C01B02282BD828688001F7D4206AB0F531
:100CB000803F05D16868A16820F40030084368606F
:100CC000D4E908010843696821F474110843686095
:100CD000C6F86090FFF73AFD044606E025E000BF45
:100CE000FFF734FD001B022809D828688001F7D5DA
:100CF0001BE000BFFFF72AFD001B022802D90320DA
:100D0000BDE8F88F28688001F4D40EE00128F7D000
:100D10006868226A00F48031914204D1616A00F46B
:100D20007010884201D00120EAE70020E8E70000C7
:100D300000100240000042428004424210000020A5
:100D40000070004070B5040009D0606A002540B111
:100D500025616561A56294F8510040B10CE0012065
:100D600070BD6068B0F5827FF4D0E561F2E784F889
:100D70005050204600F040F8022084F851002068CE
:100D8000016821F040010160A088218900F482708F
:100D900001F404410843A18901F400610843217C66
:100DA00001F002010843217D01F001010843218B7C
:100DB00001F400710843217F01F03801084394F8E1
:100DC000201001F080010843218D01F400510843F7
:100DD00021680860A069042101EA10402168486088
:100DE0002068C16921F40061C1616565012084F852
:100DF0005100002070BD000030B585B00024009483
:100E000001940294039400681449884223D1144841
:100E1000816941F480518161816901F480510491BB
:100E2000816941F00401816180690E4D00F0040088
:100E30000490A020009002200190032003906946B6
:100E40002846FFF781FB4020CDE90004694628468B
:100E50000294FFF779FB05B030BD0000003001407F
:100E600000100240000801402DE9F84F044690F8B8
:100E70005100984616460F460025012801D002254C
:100E800098E060684FF0040BB0F5827F01D1A06854
:100E9000F8B194F85000012826D04FF0010984F8E9
:100EA0005090FFF753FC8246002F7FD0002E7DD05C
:100EB00084F851B000206065A763A687E6872063A9
:100EC000A086E08620646064A068B0F5004F0DD075
:100ED00016E084F851B013460A462046CDF800804B
:100EE00000F024F9BDE8F88F0220FBE720680168D4
:100EF00021F0400101602068016821F48041016017
:100F000020680168490603D4016841F0400101608E
:100F1000E068D8B13BE020688168C90709D0007B50
:100F2000A16B0870A06B401CA063E08F401EE0879F
:100F30000CE0FFF70BFCA0EB0A01414503D3B8F12D
:100F4000FF3F03D006E0B8F1000F03D0E08F002888
:100F5000E1D11FE003252BE020688168C90709D093
:100F6000C068A16B0880A06B801CA063E08F401E4E
:100F7000E0870CE0FFF7EAFBA0EB0A01414503D351
:100F8000B8F1FF3F03D0E5E7B8F1000FE2D0E08F02
:100F90000028E1D152464146204600F0B6FB08B198
:100FA00020206065606D00E000E008B1012501E0EF
:100FB00084F85190002084F85000284692E72DE9EB
:100FC000F84F044690F850000026984615468A4689
:100FD00001280CD0012784F85070FFF7B7FB814639
:100FE00094F85100B346012804D002269AE002206A
:100FF000BDE8F88FBAF1000F6FD0002D6DD003203F
:1010000084F85100C4F854B0C4F830A0A586E58631
:10101000C4F838B0A4F83CB0A4F83EB0C4F844B06A
:10102000C4F840B0A068B0F5004F09D1206801684D
:1010300021F0400101602068016841F480410160B5
:1010400020680168490603D4016841F0400101604D
:10105000E068B0F5006F606803D058B3012D29D067
:1010600049E008B1012D1FD1206B21680088C860BC
:1010700006E020688168890709D5216B0988C1606D
:10108000206B801C2063E08E401EE0860CE0FFF7A2
:101090005DFBA0EB0901414503D3B8F1FF3F03D04D
:1010A00006E0B8F1000F03D0E08E0028E1D125E082
:1010B000032635E0206B21680078087306E020687D
:1010C000816889070AD5216B09780173206B401C60
:1010D0002063E08E401EE0860DE01FE0FFF736FB48
:1010E000A0EB0901414503D3B8F1FF3F03D0DFE78F
:1010F000B8F1000FDCD0E08E0028E0D14A4641462E
:10110000204600F030FB08B120206065A06818B9C7
:101110002068C16880680090606D08B1012601E018
:1011200084F8517084F850B0304661E72DE9FF4FE4
:1011300081B0044690F8500000260E9F1D4693464D
:101140004FF0010901280FD04FF0010A84F850A098
:10115000FFF7FCFA804694F85100616801280DD031
:10116000B1F5827F08D103E0022005B0BDE8F08F21
:10117000A16809B9042801D00226C9E00298002814
:1011800065D0BBF1000FFBD0002DF9D094F85100D1
:10119000042802D0052084F8510000206065C4F8BE
:1011A00038B0E587A58702992163E586A586206486
:1011B000606420680168490603D4016841F0400179
:1011C0000160E068B0F5006F606803D0F0B3012DF6
:1011D00047D081E008B1012D3CD1206B2168008807
:1011E000C860206B801C2063E08E401EE08631E0EA
:1011F0002068816889070FD5E18E69B1B9F1010FC7
:101200000AD1216B0988C160206B801C2063E08EAD
:10121000401EE0864FF0000920688168C9070CD0A5
:10122000E18F51B1C068A16B0880A06B801CA063E6
:10123000E08F401EE0874FF00109FFF787FAA0EB2F
:101240000800B84206D3781C04D001E009E05BE056
:1012500003265BE0E08E0028CAD1E08F0028C7D1CA
:1012600040E0206B216800780873206B401C2063ED
:10127000E08E401EE0862FE02068816889070FD548
:10128000E18E69B1B9F1010F0AD1216B09780173BF
:10129000206B401C2063E08E401EE0864FF000096A
:1012A00020688168C9070CD0E18F51B1C068A16B7B
:1012B0000870A06B401CA063E08F401EE0874FF0D9
:1012C0000109FFF743FAA0EB0800B84202D3781CEB
:1012D00002D0BAE7002FB8D0E08E0028CCD1E08F42
:1012E0000028C9D142463946204600F03CFA18B1E0
:1012F0000126202060650BE0A06818B92068C1684D
:1013000080680090606D08B1012601E084F851A06A
:10131000002084F85000304627E710B5401EB0F199
:10132000807F01D3012010BD4FF0E02460610F21C8
:10133000601700F083FC0020A061072020610020DE
:1013400010BD000070B590F83C20012A2CD001247B
:1013500080F83C40022280F83D2003685A689D686E
:1013600022F070060A6832435A60104B02689A42B3
:101370000ED00F4B9A420BD0B2F1804F08D00D4BDC
:101380009A4205D00C4B9A4202D00C4B9A4204D19F
:10139000496825F080031943916080F83D400021A1
:1013A00080F83C10084670BD022070BD002C014042
:1013B000003401400004004000080040000C0040E0
:1013C00010B5040003D094F83D0010B107E00120EF
:1013D00010BD002084F83C00204600F01FF80220D9
:1013E00084F83D00211D206800F05EFA012084F899
:1013F000460084F83E0084F83F0084F8400084F8FA
:10140000410084F8420084F8430084F8440084F8E2
:10141000450084F83D00002010BD000008B50068BC
:101420000649884208D10648C16941F02001C161DE
:10143000C06900F02000009008BD000000140040CA
:101440000010024070B5040004D094F8410000255B
:1014500010B106E0012070BD84F84050204600F035
:1014600023F8242084F841002068C16821F4005149
:10147000C160204600F038FB2068016921F49041EA
:1014800001612068416921F02A0141612068C16839
:1014900041F40051C1606564202084F8410084F863
:1014A00042006563002070BD30B585B00024009413
:1014B00001940294039400681449884224D114488A
:1014C000816941F480418161816901F48041049125
:1014D000816941F00401816180690E4D00F00400D2
:1014E00004904FF4007000900220019003200390BC
:1014F00069462846FFF728F82815CDE90004694613
:1015000028460294FFF720F805B030BD00380140AE
:1015100000100240000801402DE9F843044690F80D
:1015200041001F4616460D46202802D00220BDE885
:10153000F8837DB176B100206064212084F84100F9
:10154000FFF704F9A6848046E684A068B0F5805FC2
:1015500002D003E00120EAE7206910B12E46002501
:101560000EE000260CE08021204600F019FBA0B917
:10157000AEB116F8010B21684860E08C401EE08493
:10158000E08C43464FF0000200970028EBD14FF06B
:101590004001204600F004FB30B10320C7E735F8D6
:1015A000020BC0F30800E6E7202084F84100002089
:1015B000BDE7FEE7F0B585B00020009001900290F5
:1015C00003901C48816941F020018161816901F02B
:1015D00020010491816941F0040181618069164E06
:1015E00000F004000490002204213046FFF7A8F820
:1015F000012211023046FFF7A3F8104F0122042107
:101600003846FFF79DF801244FF48270CDE90004BD
:10161000032569463046CDE90245FEF795FF0420D3
:10162000CDE9000469463846CDE90245FEF78CFF56
:1016300005B0F0BD00100240000801400014014058
:10164000104810B50E4901604FF4827141600021CD
:101650008160C1604FF400720161C0E9051210227F
:10166000C0E90721416281620A21C162FFF76AFB7A
:10167000002803D0BDE81040FEF764BF10BD000095
:1016800000300140700200201CB500240E48009478
:101690000C49019401604721C0E901144FF6FF7124
:1016A0008461C160FFF78CFE08B1FEF74BFF009428
:1016B000694605480194FFF745FE002801D0FEF772
:1016C00041FF1CBD00140040C80200200C4810B5AA
:1016D0000A4901604FF4E1314160002181600C2230
:1016E000C160C0E904128161C161FFF7ABFE00284F
:1016F00003D0BDE81040FEF725BF10BD0038014003
:1017000010030020FEE7FEE77047F8B50446406886
:101710004FF48273984217D1A0684FF48065B0F5FA
:10172000004F01D0A8420FD12068066826F040067D
:1017300006606068984207D1A068A84204D1009270
:101740000B460022012103E000920B46002280217B
:10175000204600F019F8002804D0606D40F0200009
:1017600060650320F8BD38B50B46009204460022A0
:10177000802100F009F8002804D0606D40F02000BE
:101780006065032038BD00002DE9F8431E469146F0
:1017900088460446089DFEF7D9FF401B351AFEF720
:1017A000D5FF074625480068C0F3CB30684338E0D2
:1017B000701C37D0FEF7CAFFC01BA84203D215B178
:1017C000009860B32CE02068416821F0E00141609E
:1017D0006068B0F5827F0BD1A068B0F5004F02D0F1
:1017E000B0F5806F04D12068016821F040010160EC
:1017F000A06AB0F5005F09D12068016821F40051AA
:1018000001602068016841F400510160012084F802
:101810005100002084F850000320BDE8F883002523
:10182000401E00902068816838EA010004D0002141
:101830004945BDD10020F0E70121F9E71000002063
:101840007047FEF789BF30B58FB028216846FEF794
:10185000A2FC14210AA8FEF79EFC01210804CDE990
:1018600000100024029402250491CDE907504FF4A2
:10187000E01009906846FFF7D5F808B172B6FEE7A8
:101880000F20CDE90A054FF48060CDE90C4002211C
:101890000AA80E94FEF7EAFF002801D072B6FEE710
:1018A0000FB030BD70470000F0B502681C4B1D4DF5
:1018B0001D4E1E4F1E4C4FF0804C984209D0A04246
:1018C00007D0604505D0A84203D0B04201D0B8424D
:1018D00004D122F0700E4A6842EA0E02984209D002
:1018E000A04207D0604505D0A84203D0B04201D045
:1018F000B84203D122F44075CA682A434D6922F0E8
:1019000080022A4302608A68C2620A688262984240
:1019100001D0A04201D10969016301214161F0BDFB
:10192000002C01400004004000080040000C004072
:10193000003401402DE9F0412FA000F06FF934A0F0
:1019400000F06CF9FEF7F6FC3848FEF743FD374827
:101950004278017836A000F061F90020FEF786FC9D
:1019600008B172B6FEE73BA000F058F92F4C0026F4
:10197000A41E3E4D268005F59671208808542E54ED
:10198000401C80B22080FF28F7D94FF480773A4678
:1019900000213748FEF744FD08B172B6FEE735A0D6
:1019A00000F03CF93A4600213048FEF7E3FC08B16C
:1019B00072B6FEE733A000F031F936A000F02EF940
:1019C00026802088295C38A000F028F92088401C57
:1019D00080B22080FF28F4D935A000F01FF93A46E4
:1019E00022492348FEF7E2FB20B133A0BDE8F041D5
:1019F00000F014B936A0F9E70D0A3232323135342D
:101A00003130313132372D706C6A0D0A0000000020
:101A10000D0A205350492D57323558787878204593
:101A200078616D706C65200D0A0D0A0002000020BF
:101A300057323558787878204944206973203A2005
:101A400030782530325820203078253032580D0A31
:101A50000D0A0000205350492045726173652042F1
:101A60006C6F636B206F6B0D0A0000001800002084
:101A700044010020535049205772697465206F6BF0
:101A80000D0A00005350492052656164206F6B0DB0
:101A90000A0000005350492052656164204461747B
:101AA000613A200D0A0000003078253032582000BD
:101AB0000D0A0D0A00000000573235583136205308
:101AC000504920546573742046616C73650D0A009B
:101AD000573235583136205350492054657374209D
:101AE0004F4B0D0A0000000070B504460068016904
:101AF000E26821F44051114301612169A068084363
:101B0000616908432168CA6841F20C639A43024341
:101B1000CA6020684169A26921F4407111434161A2
:101B20001E492068884202D1FEF746FF01E0FEF719
:101B300033FF00EBC00101EB0012606864218000FC
:101B4000B2FBF0F3B3FBF1F36FF018067343B2FB93
:101B5000F0F5B2FBF0F605EB8305322303EB051538
:101B6000B5FBF1F5B6FBF1F605F0F00505EB061552
:101B7000B2FBF0F6B2FBF0F0B0FBF1F06FF0180240
:101B8000504306EB800003EB0010B0FBF1F021683E
:101B900000F00F002844886070BD0000003801404C
:101BA0002DE9F041984617460E460446069D27E06B
:101BB000681C25D02DB1FEF7C9FDA0EB0800A84296
:101BC0001ED920680C3050E8001F21F4D07140E885
:101BD0000012002AF5D12068143050E8001F21F0CF
:101BE000010140E80012002AF5D1202084F84100CC
:101BF00084F84200002084F840000320BDE8F08112
:101C00002068006836EA000004D00020B842CFD037
:101C10000020F3E70120F9E7FEE700000FB4054BD1
:101C200010B503A9044A029800F028F810BC5DF82A
:101C300014FB0000E1200008140000200907090E31
:101C4000002804DB00F1E02080F80014704700F069
:101C50000F0000F1E02080F8141D704702E008C872
:101C6000121F08C1002AFAD170477047002001E016
:101C700001C1121F002AFBD1704700002DE9FF4F60
:101C80008DB00F460546002606E025280BD0DDE97D
:101C90000F1290476D1C761C28780028F5D111B0E2
:101CA0003046BDE8F08F0024A246A1460122EC494F
:101CB00000E0044315F8013F203B02FA03F008421C
:101CC000F7D128782A2810D06FF02F022878A0F1B9
:101CD0003001092914D80AEB8A0102EB410144F0D2
:101CE000020400EB010A6D1CF0E701CF5FEA000A75
:101CF00003D544F40054CAF1000A44F002046D1CF8
:101D000028782E2817D115F8010F44F004042A284A
:101D10000ED06FF02F022878A0F1300109290AD8DF
:101D200009EB890102EB410100EB01096D1CF2E7AF
:101D300057F8049B6D1C28786C280FD006DC4C28C3
:101D400017D068280DD06A2814D104E0742810D068
:101D50007A280FD10DE044F400140AE044F4801412
:101D600001E044F440146978814202D104F5801402
:101D70006D1C6D1C2A786E2A1FD00CDC632A31D0B2
:101D800004DC002A8BD0582A11D1A3E0642A68D041
:101D9000692A0CD165E0732A2ED004DC6F2A73D037
:101DA000702A04D19BE0752A6FD0782A6ED0104635
:101DB000DDE90F129047761C50E1C4F3025002286F
:101DC00006D0032809D0042801CF09D0066045E1D8
:101DD00001CFF117C0E9006140E101CF06803DE18C
:101DE00006703BE117F8040B8DF8000000208DF819
:101DF0000100EB46012003E057F804BB4FF0FF3031
:101E000061074FF0000102D40DE008F1010188469E
:101E100049450FDA8045F8DB1BF808100029F4D19A
:101E200008E008F1010188468142FADB1BF808103E
:101E30000029F6D1DDE90F23AAEB080081462146EF
:101E400000F036F9304400EB080604E0DDE90F123B
:101E50001BF8010B9047B8F10108F7D2214648461C
:101E6000F7E00A21C4F302534FF0000B0891022B54
:101E700004D001CFC117032B09D00AE0FF1D27F0C2
:101E80000707F7E8020108E032E01FE020E000B2B7
:101E9000C117042B01D140B2C117031E71F1000319
:101EA00007DA4FF0000CD0EB0C006CEB01012D2396
:101EB00002E0230504D52B238DF82430012303E011
:101EC000E30701D02023F7E7984658E00A2110E005
:101ED00010210EE010204FF0000B08900CE01021B4
:101EE0004FF0000B44F004044FF00809089103E0A0
:101EF00008214FF0000B0891C4F30253022B04D0C9
:101F000001CF0021032B06D006E0FF1D27F00707B5
:101F1000F7E8020103E080B2042B00D1C0B24FF019
:101F2000000823072BD5702A07D0DDF820C08CF0DD
:101F3000100C5CEA0B0C05D00EE040238DF8243029
:101F4000012308E050EA010306D030238DF8243045
:101F50008DF8252002239846DDF820C08CF0080C6F
:101F60005CEA0B0C0BD150EA010301D1630706D5E3
:101F700030238DF824304FF00108A9F10109582AC7
:101F800004D038A20B9208AA0A920BE03AA2F9E711
:101F90005B46089AFEF717F90B9B9B5C0A9A521E48
:101FA0000A92137050EA0102F2D10A98ADEB0000D8
:101FB00000F1200B600702D524F4803401E04FF0DB
:101FC0000109D94502DDA9EB0B0000E0002000EB80
:101FD0000B0141440890AAEB010AE00306D4DDE9B5
:101FE0000F232146504600F063F806444FF00009E5
:101FF00008E009A911F80900DDE90F12904709F17D
:102000000109761CC145F4DBE0030CD5DDE90F23A3
:102010002146504600F04CF8064404E0DDE90F127A
:1020200030209047761C0899481E08900029F5DC5E
:1020300008E00A980A990078491C0A91DDE90F1214
:102040009047761CBBF10001ABF1010BF1DC21469E
:102050005046DDE90F2300F019F806446D1C1BE61D
:10206000092801003031323334353637383961626E
:102070006364656600000000303132333435363732
:102080003839414243444546000000002DE9F04103
:10209000044600251E461746880404D405E0394648
:1020A0002020B0476D1C641EF9D52846BDE8F0819C
:1020B0002DE9F041044600251E469046C80301D58F
:1020C000302700E02027880404D505E04146384643
:1020D000B0476D1C641EF9D52846BDE8F0810000AC
:1020E00013B540F6FF73012269460248FFF714FA60
:1020F00000981CBD10030020FEF736FBFFF7A3FB82
:10210000FFF758FAFFF79CFAFFF7BEFAFFF7DEFA7F
:10211000FFF710FCFEE701020203040506070809A9
:102120000A0B0C0D0E0F1010000000000000000044
:10213000010203040607080900000000010203046D
:102140006021000800000020180000005C1C00084E
:102150007821000818000020400700006C1C0008CF
:10216000000000000100000010000000000000005E
:082170000024F400000000004F
:0400000508000131BD
:00000001FF
