:020000040800F2
:10000000101E0020450100085F2A0008592800083A
:100010005D2A0008351200086D300008000000005D
:10002000000000000000000000000000632A00083B
:100030006F12000800000000612A0008652A00080D
:100040005F0100085F0100085F0100085F01000810
:100050005F0100085F0100085F0100085F01000800
:100060005F0100085F0100085F0100085F010008F0
:100070005F0100085F0100085F0100085F010008E0
:10008000391200085F0100085F0100085F010008E5
:100090005F0100085F0100085F0100085F010008C0
:1000A0005F0100085F0100085F0100085F010008B0
:1000B0005F0100085F0100085F0100085F010008A0
:1000C0005F0100085F0100085F0100085F01000890
:1000D0005F0100085F0100084D3000085F01000863
:1000E0005F0100085F0100085F0100085F01000870
:1000F0005F0100085F0100085F0100085F01000860
:100100005F0100085F0100085F0100085F0100084F
:100110005F0100085F0100085F0100085F0100083F
:100120005F0100085F0100085F0100085F0100082F
:10013000DFF80CD000F0AEFD004800479940000801
:10014000101E00200648804706480047FEE7FEE7ED
:10015000FEE7FEE7FEE7FEE7FEE7FEE7FEE7FEE777
:10016000C72A000831010008202A04DB203A21FABE
:1001700002F00021704721FA02F3D040C2F12002C0
:100180009140084319467047A0F14101192900D850
:100190002030704740EA01039B0703D009E008C9FB
:1001A000121F08C0042AFAD203E011F8013B00F83C
:1001B000013B521EF9D27047D2B201E000F8012B88
:1001C000491EFBD270470022F6E710B513460A46D7
:1001D00004461946FFF7F0FF204610BD421C10F8F8
:1001E000011B0029FBD1801A704710B5002200E0E6
:1001F000521C835C8C5CA34201D1002BF8D1D8B295
:10020000E1B2401A10BD034611F8012B00F8012B92
:10021000002AF9D11846704730B50546002003463C
:1002200000E05B1C934205D2EC5CC85C201A01D153
:10023000002CF6D130BD00000FB400B58DB010A970
:1002400009900B9000914FF0FF300A9000200C9025
:1002500005480690054807906A4609A80F9900F0DE
:100260001FFB0DB05DF814FBBD080008DB0800089B
:100270002DE9FF4F087881B09946FF2805D0491C29
:100280002D2804D00024002308E000230BE00124E3
:10029000F9E703EB830300EB4303491C0878FF28CD
:1002A000F7D104B15B4200200090147801462D2C58
:1002B00001D02B2C04D1521C2D2C12D000240094E0
:1002C00000251678FF2E0ED00A24A0FB04C801FBDF
:1002D0000481002700FB0711521C16EB0C0069413A
:1002E000EFE70124EBE7994450EA01020ED0002425
:1002F000AA4D2646DFF8A88200F08CFC82468B4689
:10030000B9F1000009DAC9F100071BE001980021EA
:10031000C0E9001105B0BDE8F08F074612E0F8070C
:1003200007D022462B463046414600F092FB064657
:10033000884622462B461046194600F08AFB0446A2
:100340000D467F10002FEAD1B9F1000F3246434627
:100350005046594602DA00F0EEFB01E000F079FB6E
:10036000009A0AB181F00041019AC2E90001D1E787
:100370002DE9FF4F1F468DB0D7E901464FF0FF38FA
:100380002E2045464FF000090B90B9696D1C0E9860
:100390008847396A824688470028F6D1BAF1FF3F7C
:1003A0000AD024F4D064002E11DDBAF12B0F08D04E
:1003B000BAF12D0F0BD102E0404611B0ABE744F487
:1003C0008064B9696D1C0E9888478246761E69461E
:1003D000600501D52D2000E02B208DF8000001F1F3
:1003E000010B0DF1200809E0B9696D1C0E988847D2
:1003F00082460F9844F40074761E0560002E02DDDC
:10040000BAF1300FF0D00B998A453ED144F0800408
:1004100006E00F99681CA9F1010944F40074086012
:10042000B9696D1C761E0E98884782463028F0D038
:100430002BE00B998A4505D1200603D444F08004B3
:10044000761E18E0504602F073FF08B30DF1130159
:10045000761E44F400748B4508D2AAF130000BF8E4
:10046000010B200607D5A9F1010003E0200602D404
:1004700009F101008146A00502D50F99681C0860AA
:10048000B9696D1C0E9888478246002ED1DC53E076
:10049000002E51DDBAF1650F02D0BAF1450F4BD1F4
:1004A000A00549D5B9696D1C24F44074761E0E98D8
:1004B00088478246002E0CDD2B2804D0BAF12D0F80
:1004C00007D144F48074B9696D1C0E988847824640
:1004D000761EE00501D52D2100E02B2108F8011B37
:1004E000CDF82C8021E00DF12901761E44F4007432
:1004F00088450CD2AAF1300010F0FF0088F8000007
:1005000002D10B99884509D908F1010806E0E005F8
:1005100001D5244801E042F20F708146B9696D1C93
:100520000E98884782460F980560002E04DD5046DD
:1005300002F0FEFE0028D6D1F9690E988847FF2008
:100540008BF8000088F800000020069007904B46CA
:100550006A4608A906A8FFF78BFEA00502D46FF033
:1005600001002AE714F0240F0AD0E00714D1DDE9D6
:1005700006123868031D3B600068C0E900120BE0FA
:10058000DDE9060100F06AFB0146E00704D13868A6
:10059000021D3A600068016028460EE70000244012
:1005A0000000F03FF1D8FFFF2DE9FE4F804681EAC1
:1005B0000300C00F0C46009021F0004123F00045DD
:1005C000B8EB0200A94105D24046214690461C46A0
:1005D0000B46024623F00040104347D0270DC7F3D7
:1005E0000A00C3F30A510290401A019040286BDAC6
:1005F000C3F3130040F4801B0098924620B10023FF
:10060000D2EB030A63EB0B0B01985946C0F1400291
:10061000504600F01EF906460D4650465946019ACE
:1006200000F026F910EB08006141002487EA11521E
:1006300084EAE7731A4340D0009A62B3019A012A10
:100640004FEA075215DC001B61EB02014FF000423C
:1006500002EA0752CDE90042001C41F58011324602
:100660002B4600F0A8F903B0BDE8F08F40462146C4
:10067000F9E7001B61EB0201001C41F58013001833
:100680005B412018A2F5001747EB030140EAD57043
:10069000B6196D4111E06D084FEA360645EAC0759E
:1006A0004FEA0752001B61EB0201001C41F580116B
:1006B00049084FEA30000019514132462B4603B039
:1006C000BDE8F04F00F068B9009801224000002317
:1006D000D0EB020263EBE073009821464FEAE0742E
:1006E000B8EB000061EB0401E9E783F000435BE74E
:1006F00081F0004158E770B521F0004303430CD06E
:10070000C1F30A550024D5EB040564EB0403D617A6
:10071000AD1AB34102DB0020014670BD201841EB49
:10072000025170BD70B5C1F30A5201F000450024BA
:10073000C1F3130140F2FF3341F480119A4201DA10
:10074000002070BD40F233439A42A2F2334203DCF0
:100750005242FFF709FD00E090402C43F1D04042A7
:1007600070BD000030B5041E71F1000404DB4FF0D1
:100770000044404264EB0101141E73F1000405DBE8
:100780001C464FF00043524263EB04038B4208BF08
:10079000824230BD30B5041E71F1000404DB4FF01D
:1007A0000044404264EB0101141E73F1000405DBB8
:1007B0001C464FF00043524263EB0403994208BFCA
:1007C000904230BD30B50B46014600202022012466
:1007D00009E021FA02F59D4205D303FA02F5491B0F
:1007E00004FA02F52844151EA2F10102F1DC30BD25
:1007F0002DE9F05F0546002092469B468846064656
:10080000814640241BE02846414647462246FFF7E2
:10081000ABFC53465A46C01A914110D311461846B4
:10082000224600F016F82D1A67EB01084F462246C3
:100830000120002100F00DF817EB00094E41201EA9
:10084000A4F10104DFDC484631462A464346BDE8B0
:10085000F09F202A04DB203A00FA02F100207047C2
:100860009140C2F1200320FA03F3194390407047EE
:10087000202A06DBCB17203A41FA02F043EAE07364
:1008800006E041FA02F3D040C2F120029140084351
:100890001946704702681144137801601846704782
:1008A000D16004495161044911620021116111466E
:1008B00000F008BA95080008B90C0008426842B177
:1008C000016811F8013B23B1521EC0E9001218461D
:1008D00070470121C160881E704742685AB1C368E1
:1008E000016843B983688B4205D0491E521CC0E998
:1008F0000012002070474FF0FF3070470FB4002304
:1009000000B589B00CA900910B996FF00042CB6043
:100910001E4B06931E4B07930423CDE901321D4A5B
:10092000089202466B460020FFF722FD09B05DF8F1
:1009300014FB70B586B006464FF0FF300091CDE94C
:100940000101002015460C4604903246694604A871
:10095000FFF7D4FF03460498211825B108B10A46D1
:1009600000E022462A6000280DD0002B02DD00980E
:10097000884208D0081B0094CDE90104324669463C
:1009800004A8FFF7BBFF06B070BD0000BD0800085B
:10099000DB080008B90C000810B5141E73F1000440
:1009A00008DA401C41F1000192185B411A4301D161
:1009B00020F0010010BD2DE9F04D92469B4611B18B
:1009C000B1FA81F202E0B0FA80F220329046FFF7ED
:1009D00040FF04460F4640EA0A0041EA0B01534635
:1009E0005A46084313D0114653EA010019D0C8F102
:1009F00040025046FFF7B8FB05460E4650465946A2
:100A00004246FFF726FF084305D0012004E02046B8
:100A10003946BDE8F08D0020054346EAE0762C43D8
:100A200037430A986305E40AA0EB08000022FD0A98
:100A300044EA47540A3002D500200146E9E701059F
:100A400010196941DDE9084500196941BDE8F04D1B
:100A5000A2E72DE9FE4F81EA030404F0004421F0EF
:100A6000004100944FF0000B23F0004350EA0104D2
:100A70005ED052EA03045BD0C3F30A54C1F30A55B3
:100A80002C44A4F2F3340194A0FB0254C1F31301EB
:100A900041F48011C3F3130343F4801301FB0244B8
:100AA00000FB034E840A970A44EA815447EA8357BD
:100AB000A4FB076802958D0A05FB07854FEA932C76
:100AC00004FB0C542705029D4FEA065847EA1637E7
:100AD000B5EB08056EEB070C870E920E47EA8117FF
:100AE00042EA8312A7FB0201B6EB0B0164EB0004A0
:100AF0002B0D43EA0C335E1844EB1C50DA4651468A
:100B0000E7FB0201C5F313044FEA0B3343EA145326
:100B10004FEA0432019C43EA0603A4F10C04029458
:100B2000009CCDE900B4FFF746FF03B0BDE8F08FAD
:100B300000200146F9E72DE9F04D81EA030404F0B5
:100B4000004B21F0004514464FF0000A23F000410D
:100B500050EA050220D054EA01021DD0C5F30A571D
:100B60000246C5F31303C1F31300C1F30A5640F460
:100B7000801543F48013A7EB0608101BD64608F235
:100B8000FD3873EB050002D308F1010801E092186B
:100B90005B41B8F1000F03DA00200146BDE8F08D9B
:100BA00000204FF48011064684460EE0171B73EBBD
:100BB000050705D3121B63EB050306434CEA010C42
:100BC00049084FEA300092185B4150EA0107EDD125
:100BD00052EA030012D082EA040083EA05010843C6
:100BE00005D0101BAB4106D20122002306E00022F3
:100BF0004FF0004302E06FF0010253101AEB0600C1
:100C00004CEB085110EB0A0041EB0B01BDE8F04D35
:100C1000FFF7C2BE0EB540F2334202920022CDE988
:100C200000221346FFF7C7FE03B000BDC1F30A520E
:100C3000C1F3130140F2FF3341F480119A4202DA0A
:100C400000200146704740F233439A42A2F23342F9
:100C500002DC5242FFF788BAFFF7FBBD01F0004308
:100C600030B421F0004150EA010206D00A0DA2F58D
:100C70006072C1F31301002A02DC30BC002070470F
:100C8000440F44EAC104C100E01830BC00EBC2507C
:100C900000F0AEB9064C074D06E0E06840F00103F5
:100CA00094E8070098471034AC42F6D3FFF744FAB3
:100CB000544D0008744D0008C0B24FF4F05100F0DC
:100CC000CFB900002DE9F34F8BB04FF0000801F1D0
:100CD0000C000C464FF0010B46460DF1080A01903E
:100CE0006269012101989047051E2DD0252D2CD039
:100CF000216A8847C0B16269012101989047216A41
:100D000088470028F7D1411E62690198904700E0AA
:100D1000761CA1690B988847216A88470028F7D17B
:100D2000E1690B988847DBE7A1690B98884707467C
:100D3000A84201D1761CD3E7E1690B9888477F1C54
:100D400002D1B8F1000F6FD046E1002762693D463D
:100D50003946019890472A2804D1626901210198F7
:100D600090470125DFF8849262690121019890473C
:100D7000A0F130010A290AD24F45E5DC07EB8701D3
:100D800000EB4107303FDFD445F01005ECE7E90602
:100D900001D46FF000476C280AD04C2814D0682882
:100DA00015D06A280DD074281CD07A281AD01DE0DE
:100DB00062690121019890476C2802D045F0040532
:100DC00014E045F002050DE045F020050AE06269F7
:100DD000012101989047682802D045F0080505E0F8
:100DE00045F400656269012101989047C4E9015703
:100DF00065283DD019DC58287AD00CDC452837D03E
:100E000004DC252826D0412831D131E046282FD0D6
:100E100047282CD12CE05B2877D0612828D0632884
:100E20007CD0642823D15AE0D0E06F2848D008DC79
:100E300066281DD067281BD0692821D06E2816D1BE
:100E400027E0702845D0732868D0752847D07828C7
:100E50000DD14DE0A1690B988847054625283FF440
:100E600069AFE1690B9888476D1C3FF46AAFB3E046
:100E700023466A466FF001000B99FFF779FA9EE06E
:100E800045F040006060A80723464FF0000236D4CA
:100E90003EE0E8077FF447AF2068011D216000684D
:100EA000290501D506701BE7290701D5068017E73C
:100EB000A90703D5F117C0E9006111E706600FE744
:100EC00045F040006060A80723464FF0080216D4A2
:100ED0001EE040F60E0125EA0100606016E045F0D4
:100EE00040006060A80723464FF00A0207D40FE0D5
:100EF00045F040006060A80708D5234610226FF037
:100F000001000B99AFF3008059E007E0234610225F
:100F10006FF001000B99AFF3008050E04FF0000933
:100F20004F464B46632802D05B2806D040E0E806D7
:100F300001D40120A06001273AE0626901210198F3
:100F400090475E2805D14FF0010962694946019832
:100F50009047216939B900210A46534643F82120B8
:100F6000491C0829FADBB0B3216969B9C11700EB44
:100F7000D16253110AEB830122F01F02821A012071
:100F80000B68904003430B60626901210198904710
:100F90005D28E8D1B9F1000F09D00020514651F881
:100FA0002020D24341F82020401C0828F7DB02AB68
:100FB000224600976FF001000B99AFF300800028E4
:100FC0000CDA401C08D1BBF1000F05D04FF0FF3008
:100FD0000DB0BDE8F08FFFE74046F9E7E90701D122
:100FE00008F1010806444FF0000B79E6CCCCCC0C9C
:100FF0000029A8BF7047401C490008BF20F001002D
:10100000704710B4B0FA80FC00FA0CF050EA01040A
:1010100004BF10BC704749B1CCF1200421FA04F49C
:1010200011FA0CF118BF012121430843A3EB0C0175
:10103000CB1D4FEA00614FEA102042BF002010BCD8
:10104000704700EBC35010440029A4BF10BC704788
:10105000401C490008BF20F0010010BC7047000090
:101060007F2801D9002208E0064A02EB5002C0079F
:10107000127800D1120902F00F02012090400840BE
:1010800070470000144D00082DE9F05F002502F0C4
:101090007BFE06000AD046A102F068FE00694549C1
:1010A000FFF7A3F820B10120BDE8F09F2846FBE739
:1010B00041A1304602F05AFEDFF804814FF48079F6
:1010C000DFF800A1DFF800B184686AE0276A3FA179
:1010D0003846FFF78AF8E8B93EA12069FFF785F89E
:1010E00028B13DA12069FFF780F850B112E000223D
:1010F0000421404600F022FC38A001F0B9FF02258F
:1011000008E001220421404600F018FC36A001F05E
:10111000AFFF032537A13846FFF767F8E8B92DA1DF
:101120002069FFF762F828B12BA12069FFF75DF86D
:1011300050B112E000224946504600F0FFFB2FA0BC
:1011400001F096FF042508E001224946504600F0D0
:10115000F5FB2DA001F08CFF05252EA13846FFF7E9
:1011600044F8E8B91BA12069FFF73FF828B11AA19C
:101170002069FFF73AF850B112E001228021584669
:1011800000F0DCFB25A001F073FF062508E000223B
:101190008021584600F0D2FB23A001F069FF07250B
:1011A0002468002C92D1304602F0BCFD7EE700009E
:1011B00049440000140000204465766963657300AB
:1011C0000014014000080140001001404C4544312A
:1011D000000000004F4E00004F4646004C45443191
:1011E000204F4E0D0A0000004C454431204F46462A
:1011F0000D0A0000424545500000000042454550A0
:10120000204F4E0D0A00000042454550204F4646F3
:101210000D0A00004D4F544F520000004D4F544FE7
:1012200052204F4E0D0A00004D4F544F52204F4652
:10123000460D0A00FEE70000014800F0D7B80000A4
:10124000CC05002030B590F840500124AC40C56B6F
:101250006C60046863604368102B036803D0996076
:101260000068C26030BD9A600068C16030BD7047E0
:1012700072B6FEE710B590F821100022022905D0C1
:101280000421816380F82020012010BD01680B68D3
:1012900023F00E030B6001680B6823F001030B6061
:1012A00090F84030C46B012101FA03F3636080F8C9
:1012B000211080F82020104610BD00002DE9F05FBD
:1012C00090F821100024022903D004218163012415
:1012D00085E001680A6822F00E020A6001680A6867
:1012E00022F001020A603F4E3E4FB215DFF8F4C013
:1012F000DFF8F090DFF8ECA0DFF8E8B0DFF8E4E02A
:101300000168783F13011502ACF1640CA9F1500992
:10131000AAF13C0AABF1280BAEF1140E4FF4801881
:10132000B14227D9B9420ED0614512D049451DD0EE
:10133000514518D0594518D0714501D1424615E0A4
:10134000294EB14201D1012210E0274E1436B1429C
:1013500001D110220AE0244E2836B14206D0224A9A
:101360003C32914201D11A4600E02A461E49091F2B
:101370000A602BE0B94213D0614517D0494522D00D
:1013800051451DD059451DD0714501D142461AE045
:10139000B14202D14FF0807215E0134EB14201D13B
:1013A000012210E0104E1436B14201D110220AE0A1
:1013B0000D4E2836B14206D00B4A3C32914201D143
:1013C0001A4600E02A46074980394A60012180F820
:1013D0002110002180F82010416B01B18847204680
:1013E000BDE8F09F80000240080402402DE9F05F54
:1013F000C16B0A6801680B68046C4FF0040808FAB6
:1014000004F8844D844E854FDFF814C2DFF814923F
:10141000DFF814A2DFF814B2DFF814E218EA020FC2
:1014200065D05FEA437862D50A68920603D40A68F9
:1014300022F004020A60DFF8F0814FF48062016854
:1014400008F1140813011402414524D9A9420DD012
:10145000B1420FD0B9421AD0614515D0494515D0D7
:10146000514501D1120312E0594501D104220EE089
:10147000714501D140220AE06D4D1435A94206D0D4
:101480006B4A2832914201D11A4600E02246674950
:10149000091F0A6029E0A94213D0B14215D0B94210
:1014A00020D061451BD049451BD0514502D14FF496
:1014B000800217E0414502D14FF0806212E05945A9
:1014C00001D104220EE0714501D140220AE0584DBD
:1014D0001435A94206D0564A2832914201D11A4603
:1014E00000E022464B4908394A60C16A71E04FF07A
:1014F000020808FA04F818EA020F70D05FEA83784D
:101500006DD50A68920606D40A6822F00A020A60BB
:10151000012180F82110DFF810814FF4007201687A
:1015200008F1140813011402414524D9A9420DD031
:10153000B1420FD0B9421AD0614515D0494515D0F6
:10154000514501D1120312E0594501D102220EE0AA
:10155000714501D120220AE0354D1435A94206D04B
:10156000334A2832914201D11A4600E022462F49DF
:10157000091F0A6029E0A94213D0B14215D0B9422F
:1015800020D061451BD049451BD0514502D14FF4B5
:10159000001217E0414502D14FF0007212E05945A8
:1015A00001D102220EE0714501D120220AE0204D36
:1015B0001435A94206D01E4A2832914201D11A465A
:1015C00000E02246134908394A60002180F82010C3
:1015D000816A00291CD0BDE8F05F0847FFE70825B5
:1015E000A540154214D01A0712D50A6822F00E023F
:1015F0000A6090F84020C36B012101FA02F25A60A0
:10160000816380F82110002180F82010016BE0E751
:10161000BDE8F09F080002401C000240300002407C
:1016200044000240580002406C000240080402409E
:101630001C04024030B560B11A4B026814219A4272
:1016400009D2194B1344B3FBF1F189000164174926
:101650000AE0012030BD134B5B421344B3FBF1F1B0
:10166000890001640F490839C163022180F8211003
:10167000136843F6F0718B43F0E901142143D0E97C
:1016800002452C4321430469214344692143846971
:101690002143194311600021416301224277017700
:1016A000084630BD08040240F8FFFDBF00000240BC
:1016B00070B5044690F82000002501280CD00120C8
:1016C00084F8200094F821600020012E06D084F8D0
:1016D00020000225284670BD022070BD022684F835
:1016E0002160A0632068066826F001060660204697
:1016F000FFF7A8FDE06A00282068016802D041F0E9
:101700000E0106E021F0040101602068016841F04B
:101710000A0101602068016841F001010160D9E718
:1017200070B5044600F010F90546601C02D004486C
:101730000078044400F008F9401BA042FAD370BDC1
:10174000280000202DE9F84FDFF8C8910024A9F106
:10175000040B23460F2709F1040AABF1040ED1E074
:101760000125A54006EA0502AA4276D1DFF8A8C104
:101770004E68A6EB0C0866452BD00DDC032E34D04A
:1017800005DC36B3012E19D0022E2FD11BE0112E0D
:1017900016D0122E2AD119E0B8F5881F19D006DC10
:1017A000B8F5803F15D0B8F5801F1FD111E0B8F50E
:1017B000001F0ED0B8F5041F18D10AE0CB6815E061
:1017C000CB681B1D12E0CB6808330FE0CB680C33ED
:1017D0000CE08B682BB1012B4FF0080303D045615F
:1017E00004E0042302E0056100E00023FF2A01D8A1
:1017F000064601E000F104064FEA840501D9A5F18F
:101800002005D6F8008007FA05FC28EA0C0803FA40
:1018100005F548EA0508C6F800804D68ED0070D56A
:101820003E4DAE6946F00106AE61AD6924F0030697
:1018300005F0010500953A4D06EB050CDCF8085063
:10184000A607360F07FA06F825EA0805DFF8D48060
:10185000404503D14FF0000825E052E0DFF8C88092
:10186000404502D14FF001081DE0DFF8C08040453F
:1018700002D14FF0020816E0DFF8B480404502D1F3
:101880004FF003080FE0DFF8AC80404502D14FF085
:10189000040808E0DFF8A080404502D14FF00508B9
:1018A00001E04FF0060808FA06F848EA0508CCF807
:1018B00008804D68D9F80060ED024D4601D5164309
:1018C00000E096432E604D68DAF80060AD025546A0
:1018D00001D5164300E096432E604D68DBF80060AA
:1018E000AD035D4601D5164300E096432E604D687A
:1018F000DEF80060ED03754601D5164300E096431F
:101900002E60641C0A681646E2407FF429AFBDE8E9
:10191000F88F000008040140000011100010024080
:101920000000014000080140000C0140001001408F
:101930000014014000180140001C01400AB101617F
:1019400070470904FBE70000014880687047000009
:1019500028000020024881680278114481607047A5
:1019600028000020074810B5016841F0100101600F
:10197000032000F075F80F2000F006F800F024F8BE
:10198000002010BD0020024070B50D4D04464FF4FC
:101990007A712878B1FBF0F00A490968B1FBF0F0E0
:1019A00000F0DCFA48B9102C07D200222146501E64
:1019B00000F036F800206C6070BD012070BD0000A2
:1019C00028000020340000200C4808B5816941F04F
:1019D00001018161816901F001010091C16941F05A
:1019E0008051C161C06900F0805000900448416896
:1019F00021F0E06141F00071416008BD001002403B
:101A000000000140002809DB00F01F020121914085
:101A10004009800000F1E020C0F80011704700008C
:101A2000F0B40E4B1B680C46C3F30223C3F1070549
:101A3000042D00D90425191D072901D2002300E037
:101A4000DB1E012606FA05F1491E214099409E4001
:101A5000761E16403143F0BC01F042BB0CED00E0B5
:101A6000064900F0070208684FF6FF03184040EAF5
:101A70000220034A10430860704700000CED00E0AC
:101A80000000FA052DE9F0470F46050061D0434EEE
:101A9000306800F00700B84209D2306820F0070033
:101AA00038433060306800F00700B84251D12868F0
:101AB0003B4C810712D5400703D5606840F4E060D5
:101AC00060602878000703D5606840F4605060606B
:101AD0006068A96820F0F000084360602878C007BB
:101AE00028D06868012810D02168022810D0890702
:101AF00000292EDA616821F0030101436160FFF7DC
:101B000023FF804641F288390DE021688903EFE721
:101B10008901EDE7FFF718FFA0EB0801494502D95D
:101B20000320BDE8F0876068696800F00C00B0EB46
:101B3000810FEFD1306800F00700B8420BD9306850
:101B400020F0070038433060306800F00700B842EA
:101B500001D00120E5E72878400705D56068E968ED
:101B600020F4E060084360602878000706D56068CC
:101B7000296920F4605040EAC100606000F038F844
:101B80006168084AC1F30311515CC8400649086006
:101B900006480068FFF7F8FE0020C2E70020024078
:101BA00000100240FC4C0008340000202C000020F3
:101BB0000448054900684968044AC1F30221515CA0
:101BC000C840704734000020001002400C4D00084F
:101BD0000448054900684968044AC1F3C221515CC0
:101BE000C840704734000020001002400C4D00082F
:101BF0000E4A51680E4801F00C03042B11D0082B3B
:101C00000FD10C48C1F38343C903C05C0AD55168A6
:101C1000084AC1F34041921E515C054A5043B0FB53
:101C2000F1F070470449484370470000001002403B
:101C300000127A00EC4C000800093D002DE9F84F35
:101C4000040070D02078C04DC00749D06868C0F348
:101C50008100012807D06868C0F38100022809D1FB
:101C60006868C00306D52868800339D560680028F5
:101C7000E7D035E06068B0F5803F0BD010B1B0F52B
:101C8000A02F11D0286820F480302860286820F424
:101C9000802002E0286840F480302860606890B1BD
:101CA000FFF752FE06460AE0286840F480202860CC
:101CB000F0E700BFFFF748FE801B642873D8286850
:101CC0008003F7D50CE0FFF73FFE064605E000BFB6
:101CD000FFF73AFE801B6428F0D828688003F7D409
:101CE00020789A4E80074FF001094FF0000839D54F
:101CF000686810F00C0F07D06868C0F381000228F4
:101D000009D16868C00306D42868800714D5206903
:101D1000012808D110E02069B0B1C6F80090FFF7A3
:101D200013FE074605E00AE1FFF70EFEC01B02287E
:101D3000C4D828688007F7D52868616920F0F800C2
:101D400040EAC10028600DE0C6F80080FFF7FCFD06
:101D5000074604E0FFF7F8FDC01B022823D82868D7
:101D60008007F7D4207800072CD57948A169D9B12C
:101D7000C0F80090FFF7E8FD074604E0FFF7E4FD38
:101D8000C01B02280FD8686A8007F7D571484FF446
:101D9000FA510068B0FBF1F0009000BF0098411EBE
:101DA0000091FAD20EE080E0C0F80080FFF7CCFD91
:101DB000074604E0FFF7C8FDC01B022875D8686A13
:101DC0008007F7D42078400760D5E8690027C00075
:101DD00008D4E86940F08050E861E869012700F024
:101DE000805000905C480168C90513D4016883469F
:101DF00041F480710160FFF7A7FD824606E000BF55
:101E0000FFF7A2FDA0EB0A0064284ED8DBF8000023
:101E1000C005F5D5E06801280AD008B1052813D01F
:101E2000286A20F001002862286A20F0040002E0FD
:101E3000286A40F001002862E06841F2883B98B1CE
:101E4000FFF782FD82460BE0286A40F0040028621A
:101E5000EEE700BFFFF778FDA0EB0A0159455AD81D
:101E6000286A8007F6D50CE0FFF76EFD824605E094
:101E7000FFF76AFDA0EB0A0159454CD8286A800794
:101E8000F6D41FB1E86920F08050E861E06988B3BA
:101E90006968C1F38101022944D00228C6F8608034
:101EA00004D0FFF751FD044638E034E0FFF74CFD65
:101EB000074604E0FFF748FDC01B02282BD828681E
:101EC0008001F7D4206AB0F5803F05D16868A16829
:101ED00020F4003008436860D4E9080108436968C9
:101EE00021F4741108436860C6F86090FFF72CFD78
:101EF000044606E025E000BFFFF726FD001B022890
:101F000009D828688001F7D51BE000BFFFF71CFD4A
:101F1000001B022802D90320BDE8F88F2868800141
:101F2000F4D40EE00128F7D06868226A00F480310A
:101F3000914204D1616A00F47010884201D00120FE
:101F4000EAE70020E8E700000010024000004242FB
:101F500080044242340000200070004010B5401E52
:101F6000B0F1807F01D3012010BD4FF0E02460610B
:101F70000F21601701F0B4F80020A0610720206154
:101F8000002010BD70B590F83C20012A2CD001240F
:101F900080F83C40022280F83D2003685A689D6822
:101FA00022F070060A6832435A60104B02689A4267
:101FB0000ED00F4B9A420BD0B2F1804F08D00D4B90
:101FC0009A4205D00C4B9A4202D00C4B9A4204D153
:101FD000496825F080031943916080F83D40002155
:101FE00080F83C10084670BD022070BD002C0140F6
:101FF000003401400004004000080040000C004094
:1020000010B5040003D094F83D0010B107E00120A2
:1020100010BD002084F83C00204600F01FF802208C
:1020200084F83D00211D206800F04EFD012084F859
:10203000460084F83E0084F83F0084F8400084F8AD
:10204000410084F8420084F8430084F8440084F896
:10205000450084F83D00002010BD000000B585B0AB
:102060000021009101910291039100680E4988427C
:1020700018D10E48C16941F00401C161C16901F084
:1020800004010491816941F0080181618069694618
:1020900000F0080004908020009002200290044884
:1020A000FFF750FB05B000BD0008004000100240E3
:1020B000000C014070B5044690F83C000025012852
:1020C00017D0012684F83C60022084F83D00206887
:1020D000826822F0770222F47F42826008685028EA
:1020E00038D00DDC20284FD005DC90B3102811D15A
:1020F0004AE0022070BD302846D040280AD13BE09B
:1021000060282FD070280DD0B0F5805F03D0B0F5D7
:10211000005F12D0012584F83D60002084F83C0067
:10212000284670BDCB68D1E90121206800F012FD7E
:102130002068816841F0770109E0CB68D1E901218D
:10214000206800F007FD2068816841F480418160CB
:10215000E1E719E0CA684968206800F00DFD5021E8
:10216000206806E0CA684968206800F04DFD6021DB
:10217000206800F0F9FCCEE7CA684968206800F0E2
:10218000FBFC40212068F4E7226801461046F0E796
:102190002DE9F041054690F83C0000260C46012848
:1021A00010D0012085F83C0072B1042A1CD0082A06
:1021B0002CD00C2A50D00126002085F83C00304657
:1021C000BDE8F0810220FBE7D4E90012E36828684B
:1021D00000F0E4FC2868816921F00C018161286825
:1021E0008169A26811430FE0D4E90012E36828680E
:1021F00000F01CFD2868816921F440618161286834
:102200008169A26841EA02218161D5E72868D4E9A1
:10221000002C277B036A016A21F480710162C16985
:1022200023F4007321F0030141EA0C0121F0F00CCA
:1022300039074FF400774CEA116107EA02221A438A
:10224000C16102622868C16921F00C01C16128687E
:10225000C169A26811432BE02868D4E90021E7682E
:10226000036AD0F820C02CF4805CC0F820C0D0F8FD
:102270001CC023F400532CF4407C4CEA012121F4CF
:10228000704C4FF6FF7101EA07314FF4005741EAF5
:102290000C0107EA02321A43C16102622868C1696F
:1022A00021F44061C1612868C169A26841EA022144
:1022B000C16181E710B5040003D094F83D0010B16E
:1022C00007E0012010BD002084F83C00204600F00B
:1022D0001EF8022084F83D00211D206800F0F4FB68
:1022E000012084F8460084F83E0084F83F0084F81A
:1022F000400084F8410084F8420084F8430084F8E8
:10230000440084F8450084F83D00002010BD70476B
:1023100038B5044690F84200202801D0022038BD8C
:1023200061B15AB10120206300206063204600F0B3
:1023300009FE0028F3D1216B012901D0012038BD0D
:1023400021680A684968009121680C3151E8002F22
:1023500042F0100241E80023002BF5D138BD000007
:1023600070B500681349884222D11348006840685C
:102370001249C0F1C80084B24FF6FF752B462246C1
:1023800001F5887000F01AFA0C492B46224601F13B
:10239000C80000F013FA0948FEF776FE014608A0CF
:1023A00000F066FE2146BDE870400448FDF70BBF13
:1023B00070BD000000440040CC05002074040020E3
:1023C000756172743220416E616C797369734A73FE
:1023D0006F6E446174612072657475726E203D3D4C
:1023E00025640D0A0000000070470000F8B5016880
:1023F00004460868CA684B6910F00F0F4FF00005DB
:102400005AD003F0010602F49077374365D0C10734
:1024100005D0D10503D5616C41F00101616441072C
:1024200005D5D90703D0616C41F0020161648107D1
:1024300005D5D90703D0616C41F00401616401073F
:1024400007D502F02001314303D0616C41F008014F
:102450006164616C00293BD0800604D5900602D5EA
:10246000204600F0B2FC20684069616CC0F3801027
:1024700001F00801014320462BD000F071FC2068D8
:102480004069400621D52068143050E8001F21F033
:10249000400140E80012002AF5D1E06BA8B16D4977
:1024A0004163E06BFEF70AFF002811D0E06B416B3F
:1024B00001B0BDE8F040084783060ED593060CD561
:1024C0002046BDE8F84000F080BC2046FFF78CFFB6
:1024D000F8BDFFF789FF6564F8BD266B2023012E48
:1024E0007CD1C6067AD5D60678D5086848680090AB
:1024F00048694FF00206400640D5E16B0868406825
:102500000004000CE8D0A28D8242E5D9E0858869FC
:1025100020282DD020680C3050E8001F21F4807155
:1025200040E80012002AF5D12168143151E8000F6B
:1025300020F0010041E80002002AF5D120681430A3
:1025400050E8001F21F0400140E80012002AF5D1B8
:1025500084F84230256320680C3050E8001F21F0D9
:10256000100140E80012002AF5D1E06BFEF782FE70
:102570006663A08DE18D401A81B22AE0A08DE18DC5
:10258000401A81B2E08D0028A6D00029A4D022688C
:102590000C3252E8000F20F4907042E80007002F40
:1025A000F5D12068143050E8002F22F0010240E8F5
:1025B0000027002FF5D184F84230256320680C30C5
:1025C00050E8002F22F0100240E80023002BF5D144
:1025D00066632046FFF7C4FEF8BDFFE705062BD56E
:1025E000150629D594F841002128F5D1A068B0F549
:1025F000805F01D12069B0B1206A411C216221684D
:1026000000784860E08C401E0004000CE084E3D1B8
:102610002068C16821F08001C1602068C16841F074
:102620004001C160D8E7206A0088C0F30800486014
:10263000206A801C2062E5E74006CDD55006CBD548
:10264000CA68204622F04002CA6084F8413000F097
:1026500002F9C1E7632C000870B5040004D094F8B7
:102660004100002510B106E0012070BD84F8405003
:10267000204600F023F8242084F841002068C16837
:1026800021F40051C160204600F000FC206801697F
:1026900021F4904101612068416921F02A014161E2
:1026A0002068C16841F40051C1606564202084F84D
:1026B000410084F842006563002070BDF0B585B02C
:1026C000002400940194029403940646344F036856
:1026D000344902220320344DBB4221D18B6943F49B
:1026E00080438B618B6903F4804304938B6943F0CF
:1026F00004038B618969039001F0040104911102C4
:10270000CDE9001269462846FFF71CF82815CDE9E7
:102710000004694628460294FFF714F805B0F0BD9E
:10272000224FBB42FAD1CB6943F40033CB61CB6972
:1027300003F4003304938B6943F004038B618969CC
:10274000039001F0040104910421CDE900126946CF
:102750002846FEF7F7FF0820CDE900046946284621
:102760000294FEF7EFFF134D1148C5E900048020E5
:10277000C5E902402C616C61AC612846EC61FEF752
:1027800059FF08B1FEF774FDF563002211462620BB
:102790006E62FFF745F92620FFF734F9BEE7000027
:1027A0000038014000100240000801400044004091
:1027B0006C000240CC050020704770472DE9F843BB
:1027C000044690F841001F4616460D46202802D0C8
:1027D0000220BDE8F8837DB176B10020606421203D
:1027E00084F84100FFF7B0F8A6848046E684A0682C
:1027F000B0F5805F02D003E00120EAE7206910B164
:102800002E4600250EE000260CE08021204600F038
:10281000E1FBA0B9AEB116F8010B21684860E08C6D
:10282000401EE084E08C43464FF0000200970028F1
:10283000EBD14FF04001204600F0CCFB30B103203B
:10284000C7E735F8020BC0F30800E6E7202084F85C
:1028500041000020BDE77047FEE70000094808B5C9
:10286000416941F0010141614069002200F001002D
:10287000009011461020FFF7D3F8BDE80840102063
:10288000FFF7C0B8001002402DE9F04385B00020EA
:1028900000900190029003902A48816941F0200144
:1028A0008161816901F020010491816941F0040195
:1028B0008161816901F004010491816941F0100195
:1028C0008161816901F010010491816941F0080181
:1028D000816180691C4F00F0080004900022C02133
:1028E0003846FFF72BF80122DFF8608016023146E8
:1028F0004046FFF723F8DFF85890012204214846AC
:10290000FFF71CF80124C020CDE900040325694627
:102910003846CDE90245FEF715FFCDE9006469466A
:102920004046CDE90245FEF70DFF0420CDE9000445
:1029300069464846CDE90245FEF704FF05B0BDE80B
:10294000F083000000100240001001400008014028
:102950000014014010B58AB0002423480494059463
:1029600006940794089409940094019402941D49D4
:102970000394016041F61F41C0E901144CF24F314C
:10298000C0E9031480218161FFF73AFB08B1FEF72B
:102990006FFC4FF48050049004A91348FFF78AFBA2
:1029A00008B1FEF765FC1048FFF784FC08B1FEF79C
:1029B0005FFC089408A90C480994FFF7E3FA08B1F2
:1029C000FEF756FC0120CDE900400294042269463E
:1029D00005480394FFF7DCFB002801D0FEF748FC14
:1029E0000AB010BD000800402C0400200C4810B5AF
:1029F0000A4901604FF4E1314160002181600C22FD
:102A0000C160C0E904128161C161FFF725FE0028A1
:102A100003D0BDE81040FEF72BBC10BD00380140CC
:102A20003C0500200C4810B50A4901604FF4E13123
:102A30004160002181600C22C160C0E90412816103
:102A4000C161FFF709FE002803D0BDE81040FEF782
:102A50000FBC10BD0044004084050020FEE7FEE7E7
:102A600070477047FEF776BF30B58FB028216846B3
:102A7000FDF7A9FB14210AA8FDF7A5FB0121080415
:102A8000CDE900100024029402250491CDE90750FD
:102A90004FF4E01009906846FFF7D0F808B172B61D
:102AA000FEE70F20CDE90A054FF48060CDE90C4028
:102AB00002210AA80E94FEF7E5FF002801D072B6A5
:102AC000FEE70FB030BD7047F0B502681C4B1D4DDE
:102AD0001D4E1E4F1E4C4FF0804C984209D0A04214
:102AE00007D0604505D0A84203D0B04201D0B8421B
:102AF00004D122F0700E4A6842EA0E02984209D0D0
:102B0000A04207D0604505D0A84203D0B04201D012
:102B1000B84203D122F44075CA682A434D6922F0B5
:102B200080022A4302608A68C2620A68826298420E
:102B300001D0A04201D10969016301214161F0BDC9
:102B4000002C01400004004000080040000C004040
:102B50000034014010B5846842EA032224F47F4423
:102B60000A432243826010BD826822F070020A4349
:102B700042F007018160704710B5036A046A24F0CF
:102B800001040462846924F0F00444EA021423F08E
:102B90000A020A438461026210BD000070B5056A32
:102BA000046A24F0010404628469124EB0420ED01B
:102BB000114EB0420BD0B0F1804F08D00F4EB04252
:102BC00005D00F4EB04202D00E4EB04203D124F0D9
:102BD0000304144301E044F001041A0724F0F00454
:102BE00044EA126225F00A0301F00A0119438261E6
:102BF000016270BD002C014000340140000400401F
:102C000000080040000C004010B5036A046A24F07C
:102C100010040462846923F0A00324F4704444EA9D
:102C2000023243EA01118261016210BD30B5046ACB
:102C3000056A25F010050562856925F4407545EAA9
:102C4000022222F470454FF6FF7202EA033224F0AA
:102C5000A0032A43A02404EA0111194382610162FE
:102C600030BD10B5406A0021C185C184FFF7BCFBAF
:102C700010BD70B5446A2068406994F84110C0F3F3
:102C8000C0100025212904D118B1E584204600F0A8
:102C90008EF82068406994F84210C0F38010222911
:102CA00004D118B1E585204600F05AF8606C40F078
:102CB000100060642046FFF797FB70BD10B5014619
:102CC000406A096809684FF0000289062ED4C2855F
:102CD00001680C3151E8003F23F4807341E800346F
:102CE000002CF5D10168143151E8003F23F00103B5
:102CF00041E80034002CF5D10168143151E8003F5F
:102D000023F0400341E80034002CF5D1202180F865
:102D10004210016B012909D101680C3151E8003FD3
:102D200023F0100341E80034002CF5D14263016B1D
:102D3000012902D0FFF740FD10BD818DFFF710FB88
:102D400010BD10B5406A01214163016B012902D019
:102D5000FFF733FD10BD818D4908FFF701FB10BD62
:102D600001680C3151E8002F22F4907241E80023F1
:102D7000002BF5D10168143151E8002F22F0010237
:102D800041E80023002BF5D1016B012909D101682D
:102D90000C3151E8002F22F0100241E80023002BF3
:102DA000F5D1202180F842100021016370470168AD
:102DB0000C3151E8002F22F0C00241E80023002B23
:102DC000F5D1202180F84110704708B590F84210E5
:102DD000222901D0022008BD82684FF480539A4214
:102DE00001D1016921B1816A9A421BD04AB10AE03E
:102DF0000268816A5268C2F308020A80816A891CEB
:102E000008E0026972B10268526802F07F020A703B
:102E1000816A491C8162C18D491E0904090CC18562
:102E200003D01BE002685268F1E70168CA6822F02B
:102E30002002CA600168CA6822F48072CA60016810
:102E40004A6922F001024A61202180F842100021E3
:102E50004163026B012A03D0FFF7AEFC002008BDDE
:102E6000016301680C3151E8002F22F0100241E8A3
:102E70000023002BF5D101680A68D20602D50A6842
:102E800049680091818DFFF76BFAE7E770B504465A
:102E900000680169E26821F4405111430161216930
:102EA000A0680843616908432168CA6841F20C635D
:102EB0009A430243CA6020684169A26921F44071C3
:102EC000114341611E492068884202D1FEF780FE0D
:102ED00001E0FEF76DFE00EBC00101EB001260683F
:102EE00064218000B2FBF0F3B3FBF1F36FF018063E
:102EF0007343B2FBF0F5B2FBF0F605EB830532232A
:102F000003EB0515B5FBF1F5B6FBF1F605F0F005A1
:102F100005EB0615B2FBF0F6B2FBF0F0B0FBF1F0FA
:102F20006FF01802504306EB800003EB0010B0FB7B
:102F3000F1F0216800F00F002844886070BD0000A7
:102F40000038014038B5816204468285002013466E
:102F50006064222284F84220E56B1B4AAA62E56B7A
:102F60001A4AEA62E56B1A4A2A63E26B50630A4620
:102F70002168E06B091DFEF79BFB20680168406833
:102F80000090206948B120680C3050E8001F41F4DF
:102F9000807140E80012002AF5D12068143050E812
:102FA000001F41F0010140E80012002AF5D120681D
:102FB000143050E8001F41F0400140E80012002AA0
:102FC000F5D1002038BD0000BD2C0008432D0008BD
:102FD000732C00082DE9F041984617460E4604462A
:102FE000069D27E0681C25D02DB1FEF7ADFCA0EBB7
:102FF0000800A8421ED920680C3050E8001F21F4B8
:10300000D07140E80012002AF5D12068143050E851
:10301000001F21F0010140E80012002AF5D1202014
:1030200084F8410084F84200002084F84000032026
:10303000BDE8F0812068006836EA000004D0002076
:10304000B842CFD00020F3E70120F9E710B50548DA
:10305000FFF7CCF9BDE81040C82203490148FFF74B
:1030600057B900008405002074040020FEE700002A
:103070000FB4054B10B503A9044A029800F060F99B
:1030800010BC5DF814FB0000B53F000838000020BC
:103090000FB41CB50A46521ECDE9000207A9054B24
:1030A0006A46069800F04CF9009A002111701CBC89
:1030B0005DF814FB6F3A00080FB4084B10B504A973
:1030C00002AA039800F03CF9044602A9002000F08F
:1030D000D9FC204610BC5DF814FB0000853A0008BE
:1030E0000907090E002804DB00F1E02080F8001435
:1030F000704700F00F0000F1E02080F8141D7047C9
:1031000030B528B1144C031F002021680A4605E0A1
:10311000084630BD9A4203D810465268002AF9D1B9
:10312000002800D041680BD00468A3EB0005A5423D
:1031300004D11B681C440346046002E0436000E0C5
:1031400023603AB11C68D51AA54203D115682C44F6
:103150001C6052685A6030BD3C0000202DE9F047E9
:1031600082460F4C10480D4E0E4F001B4FF00008CA
:1031700020F007054FF0010900221146504600F0EB
:1031800063FF002802D1306810B10020BDE8F0874D
:103190003C60C4E90058C6F80090EDE7400000200C
:1031A000140600203C0000201016002002E008C891
:1031B000121F08C1002AFAD170477047002001E0B1
:1031C00001C1121F002AFBD1704700002DE9FF5FEB
:1031D000DDE90220010DDDF838B0024318D044F6D5
:1031E0001050A1F2FF3141430D140F98012820D057
:1031F000A5EB0B00401C5FEA000A4FF00004474EAD
:10320000DFF81C91A046504616D5CAF1000728E009
:103210000F98012443A2012808D0002100980F9B99
:10322000C0E90021C0E90243BDE8FF9F6FEA0B013E
:10323000F4E7CBF10000DEE7074612E0F80707D01D
:103240002246334640464946FDF703FC8046894600
:103250002246334610461946FDF7FBFB04460E4650
:103260007F10002FEAD1DDE90201BAF1000F4246DA
:103270004B4602DAFDF7EDFB01E0FDF75CFC04468E
:103280000E460022284BFDF785FA03D84FF0FF3099
:10329000014607E00022254B20463146FDF784F920
:1032A000FDF7C4FC102409E0002C0ADB0A220023ED
:1032B000FDF79EFA019B30321A55641E50EA010256
:1032C000F2D1641C019AC4F1110314440F9A012A2B
:1032D00003D0012208430DD10AE0084304D00020A6
:1032E0004FF0110B0F9080E7A3EB0B056D1E0DE067
:1032F0005B4504DD4FF0000205F1010504E003DA4F
:103300004FF00002A5F10105002AECD000980F99BA
:10331000C0E90231C0E9004586E700000000244012
:103320000000F03F300000000000F0430000E03FEC
:1033300030380A2801D20120704700207047000071
:103340002DE9FF4F95B09B468946064600250FE2C2
:10335000252877D100242746F84A0121059400E06A
:10336000044316F8013F203B01FA03F01042F7D165
:1033700030782A2811D06FF02F033078A0F1300276
:10338000092A16D8059A44F0020402EB820203EBE4
:1033900042021044761C0590EFE759F8042B059281
:1033A000002A03DA504244F40054059044F0020429
:1033B000761C30782E2816D116F8010F44F004043C
:1033C0002A280DD06FF02F023078A0F13003092B9E
:1033D00009D807EB870302EB4303C718761CF3E712
:1033E00059F8047B761C30786C280FD006DC4C280A
:1033F00017D068280DD06A2814D104E0742810D0A2
:103400007A280FD10DE044F400140AE044F480144B
:1034100001E044F440147278824202D104F5801431
:10342000761C761C307866280BD013DC582877D0B1
:1034300009DC002875D04528F6D04628F4D0472866
:103440001AD19DE118E0632835D0642879D0652829
:1034500012D195E1702873D008DC6728F1D0692873
:103460006FD06E280DD06F2806D1B5E073282CD010
:10347000752875D0782874D05A46179990476D1CD6
:1034800075E1C4F30250022809D003280DD0D9F801
:10349000001004280DD00D6009F1040967E1D9F886
:1034A0000010EA17C1E90052F6E7D9F800100D80C4
:1034B000F2E70D70F0E719F8041B8DF800100020FA
:1034C0008DF80100EA46012003E059F804AB4FF003
:1034D000FF3061074FF0000102D40DE008F1010157
:1034E0008846B9420FDA8045F8DB1AF8081000293F
:1034F000F4D108E008F1010188468142FADB1AF8AC
:1035000008100029F6D105985B46A0EB0807214674
:103510003846179A00F094FA284400EB080507E0B3
:103520004DE029E10DE01AF8010B5A461799904732
:10353000B8F10108F7D25B4621463846179A13E1E5
:1035400042E00A220092C4F302524FF0000A022A1B
:1035500008D059F804CB032A4FEAEC710AD00DE0E9
:1035600029E02AE009F1070121F00702F2E802C18F
:10357000914609E00FFA8CFC4FEAEC71042A03D162
:103580004FFA8CFC4FEAEC71002907DA0A46002159
:10359000DCF1000C61EB02012D2202E0220504D5D2
:1035A0002B228DF80420012203E0E20701D0202223
:1035B000F7E7904659E00A2102E010220DE01021C1
:1035C0004FF0000A00910BE010224FF0000A44F087
:1035D00004040827009203E008224FF0000A00923A
:1035E000C4F30252022A05D059F804CB0021032A61
:1035F00008D009E009F1070121F00702F2E802C151
:10360000914605E01FFA8CFC042A01D10CF0FF0C56
:103610004FF00008220728D5702806D0009B83F0C1
:10362000100353EA0A0305D00EE040228DF804206F
:10363000012208E05CEA010206D030228DF8042065
:103640008DF8050002229046009B83F0080353EAA0
:103650000A030AD15CEA010201D1620705D53022D2
:103660008DF804204FF001087F1E582804D034A0A4
:1036700003900EA802900DE036A0F9E7534660468D
:10368000009AFDF7B5F884460398825C0298401EC4
:10369000029002705CEA0100F0D1029806A9081AB3
:1036A00000F1200A600702D524F4803400E00127ED
:1036B000574502DDA7EB0A0000E0002000EB0A01FD
:1036C000009005984144401A0590E00306D45B46FB
:1036D0002146179A059800F0B3F90544002706E043
:1036E00001A85A46C05D179990476D1C7F1C47453D
:1036F000F6DBE0030CD55B462146179A059800F0EF
:103700009FF9054404E030205A46179990476D1CF4
:103710000099481E00900029F5DC08E00298029903
:103720005A460078491C0291179990476D1CBAF1CE
:103730000001AAF1010AF1DC65E10000092801009D
:103740003031323334353637383961626364656617
:1037500000000000303132333435363738394142D9
:10376000434445460000000000F058F90544761C2B
:10377000307800287FF4ECAD19B02846BDE8F08F12
:10378000620700D4062709F1070222F0070CFCE8C3
:103790000223E14603F000485FEA080C02D00FF272
:1037A000702C0DE05FEA045C02D50FF2682C07E094
:1037B0005FEAC47C02D00FF2602C01E0AFF2700C23
:1037C0004FF0FF3823F00043CDF850C065280CD0EF
:1037D00006DC452809D046281DD047283DD13DE0CC
:1037E000662818D067287ED138E00021112F01DB30
:1037F000112000E0781CCDE9000106A90EA8FFF712
:10380000E5FCDDE90F010E9A03910021009207F11A
:10381000010A04914DE04FF000400097CDE90110FE
:1038200006A90EA8FFF7D2FCDDE90F0203920E9B5A
:1038300011990022DDF80CA00093049211B9791CB3
:1038400000EB010AB7EB0A0004D4C0F1FF3007F126
:10385000010A0490AAEB0700019044E0012F00DA6E
:1038600001270021112F01DD112000E03846CDE9AC
:10387000000106A90EA8FFF7A9FCDDE90F010E9AC9
:103880000391002104910092BA4621070CD40399B8
:10389000514500DA8A46BAF1010F05DD009AAAF116
:1038A0000101515C302908D0B84202DA10F1040F4E
:1038B00006DA0121CDE9011015E0AAF10101E9E7DD
:1038C000002805DC049901440491AAEB000102E000
:1038D000411C514500DD8A460499401A401C019064
:1038E0004FF000400290200704D40198504501DBBE
:1038F000CDF8048000208DF84F0002980DF14F079D
:10390000B0F1004F25D02B200E9002984FF0020806
:1039100000280CDA404202902D200E9007E00A2188
:103920000298FCF74FFF3031029007F8011DB8F103
:103930000001A8F10108F2DC02980028EFD1791EFD
:103940000E980870307800F0200040F0450007F82D
:10395000020D12A8C01B00F107081498007800B1EE
:10396000012000EB0A01019801EBE0710598414448
:10397000401A401E0590E00306D45B462146179A84
:10398000059800F05DF805441498007818B15A467F
:10399000179990476D1CE00324D55B462146179A82
:1039A000059800F04DF805441CE00498002807DB5A
:1039B000DDE90301884203DD0098405C179901E0CE
:1039C000179930205A469047049805F10105401C8C
:1039D00004900198401E019004D12E205A46179958
:1039E00090476D1CBAF10001AAF1010ADDDC05E087
:1039F00017F8010B5A46179990476D1CB8F1000152
:103A0000A8F10108F4DC5B462146179A0598ABE65D
:103A10002D0000002B000000200000002DE9F041E7
:103A2000044600251E461746880404D405E039469E
:103A30002020B0476D1C641EF9D52846BDE8F081F2
:103A40002DE9F041044600251E469046C80301D5E5
:103A5000302700E02027880404D505E04146384699
:103A6000B0476D1C641EF9D52846BDE8F0814A6850
:103A7000002A06D00A68531C0B6010704868401E6C
:103A8000486070470A68531C0B601070704711B192
:103A900008B1884201D10020704782683AB152686B
:103AA0001AB111604A6080684160012070478160EE
:103AB0000020C1E90001F8E72DE9F0410600069871
:103AC000984614460D4621D005B3FCB1A6421DD040
:103AD00018B1E06840F4007708E01946284600F085
:103AE000E3F9050012D0E06820F40077A089800592
:103AF00004D4206A10B1D8F804108847E760214642
:103B000030462562BDE8F041FFF7C1BF0020BDE8A7
:103B1000F08110B530B1036823B1D0E901219142A1
:103B200001D204E0002010BD491C816020B1914207
:103B300002D25C5C202CF7D99142F4D1491E8160FD
:103B400010BD00002DE9F0410746002500F0C6F841
:103B5000044600F0C3F80646184A19A100F076F8AA
:103B60000022184B18A1204600F056F81A4A1B4BA9
:103B70001BA1204600F050F84FF033321A4B1BA126
:103B8000204600F049F822461BA1304600F03AF8E2
:103B9000304600F07DF904000AD0034618A24FF425
:103BA000FA613846FFF774FA0546204600F076F9C8
:103BB000304600F0B7F82846BDE8F0811400002038
:103BC00049440000008490404C69676874496E74F1
:103BD000656E7369747900009A99999999193740BB
:103BE00054656D70000000003393534048756D6953
:103BF0006469747900000000446576696365730048
:103C00002573000008B500230093024BFFF754FF13
:103C100008BD000008000020F8B50C460546104617
:103C2000194600F02BF8064600200090064B32465D
:103C300021462846FFF740FF0028304602D100F019
:103C400071F80020F8BD000008000020F8B5054616
:103C50000C46104600F04EF8064600200090064B39
:103C6000324621462846FFF727FF0028304602D17A
:103C700000F058F80020F8BD0800002070B5054697
:103C80000E46124800F075F804001CD00820E060D1
:103C9000C4E906560E4A0F4B28463146FCF77AFD1A
:103CA00002D86FF000400DE000220B4B2846314651
:103CB000FCF758FD02D84FF0004003E0284631469B
:103CC000FCF730FD6061204670BD00000800002058
:103CD0000000C0FFFFFFDF410000E0C110B5044855
:103CE00000F047F8002801D04021C16010BD00005D
:103CF0000800002070B50546094800F03AF80400B5
:103D000007D01020E0600649284600F0CDF8206179
:103D100008B1204670BD204600F004F8002070BDB8
:103D20000800002070B504460F4E19E0A0892568F0
:103D3000C0050AD4A06820B1FFF7F4FFA089C00530
:103D400003D4206908B171688847A089800503D42D
:103D5000206A08B1716888477168204688472C46F8
:103D6000002CE3D170BD000008000020002200F00C
:103D70002DB910B5016828208847040002D02821F9
:103D8000FCF721FA204610BD0022114600F06EB863
:103D90002DE9F04788B00F4604469A4616461C2186
:103DA0006846FCF710FA2F480025002C0560456096
:103DB00055D08146E7B3CDE900470295D9E9021213
:103DC000D9F810000491CDE9052009F10800FFF7AA
:103DD000D0FF5FEA00082BD000986F4608B1029828
:103DE00008B100270BE00198042808D903221EA17E
:103DF0000098FCF711FA10B90298C01C02903846DE
:103E0000FFF787FE0146404600F096FB68B1BAF125
:103E1000000F13D06846FFF77CFEDDE90101814207
:103E200003D202990098405C40B14046FFF77AFF08
:103E3000DDE9011088420AD205460BE01EB1029965
:103E4000009808443060404608B0BDE8F087081E7E
:103E500000D0451E0EB160193060C9E90045002050
:103E6000F2E7000000000020EFBBBF0070B5154670
:103E70000E46040009D0FCF7B1F9411C2B4632462E
:103E80002046BDE87040FFF783BF002070BD0000F2
:103E9000014A012100F0CEBB080000200149496819
:103EA000084700000800002070B50E4605000DD040
:103EB000FCF794F9401C316804468847060005D099
:103EC00022462946FCF766F9304670BD002070BDD9
:103ED0002DE9F0479846894623F0004621F0004737
:103EE0000546144633463946FCF754FC02D22846B0
:103EF000394601E0204631466FF03302FCF7FBFB08
:103F000006460F462246434628464946FCF7EDFB47
:103F100021F0004132463B46FCF724FC02D8012048
:103F2000BDE8F0870020FBE72DE9F04104001CD03C
:103F30002268D2B1636813B1A068984215D24FF0DD
:103F40000046B14211D2A568491C6818834202D3C9
:103F50005019BDE8F081216939B9B0F1804F06D31D
:103F6000B04202D26FF0004702E00020F1E74700C4
:103F7000236A00262BB1394610469847050012D017
:103F80000CE0A1693846884705000CD0A26821687A
:103F9000521CFCF7FFF8E16920688847C4E9005724
:103FA000A0682844D5E7E1692068884766602660F4
:103FB000DBE7000013B540F6FF73012269460248B3
:103FC000FEF7FCFB00981CBD3C0500202DE9F041EC
:103FD0008846A8B3B8F1000F33D084680AB90AE064
:103FE00024686CB3216A59B34046FCF7FEF80028F8
:103FF000F6D120E024681CB3266A5FEA0805F9D0F0
:10400000002EF7D0B54218D002E098B16D1C761C96
:104010002878FCF7B9F807463078FCF7B5F88742FE
:104020002878F2D0FCF7B0F805463078FCF7ACF809
:104030008542DFD124B1206A10B12046BDE8F0816D
:10404000FFE70020FAE700002DE9F0410B3020F0F7
:104050000706104D19E02068B04215D3B0420AD9C6
:10406000871B201DD4F80480FCF794F8A019C0E940
:104070000078286004E060682860201DFCF78AF85A
:10408000201D2660BDE8F081251D2C68002CE2D1A2
:104090000020F7E73C000020FDF764FCFEF7E4FC9D
:1040A000FEF7F2FBFEF7DAFBFEF7A0FCFEF7BAFC28
:1040B000FEF750FCC82213491348FEF729F94FF4C4
:1040C0007A754FF6FF746E001048FFF73BFD0F48FE
:1040D000FCF784F882B223460C490B48FEF76EFBCE
:1040E0000A48FCF77BF882B2234608490848FEF7E5
:1040F00065FB29460548FCF766F83046FDF710FBDE
:10410000E2E7000074040020840500204400002041
:104110003C0500202DE9F04107460025C8680C4603
:104120002E46B0F57A7F5BD2401CE0602168A06823
:10413000095C5B2954D1401CA0602046FFF7E9FCD4
:104140004CB1D4E90110884203D22268125C5D2A86
:1041500033D0884203D3A068401EA06040E0401ED8
:1041600004F11008A0604046FFF703FE98B30DB3BA
:10417000306046600646A068401CA0602046FFF7FD
:10418000C8FC2146304600F0D7F930B32046FFF78F
:10419000C0FC14B3D4E90110884203D22168095C41
:1041A0002C29E0D06268904217D22168085C5D2813
:1041B00013D102E005462E46DDE7E068401EE060D0
:1041C00005B16E602020C7E90250A068401CA060C5
:1041D0000120BDE8F081FFE715B12846FFF7A2FDF9
:1041E0000020F6E7034610B500200246995CA1F1D5
:1041F0003004092C01D830380AE0A1F14104052C23
:1042000001D8373804E0A1F16104052C08D85738EB
:104210000844032A00D20001521C042AE6D310BD30
:10422000002010BD2DE9F04192B04FF00005064688
:104230000C004FF02E03284610953CD02168D1B3D6
:104240006A4627E027683944415C34291BD00ADCE0
:10425000A1F12B07092F23D2DFE807F0152215174C
:1042600022151515150038290DD006DC35290AD080
:10427000362908D0372913D105E0392903D045293B
:1042800001D065290CD1115400E01354401C3F2883
:1042900006D22CB1A168D4F804C00F186745D1D359
:1042A0001554904610A9104600F09AFC0F4610993C
:1042B0000546884503D1002012B0BDE8F081C6E96B
:1042C0000657114A114B28463946FCF763FA02D8C3
:1042D0006FF000400DE000220D4B28463946FCF7F8
:1042E00041FA02D84FF0004003E028463946FCF777
:1042F00019FA70610820F060109AA168A2EB08001A
:104300000844A0600120D7E70000C0FFFFFFDF41A5
:104310000000E0C12DE9F04107460026C8680C46C0
:104320003546B0F57A7F78D2401CE060002C74D01E
:10433000D4E90110884270D22168095C7B296CD1D4
:10434000401CA0602046FFF7E4FBD4E9011088423E
:1043500003D22268125C7D2A4CD08842A0F1010071
:10436000A0605AD204F110084046FFF702FDE8B3FE
:10437000F6B1286045600546A068401CA060204654
:10438000FFF7C7FB2146284600F04AF878B32046DD
:10439000FFF7BFFB28692862002028613CB3D4E9FD
:1043A0000110884236D22168095C3A2932D102E0F4
:1043B00006463546E0E7401CA0602046FFF7A9FB13
:1043C0002146284600F0B8F888B12046FFF7A1FB47
:1043D000D4E90110884203D22168095C2C29C3D09A
:1043E0006268904216D22168085C01E011E011E099
:1043F0007D280FD1E068401EE06006B17560402066
:10440000C7E90260A068401CA0600120BDE8F081FF
:1044100003E016B13046FFF785FC0020F6E7000008
:104420002DE9F84380460E46086889684FF0000978
:104430004318CDF80090415C5D1C5C1C222975D1AD
:104440000022716809E000BFBCF15C0F04D17F1C41
:104450008F426BD2521C641C641C271A8F4204D2F8
:1044600094F800C0BCF1220FEED1201A88425DD230
:10447000207822285AD1E01A801A3169401C8847D6
:10448000070053D000973DE029785C2905D00098BB
:104490006D1C00F8011B009034E00221601B012814
:1044A00040DB6878662814D008DC22281DD02F282D
:1044B0001BD05C2819D0622834D108E06E280ED0B9
:1044C00072280ED074280ED075282BD112E0082245
:1044D00000E00C22009800F8012B009011E00A2265
:1044E000F8E70D22F6E70922F4E7009A02F8010B3B
:1044F000009206E06A462146284600F08DFB010046
:1045000010D00D44A542BFD3009981F8009010212E
:10451000C8E903173068201A401CB0600120BDE8CC
:10452000F88303E017B171693846884715B13068E0
:10453000281AB0600020F2E770B50C0005465ED086
:10454000206800285BD0A16863680A1D9A4205D8DC
:104550000844042231A1FBF75FFE78B3A0686268CB
:10456000411D0126914206D82168052208442DA14B
:10457000FBF752FE28B3A0686268011D914206D87D
:1045800021680422084429A1FBF746FEE8B1D4E9DA
:104590000101814203D22268525C222A1DD081424D
:1045A00021D22268525C2D2A02D0303A092A1AD828
:1045B00021462846BDE87040FFF734BE0420E8607D
:1045C00006E0EE60A068401D04E002206E61E86035
:1045D000A068001DA060012070BD21462846BDE8EE
:1045E0007040FFF71DBF814203D22268525C5B2AF4
:1045F00007D0814203D22068405C7B2807D000208E
:1046000070BD21462846BDE87040FFF783BD2146B6
:104610002846BDE87040FFF77DBE00006E756C6CEB
:104620000000000066616C736500000074727565BF
:1046300000000000F0B589B00E460746144624215C
:104640006846FBF7C0FD4FF480752168284688470F
:104650000596CDE9000594E8070006AB83E807005E
:10466000009888B36946384600F01CFA40B36846A3
:1046700000F0C4FAA26800263AB102990098491CD9
:10468000904705001CD0009617E002982168401C56
:104690008847050014D0DDE90110401C814201D299
:1046A0000A4601E0029A521C28460099FBF772FD67
:1046B00002982E54616800988847284609B0F0BDDA
:1046C000009808B1616888470020F7E72DE9F041BC
:1046D00085680C000FD001212046FFF725FC00283B
:1046E0000AD05B210170A068401CA060E068401CFB
:1046F0000026E06025E00020BDE8F0812146284644
:1047000000F0D0F90028F7D0204600F077FA2868AA
:10471000B0B1606908B1022700E00127791C20468A
:10472000FFF702FC0028E7D02C2100F8011B61698B
:1047300011B1202100F8011B0670A0683844A06068
:104740002D68002DDAD102212046FFF7EDFB00286D
:10475000D2D05D2101704670E068401EE06001200B
:10476000CAE700002DE9F047D0E906548AB0884630
:1047700000271C216846FBF726FD0020CDE9080034
:104780004FF02E09B8F1000F35D00DB1012000E037
:1047900000202043274920F00040081AC00F4FF0A6
:1047A000000A13D14800B0EB440F00D175B12A467E
:1047B000234621A16846FEF77FFC064608AA20A1F1
:1047C0006846FBF739FD01280CD104E01DA16846BD
:1047D000FEF772FC0CE0DDE908012A462346FFF7EC
:1047E00077FB30B92A46234618A16846FEF764FCD9
:1047F00006461A2E03D300200AB0BDE8F087711CCC
:104800004046FFF791FB0028F6D069462E2306E0CC
:10481000CA5D4A4501D1C35500E0C2557F1CB7426D
:10482000F6D300F807A0D8F8080081190120C8F8CD
:104830000810E1E70000F07F25312E3135670000D8
:10484000256C67006E756C6C0000000025312E3100
:10485000376700002DE9F04785680C0003D06069D8
:1048600020B1022603E00020BDE8F0870126711C7C
:104870002046FFF759FB0028F6D07B2100F8011BEA
:10488000E168491CE16061690A2701B10770A0680D
:104890004FF0000830440926A06059E088B1204656
:1048A000E168FFF741FB0028DED0002103E000BFF4
:1048B00000F8016B491CE2688A42F9D8A0681044EC
:1048C000A0602146286A00F065F80028CCD0204678
:1048D00000F094F9606908B1022000E001208146EF
:1048E00001462046FFF720FB0028BDD03A2100F802
:1048F000011B616901B10670A16801EB0900A060AC
:104900002146284600F0CEF80028ADD0204600F021
:1049100075F9606900B10120296801B1012100EB3E
:10492000010909F101012046FFF7FEFA00289BD09A
:10493000296811B12C2100F8011B616909B100F847
:10494000017B80F80080A16801EB0900A0602D6860
:104950006069002DA2D110B1E168491C00E002217C
:104960002046FFF7E1FA002886D0616949B10021AD
:1049700003E000BF00F8016B491CE268521E8A4246
:10498000F8D87D21017080F80180E068401EE06069
:10499000012069E72DE9F0470A0005464FF00006BF
:1049A00001D01DB120E00020BDE8F08703211046B2
:1049B000FFF7BAFA0028F7D037A1FBF724FC5AE03A
:1049C0000C2927D006DC082924D0092922D00A295D
:1049D00006D11FE00D291DD022291BD05C2919D03A
:1049E000202900D2761D401C01780029E8D1401B07
:1049F0008719F91C1046FFF797FA041ED4D04FF020
:104A000022084FF0000984F800802EB1661C4FF098
:104A10005C0A28E0761CE6E73A462946601CFBF76C
:104A2000B9FB23E01F2803D9222801D05C2830D10C
:104A300006F801AB2A7850460C2A23D006DC082A57
:104A40001ED0092A24D00A2A06D11DE00D2A1DD025
:104A5000222A12D05C2A1CD010A13046FEF72CFB73
:104A6000361D6D1C761C28780028DBD1E01980F8F3
:104A7000018080F80290012096E786F80080F0E738
:104A8000622006E0662004E06E2002E0722000E072
:104A900074203070E5E700002222000075253034D4
:104AA0007800000070B504000E4613D096B1207B4C
:104AB000102843D008DC012816D002281ED0042874
:104AC0000AD0082806D121E020283CD040283FD039
:104AD000802820D0002070BD05213046FFF724FA41
:104AE0000028F8D01DA106E006213046FFF71CFA89
:104AF0000028F0D01BA1FBF786FB1DE00521304606
:104B0000FFF712FA0028E6D018A1F4E72046BDE826
:104B10007040FFF727BE20690028DCD0FBF75EFB62
:104B2000401C054601463046FFF7FEF90028D2D06A
:104B30002A462169FBF72EFB012070BD2069BDE8E4
:104B40007040FFF727BF2046BDE87040FFF7BEBDAD
:104B50002046BDE87040FFF77DBE00006E756C6CAE
:104B60000000000066616C7365000000747275657A
:104B7000000000002DE9F04704008A4616D054F8E2
:104B8000047CD4F800903E1F564500D95646204676
:104B9000FEF7B6FA05468846324621465046FFF7EC
:104BA00053FA40B1C0F80090BDE8F087BDE8F04787
:104BB0000846FEF7D3BA44E9017955B129686A1865
:104BC000211F8A4202D9611B091F2960C5F8048090
:104BD000EAE7024AC2F80080E6E700003C00002055
:104BE00000B583B00A460021CDE9001101466846B0
:104BF000FBF79FFEDDE9000103B000BD10B5040026
:104C000009D02068002806D0A1680844FBF7E6FA1E
:104C1000A1680844A06010BD2DE9F04705460027B3
:104C2000481B1646894606285DDBA81CFFF7DAFA02
:104C30000446A0F55C414FF48060814253D3A4F553
:104C40005841824651451AD2A81DA9EB00014FF0E8
:104C50000C08062947DB01785C2944D14178752985
:104C600041D1801CFFF7BEFAA0F55C4151453AD214
:104C7000C4F3090161F39F2000F5803002E04FF09A
:104C800006082046802801D2012110E0B0F5006F0F
:104C900002D20221C0270AE0B0F5803F02D20321F0
:104CA000E02704E0B0F5881F1DD20421F0274A1E3A
:104CB00008E000BF00F0BF03346843F080038009C0
:104CC000A354521E12F0FF02F4D1012901D9384336
:104CD00001E000F07F0032681070306808443060F6
:104CE0004046BDE8F0870020FBE70102020304050F
:104CF000060708090A0B0C0D0E0F1010000000002B
:104D0000000000000102030406070809000000007B
:104D100001020304DDDDDDDDDCBBBBDDDDDDDDDD72
:104D2000DDDDDDDD988888888888888877777777E3
:104D300077888888855555566666666666666666AF
:104D4000666888888333333222222222222222225A
:104D50002228888D744D00080000002044000000C7
:104D6000AC310008B84D000844000020CC1D000004
:104D7000BC31000800000000000000005D310008A8
:104D800001310008754B0008323232313534313090
:104D90003131323700000000000000000100000047
:104DA00010000000000000000024F40000000000DB
:084DB0000000000000000000FB
:0400000508000131BD
:00000001FF
