:020000040800F2
:10000000900A002089010008630F00085F0F0008B4
:10001000610F0008690D00089D2100080000000024
:10002000000000000000000000000000951500081E
:100030006B0D000800000000AD1400082117000837
:10004000A3010008A3010008A3010008A301000800
:10005000A3010008A3010008A3010008A3010008F0
:10006000A3010008A3010008A3010008A3010008E0
:10007000A3010008A3010008A3010008A3010008D0
:10008000A3010008A3010008A3010008A3010008C0
:10009000A3010008A3010008A3010008A3010008B0
:1000A000A3010008A3010008A3010008A3010008A0
:1000B000A301000875170008A3010008A3010008A8
:1000C000A3010008A3010008A3010008A301000880
:1000D000A3010008591B0008A3010008C91D00085E
:1000E000A3010008A3010008A301000800F002F822
:1000F00000F03AF80AA090E8000C82448344AAF188
:100100000107DA4501D100F02FF8AFF2090EBAE885
:100110000F0013F0010F18BFFB1A43F0010318473B
:100120000043000020430000103A24BF78C878C183
:10013000FAD8520724BF30C830C144BF04680C60ED
:10014000704700000023002400250026103A28BF35
:1001500078C1FBD8520728BF30C148BF0B60704739
:100160001FB51FBD10B510BD00F036F81146FFF7E2
:10017000F7FF02F02DF800F054F803B4FFF7F2FF98
:1001800003BC00F057F800000948804709480047C1
:10019000FEE7FEE7FEE7FEE7FEE7FEE7FEE7FEE737
:1001A000FEE7FEE704480549054A064B7047000094
:1001B00025170008ED00000890040020900A002098
:1001C000900600209006002070477047704700009E
:1001D00000487047300400207546FFF7F9FFAE462F
:1001E00005006946534620F00700854618B020B543
:1001F000FFF7D8FFBDE820404FF000064FF00007A2
:100200004FF000084FF0000B21F00701AC46ACE8BE
:10021000C009ACE8C009ACE8C009ACE8C0098D462B
:10022000704710B50446AFF300802046BDE810408B
:10023000FFF7A3BF01491820ABBEFEE7260002006E
:100240007047000070B51A4801F0DAF9194801F05A
:10025000EFF9502000F08AFD174801F09DF9174E84
:10026000174D20E0002428880D280AD1204602F0EE
:100270005FF901F0A9F9308800F078FD641C2D2C9D
:10028000F1DD2D2428880D280AD1204602F050F9EE
:1002900001F09AF9308800F069FD641E002CF1DC51
:1002A00028880D2802D128880D28DBD070BD0000D9
:1002B0000000A041000034420000B44226000020AB
:1002C000220000202DE9F0471C4C1D4F1D4EA08838
:1002D0001D4DDFF878904FF00C08002817D03846F5
:1002E00001F08EF9304601F06FF9288800F03EFDEC
:1002F000384601F09DF9304601F04EF9288800F0AB
:1003000035FDA9F800800020A080BDE8F0873846C0
:1003100001F08EF9304601F03FF9288800F026FD03
:10032000384601F06DF9304601F04EF9288800F0AA
:100330001DFDA9F800800120A080E6E72A0000202A
:1003400000000C4200000C4324000020220000208A
:100350002DE9F0471D4C1E4F1E4E60881E4DDFF8E4
:100360007C904FF00208002818D0384601F02CF994
:10037000304601F045F9288800F0F8FC384601F0D5
:100380000BF9304601F054F92888503000F0EEFCAB
:10039000A9F8008000206080BDE8F087384601F0B1
:1003A000FBF8304601F044F9288800F0DFFC3846BD
:1003B00001F00AF9304601F023F92888503000F0A6
:1003C000D5FCA9F8008001206080E5E72A00002024
:1003D00000000C4300000C422400002022000020FA
:1003E0002DE9F05FDFF8AC80DFF8AC902B4EDFF842
:1003F000B0B02C4D2C4F4FF0020A2C4C44E004209E
:10040000288032E0404601F0DFF8484601F0F8F875
:10041000308800F0ABFC208806282DD1404601F042
:10042000BBF8484601F004F9308800F09FFC2088B2
:10043000062821D1584601F0C7F8584601F0E0F8E7
:10044000308800F093FC2088062815D1584601F02A
:10045000A3F8584601F0ECF8308800F087FC2088BB
:10046000062809D12888401E288028883988084312
:1004700002D020880628C5D03888012804D02088DA
:10048000062801D1A4F800A020880628B7D0BDE82E
:10049000F09F0000000034420000074324000020C9
:1004A0000000B4422A00002020000020220000208A
:1004B0002DE9F047012003244F4E504FDFF84081D3
:1004C000DFF8409193E0304601F066F8384601F0DD
:1004D0007BF83C2000F04AFC404601F0A9F85A2580
:1004E000B9F800000F281CD1284602F021F801F0CD
:1004F00087F8062000F03AFC6D1CB42DF0DB10E00C
:10050000B425B9F800000F280AD1284602F010F8E7
:1005100001F076F80F2000F029FC6D1E962DF0DC1E
:10052000641E1CB1B9F800000F28E9D0B9F800002A
:100530000F285FD1642000F019FC304601F02CF840
:10054000304601F041F8B9F800000F2852D1502090
:1005500000F00CFC304601F053F8304601F068F82A
:10056000642000F003FCB9F800000F2842D10324F6
:10057000304601F029F8384601F00EF8B9F80000CD
:100580000F2837D13C2000F0F1FB404601F038F84D
:100590005A25B9F800000F281CD1284601F0C8FFE1
:1005A00001F046F8062000F0E1FB6D1CB42DF0DBF5
:1005B00010E0B425B9F800000F280AD1284601F050
:1005C000B7FF01F035F80F2000F0D0FB6D1E962D1F
:1005D000F0DC641E1CB1B9F800000F28E9D0B9F8AE
:1005E00000000F2802D10220A9F8000000200028F6
:1005F0007FF469AFBDE8F0870000B4420000A0417D
:100600000000DC42220000202DE9F05FDFF8AC8022
:10061000DFF8AC902B4EDFF8B0B02C4D2C4F4FF0E4
:10062000020A2C4C44E00420288032E0404600F0CE
:10063000B3FF484600F0FCFF308800F097FB2088AD
:1006400007282DD1404600F0BFFF484600F0D8FFF4
:10065000308800F08BFB2088072821D1584600F015
:100660009BFF584600F0E4FF308800F07FFB2088B5
:10067000072815D1584600F0A7FF584600F0C0FFE4
:10068000308800F073FB2088072809D12888401E95
:10069000288028883988084302D020880728C5D0B8
:1006A0003888012804D02088072801D1A4F800A0A8
:1006B00020880728B7D0BDE8F09F00000000344232
:1006C00000000743240000200000B4422A0000205C
:1006D00020000020220000202DE9F0411F4E204D77
:1006E00036E01E24204601F03BFF074600F054FF91
:1006F000384600F069FF384600F082FF384600F0C7
:1007000097FF308800F032FB2888082803D1641C4A
:10071000E4B2962CE6D39624204601F021FF07464A
:1007200000F03AFF384600F04FFF384600F068FF0F
:10073000384600F07DFF308800F018FB2888082834
:1007400003D1641EE4B21E2CE6D82888082802D102
:1007500028880828C5D0BDE8F081000026000020C8
:100760002200002070B53C2000F000FB164E174D13
:1007700022E01E24204601F0F3FE01F011FD308836
:1007800000F0F4FA2888092803D1641CE4B2962CFE
:10079000F0D39624204601F0E3FE01F001FD3088FD
:1007A00000F0E4FA2888092803D1641EE4B21E2C64
:1007B000F0D82888092802D128880928D9D0BDE88E
:1007C0007040642000F0D2BA2600002022000020F1
:1007D0002DE9F05FDFF81081DFF81091444D454EB0
:1007E000454FDFF818A14FF0020B454C76E0A7F813
:1007F00000B062E0404600F0E7FE404600F000FF37
:10080000288800F0B3FA208804285ED1484600F01A
:10081000C3FE484600F00CFF288800F0A7FA2088A5
:10082000042852D1304600F0CFFE304600F0E8FEFA
:10083000288800F09BFA2088042846D1304600F032
:10084000ABFE304600F0F4FE288800F08FFA2088D6
:1008500004283AD1404600F09FFE404600F0E8FEF2
:10086000288800F083FA208804282ED1484600F01A
:10087000ABFE484600F0C4FE288800F077FA2088D6
:10088000042822D1304600F087FE304600F0D0FE2A
:10089000288800F06BFA2088042816D1304600F032
:1008A00093FE304600F0ACFE288800F05FFA208806
:1008B00004280AD13888401E38803888BAF80010D9
:1008C000084302D02088042894D0BAF800000128F8
:1008D00004D02088042801D1A4F800B0208804287E
:1008E00085D0BDE8F09F00000000344200000743BF
:1008F000240000200000B4422A0000202000002034
:10090000220000202DE9F05FDFF81081DFF8109160
:10091000444D454E454FDFF818A14FF0020B454CB2
:1009200076E0A7F800B062E0404600F04DFE404699
:1009300000F066FE288800F019FA208805285ED1AC
:10094000484600F029FE484600F072FE288800F074
:100950000DFA2088052852D1304600F035FE304689
:1009600000F04EFE288800F001FA2088052846D1C4
:10097000304600F011FE304600F05AFE288800F0A4
:10098000F5F9208805283AD1404600F005FE40469A
:1009900000F04EFE288800F0E9F9208805282ED1C5
:1009A000484600F011FE484600F02AFE288800F074
:1009B000DDF92088052822D1304600F0EDFD3046D3
:1009C00000F036FE288800F0D1F92088052816D1DD
:1009D000304600F0F9FD304600F012FE288800F0A5
:1009E000C5F9208805280AD13888401E3880388803
:1009F000BAF80010084302D02088052894D0BAF82D
:100A00000000012804D02088052801D1A4F800B0F6
:100A10002088052885D0BDE8F09F0000000007432E
:100A200000003442240000200000B4422A000020CC
:100A3000200000202200002010B50C4C204600F0C1
:100A4000ABFD204600F0C0FD502000F08FF920469D
:100A500000F0D6FD204600F0EBFD054800780128A7
:100A600002D104490920088010BD00000000A04107
:100A70001A0000202200002010B5094C204600F08A
:100A80008BFD204600F0A0FD502000F06FF9054CD2
:100A9000204600F0B5FD2046BDE8104000F0C8BD7E
:100AA0000000A0410000204310B50C4C204600F08F
:100AB00073FD204600F088FD502000F057F9084CE7
:100AC000204600F09DFD204600F0B2FD054800786C
:100AD000012802D104490920088010BD0000B44259
:100AE0000000A0411A0000202200002070B52E4C0A
:100AF000204600F085FD204600F09AFD502000F0D1
:100B000035F95A24294D204601F012FD064600F021
:100B100043FD304600F058FD28880E2805D10F20EF
:100B200000F024F9641E0A2CEDDC0A24204601F0B2
:100B3000FFFC064600F030FD304600F045FD2888F9
:100B40000E2805D10F2000F011F9641C5A2CEDDBA2
:100B50005A24204601F0ECFC064600F051FD3046D8
:100B600000F066FD28880E2805D10F2000F0FEF861
:100B7000641CAA2CEDDBAA24204601F0D9FC064611
:100B800000F03EFD304600F053FD28880E2805D1C8
:100B90000F2000F0EBF8641E5A2CEDDC28880E289C
:100BA00001D10F20288070BD0000B4422200002037
:100BB00010B50C4C204600F0EFFC204600F004FD80
:100BC000502000F0D3F8204600F01AFD204600F037
:100BD0002FFD05480078012802D10449092008802A
:100BE00010BD00000000B4421A00002022000020C6
:100BF00010B50C4C204600F003FD204600F018FD17
:100C0000502000F0B3F8204600F0C6FC204600F06B
:100C1000DBFC05480078012802D10449092008803E
:100C200010BD00000000B4421A0000202200002085
:100C30002DE9F04186B00121042000F047FC01219C
:100C4000880300F043FC0121082000F03FFC012153
:100C5000880400F02DFC18278DF817704FF40070F1
:100C6000ADF8140003248DF81640DFF8EC8005A9D8
:100C7000404600F01BF948268DF817604FF4806558
:100C8000ADF814508DF8164005A9404600F00EF955
:100C90008DF81770ADF814508DF816402F4D05A93A
:100CA000284600F003F98DF81760E914ADF8141028
:100CB0008DF8164005A9284600F0F8F84FF41650B4
:100CC00001900020ADF810000C21ADF80E10ADF829
:100CD0000C00ADF80A00ADF80800214D01A9284626
:100CE00001F0FAF91F4E01A9304601F0F5F940F282
:100CF000255401222146284601F0D2F9012221463D
:100D0000304601F0CDF94FF4A06000F05DF92520E8
:100D10008DF8000001248DF803408DF801408DF816
:100D20000240684600F01EF927208DF800008DF87B
:100D3000034002208DF801008DF80240684600F063
:100D400011F90121284601F07FF90121304601F017
:100D50007BF906B0BDE8F08100080140000C0140BD
:100D60000038014000480040FEE7704700B50246E9
:100D70004FF47A7302E0184600F004F8521E501C3B
:100D8000F9D100BD00EBC000C1004FF0E02041618F
:100D900000218161052101610169C903FCD504219C
:100DA0000161704708B539480088002819D001282A
:100DB00025D0022831D003283DD0042849D0052869
:100DC00055D0062861D100F009F931480021009082
:100DD00040238022084600F009FABDE8084000F0F0
:100DE0005FBA00F0FBF82B480021009040238022DE
:100DF000084600F0FBF9BDE8084000F051BA00F0E9
:100E0000EDF825480021009040238022084600F09C
:100E1000EDF9BDE8084000F043BA00F0DFF81F48E4
:100E20000021009040238022084600F0DFF9BDE851
:100E3000084000F035BA00F0D1F8194800210090C0
:100E400040238022084600F0D1F9BDE8084000F0B8
:100E500027BA00F0C3F813480021009040238022F5
:100E6000084600F0C3F9BDE8084000F019BA00F0E8
:100E7000B5F80D480021009040238022084600F07C
:100E8000B5F9BDE8084000F00BBA08BD2800002005
:100E90001E2800081E3800081E3C00081E300008EE
:100EA0001E3400081E4000081E2C00082DE9F041E9
:100EB0000022CC7804F00F03E40601D58C7823439C
:100EC0000C784FF00F0714F0FF0F4FF0010C1CD0FF
:100ED00005680CFA02F40E882640A64211D196004D
:100EE00007FA06F825EA080503FA06F848EA0505B0
:100EF000CE78282E02D0482E02D002E0446100E0D5
:100F00000461521C082AE4D305600A88FF2A1ED90E
:100F10004568002202F108060CFA06F40E88264005
:100F2000A64210D1960007FA06F825EA080503FA4A
:100F300006F848EA0505CE78282E00D14461CE781F
:100F4000482E00D10461521C082AE3D34560BDE855
:100F5000F081002A01D00161704741617047FEE7CE
:100F6000FEE7704770B50F23C27801260178002A8A
:100F70001ED0144A126802F4E062C2F5E062120A5E
:100F8000C2F10404D3404578A54082781A402A4330
:100F9000120101F1E02181F80024007800F01F0126
:100FA0008E404009800000F1E020C0F8006170BD73
:100FB00001F01F0086404809800000F1E020C0F8E1
:100FC000806170BD0CED00E00249084302490860F1
:100FD000704700000000FA050CED00E010B500219C
:100FE000074C0022002004EBC1131A54401CC0B26D
:100FF0008028FAD3491CC9B20829F3D310BD0000D8
:10100000300000202DE9F041CF1823E00446861877
:101010001CE07F2C18D8002916DB3F2914DCCB17E5
:1010200001EB5373DD104FEAC51C0C4D23F0070391
:101030006544A1EB030815F804C0012303FA08F383
:101040002CEA030C05F804C0641C24B2A642E0DCC0
:10105000491C09B28F42D9DCBDE8F0813000002084
:1010600038B500214FF47A720020401C9042FCD326
:10107000491C9142F8D30121082000F027FA1420DE
:101080008DF8030003208DF802004FF48070ADF856
:101090000000094C69462046FFF708FF6115ADF8CE
:1010A000001069462046FFF701FF012000F00CF90F
:1010B000012000F011F938BD000C014070B5054663
:1010C0000024802626FA04F0284000D0012000F0F9
:1010D00003F9012000F0F8F8002000F0F5F8641C96
:1010E000E4B2082CEED3012000F0EEF8BDE8704029
:1010F000002000F0E9B810B5012000F0EDF8012063
:1011000000F0E2F8002000F0E7F8BDE81040002011
:1011100000F0DAB810B5002000F0DEF8012000F091
:10112000D3F8BDE81040012000F0D6B810B5FFF7A5
:1011300097FFAE2000F0D8F8D52000F0D5F8802039
:1011400000F0D2F8A82000F0CFF83F2000F0CCF853
:10115000D32000F0C9F8002000F0C6F8402000F0CD
:10116000C3F8A12000F0C0F8C82000F0BDF8DA20D4
:1011700000F0BAF8122000F0B7F8812000F0B4F8BF
:10118000CF2000F0B1F8D92000F0AEF8F12000F047
:10119000ABF8DB2000F0A8F8302000F0A5F8A42080
:1011A00000F0A2F8A62000F09FF88D2000F09CF837
:1011B000142000F099F8AF2000F096F8FFF70EFF2A
:1011C000BDE8104000F06CB810B5891CCCB240F0FE
:1011D000B00000F089F8102040EA141000F084F804
:1011E00004F00F00BDE8104000F07EB82DE9FF4F7D
:1011F0000F46DDF8349090461D4600242B464246AB
:1012000039460098FFF7FEFE6D1EE81705EB50709B
:101210000121DFF888C001EBE00A3BE0002035E067
:1012200000990D187F2D2FD8F91707EB5171CA10AF
:1012300016B221F007017B1A002F03DA761E36B2B0
:1012400008331BB2311907290DD804FB08FB09EB41
:10125000000E0CEBC1121BF80EB0565D0BFA03FB2F
:1012600046EA0B065655491C07290DD804FB08F61B
:1012700009EB000B0CEBC11116F80B604A5DC3F1D2
:101280000803DE4032434A55401CC0B24045C7D334
:10129000641CE4B2A245C1DCBDE8FF8F3000002031
:1012A00070B50024074D00212046FFF78DFF05EBA8
:1012B000C410802100F029F8641CE4B2082CF2D399
:1012C00070BD00003000002002464FF480710148DC
:1012D000FFF73FBE000C014002464FF40071014889
:1012E000FFF737BE000C014010B50446FFF703FFBF
:1012F0007820FFF7E3FE0020FFF7E0FE2046FFF72F
:10130000DDFEBDE81040FFF705BF70B505460E468F
:10131000FFF7F1FE7820FFF7D1FE4020FFF7CEFE69
:10132000002404E0285DFFF7C9FE641CE4B2B44267
:10133000F8D3BDE87040FFF7EDBE0000F0B589B00E
:101340000121084600F0B4F80121022000F0B0F8B5
:101350000121042000F0BAF80121082000F0B6F8BD
:1013600018258DF823504F20ADF8200003248DF868
:10137000224008A93748FFF799FD8DF82350ADF8B2
:1013800020408DF8224008A93348FFF78FFD4FF029
:101390008046304600F07BFA304F384600F077FA4E
:1013A0000024ADF81A40ADF8164044F61F60ADF8C1
:1013B00018004720ADF814008DF81C4005A93046F0
:1013C00000F07CFB05A9384600F078FB1D208DF865
:1013D000100001258DF813508DF811408DF8124042
:1013E00004A8FFF7BFFD01221146384600F045FA78
:1013F000684600F04FFB6020ADF80000ADF80840F3
:10140000ADF80250ADF806406946304600F044FAA7
:101410006946304600F084FA6946304600F0C4FA66
:101420006946304600F002FB6946384600F034FA5F
:101430006946384600F0B8FA6946384600F0F6FAD0
:101440000121304600F001FA0121384600F0FDF993
:1014500009B0F0BD00080140000C0140000400404C
:101460000146014800F024BB000400400146014849
:1014700000F020BB0004004001464FF0804000F027
:1014800013BB01464FF0804000F010BB01464FF007
:10149000804000F00DBB01464FF0804000F00ABBD9
:1014A0000146014800F000BB000400407047000006
:1014B000054A002903D0D1690143D1617047D16940
:1014C0008143D1617047000000100240054A0029A5
:1014D00003D09169014391617047916981439161A2
:1014E000704700000010024010B5264A516801F014
:1014F0000C01254B002927D0042927D0082927D003
:101500000360516801F0F0010909204B5C5C01683F
:10151000E1404160546804F4E064240A1C5D21FA4F
:1015200004F48460546804F46054E40A1B5DD940F8
:10153000C160526802F44042920B144B1B1F9A5C2C
:10154000B1FBF2F1016110BD0360DAE70360D8E797
:10155000516801F47011536803F48033022404EBE2
:10156000914133B153689B0307D5094B594301603F
:10157000C7E7074B59430160C3E7034B5943016079
:10158000BFE700000010024000127A0004000020B3
:1015900000093D007047000010B5084900F0E6FE64
:1015A000074900F0F1FF074900F07EFE00F0A0FFC0
:1015B000BDE8104080B2FFF75FBF00000000344379
:1015C0000000FA440000FA4310B50A4C214601F02D
:1015D000A7F8214600F0CAFE074900F0D5FF0749E9
:1015E00000F062FE00F084FFBDE8104080B2FFF71B
:1015F00048BF0000000034430000FA440000FA43F2
:1016000010B5084900F0B2FE074900F0BDFF0749D8
:1016100000F04AFE00F06CFFBDE8104080B2FFF71A
:1016200035BF0000000034430000FA440000FA43D4
:1016300010B50A4C214601F073F8214600F096FEE1
:10164000074900F0A1FF074900F02EFE00F050FF0F
:10165000BDE8104080B2FFF71EBF00000000344319
:101660000000FA440000FA43FFF768BEAFF30080C1
:101670000CB50022019200922748016841F48031A4
:1016800001604FF4A063016801F4003100910199F9
:10169000491C0191009911B901999942F3D101684E
:1016A000890302D50121009100E0009200990129EF
:1016B00030D11A490A6842F010020A600A6822F022
:1016C00003020A600A6842F002020A60416841604F
:1016D00041684160416841F480614160416821F4A2
:1016E0007C114160416841F4E8114160016841F0BA
:1016F0008071016001688901FCD5416821F0030116
:101700004160416841F0020141604168C1F38101DB
:101710000229FAD10CBD0000001002400020024056
:101720007047000010B50F48016841F001010160E9
:1017300041680D4A1140416001680C4A1140016046
:10174000016821F480210160416821F4FE014160BB
:101750004FF41F018160FFF789FF05494FF00060DA
:10176000086010BD001002400000FFF8FFFFF6FE09
:1017700008ED00E070B52F4C0121204600F071F813
:10178000012856D12C482D4944F6206500880128AF
:1017900001D10A8812B1012807D009E02846FFF7D5
:1017A0005FFE2846FFF762FE3DE00988012901D06F
:1017B00090B338E0224E3088012804D0022811D09E
:1017C00003281DD02FE0B088643080B2B080FFF7CE
:1017D00047FEB088FFF74AFEB088A84223D1022016
:1017E000308020E0B088643880B2B080FFF738FEE7
:1017F000B088FFF73BFEB088A8B90320308012E024
:10180000708800F57A7080B27080A8420BD10120F8
:1018100030800020708006E0FFE70020FFF720FE08
:101820000020FFF723FE2046BDE87040012100F0B4
:1018300009B870BD000400401C0000201E000020FC
:1018400014000020C94301827047002904D0018898
:1018500041F0010101807047018821F00101018000
:10186000704702460020138A0B4092890A40002BE1
:1018700002D0002A00D001207047002A03D08289BC
:101880000A438281704782898A4382817047018935
:1018900021F007010181704730B5028C22F001026E
:1018A0000284028C8388048B24F0700424F00305E6
:1018B0000C882C4322F002020D8915434A882A43E2
:1018C000124DA8420BD0124DA84208D0114DA8428B
:1018D00005D0114DA84202D0104DA8420FD122F0E0
:1018E00008054A892A4322F004058A882A4323F4FA
:1018F000807323F400738D891D43CB892B43838030
:101900000483C9888186028430BD0000002C014018
:1019100000340140004001400044014000480140C3
:1019200070B5028C22F010020284028C8388048B32
:1019300024F4E04424F440760D884FF6FF7404EA62
:101940000525354322F020020E8904EA06161643C7
:101950004A8804EA02123243114EB04202D0114EBC
:10196000B04217D122F080024E8904EA06161643CF
:1019700026F040068A8804EA0212324323F4806388
:1019800023F400638E8904EA86061E43CB8904EAA9
:101990008303334383800583C9880187028470BD34
:1019A000002C01400034014070B5028C22F480729A
:1019B0000284028C8388848B24F0700424F0030456
:1019C0000D88254322F400720E894FF6FF7404EA55
:1019D000062616434A8804EA02223243114EB042D8
:1019E00002D0114EB04217D122F400664A8904EAAF
:1019F0000222324322F480668A8804EA02223243B9
:101A000023F4805323F400538E8904EA06161E4300
:101A1000CB8904EA0313334383808583C988818794
:101A2000028470BD002C01400034014070B5028C6E
:101A300022F480520284058C8288838B23F4E04355
:101A400023F440760C884FF6FF7303EA04243443F2
:101A500025F400550E8903EA06362E434D8803EA25
:101A600005353543094EB04202D0094EB04205D18A
:101A700022F480468A8903EA821232438280848378
:101A8000C988A0F84010058470BD0000002C0140FA
:101A9000003401400021018041808180C1800181AA
:101AA00041818181C181704781867047018770477C
:101AB00081877047A0F840107047000030B5028859
:101AC0001B4C1C4DA0420DD0A8420BD0B0F1804F52
:101AD00008D0194B984205D0184B984202D0184BA9
:101AE000984203D122F070034A881A43154B98425A
:101AF00006D0154B984203D022F44073CA881A438B
:101B000002808A8882850A880285A0420AD0A8427B
:101B100008D00E4A904205D00D4A904202D00D4A9C
:101B2000904201D1097A01860121818230BD0000F5
:101B3000002C014000340140000400400008004037
:101B4000000C004000100040001400400040014024
:101B500000440140004801402DE9F05F40F225516A
:101B6000974800F07DFA01287CD1964C0027E78049
:101B7000934800F00FFB292878D0DFF844924846BC
:101B800000F008FB0126302875D0484600F002FB23
:101B900002254FF00508312872D0484600F0FAFAC5
:101BA0004FF0030B322874D0484600F0F3FA4FF0A0
:101BB000040A332873D0484600F0ECFA342874D075
:101BC000484600F0E7FA4FF00608352877D0484637
:101BD00000F0E0FA362878D0484600F0DBFA3728E3
:101BE00079D0484600F0D6FA38287ED0484600F032
:101BF000D1FA4FF00909392874D0DFF8C4A1504652
:101C000000F0C8FA40286ED0504600F0C3FA4128D0
:101C10006AD0504600F0BEFA422873D0504600F019
:101C2000B9FA43286FD0504600F0B4FA44286BD07C
:101C3000504600F0AFFA452867D0504600F0AAFAA7
:101C4000462876D0504600F0A5FA472872D0504674
:101C500000F0A0FA48286ED0504600F09BFA4928C0
:101C60006AD0A4E0AAE001E005E009E0E781FFF71F
:101C700099F827819BE0E681FFF794F8268196E0AA
:101C8000A4F80E80FFF78EF8258190E001E006E0D1
:101C90000BE0E681FFF786F8A4F808B087E0E5815D
:101CA000FFF780F8A4F808A081E0E581FFF77AF853
:101CB000A4F808807BE002E007E00CE015E0E58195
:101CC000FFF770F8A4F8088071E0E581FFF76AF883
:101CD000072020816BE0A4F80EA0FFF763F808202E
:101CE000208164E018E02FE039E06089782803D192
:101CF000A4F80EB0FFF756F86089642806D91438A6
:101D0000608154E031E036E03CE03DE0E581FFF702
:101D100049F8C82060814AE0A089042803D1A4F8CA
:101D20000EB0FFF73FF8A089032806D9401EA08116
:101D30003DE02BE02CE02DE033E0A4F80EA0FFF70F
:101D400031F8A4F80C9032E0207830B12770E681A9
:101D5000FFF728F8A4F8089029E02670F7E7E58156
:101D6000FFF720F80A20208121E0E581FFF71AF82B
:101D70000B2020811BE0A4F80E80FFF713F80D2044
:101D8000208114E0668012E0678010E0A6800EE0FB
:101D9000A7800CE0A4F80E80FFF704F80E20208145
:101DA00005E0A4F80E80FEF7FDFF0F202081BDE8BE
:101DB000F05F40F22551024800F03EB9BDE8F09FC7
:101DC000003801401A0000202DE9F05F40F2255153
:101DD000974800F045F901287CD1964C0126E68011
:101DE000934800F0D7F90027292877D0DFF84092F0
:101DF000484600F0CFF9302875D0484600F0CAF9BF
:101E000002254FF00508312872D0484600F0C2F98B
:101E10004FF0030B322874D0484600F0BBF94FF066
:101E2000040A332873D0484600F0B4F9342874D03B
:101E3000484600F0AFF94FF00608352877D04846FD
:101E400000F0A8F9362878D0484600F0A3F93728E2
:101E500079D0484600F09EF938287ED0484600F0F8
:101E600099F94FF00909392874D0DFF8C4A1504618
:101E700000F090F940286ED0504600F08BF94128D0
:101E80006AD0504600F086F9422873D0504600F0E0
:101E900081F943286FD0504600F07CF944286BD07C
:101EA000504600F077F9452867D0504600F072F9A7
:101EB000462876D0504600F06DF9472872D050463B
:101EC00000F068F948286ED0504600F063F94928C0
:101ED0006AD0A4E0AAE001E005E009E0E781FEF7AE
:101EE00061FF27819BE0E681FEF75CFF268196E09B
:101EF000A4F80E80FEF756FF258190E001E006E091
:101F00000BE0E681FEF74EFFA4F808B087E0E5811C
:101F1000FEF748FFA4F808A081E0E581FEF742FF44
:101F2000A4F808807BE002E007E00CE015E0E58122
:101F3000FEF738FFA4F8088071E0E581FEF732FF74
:101F4000072020816BE0A4F80EA0FEF72BFF0820ED
:101F5000208164E018E02FE039E06089782803D11F
:101F6000A4F80EB0FEF71EFF6089642806D9143865
:101F7000608154E031E036E03CE03DE0E581FEF791
:101F800011FFC82060814AE0A089042803D1A4F889
:101F90000EB0FEF707FFA089032806D9401EA081D6
:101FA0003DE02BE02CE02DE033E0A4F80EA0FEF79E
:101FB000F9FEA4F80C9032E0207830B12770E68169
:101FC000FEF7F0FEA4F8089029E02670F7E7E58117
:101FD000FEF7E8FE0A20208121E0E581FEF7E2FE1F
:101FE0000B2020811BE0A4F80E80FEF7DBFE0D2005
:101FF000208114E0668012E0678010E0A6800EE089
:10200000A7800CE0A4F80E80FEF7CCFE0E20208105
:1020100005E0A4F80E80FEF7C5FE0F202081BDE884
:10202000F05F40F22551024800F006B8BDE8F09F8D
:10203000004800401A00002040F66A120A0A0121F6
:102040009140C94301807047002904D0818941F43F
:10205000005181817047818921F40051818170474D
:1020600070B5002440F66A12C1F3421301F01F0557
:10207000012606FA05F2012B0CD0022B0DD0838A23
:102080001340090A8E40008830400BB100B1012492
:10209000204670BD83891340F3E7038A1340F0E7BD
:1020A00010B540F66A13C1F3421301F01F04012179
:1020B000A140012B07D0022B07D014303AB102689F
:1020C0000A43026010BD0C30F8E71030F6E70268F2
:1020D0008A43026010BD000030B585B004460D464D
:1020E000208A4CF6FF710840E98801432182A089CB
:1020F0004EF6F3110840A9882A8911436A890243E0
:102100001143A181A08A4FF6FF410840A9890143EC
:10211000A1826846FFF7E8F91D48844201D103987F
:1021200000E00298A189090408D500EBC00101EB89
:10213000001029684900B0FBF1F007E000EBC00196
:1021400001EB001029688900B0FBF1F06422B0FBBC
:10215000F2F109010B096FF018056B4300EB8300E6
:10216000A3891D044FF0320307D503EBC000B0FB79
:10217000F2F000F00700084306E003EB0010B0FBAC
:10218000F2F000F00F000843208105B030BD0000E0
:10219000003801408088C0F308007047FEE7000067
:1021A00010B5084900F0E2F8074900F0EDF90749D9
:1021B00000F07AF800F09CF9BDE8104080B2FFF71B
:1021C0006FB90000000034430000FA440000FA43F5
:1021D00008B5FFF749FAFEF7A9FFFEF729FD2F48DA
:1021E00000210090402380220846FEF7FFFFFFF702
:1021F00057F82B4C208800B3012824D0022825D082
:10220000032826D0042827D0052828D0062829D03E
:1022100007282AD008282BD009282CD00A282DD00E
:102220000B282ED00C282FD00D2830D00E2831D0DE
:102230000F28DFD1FEF73CF9DCE7FEF71DFC19485B
:10224000FFF7AEFFD6E7FEF72FFCD3E7FEF7B0FCB3
:10225000D0E7FEF7F1FBCDE7FEF7BAFACAE7FEF7E3
:1022600051FBC7E7FEF7BCF8C4E7FEF7CDF9C1E7BD
:10227000FEF732FABEE7FEF775FABBE7FEF768F83D
:10228000B8E7FEF71FF8B5E7FEF7B2FCB2E7FDF7D7
:10229000D9FFAFE7FEF72AFCACE700001E380008C4
:1022A000220000200000B44290EA010F48BF81F0F4
:1022B000004100F14682421A3CBF801A89184FEA59
:1022C000D0524FF07F4C1CEA410FA2EBD15318BF04
:1022D0009CEA026F00F03B804FF0004C4CEA00207B
:1022E0004CEA012121FA03FC10EB0C0C1ED202F186
:1022F000FF325FEA1C2040EBC25038BF70471CF031
:102300007F0F4FEA400C18BFBCF17F4F38BF7047BA
:10231000C3F12003994008BF20F00100BCF17F4FBA
:1023200038BF7047A0F1C04000F0F5B94FEA3C005B
:10233000000A40EBC25028BF1CF0FF0F4FEA400CD0
:10234000E6D018BFBCF17F4F38BF7047EAE79CEA80
:10235000026F05D010EA5C0F08BF00F00040704724
:1023600010B500F092F900BF64FBBE3E4FF47F0C45
:102370001CEAD0121EBF1CEAD11392EA0C0F93EA9A
:102380000C0F00F0858090EA010F48BF42F4807284
:1023900040F4000C41F400002CF07F4120F07F401D
:1023A00000B58142A2EB03020FF2081CACEB504EC9
:1023B000C0F100009EF800E04FEA4E0E00FB0EFC5C
:1023C00038BF49004FEA2C1C02F5FA020CFB0EF351
:1023D0004FEACE1E4FEA112C4FEAC1210EEB635E8D
:1023E00042EB22420EFB0CFC4FEA1C5300FB031194
:1023F0004FEA112C4FEA01310EFB0CFC4FEADC4C8A
:1024000000FB0C11C14228BF09184CEB03335DF8E7
:1024100004EB10EB410143EBC250B2F57C0F38BF27
:10242000704729D512F0F00F1CBF00F1C04000F03A
:1024300000407047008182838485868788898B8CE1
:102440008D8E8F919293959697999A9C9D9FA0A21D
:10245000A3A5A7A8AAACAEB0B2B3B5B7B9BCBEC06D
:10246000C2C5C7C9CCCED1D4D7D9DCDFE2E6E9EC0E
:10247000F0F3F7FAFE0000004FEA400C0CF1807C0C
:10248000BCF17E4F28BF7047B0F1C04000F043B9A7
:1024900090EA010F0CEAD11348BF42F48072624502
:1024A00038BF634507D213F47F0F16D080EA0100CE
:1024B00000F00040704710B500F0E7F8097EFC3EE0
:1024C00000F005B880EA010000F00040704780EAA3
:1024D000010000F0004000F01EB912F47F0F04BFAD
:1024E0000248704780EA010000F015B90000C07F83
:1024F000C10DD1F19E0206DB4FEA002343F00043F9
:1025000023FA02F07047004207D54FEA4001B1F1CB
:10251000FE4F02D24FF00000704710B500F0B5F842
:1025200049922480002070476FEA20007047000025
:1025300010F0004148BF4042B0FA80F310FA03F2B5
:10254000C3F19D030BD051EAC35101EB1220530696
:1025500038BF704700F1010008BF20F0010070474C
:10256000B0FA80F310FA03F2C3F19D030AD0D90543
:1025700001EB1220530638BF704700F1010008BF7D
:1025800020F00100704700004FF47F0C1CEAD012CD
:102590001EBF1CEAD11392EA0C0F93EA0C0F00F055
:1025A000478090EA010F48BF42F480724FF0004C20
:1025B0004CEA00204CEA012102EB0302A0FB0113CC
:1025C000A2F50002002918BF43F001035B0028BFF9
:1025D0004FEA330342EB22425FEA132C4CEBC2502A
:1025E0002EBFBCEB436FB2F57C0F70474FEA036C14
:1025F000BCF1004F08BF20F00100B2F57C0F38BFDE
:1026000070470BD582F0FF0212F5803FC8BF7047BC
:1026100000F1C040D8BF00F00040704700F5000C4A
:102620005FEA4C0C48BF7047B0F1C04000F073B88F
:1026300090EA010F0CEAD11348BF42F48072624560
:1026400038BF634504D280EA010000F000407047C3
:1026500010B500F01AF800BF8900013E00F007B87D
:1026600000F009B85FEA410C5FEA1C6C08D080EA10
:10267000010000F050B85FEA400C5FEA1C6CF6D134
:102680004FF00040A0F5800070470EF1020E2EF0D2
:10269000030E5EF8044B244204D44FEA4102B2F127
:1026A0007F4F11D84FEA4003B3F17F4F0CD80ED1C2
:1026B0004FEAD07CB2F17F4F0CEB4C0C0CF1020CCA
:1026C00008BF4CEBD17C04E04FF0080C01E04FEA6E
:1026D000D17C0CEB4C0324FA03F404F00704B4F1AE
:1026E000040C06D20EEB840CBDE810404CF0010C3B
:1026F0006047DFE80CF0070802024FF00040A0F549
:10270000800010BD0846420018BFD2F1807288BF19
:1027100000F0004010BDFF2141EAD050C0057047D5
:1027200080F0004090EA010F7FF5C5AD81F00041D7
:1027300000F007B890EA010F48BF81F000413FF573
:10274000BAAD421A04D882F00042A0EB0200114454
:102750004FEAD0524FF07F4C1CEA410FA2EBD1530D
:1027600018BF9CEA026F4AD04FF0004C4CEA0020A0
:102770004CEA012121FA03FCB0EB0C0C0FD412F04F
:10278000FE0F36D05FEA4C001DD5001240EBC25060
:1027900038BF70471CF03F0F18BF70470BE0A2F125
:1027A00001025FEA1C2040EBC25038BF70471CF0AA
:1027B0007F0F18BF7047C3F12003994014BF401E1C
:1027C00020F00100704780084FEA122308BF7047CD
:1027D000B0FA80FCA2EB0C02CCF1280C60FA0CF0F1
:1027E00093EA122F04BF00EBC25070474FEAC37048
:1027F0007047130A5FEADC1008BF7047F6E79CEAEF
:10280000026F04D010EA5C0F08BF0020704710B5BB
:10281000FFF73BFF40DFF63E81F0004070470000CD
:1028200000000000000000000000000000000000A8
:102830000000000000000000000000000000000098
:102840000000000000000000000000000000000088
:102850000000000000000000000000000000000078
:102860000000000000000000000000000000000068
:102870000000000000000000000000000000000058
:102880000000000000000000000000000000000048
:102890000000000000000000000000000000000038
:1028A0000000000000000000000000000000000028
:1028B0000000000000000000000000000000000018
:1028C0000000000000000000000000000000000008
:1028D00000000000000000000000000000000000F8
:1028E00000000000000000000000000000000000E8
:1028F00000000000000000000000000000000000D8
:1029000000000000000000000000000000000000C7
:1029100000000000000000000000000000000000B7
:1029200000000000000000000000000000000000A7
:102930000000000000000000000000000000000097
:102940000000000000000000000000008080808087
:1029500080808000000000000000000000000000F7
:102960000000000000000000000000000000000067
:102970000000000000000000000000000000000057
:102980000000000000000000000000000000000047
:102990000000000000000000000000000000000037
:1029A0000000000000000000000000000000000027
:1029B0000000000000000000000000000000000017
:1029C0000000000086C6C6C7C7E3E3E3E3E3E1E136
:1029D000E3E7C7C787060000000000000000000012
:1029E0000000000000000000000000000010181CA3
:1029F0001C1E0E06078783838707070706060E1E21
:102A00001C1C1C180000000000000000000000005A
:102A100000000000000000000000000000000000B6
:102A200000000000000000000000000000000000A6
:102A30000000000000000000000000000000000096
:102A40000000000F0F1F1F3F3F383830303038383C
:102A50003D3F1F1F1F0F000000000000000000008E
:102A600000000000000000000000000000083C7EA4
:102A70007EFEFFEFC7C3C3C3C3C3E7FFFFFF7E7E76
:102A80003C180000000000000000000000000000F2
:102A90000000000000000000000000000000000036
:102AA00000000000000000000000103838387C7C76
:102AB0007C7C7C7C6C6C6C6C6C6C6C6C6C6C7C7CF6
:102AC0007C78383830000000000000000000000072
:102AD00000C0C0C0C0C000000000000000808080B6
:102AE0008000000000000000C0C0C0C080000000E6
:102AF0000000000001010101010100008080C0C050
:102B0000C0C0C0C0C0C0C0C0C0C0C0C0C080808085
:102B100000000000000000000000000000000000B5
:102B200000000000000000000000000000000000A5
:102B30000000000000000000000000000000000095
:102B40000000000000000000000000000000000085
:102B500000070F1F1F1F1C181818181C1F0F0F1F0E
:102B60001F3E383838383838393F1F1F0F0F0400E0
:102B7000000000000000000000000307070707072F
:102B80000706060E0E0E0E0E0E0E0E0F0F0707078F
:102B9000030300000000000000000000000000002F
:102BA0000000000000000000000000000000000025
:102BB0000000000000000000000000000000000015
:102BC0000000000000000000000000000000000005
:102BD00000000000000000000000000000000000F5
:102BE00000000000000000000000000000000000E5
:102BF00000000000000000000000000000000000D5
:102C000000000000000000000000000000000000C4
:102C100000000000000000000000000000000000B4
:102C200000000000000000000000000000000000A4
:102C30000000000000000000000000000000000094
:102C40000000000000000000000000000000000084
:102C50000000000000000000000000000000000074
:102C60000000000000000000000000000000000064
:102C70000000000000000000000000000000000054
:102C80000000000000000000000000000000000044
:102C90000000000000000000000000000000000034
:102CA0000000000000000000000000000000000024
:102CB000000000000000000000000080C0E0F0F80C
:102CC000F8FCFCFCFCFCFCF8F0F0E08000000000EC
:102CD00000000000000000000000000000000000F4
:102CE0000000000000000000000000000000008064
:102CF000C0E0F0F8F8FCFCFCFCFCF8F8F0F0E08038
:102D000000000000000000000000000000000000C3
:102D100000000000000000000000000000000000B3
:102D200000000000000000000000000000000000A3
:102D30000000000000000000C0F8FEFFFFFFFFFFE2
:102D4000FFFFFFFFFFFFFFFFFFFFFFFFFFFCF08024
:102D50000000000000000000000000000000000073
:102D6000000000000000000000000000C0F8FEFFAE
:102D7000FFFFFFFFFFFFFFFFFFFFFFFFFFFFFFFF63
:102D8000FFFCF080000000000000000000000000D8
:102D90000000000000000000000000000000000033
:102DA0000000000000000000000000000000000023
:102DB00000000000000000FCFFFFFFFFFFFFFFFF1F
:102DC000FFFFFFFFFFFFFFFFFFFFFFFFFFFFFFFF13
:102DD00000000000000000000000000000000000F3
:102DE0000000000000000000000000FCFFFFFFFFEB
:102DF000FFFFFFFFFFFFFFFFFFFFFFFFFFFFFFFFE3
:102E0000FFFFFFFF000000000000000000000000C6
:102E100000000000000000000000000000000000B2
:102E200000000000000000000000000000000000A2
:102E3000000000000000003FFFFFFFFFFFFFFFFF5B
:102E4000FFFFFFFFFFFFFFFFFFFFFFFFFFFFFFFF92
:102E50000000000000000000000000000000000072
:102E600000000000000000000000003FFFFFFFFF27
:102E7000FFFFFFFFFFFFFFFFFFFFFFFFFFFFFFFF62
:102E8000FFFFFFFF00000000000000000000000046
:102E90000000000000000000000000000000000032
:102EA0000000000000000000000000000000000022
:102EB0000000000000000000031F7FFFFFFFFFFF76
:102EC000FFFFFFFFFFFFFFFFFFFFFFFFFF3F0F01C0
:102ED00000000000000000000000000000000000F2
:102EE000000000000000000000000000031F7FFF42
:102EF000FFFFFFFFFFFFFFFFFFFFFFFFFFFFFFFFE2
:102F0000FF3F0F0100000000000000000000000073
:102F100000000000000000000000000000000000B1
:102F200000000000000000000000000000000000A1
:102F300000000000000000000000000103070F1F58
:102F40001F3F3F3F3F3F3F1F1F0F07030000000091
:102F50000000000000000000000000000000000071
:102F60000000000000000000000000000000000160
:102F700003070F1F1F3F3F3F3F3F3F1F1F0F070329
:102F80000000000000000000000000000000000041
:102F90000000000000000000000000000000000031
:102FA0000000000000000000000000000000000021
:102FB0000000000000000000000000000000000011
:102FC0000000000000000000000000000000000001
:102FD00000000000000000000000000000000000F1
:102FE00000000000000000000000000000000000E1
:102FF00000000000000000000000000000000000D1
:1030000000000000000000000000000000000000C0
:1030100000000000000000000000000000000000B0
:1030200000000000000000000000000000000000A0
:103030000000000000000000000000000000000090
:103040000000000000000000000000000000000080
:103050000000000000000000000000000000000070
:103060000000000000000000000000000000000060
:103070000000000000000000000000000000000050
:103080000000000000000000000000000000000040
:103090000000000000000000000000000000000030
:1030A0000000000000003070F0F0F0E0E0E0C0C090
:1030B0008080800000000000000000000000000090
:1030C0000000000000000000000000000000000000
:1030D00000000000000000000000000000000000F0
:1030E00000000000000000000000000000000000E0
:1030F00000000000000000000000000000000000D0
:1031000000000000000000808080C0C0E0E0F0F01F
:1031100070787878300000000000000000000000A7
:103120000000000000000000000000000101030397
:10313000030707070F0E1E1E1C3C3C787878F0F042
:10314000E0E0E0C0C0C0808000000000000000009F
:10315000000000000000000000000000000000006F
:10316000000000000000000000000000000000005F
:1031700000000000000000C0E0E0F0F0F0F8F8F817
:103180003C1C1E1E0F0F070707070301010101006A
:10319000000000000000000000000000000000002F
:1031A000000000000000000000008080C0C0C0C01F
:1031B000E0E0E0E0F07070787838383C3C1C1C1E91
:1031C0001F1F0F0F0F0F0707030000000000000074
:1031D00000000000000000000000000000000000EF
:1031E00000000000000000000000000000000000DF
:1031F0000000000000000000010303030707070FA1
:103200000F0F0F1E1E1E3C3C3C787878F0F0F0E06B
:10321000E0E0E0C0800000000000000000000000CE
:1032200000000000000000008081030303F361013F
:10323000010180E03000000080C0C00000000000FC
:10324000000000000000000000000000000000007E
:103250000000103878F8F8F87838383838383838C6
:103260003838383838383878F8F87838300000008E
:10327000000000000000000000000000000000004E
:1032800000C0E0000080F03000000080F07000001E
:103290000101E1C10000000000000000000000008A
:1032A00000000000000000070F0100103F0F0000A9
:1032B000007C1F030000603C0F03000000000000C2
:1032C00000000000000000000000000000000000FE
:1032D0000000000000000F3FFCF0C0C0C0C0C0C034
:1032E000C0C0C0C0C0C0E0FC7F0F000000000000F4
:1032F00000000000000000000000000000000000CE
:1033000000070300003F070000003C1F0000001002
:103310003C1F010000000000000000000000000051
:10332000000000000000000000000000000000009D
:10333000000000000000000000000000000000008D
:10334000000000000000000000000000000000007D
:10335000000000000000000000000000000000006D
:10336000000000000000000000000000000000005D
:10337000000000000000000000000000000000004D
:10338000000000000000000000000000000000003D
:10339000000000000000000000000000000000002D
:1033A000000000000000000000000000000000001D
:1033B000000000000000000000000000000000000D
:1033C00000000000000000000000000000000000FD
:1033D00000000000000000000000000000000000ED
:1033E00000000000000000000000000000000000DD
:1033F00000000000000000000000000000000000CD
:1034000000000000000000000000000000000000BC
:1034100000000000000000000000000000000000AC
:10342000000000000000000000000000000000009C
:10343000000000000000000000000000000000008C
:10344000000000000000000000000000000000007C
:10345000000000000000000000000000000000006C
:10346000000000000000000000000000000000005C
:10347000000000000000000000000000000000004C
:10348000000000000000000000000000000000003C
:10349000000000000000000000000000000000002C
:1034A0000000000000C0F838383060E0C080000044
:1034B000000000000000000000000000000000000C
:1034C00000000000000000000000000000000000FC
:1034D00000000000000000000000000000000000EC
:1034E00000000000000000000000000000000000DC
:1034F00000000000000000000000000000000000CC
:1035000000000000000000000000000080C0E0702B
:1035100030387CF080000000000000000000000057
:1035200000000000FCFF8700000000000103070E00
:103530000C183870E0C0800000000000000000009F
:10354000000000000000000000000000000000007B
:10355000000000000000000000000000000000006B
:10356000000000000000000000000000000000005B
:10357000000000000000000000000000000000004B
:1035800000000080C0E070381C0E06070301000038
:10359000000000FFFF3000000000000000000000FD
:1035A0000000000000071F3C70E0C08080000000A9
:1035B0000000000000010103070E1C387060C0C04D
:1035C000800000000000000000000000000000007B
:1035D000000000000000000000000000000080C0AB
:1035E000C00000000000000000000000000000001B
:1035F00000000000000000000080C0E06030381CC7
:103600000E07030100000000000000008080C0C021
:1036100060381C0F030000000000000000000000E4
:10362000000000000000000000000001018303070B
:103630000606068C8C0C0C0C18181818181818197B
:103640001B1F1E1C181000000000000000000000DE
:10365000000000FEFE0E1C38706070180E0703019B
:103660000103061C3830381C0EFFFF00000000006C
:103670000000000018181C1E1F1B19181818189895
:10368000980C0C0C0C0C8C06060607030381010039
:10369000000000000000000000000000000000002A
:1036A0000000000000000000000000101E070000E5
:1036B000C0701C030000000000F03E00000000008D
:1036C00000000000000000000000000000000000FA
:1036D000000000FFFF80000000000000000000006C
:1036E000000000000000000080FFFF00000000005C
:1036F00000000000000000000000000000180E03A1
:1037000000000000380F0100000000003F0300002F
:1037100000000000000000000000000000000000A9
:103720000000000000000000000000000000000099
:103730000000000000000000000000000000000089
:103740000000000000000000000000000000000079
:103750000000000003030303030303030303030345
:10376000030303030303030303030100000000003A
:103770000000000000000000000000000000000049
:103780000000000000000000000000000000000039
:103790000000000000000000000000000000000029
:1037A0000000000000000000000000000000000019
:1037B0000000000000000000000000000000000009
:1037C00000000000000000000000000000000000F9
:1037D00000000000000000000000000000000000E9
:1037E00000000000000000000000000000000000D9
:1037F00000000000000000000000000000000000C9
:1038000000000000000000000000000000000000B8
:1038100000000000000000000000000000000000A8
:103820000000000000000000000000000000000098
:103830000000000000000000000000000000000088
:103840000000000000000000000000000000000078
:103850000000000000000000000000000000000068
:103860000000000000000000000000000000000058
:103870000000000000000000000000000000000048
:103880000000000000000000000000000000000038
:103890000000000000000000000000000000000028
:1038A0000000000000000000000000000000000018
:1038B0000000000000000000000000000000000008
:1038C00000000000000000000000000000000000F8
:1038D00000000000000000000000000000000000E8
:1038E00000000000000000000000000000000000D8
:1038F00000000000000000000000000000000000C8
:1039000000000000000000000000000000000000B7
:1039100000000000000000000000000000000000A7
:103920000000000000808080C0C0C0C0C0C0C0C017
:10393000C0C0C0C0C0C0E0E0E0E0E0E0E0E0E0E047
:10394000E0E0E0E0F0F0F0F0200000000000000017
:103950000000000000000000000000000000000067
:103960000000000000000000000000000000000057
:1039700008181858F8F8F8F8F8F8F8F8F8F8F8F817
:10398000F8F8F8F8F8F8F8F8F8F8F8F8F0F0F0F0D7
:10399000F0F0F0F0F0F0F0F0F000000000000000B7
:1039A00000000080F3F3FBFBFBFBFBFFFFFFFFFFCF
:1039B000FFFFFFFFFFFFFFFFFFFF7D7D7D3D3D3DE3
:1039C0003D3D3D1D1F1F1F1F1E0E0E0C0C00000055
:1039D00000000000000000000000000000000000E7
:1039E00000000000000000000000000000000000D7
:1039F00000003C7EFFFFFFFFFFFFFFFFFFFFFFFF19
:103A0000FFFFFFFFFFFFFFFFFFFFFFFDFDF9F9F9DC
:103A1000F9F9F9F9F1F1F17030000000000000004F
:103A2000000000010100113F3F3F1F1F1F1F1F1F0C
:103A30001F1F0F0F0F0F0F0F0F0F0F0F0707070796
:103A4000070707070707030303030300000000003D
:103A50008080808080808080808080808080808066
:103A60008080808080808080808080800000000056
:103A70000000000000000000000000000000000046
:103A80000000000000000000000000000000000036
:103A90000000000000000000000000000000000026
:103AA0000000000000000000000000000000000016
:103AB0000000000000000000000000000000000006
:103AC00000000000000000000000000000000000F6
:103AD000FFFF0100000000000000000000000000E7
:103AE0000000000000000000000081FFFF00000057
:103AF00000000000000000000000000000000000C6
:103B000000000000000000000000000000000000B5
:103B100000000000000000000000000000000000A5
:103B20000000000000000000000000000000000095
:103B30000000000000000000000000000000000085
:103B40000000000000000000000000000000000075
:103B50000101010101010101010101010101010155
:103B600001010101FFFF00000003FF010000000050
:103B70000000000000000000000000000000000045
:103B80000000000000000000000000000000000035
:103B90000000000000000000000000000000000025
:103BA0000000000000000000000000000000000015
:103BB0000000000000000000000000000000000005
:103BC00000000000000000000000000000000000F5
:103BD00000000000000000000000000000000000E5
:103BE00000000000000303060203010000000000C3
:103BF00000000000000000000000000000000000C5
:103C000000000000000000000000000000000000B4
:103C100000000000000000000000000000000000A4
:103C20000000000000000000000000000000000094
:103C30000000000000000000000000000000000084
:103C40000000000000000000000000000000000074
:103C50000000000000000000000000000000000064
:103C60000000000000000000000000000000000054
:103C70000000000000000000000000000000000044
:103C80000000000000000000000000000000000034
:103C90000000000000000000000000000000000024
:103CA0000000000000000000000000000000000014
:103CB0000000000000000000000000000000000004
:103CC00000000000000000000000000000000000F4
:103CD00000000000000000000000000000000000E4
:103CE00000000000000000000000000000000000D4
:103CF00000000000000000000000000000000000C4
:103D000000000000000000000000000000000000B3
:103D100000000000000000000000000000000000A3
:103D20000000000000C0E0F0F8F8FC7C3E3E1E1FE2
:103D30001F1F1F1E3E3E7CFCF8F8F0E080000000D4
:103D40000000000000000000000000000000000073
:103D50000000000000000000000000C000000000A3
:103D600000008080000000000000000000000080D3
:103D70000000000000000000000000000000000043
:103D800080E0F0F8F8FC7C3E3E1E1F1F1E1E1E3E0B
:103D90003E7CFCF8F8F0E08000000000000000002D
:103DA000000000F8FFFFFFFF070100000000000017
:103DB00000000000000000000107FFFFFFFFF0000F
:103DC000000000000000000000000060301C06033E
:103DD000C0E0380E0700C0E0380E07010000E070B8
:103DE0001C07030060701C0703000060380E070109
:103DF00030380E0300000000000000000000F8FF53
:103E0000FFFFFF03010000000000000000000000B1
:103E10000000000107FFFFFFFFF0000000000000AE
:103E2000000000010F3F7FFFFCF8F0E0C0C0808081
:103E300080808080C0C0E0F0F8FEFF7F1F0F000090
:103E40000000000000000000000000000000000072
:103E50000000000000000000000000000000000062
:103E60000000000000000000000000000000000052
:103E70000000000000000000000000000000010F32
:103E80003F7FFFFCF8F0E0C0C0808080808080C071
:103E9000C0E0F0F8FEFF7F3F0F01000000000000CF
:103EA0000000000000000000010303070707070FE0
:103EB0000F0F0F0F070707030101000000000000AC
:103EC00000000000000000000000000000000000F2
:103ED0007FFC8000000000000000000000E0FFFE0A
:103EE000800000000000000000000080FE7E000056
:103EF00000000000000000000000000000000000C2
:103F0000000000010303070707070F0F0F0F070744
:103F1000070703010100000000000000000000008E
:103F20000000000000000000000000000000000091
:103F30000000000000000000000000000000000081
:103F40000000000000000000000000000000000071
:103F50000001030306060606060606060301010124
:103F60000307060606060606060603030100000010
:103F70000000000000000000000000000000000041
:103F80000000000000000000000000000000000031
:103F90000000000000000000000000000000000021
:103FA0000000000000000000000000000000000011
:103FB0000000000000000000000000000000000001
:103FC00000000000000000000000000000000000F1
:103FD00000000000000000000000000000000000E1
:103FE00000000000000000000000000000000000D1
:103FF00000000000000000000000000000000000C1
:1040000000000000000000000000000000000000B0
:1040100000000000000000000000000000000000A0
:104020000000000000000000000000000000000090
:104030000000000000000000000000000000000080
:104040000000000000000000000000000000000070
:104050000000000000000000000000000000000060
:104060000000000000000000000000000000000050
:104070000000000000000000000000000000000040
:104080000000000000000000000000000000000030
:104090000000000000000000000000000000000020
:1040A000E0E0E0E0C0C0C080800000000000000050
:1040B0000000000000000000000000000000000000
:1040C00000000000000000000000000000000000F0
:1040D00000000000000000000000000000000000E0
:1040E00000000000000000000000000000000000D0
:1040F00000000000000000000000000000000000C0
:10410000000000000000000000000000000000802F
:1041100080C0C0C0E0E0F0F0F0000000000000004F
:104120000001010303030707070F0F0F1E1E3E3C8C
:104130007C7C78F8F0F0E0E0E0E0C0C080808000B7
:10414000000000000000000000000000000000006F
:10415000000000000000000000000000000000005F
:10416000000000000000000000000000000000004F
:1041700000000000000000000000008080C0C0C0FF
:10418000E0E0E0F0F0F8F8F8BCBC9E9E9F8F8F8FC7
:10419000C7C7C3C3C3C1C1C0C0C000000000000086
:1041A0000000081C1C1C1C1C1C1C1C1C1C1C9C9C9B
:1041B0009C9CDCDCDCDCFDFDFFFFFFFFFFFF7F7F65
:1041C0007F3E3E3E3C1C0000000000000000E0E09E
:1041D000E00000000000000000000000000000C03F
:1041E000C0C00000000000000000000000C0C0C00F
:1041F0000000000000000000000F0F0F1F1F1F3FF6
:104200003F3F3F7F7F7FFBF3F3F3E3E3E3E3C1C192
:10421000C181818101010101000000000000000056
:10422000000000001C3C3C1E1E1E1F0F0F0F0F87BE
:10423000070707030303010101010000000000005C
:104240000000000000000000000000000000031F4C
:104250007FF8E0C0C0808080808080C0E0F0783F40
:104260007FFFE080000000000000000080F3FFFFFF
:10427000000000000000000000000000000000003E
:10428000000000000000000000010101030303031F
:104290008787070F0F0F0F0E0C00000000000000B3
:1042A0000000F8FC0000C0FE7F02000080F07F0FDD
:1042B000010000C0F81E0400000000000000000023
:1042C00000000000000000000000000000000000EE
:1042D00000000003FFFFFF030303030101000000D0
:1042E00000010307070FFEFE3E0607070703010054
:1042F00000000000000000000000000000000000BE
:10430000000000F07E0C0000F87F07000000E0FCD9
:104310001F030000C0F03E06000000000000000087
:104320000000010000000303000000040F0700006C
:104330000000060700000000000000000000000070
:10434000000000000000000000000000000000006D
:10435000000000000003070F1E1C1C1C1C1C1C1C62
:104360001C1C1C1C1E0F0F0300000000000000009E
:10437000000000000000000000000000000000003D
:10438000000000000000000003000000000707001C
:104390000000000207010000000000000000000013
:1043A000000000000000000000000000000000000D
:1043B00000000000000000000000000000000000FD
:1043C00000000000000000000000000000000000ED
:1043D00000000000000000000000000000000000DD
:1043E00000000000000000000000000000000000CD
:1043F00000000000000000000000000000000000BD
:1044000000000000000000000000000000000000AC
:10441000000000000000000000000000000000009C
:10442000404400080000002030000000280100087F
:104430007044000830000020600A000044010008B9
:104440000204060800000000010203040102030444
:10445000060708090100000000000000010000003C
:1044600000000000C800060000000200000000007C
:04000005080000ED02
:00000001FF
