:020000040800F2
:100000005005002045010008071800089512000857
:1000100005180008B1010008151C000800000000C8
:10002000000000000000000000000000FD190008B2
:1000300019020008000000008D180008FF190008D0
:100040005F0100085F0100085F0100085F01000810
:100050005F0100085F0100085F0100085F01000800
:100060005F0100085F0100085F0100085F010008F0
:100070005F0100085F0100085F0100085F010008E0
:100080005F0100085F0100085F0100085F010008D0
:100090005F0100085F0100085F0100085F010008C0
:1000A0005F0100085F0100085F0100085F010008B0
:1000B0005F0100085F0100085F0100085F010008A0
:1000C0005F0100085F0100085F0100085F01000890
:1000D0005F0100085F0100085F0100085F01000880
:1000E0005F0100085F0100085F0100085F01000870
:1000F0005F0100085F0100085F0100085F01000860
:100100005F0100085F0100085F0100085F0100084F
:100110005F0100085F0100085F0100085F0100083F
:100120005F0100085F0100085F0100085F0100082F
:10013000DFF80CD000F02AF800480047551C0008F2
:10014000500500200648804706480047FEE7FEE7C6
:10015000FEE7FEE7FEE7FEE7FEE7FEE7FEE7FEE777
:10016000611A000831010008D2B201E000F8012B49
:10017000491EFBD270470022F6E710B513460A4627
:1001800004461946FFF7F0FF204610BD064C074D08
:1001900006E0E06840F0010394E807009847103457
:1001A000AC42F6D3FFF7C8FF64430008844300085D
:1001B000FEE70000F8B54EF67D750124284601F0F3
:1001C00087F812A000902B461F220A21142000F06D
:1001D000E7F8C82000F042FA4FF6FF754FF4784672
:1001E0004FF4FC670EE0284601F072F8002001F0A1
:1001F0006FF8304601F06CF8384601F069F81F20BE
:1002000001F066F8641EE4B2EDD2F8BD436F6C6F86
:10021000722054657374000070472DE9F8431C4642
:100220004FF6FF78074615460E460B46CDF8008080
:1002300000F0B2F93A46234631461046CDF8008028
:1002400000F0AAF9601E83B281B248F21048781C0F
:1002500080B22A46CDF8008000F09EF944F20829C9
:1002600023462A4619463846CDF8009000F094F906
:10027000681E82B2711C89B280B22346CDF800801C
:1002800000F08AF92A46234631461046CDF8009000
:1002900000F082F9BDE8F88308B54FF4FC607F23D5
:1002A000002100901A46084600F076F908BD72B6A3
:1002B000FEE7000038B54EF67D74204601F008F8E0
:1002C0001FA0009023461F220A21102000F068F88A
:1002D0004FF47A7000F0C2F9204600F0F9FF1CA03C
:1002E000009023464FF6E0721421102000F058F8D9
:1002F0001BA0009023461F222821102000F050F858
:100300001BA04FF47845009023462A463C2110203C
:1003100000F046F81AA0009023461F225021052025
:1003200000F03EF81AA0009023462A4664210520DA
:1003300000F036F8BDE838404FF4E16000F08EB9C7
:10034000CEC4D7D6CFD4CABEB2E2CAD40000000011
:10035000C8F0B7C2B5E7D7D3BCBCCAF500000000EF
:10036000D7A8D7A2D2BABEA7C5FAB7A2000000008C
:10037000C8ABB3CCBCBCCAF5D6A7B3D6000000004E
:1003800054656C3A313335323334333635393000D5
:1003900051513A3130343539313330323400000084
:1003A0002DE9FF4F83B089460446DDF840B0009048
:1003B000A4E080283ED20D2804D0202808D9203877
:1003C00080B206E009F110001FFA80F9009C2EE0CF
:1003D0000020DFF838A100264FF080080190019836
:1003E000002506EB001700BF1AF8071028FA05F0E1
:1003F000014206D009EB060081B2601980B2059A6D
:1004000009E0DDE90501884207D009EB060081B269
:10041000601980B2069A00F014F96D1CEDB2082D37
:10042000E2D3761CF6B2102ED9D30834A4B20BF165
:10043000010B63E04FF00008354808EB08119BF80A
:10044000002010F8113093424DD100EB4100019093
:1004500041789BF80100814245D100254FF0800A88
:100460000198002600EB45072AFA06F0B978014208
:1004700006D009EB050081B2A01980B2059A09E007
:10048000DDE90501884207D009EB050081B2A0191A
:1004900080B2069A00F0D5F8761CF6B2082EE3D3A7
:1004A0000026F9782AFA06F0014207D009EB050088
:1004B00081B2A019083080B2059A0AE0DDE9050191
:1004C000884208D009EB050081B2A019083080B23B
:1004D000069A00F0B6F8761CF6B2082EE1D36D1C31
:1004E000EDB2102DBCD308F101001FFA80F8B8F16D
:1004F000320FA1D310340BF1020BA4B29BF8000011
:1005000000287FF456AF07B0BDE8F08FE21C00086A
:10051000542A00082DE9FF4F81B08A4683461D49C1
:100520000E98002601EBC0104FF080090090009853
:10053000002500EB860800BF18F805705FF0000486
:1005400029FA04F0384208D00AEB060081B20BEB1E
:10055000C500204480B2039A0BE0DDE90301884224
:1005600009D00AEB060081B20BEBC500204480B233
:10057000049A00F066F8641CE4B2082CE0D36D1C09
:10058000EDB2042DD8D3761CF6B2202ECFD305B011
:10059000BDE8F08FD32200082DE9F84F1C46154620
:1005A0000E46804601F001F8B5EB0805A4EB060401
:1005B0004FF0FF3002D44FF0010B01E083466D4253
:1005C000002C02DB4FF0010901E081466442680023
:1005D0004FEA440A0090A54219DDAAEB0504002762
:1005E00011E0314640460A9A00F02BF8002C04DB5B
:1005F0000098241A06EB090086B208EB0B0054445D
:100600001FFA80F87F1CAF42EBDDBDE8F88F009841
:10061000051B002712E0314640460A9A00F011F807
:10062000002D05DB08EB0B00A5EB0A051FFA80F88F
:1006300000987F1C054406EB090086B2A742EADD5C
:10064000E3E710B514464A1C93B2421C92B200F084
:100650007FFF2046BDE8104000F01EBE70B5044686
:1006600000F010F90546601C02D0044800780444EC
:1006700000F008F9401BA042FAD370BD0C00002026
:100680002DE9F84FDFF8C8910024A9F1040B2346A7
:100690000F2709F1040AABF1040ED1E00125A540B2
:1006A00006EA0502AA4276D1DFF8A8C14E68A6EB99
:1006B0000C0866452BD00DDC032E34D005DC36B398
:1006C000012E19D0022E2FD11BE0112E16D0122E82
:1006D0002AD119E0B8F5881F19D006DCB8F5803F9B
:1006E00015D0B8F5801F1FD111E0B8F5001F0ED04E
:1006F000B8F5041F18D10AE0CB6815E0CB681B1DC4
:1007000012E0CB6808330FE0CB680C330CE08B6849
:100710002BB1012B4FF0080303D0456104E0042303
:1007200002E0056100E00023FF2A01D8064601E04F
:1007300000F104064FEA840501D9A5F12005D6F899
:10074000008007FA05FC28EA0C0803FA05F548EAD8
:100750000508C6F800804D68ED0070D53E4DAE69C5
:1007600046F00106AE61AD6924F0030605F001050F
:1007700000953A4D06EB050CDCF80850A607360F3D
:1007800007FA06F825EA0805DFF8D480404503D1CA
:100790004FF0000825E052E0DFF8C880404502D164
:1007A0004FF001081DE0DFF8C080404502D14FF056
:1007B000020816E0DFF8B480404502D14FF003088C
:1007C0000FE0DFF8AC80404502D14FF0040808E0AC
:1007D000DFF8A080404502D14FF0050801E04FF05E
:1007E000060808FA06F848EA0508CCF808804D68BB
:1007F000D9F80060ED024D4601D5164300E096435E
:100800002E604D68DAF80060AD02554601D51643FA
:1008100000E096432E604D68DBF80060AD035D4656
:1008200001D5164300E096432E604D68DEF8006067
:10083000ED03754601D5164300E096432E60641C17
:100840000A681646E2407FF429AFBDE8F88F000041
:100850000804014000001110001002400000014097
:1008600000080140000C014000100140001401404C
:1008700000180140001C01400AB1016170470904E1
:10088000FBE7000001488068704700000C00002072
:100890000248816802781144816070470C00002092
:1008A000074810B5016841F010010160032000F015
:1008B00067F80F2000F006F800F024F8002010BDC3
:1008C0000020024070B50D4D04464FF47A7128782F
:1008D000B1FBF0F00A490968B1FBF0F000F062FBEF
:1008E00048B9102C07D200222146501E00F028F8EB
:1008F00000206C6070BD012070BD00000C00002065
:10090000180000200C4808B5816941F0010181619F
:10091000816901F001010091C16941F08051C1611B
:10092000C06900F0805000900448416821F0E06107
:1009300041F00071416008BD00100240000001401C
:10094000F0B40E4B1B680C46C3F30223C3F107053A
:10095000042D00D90425191D072901D2002300E028
:10096000DB1E012606FA05F1491E214099409E40F2
:10097000761E16403143F0BC01F04DB90CED00E09D
:10098000064900F0070208684FF6FF03184040EAE6
:100990000220034A10430860704700000CED00E09D
:1009A0000000FA052DE9F0470F46050061D0434EDF
:1009B000306800F00700B84209D2306820F0070024
:1009C00038433060306800F00700B84251D12868E1
:1009D0003B4C810712D5400703D5606840F4E060C6
:1009E00060602878000703D5606840F4605060605C
:1009F0006068A96820F0F000084360602878C007AC
:100A000028D06868012810D02168022810D08907F2
:100A100000292EDA616821F0030101436160FFF7CC
:100A200031FF804641F288390DE021688903EFE704
:100A30008901EDE7FFF726FFA0EB0801494502D940
:100A40000320BDE8F0876068696800F00C00B0EB37
:100A5000810FEFD1306800F00700B8420BD9306841
:100A600020F0070038433060306800F00700B842DB
:100A700001D00120E5E72878400705D56068E968DE
:100A800020F4E060084360602878000706D56068BD
:100A9000296920F4605040EAC100606000F038F835
:100AA0006168084AC1F30311515CC84006490860F7
:100AB00006480068FFF706FF0020C2E7002002405A
:100AC000001002404C4300081800002010000020D5
:100AD0000448054900684968044AC1F30221515C91
:100AE000C840704718000020001002405C43000816
:100AF0000448054900684968044AC1F3C221515CB1
:100B0000C840704718000020001002405C430008F5
:100B10000E4A51680E4801F00C03042B11D0082B2B
:100B20000FD10C48C1F38343C903C05C0AD5516897
:100B3000084AC1F34041921E515C054A5043B0FB44
:100B4000F1F070470449484370470000001002402C
:100B500000127A003C43000800093D002DE9F84FDF
:100B6000040070D02078C04DC00749D06868C0F339
:100B70008100012807D06868C0F38100022809D1EC
:100B80006868C00306D52868800339D560680028E6
:100B9000E7D035E06068B0F5803F0BD010B1B0F51C
:100BA000A02F11D0286820F480302860286820F415
:100BB000802002E0286840F480302860606890B1AE
:100BC000FFF760FE06460AE0286840F480202860AF
:100BD000F0E700BFFFF756FE801B642873D8286833
:100BE0008003F7D50CE0FFF74DFE064605E000BF99
:100BF000FFF748FE801B6428F0D828688003F7D4EC
:100C000020789A4E80074FF001094FF0000839D53F
:100C1000686810F00C0F07D06868C0F381000228E4
:100C200009D16868C00306D42868800714D52069F4
:100C3000012808D110E02069B0B1C6F80090FFF794
:100C400021FE074605E00AE1FFF71CFEC01B022853
:100C5000C4D828688007F7D52868616920F0F800B3
:100C600040EAC10028600DE0C6F80080FFF70AFEE8
:100C7000074604E0FFF706FEC01B022823D82868B9
:100C80008007F7D4207800072CD57948A169D9B11D
:100C9000C0F80090FFF7F6FD074604E0FFF7F2FD0D
:100CA000C01B02280FD8686A8007F7D571484FF437
:100CB000FA510068B0FBF1F0009000BF0098411EAF
:100CC0000091FAD20EE080E0C0F80080FFF7DAFD74
:100CD000074604E0FFF7D6FDC01B022875D8686AF6
:100CE0008007F7D42078400760D5E8690027C00066
:100CF00008D4E86940F08050E861E869012700F015
:100D0000805000905C480168C90513D4016883468F
:100D100041F480710160FFF7B5FD824606E000BF37
:100D2000FFF7B0FDA0EB0A0064284ED8DBF8000006
:100D3000C005F5D5E06801280AD008B1052813D010
:100D4000286A20F001002862286A20F0040002E0EE
:100D5000286A40F001002862E06841F2883B98B1BF
:100D6000FFF790FD82460BE0286A40F004002862FD
:100D7000EEE700BFFFF786FDA0EB0A0159455AD800
:100D8000286A8007F6D50CE0FFF77CFD824605E077
:100D9000FFF778FDA0EB0A0159454CD8286A800777
:100DA000F6D41FB1E86920F08050E861E06988B3AB
:100DB0006968C1F38101022944D00228C6F8608025
:100DC00004D0FFF75FFD044638E034E0FFF75AFD3A
:100DD000074604E0FFF756FDC01B02282BD8286801
:100DE0008001F7D4206AB0F5803F05D16868A1681A
:100DF00020F4003008436860D4E9080108436968BA
:100E000021F4741108436860C6F86090FFF73AFD5A
:100E1000044606E025E000BFFFF734FD001B022872
:100E200009D828688001F7D51BE000BFFFF72AFD2D
:100E3000001B022802D90320BDE8F88F2868800132
:100E4000F4D40EE00128F7D06868226A00F48031FB
:100E5000914204D1616A00F47010884201D00120EF
:100E6000EAE70020E8E700000010024000004242EC
:100E700080044242180000200070004070B5040059
:100E800009D0606A002540B125616561A56294F8CA
:100E9000510040B10CE0012070BD6068B0F5827F68
:100EA000F4D0E561F2E784F85050204600F040F8B5
:100EB000022084F851002068016821F0400101609F
:100EC000A088218900F4827001F404410843A189BB
:100ED00001F400610843217C01F002010843217DF7
:100EE00001F001010843218B01F400710843217FC7
:100EF00001F03801084394F8201001F08001084304
:100F0000218D01F40051084321680860A069042183
:100F100001EA1040216848602068C16921F400613D
:100F2000C1616565012084F85100002070BD00009A
:100F300030B585B0002400940194029403940068B5
:100F40001549884225D11548C16941F48041C161E4
:100F5000C16901F480410491816941F00801816116
:100F600080690F4D00F0080004904FF4204000907D
:100F7000022001900320039069462846FFF780FB7A
:100F80004FF48040CDE90004694628460294FFF7FB
:100F900077FB05B030BD0000003800400010024073
:100FA000000C014010B5401EB0F1807F01D301203C
:100FB00010BD4FF0E02460610F21601700F02BFEA0
:100FC0000020A06107202061002010BD70B590F8BE
:100FD0003C20012A2CD0012480F83C40022280F8D9
:100FE0003D2003685A689D6822F070060A68324303
:100FF0005A60104B02689A420ED00F4B9A420BD0A7
:10100000B2F1804F08D00D4B9A4205D00C4B9A425A
:1010100002D00C4B9A4204D1496825F08003194351
:10102000916080F83D40002180F83C10084670BD7A
:10103000022070BD002C014000340140000400403B
:1010400000080040000C004010B5040003D094F8E4
:101050003D0010B107E0012010BD002084F83C00E5
:10106000204600F01FF8022084F83D00211D206872
:1010700000F0F8FC012084F8460084F83E0084F873
:101080003F0084F8400084F8410084F8420084F86E
:10109000430084F8440084F8450084F83D000020B3
:1010A00010BD000008B50C4A01680C48914207D1F8
:1010B000C16941F00401C161C06900F0040009E0A8
:1010C000074A914207D1C16941F02001C161C0695D
:1010D00000F02000009008BD000800400010024011
:1010E0000014004070B5044690F83C00002501282B
:1010F00017D0012684F83C60022084F83D00206867
:10110000826822F0770222F47F42826008685028C9
:1011100038D00DDC20284FD005DC90B3102811D139
:101120004AE0022070BD302846D040280AD13BE07A
:1011300060282FD070280DD0B0F5805F03D0B0F5B7
:10114000005F12D0012584F83D60002084F83C0047
:10115000284670BDCB68D1E90121206800F0C8FCA9
:101160002068816841F0770109E0CB68D1E901216D
:10117000206800F0BDFC2068816841F480418160F6
:10118000E1E719E0CA684968206800F0C3FC502113
:10119000206806E0CA684968206800F0CCFC60213D
:1011A000206800F0AFFCCEE7CA684968206800F00C
:1011B000B1FC40212068F4E7226801461046F0E7C0
:1011C00070B5040004D094F84100002510B106E089
:1011D000012070BD84F84050204600F023F8242000
:1011E00084F841002068C16821F40051C1602046A4
:1011F00000F0B4FC2068016921F49041016120688D
:10120000416921F02A0141612068C16841F400511F
:10121000C1606564202084F8410084F84200656361
:10122000002070BD30B585B0002400940194029474
:10123000039400681449884224D11448816941F418
:1012400080418161816901F480410491816941F0AB
:101250000401816180690E4D00F0040004904FF498
:1012600000700090022001900320039069462846F8
:10127000FFF706FA2815CDE90004694628460294CE
:10128000FFF7FEF905B030BD003801400010024004
:1012900000080140FEE7000070B50C4D0446002236
:1012A00080212846FFF7E8FA012240212846FFF76F
:1012B000E3FA200A00F082FBE0B200F07FFB284650
:1012C000BDE8704001228021FFF7D6BA000C014032
:1012D00070B5064600219F237F22084600F038F9AA
:1012E0002C2000F081F9002400253046FFF7D4FFC0
:1012F0006D1CA02DF9D3641C802CF5D370BD10B5E6
:1013000000F08CF900F00EF9112000F06DF9782052
:10131000FFF7A4F9B12000F067F9012000F04AF9C5
:101320002C2000F047F92D2000F044F9B22000F005
:101330005BF9012000F03EF92C2000F03BF92D2054
:1013400000F038F9B32000F04FF9012000F032F935
:101350002C2000F02FF92D2000F02CF9012000F0B6
:1013600029F92C2000F026F92D2000F023F9B420D3
:1013700000F03AF9072000F01DF9C02000F034F920
:10138000A22000F017F9022000F014F9842000F0E8
:1013900011F9C12000F028F9C52000F00BF9C22096
:1013A00000F022F90A2000F005F9002000F002F90F
:1013B000C32000F019F98A2000F0FCF82A2000F080
:1013C000F9F8C42000F010F98A2000F0F3F8EE20BC
:1013D00000F0F0F8C52000F007F90E2000F0EAF860
:1013E000362000F001F9C82000F0E4F8E02000F019
:1013F000FBF80F2000F0DEF81A2000F0DBF80F20D9
:1014000000F0D8F8182000F0D5F82F2000F0D2F81E
:10141000282000F0CFF8202000F0CCF8222000F0A7
:10142000C9F81F2000F0C6F81B2000F0C3F82320E5
:1014300000F0C0F8372000F0BDF8002000F0BAF846
:10144000072000F0B7F8022000F0B4F8102000F0F8
:10145000B1F8E12000F0C8F80F2000F0ABF81B2035
:1014600000F0A8F80F2000F0A5F8172000F0A2F86F
:10147000332000F09FF82C2000F09CF8292000F089
:1014800099F82E2000F096F8302000F093F83020E4
:1014900000F090F8392000F08DF83F2000F08AF835
:1014A000002000F087F8072000F084F8032000F007
:1014B00081F8102000F07EF82A2000F095F8002036
:1014C00000F078F8012000F075F8002000F072F8C4
:1014D000802000F06FF82B2000F086F8002000F04C
:1014E00069F8022000F066F8002000F063F882201E
:1014F00000F060F8F02000F077F8012000F05AF8D2
:10150000F62000F071F8002000F054F83A2000F0C6
:101510006BF8052000F04EF8BDE81040292000F0DF
:1015200063B8000010B5094C002220212046FFF7C7
:10153000A3F90A20FFF792F8012220212046FFF7A5
:101540009BF9BDE810400A20FFF788B8000C014065
:101550002DE9F04107461C4615460E462A2000F0AC
:1015600043F8002000F026F8BF1CF8B200F022F883
:10157000002000F01FF8AD1CE8B200F01BF82B2093
:1015800000F032F8002000F015F8F61CF0B200F080
:1015900011F8002000F00EF8E41CE0B200F00AF8A8
:1015A000BDE8F0412C2000F01FB80B460246FFF7C3
:1015B000CFBF000070B50B4C0546002280212046AD
:1015C000FFF75AF9012240212046FFF755F9284636
:1015D00000F0F4F92046BDE8704001228021FFF7B9
:1015E0004BB90000000C014070B50B4C05460022C1
:1015F00080212046FFF740F9002240212046FFF7D6
:101600003BF9284600F0DAF92046BDE87040012297
:101610008021FFF731B90000000C01402DE9F043B3
:1016200085B00020009001900290039026488169C7
:1016300041F020018161816901F0200104918169FB
:1016400041F008018161816901F00801049181691B
:1016500041F0040181618069012200F004001B4F08
:101660001402049021463846FFF706F9DFF860803F
:10167000012204214046FFF7FFF8DFF858904FF4AD
:10168000FC76002231464846FFF7F6F80094012424
:101690000325694638460194CDE90245FEF7F0FF7F
:1016A0000420CDE9000469464046CDE90245FEF735
:1016B000E7FFCDE9006469464846CDE90245FEF7FB
:1016C000DFFF05B0BDE8F0830010024000080140D4
:1016D00000140140000C0140104810B50E49016093
:1016E0004FF48271416000218160C1604FF400724B
:1016F0000161C0E905121022C0E90721416281623F
:101700000A21C162FFF7BAFB002803D0BDE81040F0
:10171000FEF7CDBD10BD0000003800401C000020C9
:1017200010B586B0002417480094019402940394E5
:1017300004941349059401604721C0E901144CF257
:101740004F31C0E903148461FFF77EFC08B1FEF756
:10175000AEFD4FF48050009069460A48FFF7C2FC86
:1017600008B1FEF7A4FD049404A906480594FFF708
:101770002DFC002801D0FEF79AFD06B010BD000038
:1017800000080040740000201CB500240E4800949E
:101790000C49019401604721C0E901144FF6FF7123
:1017A0008461C160FFF750FC08B1FEF780FD009432
:1017B000694605480194FFF709FC002801D0FEF7AF
:1017C00076FD1CBD00140040BC0000200C4810B584
:1017D0000A4901604FF4E1314160002181600C222F
:1017E000C160C0E904128161C161FFF7E9FC002812
:1017F00003D0BDE81040FEF75ABD10BD00380140CF
:1018000004010020FEE7FEE72DE9F8434EF67D7562
:1018100000242846FFF75CFD18A04FF4784600909E
:101820002B46324614211020FEF7BAFD4FF47A7091
:10183000FEF714FF2846FFF74BFDA946B0460325E7
:10184000114F0526B4FBF5F006EB4011B4FBF5F0A3
:101850003A1905FB1040527800EB80000092C0005E
:101860004B464246FEF756FE6420FEF7F7FE641C28
:10187000E4B20A2CE6D3BDE8F88300004E756D2073
:1018800054657374000000000000002070470000E1
:1018900070B5FFF734FD01220E4D14022146284693
:1018A000FEF7EAFF00F01AF8FEF784FCFFF7ACFF42
:1018B000FEF700FD084800F0DEF9FEF7EDFC4FF4FE
:1018C0009660FEF7CBFE21462846BDE87040002218
:1018D000FEF7D2BF000C0140BA36000838B54EF60C
:1018E0007D742046FFF7F4FC20A0009023461F22C1
:1018F00003211020FEF754FD20A04FF478450090FE
:1019000023462A4617211020FEF74AFD3A2371226A
:1019100026210F20FEF781FC1CA0009023464FF6E5
:10192000E0722B211020FEF73BFD58237122442149
:101930000F20FEF772FC19A0009023461F224921B8
:101940001020FEF72DFD7623712262210F20FEF775
:1019500064FC16A0009023462A4667211020FEF75B
:101960001FFDBDE838400A20FEF778BEC8F0B7C2B8
:10197000B5E7D7D3BCBCCAF500000000D2BABEA7F9
:10198000B2E2CAD4B3CCD0F200000000D1D5C9ABCA
:10199000CCEEB3E4B2E2CAD400000000CEC4D7D685
:1019A000CFD4CABEB2E2CAD400000000CDBCC6ACDF
:1019B000CFD4CABEB2E2CAD40000000070B50E4E49
:1019C00005460824280601D5012200E00022102146
:1019D0003046FEF751FF002208213046FEF74CFF4B
:1019E000012208213046FEF747FF6806050E641EF7
:1019F00014F0FF04E6D170BD000C01407047FEF703
:101A000047BF30B58FB028216846FEF7B4FB1421DC
:101A10000AA8FEF7B0FB01210804CDE9001000245C
:101A2000029402250491CDE907504FF4E01009908B
:101A30006846FFF793F808B172B6FEE70F20CDE9CC
:101A40000A054FF48060CDE90C4002210AA80E94EB
:101A5000FEF7A8FF002801D072B6FEE70FB030BD38
:101A600070470000F0B502681C4B1D4D1D4E1E4F07
:101A70001E4C4FF0804C984209D0A04207D06045E0
:101A800005D0A84203D0B04201D0B84204D122F020
:101A9000700E4A6842EA0E02984209D0A04207D06E
:101AA000604505D0A84203D0B04201D0B84203D16E
:101AB00022F44075CA682A434D6922F080022A4305
:101AC00002608A68C2620A688262984201D0A042BB
:101AD00001D10969016301214161F0BD002C014080
:101AE0000004004000080040000C004000340140A9
:101AF00010B5846842EA032224F47F440A43224357
:101B0000826010BD826822F070020A4342F0070131
:101B10008160704710B5036A046A24F0010404620E
:101B2000846924F0F00444EA021423F00A020A4310
:101B30008461026210BD10B5036A046A24F01004C7
:101B40000462846923F0A00324F4704444EA02325E
:101B500043EA01118261016210BD000070B50446C4
:101B600000680169E26821F4405111430161216973
:101B7000A0680843616908432168CA6841F20C63A0
:101B80009A430243CA6020684169A26921F4407106
:101B9000114341611E492068884202D1FEF7A8FF27
:101BA00001E0FEF795FF00EBC00101EB0012606859
:101BB00064218000B2FBF0F3B3FBF1F36FF0180681
:101BC0007343B2FBF0F5B2FBF0F605EB830532236D
:101BD00003EB0515B5FBF1F5B6FBF1F605F0F005E5
:101BE00005EB0615B2FBF0F6B2FBF0F0B0FBF1F03E
:101BF0006FF01802504306EB800003EB0010B0FBBF
:101C0000F1F0216800F00F002844886070BD0000EA
:101C100000380140FEE70907090E002804DB00F147
:101C2000E02080F80014704700F00F0000F1E02081
:101C300080F8141D704702E008C8121F08C1002A6E
:101C4000FAD170477047002001E001C1121F002A3D
:101C5000FBD17047FEF724FEFFF7D3FEFFF7DEFC53
:101C6000FFF7B4FDFFF790FDFFF736FDFFF758FDD6
:101C7000FFF70EFEFCE72DE9F05F07464FF6FF7415
:101C80002046FFF725FB0026A3464FF4C86A00252F
:101C900006EB8600272101EBC0090BEAC0082721CB
:101CA00005EB850001EBC0018AB21FFA89F34146BA
:101CB0000BEAC000FFF74CFC002407EB440017F8C8
:101CC0001410407841EA0020FFF7E6FA641C5445FE
:101CD000F3DB6D1C032DE2DB761C032ED7DBBDE8A6
:101CE000F09F000000000000000000000000000065
:101CF0000000001010101010101010100000101034
:101D0000000000006C6C24240000000001000000B2
:101D100000000024242424FE48484848FC90909069
:101D2000900000103C549290503814121292547843
:101D300010000000225C94A8481010242A525488F5
:101D40000000000030484850206E54948C888A74FB
:101D50000000000030301010000000000000000003
:101D6000000000040810102020202020201010085F
:101D7000040000804020201010101010102020407F
:101D8000800000000000105438103854100000008B
:101D9000000000000010101010FE101010100000C5
:101DA0000000000000000000000000000000101013
:101DB000200000000000000000FE00000000000005
:101DC00000000000000000000000000000001010F3
:101DD000000000000404080810102020404080800B
:101DE00000000000384482828282828282824438EB
:101DF0000000000010701010101010101010107C57
:101E0000000000003844828204081020408284FCD4
:101E10000000000038448202043804020282443880
:101E200000000000040C141424244444FE04040E96
:101E300000000000FC808080B8C4820202828478A6
:101E4000000000003C428280B8C482828282443812
:101E5000000000007E4282040408080810101010E0
:101E60000000000038448282443844828282443830
:101E700000000000384482828282463A028244385E
:101E80000000000000001010000000001010000012
:101E900000000000000010100000000000101020E2
:101EA00000000000000006186080601806000000B6
:101EB0000000000000000000FE0000FE0000000026
:101EC000000000000000C0300C020C30C000000018
:101ED0000000003844828202040810101000101024
:101EE000000000003844829AAAAAAAAAAA968042B0
:101EF0003C00000010101028282844447C4444EE84
:101F000000000000FC424242427C4242424242FC0B
:101F1000000000003C4482808080808082824438BF
:101F200000000000F844424242424242424244F829
:101F300000000000FC444240447C4440404244FCD9
:101F400000000000FC444240447C4440404040F0DB
:101F500000000000344C828080808E8484844C3465
:101F600000000000EE444444447C4444444444EEB5
:101F7000000000007C101010101010101010107CC9
:101F8000000000003E080808080808080888887053
:101F900000000000EE44484850605048484444EE79
:101FA00000000000E040404040404040404244FCCF
:101FB00000000000C6446C6C6C545454444444EE1D
:101FC00000000000CE4464646454544C4C4C44E41F
:101FD00000000000384482828282828282824438F9
:101FE00000000000F844424242447840404040E053
:101FF00000000000384482828282828282BA443C9D
:1020000002000000F048444444487048444444E618
:10201000000000003C44828040300C020282447880
:10202000000000007C549210101010101010103896
:1020300000000000EE4444444444444444444438D2
:1020400000000000EE4444444428282828101010C2
:1020500000000000EE4454545454545428282828B6
:1020600000000000EE44442828101028284444EEC4
:1020700000000000EE4444282828101010101038EA
:10208000000000007E44840808102020408284FC68
:102090000000001C10101010101010101010101064
:1020A0001C000000EE445454FE54545428282828A0
:1020B00000000070101010101010101010101010F0
:1020C00070000030488400000000000000000000A4
:1020D0000000000000000000000000000000000000
:1020E000FE00004020000000000000000000000092
:1020F00000000000000000007884047C84848C765A
:1021000000000000C04040405864424242426458CF
:1021100000000000000000003844808080804438C7
:10212000000000000C040404344C848484844C3685
:102130000000000000000000788484FC8080847827
:102140000000000018242020F820202020202070EB
:1021500000000000000000003A444478807C828245
:102160007C000000C040404058644444444444EE75
:102170000000000010100000301010101010103877
:10218000000000001010000030101010101010900F
:1021900060000000C04040405C485060504844EE41
:1021A0000000000030101010101110101010103925
:1021B0000000000000000000ACD29292929292D6F1
:1021C000000000000000000058E44444444444EE91
:1021D00000000000000000003844828282824438FF
:1021E0000000000000000000D864424242645840F1
:1021F000E000000000000000364C8484844C34046D
:102200000E000000000000006C3020202020207014
:102210000000000000000000788884601884447882
:102220000000000000202020F8202020202024187A
:102230000000000000000000C64242424242463A0E
:102240000000000000000000EE4444282828101080
:102250000000000000000000EE44445454282828E8
:102260000000000000000000EE442810102844EE9A
:102270000000000000000000EE444428281010A0D8
:10228000C0000000000000007E448810204284FC52
:102290000000000C10101010106010101010101022
:1022A0000C00001010101010101010101010101052
:1022B000100000C0202020202018202020202020D6
:1022C000C00000000000000000728C000000000050
:1022D00000000000000000001FE000003FF00000D0
:1022E0003FF000001FE0000180060003C00F000364
:1022F000C00F0003C00F0003C00F0003C00F000396
:10230000C00F0003C00F0003C00F00030003000054
:1023100000000000000000000000000300030003B4
:10232000C00F0003C00F0003C00F0003C00F000365
:10233000C00F0003C00F0003C00F0003C00F000157
:10234000800600001FE000003FF000003FF00000AA
:102350001FE00000000000000000000000800000FE
:10236000018000000380000007800000078000005B
:102370000780000007800000078000000780000041
:102380000780000007800000078000000180000037
:1023900000000000000000000000000001800000BC
:1023A0000780000007800000078000000780000011
:1023B0000780000007800000078000000780000001
:1023C0000780000003800000018000000080000002
:1023D00000000000000000001FE000003FF00000CF
:1023E000FFF00001FFE0000000060000000F000009
:1023F000000F0000000F0000000F0000000F0000A1
:10240000000F0000000F0000000F00001FE300009D
:102410007FF800007FF800001FE0000300000003C9
:10242000C0000003C0000003C0000003C0000003A0
:10243000C0000003C0000003C0000003C000000192
:10244000800000001FF000003FF800003FFC00008B
:102450001FFE000000000003FF800001FFC000001D
:10246000FFC000007F80000000180000003C00005A
:10247000003C0000003C0000003C0000003C00006C
:10248000003C0000003C0000003C00007F8C00018C
:10249000FFE00001FFF000007F800000000C000062
:1024A000003C0000003C0000003C0000003C00003C
:1024B000003C0000003C0000003C0000003C00002C
:1024C000001800007F800000FFC00001FFC0000373
:1024D000FF80000000000000000000020001000377
:1024E0000003000380070003C00F0003C00F0003B8
:1024F000C00F0003C00F0003C00F0003C00F000394
:10250000C00F0003C00F0003C00F00031FE3000053
:102510007FF800007FFC00001FE0000000030000C7
:10252000000F0000000F0000000F0000000F00006F
:10253000000F0000000F0000000F0000000F00005F
:10254000000F000000070000000300000001000071
:1025500000000000000000001FFC00003FF8000029
:102560003FF000001FE0000180000003C0000003F6
:10257000C0000003C0000003C0000003C00000034F
:10258000C0000003C0000003C00000031FE0000003
:102590007FF800007FF800001FE00000000300004B
:1025A000000F0000000F0000000F0000000F0000EF
:1025B000000F0000000F0000000F0000000F0000DF
:1025C000000600003FE000007FF00000FFF0000187
:1025D000FFE00000000000001FFC00003FF80000CA
:1025E0003FF000001FE0000180000003C000000376
:1025F000C0000003C0000003C0000003C0000003CF
:10260000C0000003C0000003C00000031FE0000082
:102610007FF800007FFC00001FE0000300030003C0
:10262000C00F0003C00F0003C00F0003C00F000362
:10263000C00F0003C00F0003C00F0003C00F000154
:10264000800600001FE000003FF000003FF00000A7
:102650001FE0000000000007FFE00003FFC00001D2
:10266000FF880000FF18000000380000007800001C
:10267000007800000078000000780000007800007A
:1026800000780000007800000078000000180000CA
:102690000000000000000000000000000018000022
:1026A000007800000078000000780000007800004A
:1026B000007800000078000000780000007800003A
:1026C000007800000038000000180000000800003A
:1026D00000000000000000001FE000003FF00000CC
:1026E0003FF000001FE0000180060003C00F000360
:1026F000C00F0003C00F0003C00F0003C00F000392
:10270000C00F0003C00F0003C00F00031FE3000051
:102710007FF800007FFC00001FE0000300030003BF
:10272000C00F0003C00F0003C00F0003C00F000361
:10273000C00F0003C00F0003C00F0003C00F000153
:10274000800600001FE000003FF000003FF00000A6
:102750001FE00000000000001FE000003FF000004C
:102760003FF000001FE0000180060003C00F0003DF
:10277000C00F0003C00F0003C00F0003C00F000311
:10278000C00F0003C00F0003C00F00031FE30000D1
:102790007FF800007FFC00001FE000000003000045
:1027A000000F0000000F0000000F0000000F0000ED
:1027B000000F0000000F0000000F0000000F0000DD
:1027C000000600001FE000003FF000007FF0000066
:1027D000FFE000000000000000000000000000001A
:1027E00000000000000000000000000000000000E9
:1027F00000000000000000000000000000000000D9
:1028000000000000000000000000000000000000C8
:1028100000000000000000000000000000000000B8
:1028200000000000000000007800000078000000B8
:1028300078000000780000007800000078000000B8
:102840000000000000000000000000000000000088
:102850000000000000000000000000000000000078
:102860000000000000000000000000000000000068
:1028700000000000070000000F8000000F80000033
:102880000F800000070000000000000000000000B2
:102890000000000000000000000000000000000038
:1028A000070000000F8000000F8000000F80000074
:1028B0000700000000000000000000000000000011
:1028C0000000000000000000000000000000000008
:1028D00000000000000000000000000000000000F8
:1028E00000000007C006000FE0060000000C0030EA
:1028F0001818003018180030183000301830003028
:102900001860003008C00007C0C0000FE080000061
:1029100000000000000FE0000607C00006301800AD
:102920000C3018000C301800183018003030180027
:102930003030180060000000C00FE000C007C00089
:102940000000000000000000000000000000000087
:102950000000000000000000000000000000000077
:1029600000000000000000000000000700E0000878
:1029700087FC00088E03000898018007180080007B
:102980003000000030000000700000006000000017
:1029900060000000600000006000000060000000B7
:1029A000700000003000000030000000380000001F
:1029B000180100000C03000007FC000001F00000FB
:1029C0000000000000000000000000000000000007
:1029D00000000000000000000000000000000000F7
:1029E00000000000000000000000000000000000E7
:1029F00000000000000000000000000000000000D7
:102A000000000000000000000000000000000000C6
:102A10003FF000007FF000007FE00000FFC00000FA
:102A200000000000000000000000000000000000A6
:102A30000000000000000000000000000000000096
:102A40000000000000000000000000000000000086
:102A500000000000B5E70200020002007FF0421013
:102A600042107FF0421042107FF04200020802083C
:102A700001F800000000D7D37FF000200040008064
:102A800001000200FFF80200020002000200020042
:102A900002000E0000000000C8F000200222FA220E
:102AA000222223FE200027FEF820204023FE22526F
:102AB0003A52E252425202520206B7C2088008401D
:102AC000084017FE11003100310051F8910811083B
:102AD000110811081208120814501820BCBC10204C
:102AE0001020102013FEFC201020102015FC18844C
:102AF0003088D04810501020105051882606CAF552
:102B000001000120011001107FFC038005400540F9
:102B100009201110210841040102010001000100F7
:102B2000D2BA0080404027F81140014082784248E4
:102B300016A81AD0235022204220425002880000BA
:102B40000000BEA73FE020203FE020203FE0000043
:102B5000FDF885088508FDF885088508FDF88508D5
:102B600000000000B2E200084F8828880AA88AA85E
:102B70004AA80AA82AA82AA842284508848888883A
:102B8000103800000000CAD44050204820400FF800
:102B90000040E04027402240224022202A2833A83B
:102BA0002E18000800000000B3CC00001BF0E2105B
:102BB000221023F0F800200033F068806080A3F03A
:102BC0002080208027F800000000D0F202000100E1
:102BD0003FF820002FF02020224021803FF820885D
:102BE000209040804080838000000000D1D52000EC
:102BF00010F87E20444028F87E8848A850A864A891
:102C000048A872A884501888610800000000C9AB69
:102C1000100010003FE0404080807FF042104210E2
:102C200042107FF04000400840083FF800000000DC
:102C3000CCEE20802FF8208027F0F41027F024100D
:102C400027F0241027F03410CFF8022004100000E1
:102C50000000B3E404000200FFF808001040202048
:102C60007FF0089008800880088010882088C0784D
:102C700000000000CEC4040002000200FFF8104073
:102C800010400880088005000200050008803060C0
:102C9000C01800000000D7D604000200FFF880082A
:102CA00080083FC0008001000200FFF8020002001F
:102CB00002000E0000000000CFD43FE020202020C2
:102CC0003FE0202020203FE008804890289028A066
:102CD00008800880FFF800000000CABE00003FE046
:102CE000000000000000FFF8020012401220221035
:102CF0004208820802000E0000000000CDBC7FF8F0
:102D00004008440847C84848548843084CC87338AA
:102D100040884C08430840887FF800000000C6AC9B
:102D200000802080208020803FF0200020002000B4
:102D30003FC0204020402040404080400000000034
:102D4000B4A520403840484091F07D505550555032
:102D50007D5055F054407C40545057F88C0800008A
:102D60000000C3FE2220222027F8FA2027F024109A
:102D700027F03410E7F020802FF821402220EC18B3
:102D800000000000CAE440804140F22044108BE87B
:102D9000A000F78824A827A834A8E7A824A8248896
:102DA00025B800000000C8EB080004000400020081
:102DB0000200050005000880088010401040202017
:102DC0004010800800000000C8AB020002000500AF
:102DD000088010402020DFD8020002001FC002003F
:102DE00002000200FFF800000000B3CC00001BF05E
:102DF000E210221023F0F800200033F06880608099
:102E0000A3F02080208027F800000000BCBC2080B8
:102E100020802080F7F02080208027E03220E220F0
:102E20002140208021402220EC1800000000CAF53B
:102E30000200024002200200FFF807000A800A8018
:102E4000124022204210820802000200000000000E
:102E5000D6A702000200FFF8020002007FE0102067
:102E60001040088005000200050018C0E03800008E
:102E70000000B3D62080208023F0F880208027F83F
:102E800028203020E7F82020222021202020E0E008
:102E900000000000D7A8020002007FF00400040038
:102EA000FFF8080010003FE0002000401C800300F5
:102EB000008000000000D7A201004080200017F031
:102EC000008080804080008017F01080208020806B
:102ED00040804FF800000000C5FA20402440244004
:102EE000F4482450276024403440E44024402440E7
:102EF00025482648E43800000000B7A2020022203E
:102F0000221044007FF8040008000FE01420244041
:102F10004280810006C0383800000000B3C900A01C
:102F2000009000807FF8408040907C90449044A0C6
:102F300044A0444858A84118820800000000B9A6DF
:102F400001000100F90023F02110211021102110AF
:102F500021103910C2100210041008600000000097
:102F6000D2C60000002000780CE4790451681030CB
:102F70007E6019981A3C2FE448E40838003000605D
:102F80000000D1A100000120012003FC62203420B8
:102F9000042003FC240021B021202220323E18000E
:102FA0000FE00000D4F10000000010FC1304110C2D
:102FB0003DF8703E10D015907CF0503E18101BFE6E
:102FC000023000200000CFEE0000000003FE006091
:102FD0007C4012FC11041106113611241F4479445F
:102FE00000C0009C01860000C4BF000000000FE08C
:102FF0003C18200820043E04600460047E04600441
:10300000200C20081FF001800000B6CC0000080052
:1030100011FC103E3EF82D8C2904490409043E8C15
:1030200050FC10881EC811FC100E0000B0B4000047
:103030000040006012FE13023A427F4410C41BFE9F
:103040003C987190113011A00078004C0000C8B776
:103050000000004000F878C41F8C313821EC212694
:10306000413A7DE2272225FA3D2601240104000091
:10307000B6A80000010001705FFC700420042FF866
:1030800001001100113821C431003F0063E04038D5
:103090000000B3A4000000000818086008C00B007E
:1030A0001E00181C7FF01000118010E01838098EE7
:1030B0000F000000B0B400000040006012FE1302D8
:1030C0003A427F4410C41BFE3C987190113011A00D
:1030D0000078004C0000B7B50000000007F80600BB
:1030E000240014F8078C04042408261825F0647CB6
:1030F00064C220801FC00000BBD8000000001FF089
:1031000030182008278C2C44284428442CC42784B9
:103110002004300C1FF803800000000000000000B5
:10312000000000000000000000000000000000009F
:10313000000000000000000000000000B4BF00001C
:1031400000000000020100063FC00C3FE018030031
:103150001002003336603726203E66301C6430187B
:10316000642031FEE03F1FC01C0C00000C0007046F
:10317000003E07F00001C000000000000000000059
:10318000000000000000C9AB00000000000001FECC
:103190000003E3000703000C03001C3F003BFFC0DB
:1031A0003F30600C30200C30200C10200C10600FD1
:1031B000FFC0083F000800000800600E3FE007FC69
:1031C00000000000000000000000000000000000FF
:1031D000CCEE00000000000000030000FFE00C0740
:1031E000F00C06000CFF803FF0E01FC0600CFE30CA
:1031F0000CCC3004F83004FF2004C0201FFE603ED9
:10320000C06001FFF001FFF00060600040000000BE
:1032100000000000000000000000B3E40000000017
:10322000000000200000300007FFF03FFFE0030037
:10323000000601800C01800801C01807E00FFE7035
:1032400007E0000206000604000404000404000C69
:1032500006700C07E0000000000000000000000005
:1032600000000000B2E20000000000000000303961
:10327000FC301FCC300706B00F06F01907B031370D
:10328000B03136F01F27F00167F001E5F001E1F001
:103290000041F00CF8B03CD830008C300080300099
:1032A0000000000000000000000000000000CAD480
:1032B0000000000000000803600C03700C033000E5
:1032C0003FE0003F800801003C0180047F80047DD6
:1032D000800C00800C10C00C10C00C18400C1C603E
:1032E0000F7E60067030000030000000000000001B
:1032F0000000000000000000CEC400000000C0007C
:1033000000E00000700001FFE01FFFC01801000096
:103310000300000600000E00001C000E180007301D
:103320000001E00000F00000FC00018F000303C07A
:103330000201E000000000000000000000000000AA
:103340000000D7D6000000000000002000003F0071
:1033500031FFE03FC02038003030FE2033C660101F
:103360000200000C00001800001800000C0007FF0D
:10337000E03FFFE0000400000C00000C0000000033
:10338000000000000000000000000000CFD400009A
:103390000000000007FF000F03C00C00401FF86092
:1033A0001800600800400E01C007FF000000000187
:1033B00084000184001987800F8CE0078C2000CCEA
:1033C0000003FFE01FFFC00000000000000000003D
:1033D000000000000000CABE0000000000000E0057
:1033E000001FFFC0007FE0000000000000000000A0
:1033F000000000003FC03FFFE00030000030000050
:1034000030000613000C13C00C18F0181800181820
:1034100000000000000000000000000000000000AC
:10342000CDBC00000000000007FF000F03801CC09F
:10343000C019FC6011C66033062033E63036FF3019
:10344000301FF030703030FC30339F3036002010A9
:10345000E060187C400E01C003FF0000380000004F
:1034600000000000000000000000C6AC00000000EA
:103470000000081800180800180800180800180CA8
:10348000201FFFF01FF80018000010000010F800C7
:103490001FFE001E030010030010030010030010A5
:1034A00003001802000000000000000000000000FF
:1034B00000000000CFD400000000000007FF000F54
:1034C00003C00C00401FF8601800600800400E01A7
:1034D000C007FF00000000018400018400198780FC
:1034E0000F8CE0078C2000CC0003FFE01FFFC00022
:1034F0000000000000000000000000000000CABE44
:103500000000000000000E00001FFFC0007FE00070
:103510000000000000000000000000003FC03FFF6E
:10352000E00030000030000030000613000C13C033
:103530000C18F01818001818000000000000000017
:103540000000000000000000B4A500000000000022
:103550000601800FC1801E6180304FC020CFE00780
:103560008D303FC9303379303379303FFB3037FF0E
:10357000203267E03FE3803FE3C03263603267F0B0
:10358000304FB0000000000000000000000000000C
:103590000000C3FE0000000000000030C000FFF08B
:1035A0000C79C00C1F800C7FE03FE0600CC0300C39
:1035B000FC3004C03007C0301E60603C3FC0041CBB
:1035C00000047FE000FFE00030C000606000000009
:1035D000000000000000000000000000CAE400003D
:1035E000000000000C03800C0FC0081C703F70002E
:1035F0001F9FC0101FC0100000367C3017E6301F20
:10360000E3B0067FB00277F007E3F03F7FF01336B8
:10361000F003263003263000000000000000000008
:10362000000000000000C8EB0000000000000600E1
:103630000003800001C00000E0000070000078007E
:1036400000CC0000C6000183000301800700C00613
:1036500000E00C007018003018000030000000007E
:10366000000000000000000000000000000000005A
:10367000000000000000000000000000000000004A
:10368000000000000000000000000000000000003A
:10369000000000000000000000000000000000002A
:1036A000000000000000000000000000000000001A
:1036B00000000000000000000000DBDE5DEF5DEFB9
:1036C0007DEF5DEF5DEF5DEF5DEF5DEF5DEF5DEF7A
:1036D0005DEF5DEF5DEF5DEFBEF7FFFFDEFF38C62C
:1036E000928C8E6B6E6B107C96AD3CE7FFFFFFFFFC
:1036F0007DEF5DEF5DEF5DEF5DEF5DEF5DEF5DEF4A
:103700005DEF5DEF5DEF5DEF5DEF5DEFFFFFFFFFF5
:10371000FFFFFFFFFFFFFFFFFFFFFFFFFFFFFFFFB9
:10372000FFFFFFFFFFFFFFFF5DEF159D4F636C4243
:103730000A328829461925194521E8318E6B18BEB1
:10374000FFFFFFFFFFFFFFFFFFFFFFFFFFFFFFFF89
:10375000FFFFFFFFFFFFFFFFFFFF5DEFFFFFFFFF2B
:10376000FFFFFFFFFFFFFFFFFFFFFFFFFFFFFFFF69
:10377000FFFFFFFFDFFFF59C0F53104B51530F4B23
:103780006C3AE93167212519E410A3086200830827
:103790008A4A59C6FFFFFFFFFFFFFFFFFFFFFFFF42
:1037A000FFFFFFFFFFFFFFFFFFFF5DEFFFFFFFFFDB
:1037B000FFFFFFFFFFFFFFFFFFFFFFFFFFFFFFFF19
:1037C000FFFF1CE74F5BB363B87CF56311434D32D9
:1037D000EA29882126190519051904110411E41094
:1037E0008300A308728CFFFFFFFFFFFFFFFFFFFFB7
:1037F000FFFFFFFFFFFFFFFFFFFF5DEFFFFFFFFF8B
:10380000FFFFFFFFFFFFFFFFFFFFFFFFFFFFFFFFC8
:10381000DBDE4B3AF042356C544BB1322E2AEB21B1
:10382000A9216719051904110411041104110411C7
:103830000519E4104200AF73FFFFFFFFFFFFFFFF1A
:10384000FFFFFFFFFFFFFFFFFFFF5DEFFFFFFFFF3A
:10385000FFFFFFFFFFFFFFFFFFFFFFFFFFFF5DEF2A
:1038600009324C32104B8F324F2A2E2ACC1989192B
:1038700089214719051904110411C410C410041139
:1038800004110411E41042003184FFFFFFFFFFFF29
:10389000FFFFFFFFFFFFFFFFFFFF5DEFFFFFFFFFEA
:1038A000FFFFFFFFFFFFFFFFFFFFFFFFFFFFEC52E8
:1038B00047194C320B2AEC21EC210C22915BEE4A89
:1038C000061126190419E410E410A7296621A3089B
:1038D000051904110411E4108200F7BDFFFFFFFF7A
:1038E000FFFFFFFFFFFFFFFFFFFF5DEFFFFFFFFF9A
:1038F000FFFFFFFFFFFFFFFFFFFFFFFF35A583086F
:10390000882188218921AA218A216B42718CFFFF9D
:10391000728C83080411C4082942FBDE5DEFEC5A67
:1039200083080411041104118308E831DFFFFFFF4D
:10393000FFFFFFFFFFFFFFFFFFFF5DEFFFFFFFFF49
:10394000FFFFFFFFFFFFFFFFFFFFBEF7C731C41000
:103950002519261947194719A8298A52284A55AD09
:10396000FFFFE831A30805194D6B4D6BFFFF7DEF9D
:103970004521C410041104110411620076ADFFFF4B
:10398000FFFFFFFFFFFFFFFFFFFF5DEFFFFFFFFFF9
:10399000FFFFFFFFFFFFFFFFFFFF96B5620004116F
:1039A000041905110519C4088B4AB6B55DEFF7BDBA
:1039B000FFFF8E6B62002942AA5A0842FFFFFFFFF9
:1039C000CC528308041104110411A308AD52FFFF67
:1039D000FFFFFFFFFFFFFFFFFFFFBEF7FFFFDFFF60
:1039E000DBDEFFFFFFFFFFFFFFFF4E6362000411FE
:1039F00004110411E41062008E63FFFFFFFFFFFF5C
:103A0000FFFFCF730100F39C2C6396B5FFFFFFFF10
:103A10002D5B8300041104110411E41067213DEFB4
:103A2000FFFFFFFFFFFFFFFFFFFFB7B576AD7DEFA5
:103A3000CB52B394FFFFFFFFDFFFE831A30804116F
:103A4000041104110411A3084942FFF7FFF7FFFF17
:103A5000FFFF6A4A01007284FFFFFFFFFFF7DFEFFD
:103A6000093AA3080411041104110411051118BE28
:103A7000FFFFFFFFFFFFFFFFFFFFF07B6200E8316A
:103A8000C731410035A5FFFF5DEF4621C410041189
:103A9000041104110411E410A308769DFFF7FFFF41
:103AA000B7ADA308A308C7319EE7FFF7FFF776A5D8
:103AB000A308E4100411041104110511051135A522
:103AC000FFFFFFFFFFFFFFFFFFFFDBDEA7298300F4
:103AD000C410C410C4101CE79EEF0511E4100411BB
:103AE0000411041104110419C408E510D16BD16B41
:103AF000C5086400A50843002B32779DB3842519BF
:103B0000C410041104110411041125192609359D4E
:103B1000FFFFFFFFFFFFFFFFFFFFFFFFAF7362002D
:103B20000419051982000D5B8E9B621005110411AA
:103B300004110419E41085000511C439815A407B31
:103B4000229C43AC03A4839B82728249C218A400C6
:103B5000C500E41004190411051947196711EC5A3E
:103B6000BEFFFFFFFFFFFFFFFFFFDFFFDBD6C4103D
:103B7000E41004110511A41801C08388E40005199C
:103B80000419C5084421438323D542FEE4FE27FFE0
:103B900007FFA4FE64FE03FEA3FDE2FC42EC83B338
:103BA0002462E510C40804192619A8198721009079
:103BB000D3BCFFFFFFFFFFFFFFFF5DEFFFFFF07BC9
:103BC000420005190511832801D044F8A348E400F8
:103BD000C508445A02EDE2FD02FE66FE74FFB8FF1E
:103BE00073FFE7F6A6F645F6A4F5C3FC62FCC2FC3B
:103BF000C2FCE3CBC449061188198701A49001F8DF
:103C0000EC9AFFFFFFFFFFFFFFFF5DEFFFFF9EF757
:103C1000E83183000509824001C023F885F0A348FC
:103C2000A400445A02FD23CCC2DC04FE28FE48F660
:103C300046F624F6E4F564FDE3FC62FCC2FC02E413
:103C400002DCE2FCA47A48016701C47824F802F897
:103C500084B07DE7FFFFFFFFFFFF5DEFFFFFFFFF8A
:103C6000DBDE2519A300C43802E022D844F8A6F808
:103C7000A4786300432183728339829B21F561FD1F
:103C800022FDE2FCA2FC42FC42FC42FC22AB83414E
:103C9000C392045226012519A49844F823F802F887
:103CA000A4D09EEFFFFFFFFFFFFF5DEFFFFFFFFFD1
:103CB000FFFF9AD68729A50043B822F823E065F8CC
:103CC000E8F807C983484200A30084006329A27A68
:103CD00062B3A2CB62D302BB828A8339A400E5001F
:103CE000E500E508C46064D844F824F823F802F835
:103CF0008388DBC6FFFFFFFFFFFF5DEFFFFFFFFFD6
:103D0000FFFFFFFF3DE7505B083123E843F844F035
:103D100065F809F9ABF989D10689A3484218020070
:103D2000420061008200620062008300A320C45050
:103D3000A58885D865F844F844F823F823F803D01B
:103D40008210C7295DEFFFFFFFFF5DEFFFFFFFFF61
:103D5000FFFFFFFFFFFFFFFF6C32A53802D823F8FB
:103D600065F866F8A7F84AF90CFA4DFA4CEA0BD256
:103D7000A9B968B147A927B107B907D1E7E8C7F8DA
:103D8000A7F865F865F844F823F803F802D0A328EB
:103D90000509C408EC5AFFFFFFFF5DEFFFFFFFFFBF
:103DA000FFFFFFFFFFFFFBDE0519C400A741E6C0D0
:103DB00003F886F8A7F887F886F8C7F829F98AF98A
:103DC000ABF9ABF98BF96AF929F908F9C7F8A6F844
:103DD00086F865F864F823F802F006B12529E400B6
:103DE000E41025192519149DFFFF5DEFFFFFFFFF6C
:103DF000FFFFFFFFFFFF96AD620082083595BACE48
:103E00008BA244D025F887F8A7F8C7F8A7F887F859
:103E100086F886F886F887F8A7F8A7F8A6F885F850
:103E200065F864F824F064B80D93BBB6CF638308DB
:103E30000411E4106621493A5DEF5DEFFFFFFFFFDB
:103E4000FFFFFFFFFFFFD3944200E410BBCEFFFF54
:103E5000BEE776B5CCAA07C145E045F846F866F856
:103E600086F886F886F886F865F845F865F865E816
:103E700044D043A8018882903CD7FFEF5595830832
:103E80000411041105194619B3945DEFFFFFFFFFFC
:103E9000FFFFFFFFFFFFB394410086215DDFFFFFBF
:103EA000FFFFFFFFDFE77AC6D3B44EB32AC268D163
:103EB000E6E0A6E8A5E8A5E8E6D888C906A922A80C
:103EC00002A800A000C800D8F7E5FFE7F8ADC410CD
:103ED000E4100411E41005118B4A5DEFFFFFFFFFB2
:103EE000FFFFFFFFFFFF55A54100A7295DDFFFF79B
:103EF000FFFFFFFFFFFFFFFFFFFFFFEF7DDFDBCED9
:103F000059CEF8CDD7CDF7C579CEFBBEABA203F025
:103F100045F842D043E800F072D4FFDF39AEE41038
:103F2000E4100411E410051187295DEFFFFFFFFF86
:103F3000FFFFFFFFFFFF59CE830846211CD7FFF785
:103F4000FFFFFFFFFFFFFFFFFFFFFFFFFFFFFFFF81
:103F5000FFFFFFFFFFFFFFFFFFFFFFEF8BBA04F83C
:103F600045F862E044F000F88EDBFFDFF8A5C410EE
:103F7000E410E4100411E41025195DEFFFFFFFFFCA
:103F8000FFFFFFFFFFFFBEF78729830839B6FFF762
:103F9000DFF7FFFFFFFFFFFFFFFFFFFFFFFFFFFF59
:103FA000FFFFFFFFFFFFFFFFFFFFBEE74ABA03F877
:103FB00045F864F844F800F86EE3FFD7F48C830802
:103FC0000411E410E410E41005195DEFFFFFFFFF9A
:103FD000FFFFFFFFFFFFFFFFEF7300007284FFEFA3
:103FE000BEEFDFFFFFFFFFFFFFFFFFFFFFFFFFFF52
:103FF000FFFFFFFFFFFFFFFFFFFFDFE78BBA03F8C5
:1040000045F845F823F800F8D3D4FFD74E5B2100DC
:10401000293A55A58308C41025195DEFFFFFFFFF5E
:10402000FFFFFFFFFFFFFFFFFBDEA308E8319EDF7E
:104030009EE7BFEFFFFFFFFFFFFFFFFFFFFFFFFF59
:10404000FFFFFFFFFFFFFFFFFFFFFFF751BC02E095
:1040500003F803F043E0ECC27ECFFCBE4621210012
:10406000D394FFFF5184000087295DEFFFFFFFFF1E
:10407000FFFFFFFFFFFFFFFFFFFF51840000F48CF5
:10408000FFEF9EE7BFEFDFFFFFFFFFFFFFFFFFFF39
:10409000FFFFFFFFFFFFFFFFFFFFFFFF3DDF55BDFE
:1040A00052BC72BCB7B55DC7FFDFF06B0000093AC8
:1040B000BFF7FFFFFFFF149D55A55DEFFFFFFFFF5B
:1040C000FFFFFFFFFFFFFFFFFFFFFFFFAC4AA4085A
:1040D000BBBEDFE77EE7BEEFDFF7DFFFFFFFFFFFDF
:1040E000FFFFFFFFFFFFFFFFFFFFDFFFDFF7FFEF38
:1040F000DFDFBFD79ED7DFDFD8A583082611DBD649
:10410000FFFFFFFFFFFFFFFFFFFF5DEFFFFFFFFF71
:10411000FFFFFFFFFFFFFFFFFFFF79EE8BDC213189
:10412000A9213DCFBFDF7EDF9EE7BEEFBFEFDFF708
:10413000DFF7DFF7DFF7DFF7BFEFBEEF9EE77EDFEA
:104140005ED75ED7DFDF9AB626194208EDA3BFFF20
:10415000FFFFFFFFFFFFFFFFFFFF5DEFFFFFFFFF21
:10416000FFFFFFFFFFFFFFFF74DDC0DB00FE42EE3D
:10417000024289217BB6DFDF7ED77EDF7EDF9EE7CE
:104180009EE79EE79EE79EE77EDF7EDF5DD75DD7F9
:104190009EDFFFE7F8A50711E31802C560FDE6D32F
:1041A000DBEEFFFFFFFFFFFFFFFF5DEFFFFFFFFF06
:1041B000FFFFFFFFFFFF9EF784BAC1FC42FE82FEB5
:1041C000A2FE8183452174745EC7DFDF7ED75ED790
:1041D0005DD75ED75ED75DD75DD75ED79EDFFFE741
:1041E0003DC7F1638408425226E629FF86FEE0F3CC
:1041F0006AC3FFFFFFFFFFFFFFFF5DEFFFFFFFFF52
:10420000FFFFFFFFFFFF18DEC1D2A2FD22FE42FE2C
:1042100042FE62FEE2D4416A494253743BA63EC765
:10422000BFD7BFD7BFD7BFDFBFD73EC71AA6F2637E
:10423000A729824122B462FE83FEAAFE0FFF67FD1A
:1042400063BA3CEFFFFFFFFFFFFF5DEFFFFFFFFFE4
:10425000FFFFFFFFFFFF9AE680D221FDC2FDE2F5DE
:10426000C2F582F582FD62FD61DC219B846AE96A08
:104270002C63AF6311746E632C63895A0452817A84
:10428000C2CBE2FC62FD82FDC2FDC2FDE4FD24FD65
:1042900062CA1CE7FFFFFFFFFFFF5DEFFFFFFFFFAD
:1042A000FFFFFFFFFFFFFFFFB1CC81D2C0F3C1FCD6
:1042B00002FD02FDE2FCC2FCC2FC81FC80FBC0C925
:1042C000A48135AD59CE719C218100DAA1FB82FC1D
:1042D000A2FC82FCA2FC02FD22FDE2FC00FC60DAF2
:1042E00090CCFFFFFFFFFFFFFFFF5DEFFFFFFFFF32
:1042F000FFFFFFFFFFFFFFFFFFFF59DE0DC406CBEF
:10430000E4D203DB03DBE3DAC3D2A4C209B3D2BC39
:104310009EF7FFFFFFFFFFFFFBE60EB4A6BA83D2B6
:10432000E3E202EB22EB22E303DBE4D26AC3B6D57D
:10433000FFFFFFFFFFFFFFFFFFFF01020203040576
:10434000060708090A0B0C0D0E0F101000000000E4
:104350000000000001020304060708090000000035
:104360000102030484430008000000201C00000038
:10437000361C0008A04300081C0000203405000083
:10438000461C000800010203040506070809000096
:104390000100000010000000000000000024F400F4
:0400000508000131BD
:00000001FF
