:020000040800F2
:100000008005002045010008A71A000863180008B1
:10001000A51A0008DD010008691F000800000000A3
:10002000000000000000000000000000091B0008A4
:100030000903000800000000A91A00080B1B0008B3
:100040005F0100085F0100085F0100085F01000810
:100050005F0100085F0100085F0100085F01000800
:100060005F0100085F0100085F0100085F010008F0
:100070005F0100085F0100085F0100085F010008E0
:10008000FD0200085F0100085F0100085F01000831
:100090005F0100085F0100085F0100085F010008C0
:1000A0005F0100085F0100085F0100085F010008B0
:1000B0005F0100085F0100085F0100085F010008A0
:1000C0005F0100085F0100085F0100085F01000890
:1000D0005F0100085F0100085D1F00085F01000864
:1000E0005F0100085F0100085F0100085F01000870
:1000F0005F0100085F0100085F0100085F01000860
:100100005F0100085F0100085F0100085F0100084F
:100110005F0100085F0100085F0100085F0100083F
:100120005F0100085F0100085F0100085F0100082F
:10013000DFF80CD000F040F80048004769210008C3
:10014000800500200648804706480047FEE7FEE796
:10015000FEE7FEE7FEE7FEE7FEE7FEE7FEE7FEE777
:100160006D1B000831010008D2B201E000F8012B3C
:10017000491EFBD270470022F6E710B513460A4627
:1001800004461946FFF7F0FF204610BD30B50B4678
:10019000014600202022012409E021FA02F59D42B7
:1001A00005D303FA02F5491B04FA02F52844151E8B
:1001B000A2F10102F1DC30BD064C074D06E0E0681B
:1001C00040F0010394E8070098471034AC42F6D39E
:1001D000FFF7B2FF2C2200084C220008FEE70000C7
:1001E0002DE9F047054600F079F8344E0122402110
:1001F000304600F0C4FB00224021304600F0BFFB37
:1002000000244FF47A77384601F08AFF641CE4B288
:10021000122CF8D300F054F8142001F081FF402193
:100220003446304600F09EFB08B900F057F800F065
:1002300047F84021204600F095FB00283BD10226DC
:100240004021204600F08EFB20B9300000F101066D
:10025000F6B2F5D10226A2464021504600F082FBBC
:10026000012804D1300000F10106F6B2F4D101F00A
:100270001DFC814601F01AFC804601F017FC074680
:1002800001F014FC064601F011FC044600F026F8CB
:1002900001224021504600F072FB09EB080038446F
:1002A0003044C1B2A14206D185F8009085F80180A2
:1002B000AF70EE702C71BDE8F087000000100140B7
:1002C0001FB50020019002900390402000906946E5
:1002D000014800F04BFA1FBD001001401FB500207F
:1002E0000290402000900120019003200390694675
:1002F000014800F03BFA1FBD00100140014800F02A
:10030000C1B800003C010020704772B6FEE710B58E
:1003100090F821100022022905D00421816380F881
:100320002020012010BD01680B6823F00E030B6034
:1003300001680B6823F001030B6090F84030C46B38
:10034000012101FA03F3636080F8211080F8202076
:10035000104610BD2DE9F05F90F82110002402290D
:1003600003D004218163012485E001680A6822F03A
:100370000E020A6001680A6822F001020A603F4E1C
:100380003E4FB215DFF8F4C0DFF8F090DFF8ECA0D4
:10039000DFF8E8B0DFF8E4E00168783F1301150208
:1003A000ACF1640CA9F15009AAF13C0AABF1280B9D
:1003B000AEF1140E4FF48018B14227D9B9420ED0D5
:1003C000614512D049451DD0514518D0594518D026
:1003D000714501D1424615E0294EB14201D10122B9
:1003E00010E0274E1436B14201D110220AE0244E0B
:1003F0002836B14206D0224A3C32914201D11A46F7
:1004000000E02A461E49091F0A602BE0B94213D0BA
:10041000614517D0494522D051451DD059451DD0C1
:10042000714501D142461AE0B14202D14FF08072CB
:1004300015E0134EB14201D1012210E0104E1436E6
:10044000B14201D110220AE00D4E2836B14206D049
:100450000B4A3C32914201D11A4600E02A46074934
:1004600080394A60012180F82110002180F8201095
:10047000416B01B188472046BDE8F09F80000240F3
:10048000080402402DE9F05FC16B0A6801680B683F
:10049000046C4FF0040808FA04F8844D844E854F2C
:1004A000DFF814C2DFF81492DFF814A2DFF814B2F8
:1004B000DFF814E218EA020F65D05FEA437862D5EC
:1004C0000A68920603D40A6822F004020A60DFF880
:1004D000F0814FF48062016808F1140813011402DE
:1004E000414524D9A9420DD0B1420FD0B9421AD00A
:1004F000614515D0494515D0514501D1120312E08F
:10050000594501D104220EE0714501D140220AE093
:100510006D4D1435A94206D06B4A2832914201D163
:100520001A4600E022466749091F0A6029E0A942ED
:1005300013D0B14215D0B94220D061451BD04945F6
:100540001BD0514502D14FF4800217E0414502D142
:100550004FF0806212E0594501D104220EE071454E
:1005600001D140220AE0584D1435A94206D0564A1E
:100570002832914201D11A4600E022464B490839FF
:100580004A60C16A71E04FF0020808FA04F818EAFC
:10059000020F70D05FEA83786DD50A68920606D4A0
:1005A0000A6822F00A020A60012180F82110DFF8AF
:1005B00010814FF40072016808F11408130114024D
:1005C000414524D9A9420DD0B1420FD0B9421AD029
:1005D000614515D0494515D0514501D1120312E0AE
:1005E000594501D102220EE0714501D120220AE0D5
:1005F000354D1435A94206D0334A2832914201D1F3
:100600001A4600E022462F49091F0A6029E0A94244
:1006100013D0B14215D0B94220D061451BD0494515
:100620001BD0514502D14FF4001217E0414502D1D1
:100630004FF0007212E0594501D102220EE07145DF
:1006400001D120220AE0204D1435A94206D01E4ACD
:100650002832914201D11A4600E022461349083956
:100660004A60002180F82010816A00291CD0BDE872
:10067000F05F0847FFE70825A540154214D01A0788
:1006800012D50A6822F00E020A6090F84020C36B6F
:10069000012101FA02F25A60816380F821100021E1
:1006A00080F82010016BE0E7BDE8F09F08000240F1
:1006B0001C0002403000024044000240580002404A
:1006C0006C000240080402401C04024030B560B1D6
:1006D0001A4B026814219A4209D2194B1344B3FBF6
:1006E000F1F18900016417490AE0012030BD134B84
:1006F0005B421344B3FBF1F1890001640F490839EF
:10070000C163022180F82110136843F6F0718B4316
:10071000F0E901142143D0E902452C432143046947
:100720002143446921438469214319431160002115
:100730004163012242770177084630BD0804024038
:10074000F8FFFDBF0000024070B5044600F01CF940
:100750000546601C02D004480078044400F014F9F7
:10076000401BA042FAD370BD080000202DE9F84FCD
:10077000DFF8C8910024A9F1040B23460F2709F1E3
:10078000040AABF1040ED1E00125A54006EA0502FA
:10079000AA4276D1DFF8A8C14E68A6EB0C086645E0
:1007A0002BD00DDC032E34D005DC36B3012E19D04E
:1007B000022E2FD11BE0112E16D0122E2AD119E0B5
:1007C000B8F5881F19D006DCB8F5803F15D0B8F50C
:1007D000801F1FD111E0B8F5001F0ED0B8F5041F1F
:1007E00018D10AE0CB6815E0CB681B1D12E0CB687E
:1007F00008330FE0CB680C330CE08B682BB1012B76
:100800004FF0080303D0456104E0042302E00561D2
:1008100000E00023FF2A01D8064601E000F10406AB
:100820004FEA840501D9A5F12005D6F8008007FA22
:1008300005FC28EA0C0803FA05F548EA0508C6F89D
:1008400000804D68ED0070D53E4DAE6946F0010662
:10085000AE61AD6924F0030605F0010500953A4D3F
:1008600006EB050CDCF80850A607360F07FA06F869
:1008700025EA0805DFF8D480404503D14FF0000891
:1008800025E052E0DFF8C880404502D14FF0010872
:100890001DE0DFF8C080404502D14FF0020816E0AD
:1008A000DFF8B480404502D14FF003080FE0DFF8D5
:1008B000AC80404502D14FF0040808E0DFF8A0808A
:1008C000404502D14FF0050801E04FF0060808FA54
:1008D00006F848EA0508CCF808804D68D9F80060A9
:1008E000ED024D4601D5164300E096432E604D685B
:1008F000DAF80060AD02554601D5164300E0964394
:100900002E604D68DBF80060AD035D4601D51643EF
:1009100000E096432E604D68DEF80060ED037546FA
:1009200001D5164300E096432E60641C0A68164603
:10093000E2407FF429AFBDE8F88F000008040140D1
:1009400000001110001002400000014000080140AA
:10095000000C01400010014000140140001801404B
:10096000001C01408068084000D001207047C26828
:1009700021EA02030A4043EA0241016170470AB1D9
:10098000016170470904FBE7014880687047000077
:100990000800002002488168027811448160704795
:1009A00008000020074810B5016841F010010160FF
:1009B000032000F075F80F2000F006F800F024F88E
:1009C000002010BD0020024070B50D4D04464FF4CC
:1009D0007A712878B1FBF0F00A490968B1FBF0F0B0
:1009E00000F0DCFA48B9102C07D200222146501E34
:1009F00000F036F800206C6070BD012070BD000072
:100A000008000020140000200C4808B5816941F05E
:100A100001018161816901F001010091C16941F029
:100A20008051C161C06900F0805000900448416865
:100A300021F0E06141F00071416008BD001002400A
:100A400000000140002809DB00F01F020121914055
:100A50004009800000F1E020C0F80011704700005C
:100A6000F0B40E4B1B680C46C3F30223C3F1070519
:100A7000042D00D90425191D072901D2002300E007
:100A8000DB1E012606FA05F1491E214099409E40D1
:100A9000761E16403143F0BC01F078BA0CED00E050
:100AA000064900F0070208684FF6FF03184040EAC5
:100AB0000220034A10430860704700000CED00E07C
:100AC0000000FA052DE9F0470F46050061D0434EBE
:100AD000306800F00700B84209D2306820F0070003
:100AE00038433060306800F00700B84251D12868C0
:100AF0003B4C810712D5400703D5606840F4E060A5
:100B000060602878000703D5606840F4605060603A
:100B10006068A96820F0F000084360602878C0078A
:100B200028D06868012810D02168022810D08907D1
:100B300000292EDA616821F0030101436160FFF7AB
:100B400023FF804641F288390DE021688903EFE7F1
:100B50008901EDE7FFF718FFA0EB0801494502D92D
:100B60000320BDE8F0876068696800F00C00B0EB16
:100B7000810FEFD1306800F00700B8420BD9306820
:100B800020F0070038433060306800F00700B842BA
:100B900001D00120E5E72878400705D56068E968BD
:100BA00020F4E060084360602878000706D560689C
:100BB000296920F4605040EAC100606000F038F814
:100BC0006168084AC1F30311515CC84006490860D6
:100BD00006480068FFF7F8FE0020C2E70020024048
:100BE0000010024012220008140000200C00002017
:100BF0000448054900684968044AC1F30221515C70
:100C0000C840704714000020001002402222000853
:100C10000448054900684968044AC1F3C221515C8F
:100C2000C840704714000020001002402222000833
:100C30000E4A51680E4801F00C03042B11D0082B0A
:100C40000FD10C48C1F38343C903C05C0AD5516876
:100C5000084AC1F34041921E515C054A5043B0FB23
:100C6000F1F070470449484370470000001002400B
:100C700000127A000222000800093D002DE9F84F19
:100C8000040070D02078C04DC00749D06868C0F318
:100C90008100012807D06868C0F38100022809D1CB
:100CA0006868C00306D52868800339D560680028C5
:100CB000E7D035E06068B0F5803F0BD010B1B0F5FB
:100CC000A02F11D0286820F480302860286820F4F4
:100CD000802002E0286840F480302860606890B18D
:100CE000FFF752FE06460AE0286840F4802028609C
:100CF000F0E700BFFFF748FE801B642873D8286820
:100D00008003F7D50CE0FFF73FFE064605E000BF85
:100D1000FFF73AFE801B6428F0D828688003F7D4D8
:100D200020789A4E80074FF001094FF0000839D51E
:100D3000686810F00C0F07D06868C0F381000228C3
:100D400009D16868C00306D42868800714D52069D3
:100D5000012808D110E02069B0B1C6F80090FFF773
:100D600013FE074605E00AE1FFF70EFEC01B02284E
:100D7000C4D828688007F7D52868616920F0F80092
:100D800040EAC10028600DE0C6F80080FFF7FCFDD6
:100D9000074604E0FFF7F8FDC01B022823D82868A7
:100DA0008007F7D4207800072CD57948A169D9B1FC
:100DB000C0F80090FFF7E8FD074604E0FFF7E4FD08
:100DC000C01B02280FD8686A8007F7D571484FF416
:100DD000FA510068B0FBF1F0009000BF0098411E8E
:100DE0000091FAD20EE080E0C0F80080FFF7CCFD61
:100DF000074604E0FFF7C8FDC01B022875D8686AE3
:100E00008007F7D42078400760D5E8690027C00044
:100E100008D4E86940F08050E861E869012700F0F3
:100E2000805000905C480168C90513D4016883466E
:100E300041F480710160FFF7A7FD824606E000BF24
:100E4000FFF7A2FDA0EB0A0064284ED8DBF80000F3
:100E5000C005F5D5E06801280AD008B1052813D0EF
:100E6000286A20F001002862286A20F0040002E0CD
:100E7000286A40F001002862E06841F2883B98B19E
:100E8000FFF782FD82460BE0286A40F004002862EA
:100E9000EEE700BFFFF778FDA0EB0A0159455AD8ED
:100EA000286A8007F6D50CE0FFF76EFD824605E064
:100EB000FFF76AFDA0EB0A0159454CD8286A800764
:100EC000F6D41FB1E86920F08050E861E06988B38A
:100ED0006968C1F38101022944D00228C6F8608004
:100EE00004D0FFF751FD044638E034E0FFF74CFD35
:100EF000074604E0FFF748FDC01B02282BD82868EE
:100F00008001F7D4206AB0F5803F05D16868A168F8
:100F100020F4003008436860D4E908010843696898
:100F200021F4741108436860C6F86090FFF72CFD47
:100F3000044606E025E000BFFFF726FD001B02285F
:100F400009D828688001F7D51BE000BFFFF71CFD1A
:100F5000001B022802D90320BDE8F88F2868800111
:100F6000F4D40EE00128F7D06868226A00F48031DA
:100F7000914204D1616A00F47010884201D00120CE
:100F8000EAE70020E8E700000010024000004242CB
:100F900080044242140000200070004010B5401E42
:100FA000B0F1807F01D3012010BD4FF0E0246061DB
:100FB0000F21601700F0EAFF0020A06107202061E8
:100FC000002010BD70B590F83C20012A2CD00124DF
:100FD00080F83C40022280F83D2003685A689D68F2
:100FE00022F070060A6832435A60104B02689A4237
:100FF0000ED00F4B9A420BD0B2F1804F08D00D4B60
:101000009A4205D00C4B9A4202D00C4B9A4204D122
:10101000496825F080031943916080F83D40002124
:1010200080F83C10084670BD022070BD002C0140C5
:10103000003401400004004000080040000C004063
:1010400010B5040003D094F83D0010B107E0012072
:1010500010BD002084F83C00204600F01FF802205C
:1010600084F83D00211D206800F082FD012084F8F5
:10107000460084F83E0084F83F0084F8400084F87D
:10108000410084F8420084F8430084F8440084F866
:10109000450084F83D00002010BD000000B585B07B
:1010A00000210091019102910391144A01681448B2
:1010B000914217D1C16941F00401C161C16901F0D8
:1010C00004010491816941F00801816180696946E8
:1010D00000F008000490802000900A48FFF746FBCB
:1010E00005B000BD084A9142FAD1C16941F0200122
:1010F000C161C06900F020000490F1E700080040E1
:1011000000100240000C01400014004090F83D1017
:10111000012901D001207047022180F83D100068AC
:101120000E4988420ED00E4988420BD0B0F1804F54
:1011300008D00C49884205D00B49884202D00B499F
:10114000884204D1816801F00701062903D00168B3
:1011500041F001010160002070470000002C0140B7
:10116000003401400004004000080040000C004032
:1011700001680A6A41F211131A4207D10A6A9B10E8
:101180001A4203D10A6822F001020A60012180F8A4
:101190003D100020704770B5044690F83C000025D3
:1011A000012817D0012684F83C60022084F83D0015
:1011B0002068826822F0770222F47F428260086809
:1011C000502838D00DDC20284FD005DC90B31028F3
:1011D00011D14AE0022070BD302846D040280AD103
:1011E0003BE060282FD070280DD0B0F5805F03D091
:1011F000B0F5005F12D0012584F83D60002084F82E
:101200003C00284670BDCB68D1E90121206800F080
:10121000F5FC2068816841F0770109E0CB68D1E9ED
:101220000121206800F0EAFC2068816841F48041D7
:101230008160E1E719E0CA684968206800F0F0FCC5
:101240005021206806E0CA684968206800F030FD37
:101250006021206800F0DCFCCEE7CA68496820689D
:1012600000F0DEFC40212068F4E7226801461046C9
:10127000F0E72DE9F041054690F83C0000260C46C9
:10128000012810D0012085F83C0072B1042A1CD03E
:10129000082A2CD00C2A50D00126002085F83C00CA
:1012A0003046BDE8F0810220FBE7D4E90012E36894
:1012B000286800F0C7FC2868816921F00C01816171
:1012C00028688169A26811430FE0D4E90012E3683D
:1012D000286800F0FFFC2868816921F44061816181
:1012E00028688169A26841EA02218161D5E72868FE
:1012F000D4E9002C277B036A016A21F48071016222
:10130000C16923F4007321F0030141EA0C0121F0CB
:10131000F00C39074FF400774CEA116107EA02221A
:101320001A43C16102622868C16921F00C01C161E0
:101330002868C169A26811432BE02868D4E900211C
:10134000E768036AD0F820C02CF4805CC0F820C0A5
:10135000D0F81CC023F400532CF4407C4CEA01214B
:1013600021F4704C4FF6FF7101EA07314FF400573A
:1013700041EA0C0107EA02321A43C161026228689D
:10138000C16921F44061C1612868C169A26841EA6C
:101390000221C16181E710B5040003D094F83D003B
:1013A00010B107E0012010BD002084F83C00204669
:1013B00000F01EF8022084F83D00211D206800F096
:1013C000D7FB012084F8460084F83E0084F83F00F3
:1013D00084F8400084F8410084F8420084F8430017
:1013E00084F8440084F8450084F83D00002010BDD6
:1013F0007047704770470000F8B5016804460868F8
:10140000CA684B6910F00F0F4FF000055AD003F077
:10141000010602F49077374365D0C10705D0D105A6
:1014200003D5616C41F001016164410705D5D9071D
:1014300003D0616C41F002016164810705D5D907D1
:1014400003D0616C41F004016164010707D502F02B
:101450002001314303D0616C41F008016164616C8B
:1014600000293BD0800604D5900602D5204600F026
:101470007BFC20684069616CC0F3801001F00801BA
:10148000014320462BD000F048FC2068406940060C
:1014900021D52068143050E8001F21F0400140E8B9
:1014A0000012002AF5D1E06BA8B16D494163E06BF1
:1014B000FEF750FF002811D0E06B416B01B0BDE892
:1014C000F040084783060ED593060CD52046BDE8AC
:1014D000F84000F049BC2046FFF78CFFF8BDFFF74D
:1014E00089FF6564F8BD266B2023012E7CD1C606DA
:1014F0007AD5D60678D508684868009048694FF0D4
:101500000206400640D5E16B086840680004000C04
:10151000E8D0A28D8242E5D9E085886920282DD0C7
:1015200020680C3050E8001F21F4807140E8001260
:10153000002AF5D12168143151E8000F20F0010094
:1015400041E80002002AF5D12068143050E8001F5D
:1015500021F0400140E80012002AF5D184F8423021
:10156000256320680C3050E8001F21F0100140E88E
:101570000012002AF5D1E06BFEF7C9FE6663A08D6C
:10158000E18D401A81B22AE0A08DE18D401A81B22E
:10159000E08D0028A6D00029A4D022680C3252E8A1
:1015A000000F20F4907042E80007002FF5D120686A
:1015B000143050E8002F22F0010240E80027002FED
:1015C000F5D184F84230256320680C3050E8002FB4
:1015D00022F0100240E80023002BF5D1666320467C
:1015E000FFF707FFF8BDFFE705062BD5150629D540
:1015F00094F841002128F5D1A068B0F5805F01D1B1
:101600002069B0B1206A411C2162216800784860DD
:10161000E08C401E0004000CE084E3D12068C16827
:1016200021F08001C1602068C16841F04001C160C3
:10163000D8E7206A0088C0F308004860206A801C50
:101640002062E5E74006CDD55006CBD5CA682046D6
:1016500022F04002CA6084F8413000F001F9C1E78D
:101660000B1D000870B5040004D094F8410000255B
:1016700010B106E0012070BD84F84050204600F013
:1016800023F8242084F841002068C16821F4005127
:10169000C160204600F0CAFB2068016921F4904136
:1016A00001612068416921F02A0141612068C16817
:1016B00041F40051C1606564202084F8410084F841
:1016C00042006563002070BDF0B585B00024009431
:1016D0000194029403940646344F0368344902226D
:1016E0000320344DBB4221D18B6943F480438B618D
:1016F0008B6903F4804304938B6943F004038B618B
:101700008969039001F0040104911102CDE90012EE
:1017100069462846FFF72AF82815CDE900046946EE
:1017200028460294FFF722F805B0F0BD224FBB42D5
:10173000FAD1CB6943F40033CB61CB6903F40033B6
:1017400004938B6943F004038B618969039001F072
:10175000040104910421CDE9001269462846FFF7EF
:1017600005F80820CDE90004694628460294FEF7F2
:10177000FDFF134D1148C5E900048020C5E9024072
:101780002C616C61AC612846EC61FEF79FFF08B1EB
:10179000FEF7BBFDF5630022114626206E62FFF7BF
:1017A0005FF92620FFF74EF9BEE700000038014040
:1017B0000010024000080140004400406C0002405C
:1017C0003C01002070472DE9F843044690F84100A1
:1017D0001F4616460D46202802D00220BDE8F88399
:1017E0007DB176B100206064212084F84100FFF7CC
:1017F000CBF8A6848046E684A068B0F5805F02D06E
:1018000003E00120EAE7206910B12E4600250EE032
:1018100000260CE08021204600F064FBA0B9AEB1A8
:1018200016F8010B21684860E08C401EE084E08CD3
:1018300043464FF0000200970028EBD14FF04001E3
:10184000204600F04FFB30B10320C7E735F8020B0C
:10185000C0F30800E6E7202084F841000020BDE73F
:101860007047FEE7094808B5416941F0010141614F
:101870004069002200F00100009011461020FFF79F
:10188000EFF8BDE808401020FFF7DCB80010024078
:101890002DE9F04385B00020009001900290039064
:1018A0002A48816941F020018161816901F02001AC
:1018B0000491816941F004018161816901F00401B1
:1018C0000491816941F010018161816901F0100189
:1018D0000491816941F00801816180691C4F00F029
:1018E00008000490002240213846FFF748F8012202
:1018F000DFF86080160231464046FFF740F8DFF817
:101900005890012204214846FFF739F8012440206D
:10191000CDE90004032569463846CDE90245FEF7C6
:1019200025FFCDE9006469464046CDE90245FEF752
:101930001DFF0420CDE9000469464846CDE9024573
:10194000FEF714FF05B0BDE8F08300000010024070
:1019500000100140000801400014014010B58AB099
:10196000002422480494059406940794089409944A
:101970000094019402941C49039401604721C0E93A
:1019800001144CF24F31C0E903148461FFF758FB96
:1019900008B1FEF7BAFC4FF48050049004A9134834
:1019A000FFF7F9FB08B1FEF7B0FC1048FFF7F3FCB6
:1019B00008B1FEF7AAFC089408A90C480994FFF79F
:1019C00001FB08B1FEF7A1FC0120CDE90040029423
:1019D0000422694605480394FFF74BFC002801D018
:1019E000FEF793FC0AB010BD000800401C00002068
:1019F0001CB500240E4800940C4901940160472155
:101A0000C0E901144FF6FF718461C160FFF718FB54
:101A100008B1FEF77AFC0094694605480194FFF787
:101A2000D1FA002801D0FEF770FC1CBD0014004064
:101A3000640000200C4810B50A4901604FF4E13100
:101A40004160002181600C22C160C0E90412816103
:101A5000C161FFF707FE002803D0BDE81040FEF784
:101A600054BC10BD00380140AC0000200C4810B53B
:101A70000A4901604FF4E1314160002181600C228C
:101A8000C160C0E904128161C161FFF7EBFD00286C
:101A900003D0BDE81040FEF738BC10BD0044004044
:101AA000F4000020FEE7FEE7704700002DE9F0415A
:101AB000144F00250226FEF703FC40213846FEF7AE
:101AC00051FF20B9300000F10106F6B2F5D11E2019
:101AD00000F026FB002640213846FEF743FF012890
:101AE00000D10126600646EA106440213846FEF720
:101AF00039FF0128F9D06D1CEDB2082DDAD320464C
:101B0000BDE8F081001001407047FEF743BF30B5DB
:101B10008FB028216846FEF72EFB14210AA8FEF795
:101B20002AFB01210804CDE90010002402940225BB
:101B30000491CDE907504FF4E01009906846FFF793
:101B40009DF808B172B6FEE70F20CDE90A054FF403
:101B50008060CDE90C4002210AA80E94FEF7B2FF86
:101B6000002801D072B6FEE70FB030BD704700000C
:101B7000F0B502681C4B1D4D1D4E1E4F1E4C4FF004
:101B8000804C984209D0A04207D0604505D0A842B9
:101B900003D0B04201D0B84204D122F0700E4A689E
:101BA00042EA0E02984209D0A04207D0604505D013
:101BB000A84203D0B04201D0B84203D122F440750C
:101BC000CA682A434D6922F080022A4302608A686B
:101BD000C2620A688262984201D0A04201D10969BA
:101BE000016301214161F0BD002C0140000400406F
:101BF00000080040000C00400034014010B584682B
:101C000042EA032224F47F440A432243826010BD47
:101C1000826822F070020A4342F007018160704737
:101C200010B5036A046A24F001040462846924F094
:101C3000F00444EA021423F00A020A4384610262B7
:101C400010BD000070B5056A046A24F00104046246
:101C50008469124EB0420ED0114EB0420BD0B0F19A
:101C6000804F08D00F4EB04205D00F4EB04202D088
:101C70000E4EB04203D124F00304144301E044F0BB
:101C800001041A0724F0F00444EA126225F00A0362
:101C900001F00A0119438261016270BD002C01400C
:101CA000003401400004004000080040000C0040E7
:101CB00010B5036A046A24F010040462846923F0F6
:101CC000A00324F4704444EA023243EA0111826121
:101CD000016210BD30B5046A056A25F01005056281
:101CE000856925F4407545EA022222F470454FF6D5
:101CF000FF7202EA033224F0A0032A43A02404EA7C
:101D0000011119438261016230BD10B5406A0021A2
:101D1000C185C184FFF76EFB10BD01680C3151E82D
:101D2000002F22F4907241E80023002BF5D10168C6
:101D3000143151E8002F22F0010241E80023002B6A
:101D4000F5D1016B012909D101680C3151E8002F4F
:101D500022F0100241E80023002BF5D1202180F869
:101D6000421000210163704708B590F84210222903
:101D700001D0022008BD82684FF480539A4201D1FD
:101D8000016921B1816A9A421BD04AB10AE0026816
:101D9000816A5268C2F308020A80816A891C08E0DD
:101DA000026972B10268526802F07F020A70816AA9
:101DB000491C8162C18D491E0904090CC18503D0EB
:101DC0001BE002685268F1E70168CA6822F020024D
:101DD000CA600168CA6822F48072CA6001684A69F0
:101DE00022F001024A61202180F842100021416363
:101DF000026B012A03D0FFF7E5FC002008BD016358
:101E000001680C3151E8002F22F0100241E8002354
:101E1000002BF5D101680A68D20602D50A68496824
:101E20000091818DFFF7E5FAE7E7000070B5044601
:101E300000680169E26821F44051114301612169A0
:101E4000A0680843616908432168CA6841F20C63CD
:101E50009A430243CA6020684169A26921F4407133
:101E6000114341611E492068884202D1FEF7D0FE2D
:101E700001E0FEF7BDFE00EBC00101EB001260685F
:101E800064218000B2FBF0F3B3FBF1F36FF01806AE
:101E90007343B2FBF0F5B2FBF0F605EB830532239A
:101EA00003EB0515B5FBF1F5B6FBF1F605F0F00512
:101EB00005EB0615B2FBF0F6B2FBF0F0B0FBF1F06B
:101EC0006FF01802504306EB800003EB0010B0FBEC
:101ED000F1F0216800F00F002844886070BD000018
:101EE000003801402DE9F041984617460E46044659
:101EF000069D27E0681C25D02DB1FEF745FDA0EB1F
:101F00000800A8421ED920680C3050E8001F21F4B8
:101F1000D07140E80012002AF5D12068143050E852
:101F2000001F21F0010140E80012002AF5D1202015
:101F300084F8410084F84200002084F84000032027
:101F4000BDE8F0812068006836EA000004D0002077
:101F5000B842CFD00020F3E70120F9E70148FFF7AE
:101F60004BBA0000F4000020FEE700000FB4054B60
:101F700010B503A9044A029800F028F810BC5DF8D7
:101F800014FB000051210008180000200907090E69
:101F9000002804DB00F1E02080F80014704700F016
:101FA0000F0000F1E02080F8141D704702E008C81F
:101FB000121F08C1002AFAD170477047002001E0C3
:101FC00001C1121F002AFBD1704700002DE9FF4F0D
:101FD00089B09B460446002506E025280BD05A46CA
:101FE0000B999047641C6D1C20780028F5D10DB02A
:101FF0002846BDE8F08F0027B8460122474900E097
:10200000074314F8013F203B02FA03F00842F7D1DE
:1020100020782E2819D114F8010F47F004072A2838
:102020000ED06FF02F022078A0F1300109290CD8D2
:1020300008EB880102EB410100EB0108641CF2E7A8
:102040000A98641C50F8048B0A9020780028CED09F
:10205000642808D0692806D075281ED05A460B99E6
:1020600090476D1C58E00A994FF00A0901C90A917E
:10207000002802DA40422D2102E0390504D52B2147
:102080008DF82010012103E0F90704D02021F7E7A3
:102090008A4608AE0DE00021FAE70A994FF00A09D6
:1020A00001C90A91F7E74946FEF770F8303106F8A2
:1020B000011D0028F7D1ADEB060000F120097807DB
:1020C00001D44FF00108C84502DDA8EB090000E08B
:1020D00000208046002706E008A85A46C05D0B99FC
:1020E00090476D1C7F1C5745F6DB04E030205A46B4
:1020F0000B9990476D1CB8F10001A8F10108F5DCBF
:1021000005E016F8010B5A460B9990476D1CB9F182
:102110000001A9F10109F4DC641C65E7092801004C
:1021200070B54CF25035281A84B20848FEF7EEFF1D
:10213000064801684C62006801E0416A8CB2AC421A
:10214000FBD3BDE870400148FFF712B864000020DF
:1021500013B540F6FF73012269460248FFF733FBCF
:1021600000981CBDAC00002008B5FEF71BFCFFF773
:10217000CEFCFFF78DFBFFF775FBFFF75BFCFFF76E
:1021800075FCFFF7EBFBFFF733FC0DA0FFF7EEFE4E
:102190000F4C104E4FF4FA650D48FEF721F8E07829
:1021A0000090A378627821780BA0FFF7DFFE284625
:1021B000FEF7CAFA04213046FEF7D9FBECE700002F
:1021C00044485431312054657374696E670D0A00B8
:1021D000000000200014014068756D69646974791D
:1021E000203D2025642E25642C74656D7065726118
:1021F00074757265203D2025642E25640D0A00004B
:10220000010202030405060708090A0B0C0D0E0F54
:102210001010000000000000000001020304060787
:102220000809000000000102030400004C2200081D
:10223000000000201C000000AC1F000868220008FD
:102240001C00002064050000BC1F00080000000006
:10225000000000000100000010000000000000006D
:082260000024F400000000005E
:0400000508000131BD
:00000001FF
